:020000040800F2
:10000000D0590020A502000849620008A54B00084D
:100010000D620008BF0A0008A57200080000000079
:10002000000000000000000000000000E1010008E6
:100030008F110008000000003D0200080165000863
:10004000BF020008BF020008BF020008BF0200088C
:10005000BF020008BF020008BF020008BF0200087C
:10006000BF020008BF020008BF020008BF0200086C
:10007000BF020008BF020008BF020008BF0200085C
:10008000B5100008BF020008BF020008BF02000848
:10009000BF020008BF020008BF020008BF0200083C
:1000A000BF0200086D660008BF020008BF0200081A
:1000B000BF02000879660008BF020008B54B0008BF
:1000C000A94B0008BF020008BF020008BF020008D9
:1000D000BF0200083172000845720008BF02000824
:1000E000BF020008BF020008BF020008BF020008EC
:1000F000BF020008BF020008BF020008BF020008DC
:10010000BF020008BF02000885660008BF020008A1
:10011000BF020008BF02000891660008A56600083B
:10012000BF020008BF020008BF020008BF020008AB
:10013000BF020008BF020008BF020008BF0200089B
:10014000BF020008BF020008BF020008BF0200088B
:10015000BF020008BF020008BF020008BF0200087B
:10016000BF020008BF020008BF020008BF0200086B
:10017000BF020008BF020008BF020008BF0200085B
:10018000BF020008BF020008BF020008BF0200084B
:10019000BF020008BF020008BF020008BF0200083B
:1001A000BF020008BF020008BF020008BF0200082B
:1001B000BF020008BF020008BF020008BF0200081B
:1001C000BF020008BF020008DFF810D000F03AFCC0
:1001D0000048004701A90008AFF30080D059002073
:1001E0002D4B19680868B0E8F04F80F30988BFF319
:1001F0006F8F4FF0000080F31188704700000000FF
:1002000008480068006880F308884FF0000080F319
:10021000148862B661B6BFF34F8FBFF36F8F00DFF4
:1002200000BF00BF08ED00E0DFF80C00016841F4FA
:1002300070010160704700BF88ED00E0EFF30980B6
:10024000BFF36F8F144B1A681EF0100F08BF20ED1C
:10025000108A20E9F04F106009B44FF0500072B6D8
:1002600080F31188BFF34F8FBFF36F8F62B60CF02E
:10027000F7FC4FF0000080F3118809BC196808688A
:10028000B0E8F04F1EF0100F08BFB0EC108A80F3FA
:100290000988BFF36F8F7047EC020020EFF30580F1
:1002A000704700000648804706480047FEE7FEE723
:1002B000FEE7FEE7FEE7FEE7FEE7FEE7FEE7FEE716
:1002C000F9650008C90100082DE9F05F0546002026
:1002D00092469B4688460646814640241BE02846B7
:1002E00041464746224600F08EFA53465A46C01A07
:1002F000914110D311461846224600F075FA2D1A86
:1003000067EB01084F4622460120002100F06CFAFD
:1003100017EB00094E41201EA4F10104DFDC484622
:1003200031462A464346BDE8F09F40EA01039B0759
:1003300003D009E008C9121F08C0042AFAD203E05A
:1003400011F8013B00F8013B521EF9D27047D2B2BE
:1003500001E000F8012B491EFBD270470022F6E7AE
:1003600010B513460A4604461946FFF7F0FF20462B
:1003700010BD2DE9FE4F804681EA0300C00F0C46F8
:10038000009021F0004123F00045B8EB0200A941A4
:1003900005D24046214690461C460B46024623F0B5
:1003A0000040104347D0270DC7F30A00C3F30A519A
:1003B0000290401A019040286BDAC3F3130040F416
:1003C000801B0098924620B10023D2EB030A63EB16
:1003D0000B0B01985946C0F14002504600F004FA58
:1003E00006460D4650465946019A00F01CFA10EB9D
:1003F00008006141002487EA115284EAE7731A4336
:1004000040D0009A62B3019A012A4FEA075215DCE4
:10041000001B61EB02014FF0004202EA0752CDE9F6
:100420000042001C41F5801132462B4600F053FA81
:1004300003B0BDE8F08F40462146F9E7001B61EBB1
:100440000201001C41F5801300185B412018A2F541
:10045000001747EB030140EAD570B6196D4111E072
:100460006D084FEA360645EAC0754FEA0752001B91
:1004700061EB0201001C41F5801149084FEA300090
:100480000019514132462B4603B0BDE8F04F00F051
:1004900013BA0098012240000023D0EB020263EB64
:1004A000E073009821464FEAE074B8EB000061EB7E
:1004B0000401E9E783F000435BE781F0004158E77E
:1004C0002DE9FE4F81EA030404F0004421F00041CD
:1004D00000944FF0000B23F0004350EA01045ED07B
:1004E00052EA03045BD0C3F30A54C1F30A552C4407
:1004F000A4F2F3340194A0FB0254C1F3130141F4BC
:100500008011C3F3130343F4801301FB024400FB87
:10051000034E840A970A44EA815447EA8357A4FBAE
:10052000076802958D0A05FB07854FEA932C04FBAB
:100530000C542705029D4FEA065847EA1637B5EBDB
:1005400008056EEB070C870E920E47EA811742EA08
:100550008312A7FB0201B6EB0B0164EB00042B0D29
:1005600043EA0C335E1844EB1C50DA465146E7FB75
:100570000201C5F313044FEA0B3343EA14534FEA65
:100580000432019C43EA0603A4F10C040294009C8B
:10059000CDE900B400F09FF903B0BDE8F08F002072
:1005A0000146F9E72DE9F04D81EA030404F0004B20
:1005B00021F0004514464FF0000A23F0004150EAB4
:1005C000050220D054EA01021DD0C5F30A570246A5
:1005D000C5F31303C1F31300C1F30A5640F48015A9
:1005E00043F48013A7EB0608101BD64608F2FD382B
:1005F00073EB050002D308F1010801E092185B419A
:10060000B8F1000F03DA00200146BDE8F08D0020AC
:100610004FF48011064684460EE0171B73EB050766
:1006200005D3121B63EB050306434CEA010C490892
:100630004FEA300092185B4150EA0107EDD152EACF
:10064000030012D082EA040083EA0501084305D0C2
:10065000101BAB4106D20122002306E000224FF01E
:10066000004302E06FF0010253101AEB06004CEB5E
:10067000085110EB0A0041EB0B01BDE8F04D00F012
:100680001BB90EB5C10F80EAE0700844CA0700210B
:1006900040F233438DE80E000A460B4600F01BF98A
:1006A00003B000BD0EB540F2334102910021CDE907
:1006B00000110A460B4600F00EF903B000BD70B5FC
:1006C000C1F30A5201F000450024C1F3130140F2C6
:1006D000FF3341F480119A4201DA002070BD40F2EC
:1006E00033439A42A2F2334203DC524200F08BF8C9
:1006F00000E090402C43F1D0404270BD00F0004239
:1007000030F000400AD0C10D01F56071C0F3160051
:1007100042EA0151C20840071143704700200146D8
:100720007047000030B5041E71F1000404DB4FF087
:100730000044404264EB0101141E73F1000405DB28
:100740001C464FF00043524263EB04038B4208BF48
:10075000824230BD30B5041E71F1000404DB4FF05D
:100760000044404264EB0101141E73F1000405DBF8
:100770001C464FF00043524263EB0403994208BF0A
:10078000904230BD01F0004330B421F0004150EA06
:10079000010206D00A0DA2F56072C1F31301002A0E
:1007A00002DC30BC00207047440F44EAC104C100A1
:1007B000E01830BC00EBC25000F047B830B50B4633
:1007C000014600202022012409E021FA02F59D4281
:1007D00005D303FA02F5491B04FA02F52844151E55
:1007E000A2F10102F1DC30BD202A04DB203A00FA3C
:1007F00002F1002070479140C2F1200320FA03F378
:10080000194390407047202A04DB203A21FA02F075
:100810000021704721FA02F3D040C2F1200291403A
:10082000084319467047202A06DBCB17203A41FAC5
:1008300002F043EAE07306E041FA02F3D040C2F16D
:10084000200291400843194670470029A8BF70470D
:10085000401C490008BF20F00100704710B4B0FAF6
:1008600080FC00FA0CF050EA010404BF10BC704791
:1008700049B1CCF1200421FA04F411FA0CF118BFAB
:10088000012121430843A3EB0C01CB1D4FEA00617A
:100890004FEA102042BF002010BC704700EBC3504D
:1008A00010440029A4BF10BC7047401C490008BF79
:1008B00020F0010010BC704710B5141E73F1000445
:1008C00008DA401C41F1000192185B411A4301D142
:1008D00020F0010010BD2DE9F04D92469B4611B16C
:1008E000B1FA81F202E0B0FA80F220329046FFF7CE
:1008F0007BFF04460F4640EA0A0041EA0B015346DB
:100900005A46084313D0114653EA010019D0C8F1E2
:1009100040025046FFF777FF05460E4650465946BF
:100920004246FFF761FF084305D0012004E020465E
:100930003946BDE8F08D0020054346EAE0762C43B9
:1009400037430A986305E40AA0EB08000022FD0A79
:1009500044EA47540A3002D500200146E9E7010580
:1009600010196941DDE9084500196941BDE8F04DFC
:10097000A2E72DE9F04D00231A461B1A8A4103DB3A
:1009800000200146BDE8F08DC1F30A52C1F3130106
:1009900041F480154FF0000BD10702D100186D41D2
:1009A000521E0027044640F2FF11384601EB620A4E
:1009B0003E468046024600204FF48011FFF723FF99
:1009C000C2197141BB1846EB0100B4EB030C75EB87
:1009D000000C04D3E41A65EB000517460E462419F3
:1009E00008F101006D4180463428E3DDF91946EB3A
:1009F0000600091BA84103D24FF0FF32134601E065
:100A0000002213461BEB070046EB0A51BDE8F04DF0
:100A1000FFF752BFC1F30A52C1F3130140F2FF3393
:100A200041F480119A4202DA00200146704740F2F8
:100A300033439A42A2F2334202DC5242FFF7E3BE52
:100A4000FFF7D2BE064C074D06E0E06840F0010318
:100A500094E8070098471034AC42F6D3FFF7B8FB90
:100A6000A4DD0008C4DD000870B58C1810F8015B27
:100A700015F0070301D110F8013B2A1106D110F837
:100A8000012B03E010F8016B01F8016B5B1EF9D13B
:100A90002B0705D40023521E0DD401F8013BFAE7C1
:100AA00010F8013BCB1A921C03E013F8015B01F82C
:100AB000015B521EF9D5A142D8D3002070BDFEE7DC
:100AC00080ED020AD1ED030AD1ED041A90ED011A6E
:100AD00060EE800A90ED002AD0ED032A41EE810AF3
:100AE000D1ED051A41EE820A91ED012AD0ED041AEA
:100AF00042EE610A91ED022A42EE620AC0ED050A59
:100B000080ED001A80ED010AC0ED031AC0ED040A61
:100B1000B0EE600A70470000F0B50024631C1BB201
:100B20009C4636E004EB440501EBC50505EB830666
:100B300005EB8405D6ED000A95ED001A80EE810ADA
:100B4000B5EEC00AF1EE10FA21D000EB830500EB00
:100B50008406D5ED000A96ED001A40EE410AC5ED77
:100B6000000A1D4611E005EB450601EBC60606EB43
:100B7000830706EB8406D7ED000A96ED001A40EED7
:100B8000410AC7ED000A6D1C2DB2062DEBDB5B1C84
:100B90001BB2062BC6DB6446062CBFDB0524B7EE72
:100BA000002A04EB440300EB840701EBC30C0CEBBD
:100BB0008403D7ED000A93ED000A80EE801A87EDDA
:100BC000001A83ED002A0023DFED140A11E00CEB7C
:100BD000830595ED000A00EB8306D7ED001A96ED2C
:100BE000001A00EE611A86ED001AC5ED000A5B1CC2
:100BF0001BB2A342EBDB641E24B2002CD1DA00212D
:100C000000EB810393ED000A02EB810383ED000A00
:100C1000491C09B20629F3DBF0BD0000000000000A
:100C200030B500239FED0B0A00EB830282ED000A32
:100C3000002203EB430401EBC40404EB820585EDC1
:100C4000000A521C12B2062AF7DB5B1C1BB2062BF1
:100C5000EADB30BD00000000F0B586B0B7EE001A48
:100C600000246D46F0EE001AB8EE002AE61C02EBF6
:100C70008607D7ED000A03EB840797ED000A02EB25
:100C80008407D7ED002A30EE620A60EEA02A62EEF9
:100C9000802A02EEC01A60EEA12A05EB840762EEFC
:100CA000A02A62EE802AC7ED002A60EE820A05EBD8
:100CB000860660EE800A20EE800A86ED000A641C3B
:100CC00024B2032CD2DB002300EB830205EB830468
:100CD000D2ED000A94ED000A40EE010AC2ED000ACE
:100CE000002203EB430401EBC40606EB820405EB90
:100CF0008207D4ED000AD7ED001A40EE210AC4EDB8
:100D0000000A521C12B2062AEFDB5B1C1BB2062B38
:100D1000DADB06B0F0BD00002DE9F04180460F4659
:100D200015462DED028BBAB000269FED828ADFEDCD
:100D3000828A0020379038903990182131A8FFF727
:100D40000DFB18212BA8FFF709FB182125A8FFF799
:100D500005FB902101A8FFF701FB9FED780A8DEDBF
:100D6000330A8DED320A8DED310A9FED750A8DED56
:100D7000360A8DED350A8DED340A6AE0761C36B2FE
:100D800001A925A8FFF74CFF002404EB440008EB61
:100D9000800393ED000A8DED370A93ED010A8DED86
:100DA000380A93ED020A8DED390A37AB31AA01A951
:100DB00025A8FFF751FF641C24B2062CE5DB2BAA03
:100DC00001A925A8FFF7A8FE9DED2E0A60EE000AF6
:100DD0009DED340A20EE000A80EE801A9DED2B0A6C
:100DE00020EE000A70EE000A9DED2C0A40EE000A8B
:100DF0009DED2D0A40EE000A9DED2F0A31EE201ADE
:100E000060EE000A9DED350A20EE000AC0EE801A61
:100E10009DED300A71EE210A20EE001A9DED360A92
:100E200020EE000AC1EE001A70EEA18A002331A95B
:100E30002BAA01EB830002EB830490ED000AD4EDB2
:100E4000000A30EE600A80ED000A5B1C1BB2062B24
:100E5000EFDB142E04DAF4EEC88AF1EE10FA8DDC22
:100E60009DED340ADFED370A20EE200A85ED000AF9
:100E70009DED351A21EE201A85ED011A9DED361AE9
:100E800061EE200AC5ED020ADDED310A20EE801A7E
:100E900087ED001A9DED320AD5ED010A60EE200AB9
:100EA000C7ED010A9DED330AD5ED021A20EE210AA5
:100EB00087ED020AD5ED001AB7EE002A4FF07C51FB
:100EC00071EEC21AF0EEE11A11EE900A884213DCBC
:100ED000D5ED011A71EEC21AF0EEE11A11EE900A88
:100EE000884209DCD5ED021A71EEC21AF0EEE11A61
:100EF00011EE900A884205DD00203AB0BDEC028B6D
:100F0000BDE8F081B0EEC11A11EE100A0E49884218
:100F10000BDCF0EEE00A10EE900A884205DCB0EE41
:100F2000C00A10EE100A884201DD0020E5E701202A
:100F3000E3E700005F7089300000C8420000000055
:100F40007FD6D03D0AE81C410000A04010B52DED31
:100F5000028B554C94ED0A0A9FED548A20EE080A44
:100F600010EE100AFFF7CAFB41EC100B06F01CFF55
:100F700051EC100BFFF706FC206394ED0A0A20EEFB
:100F8000080A10EE100AFFF7B9FB41EC100B06F04F
:100F9000F3FD51EC100BFFF7F5FBE06394ED0B0A4A
:100FA00020EE080A10EE100AFFF7A8FB41EC100B28
:100FB00006F0FAFE51EC100BFFF7E4FB606394EDD2
:100FC0000B0A20EE080A10EE100AFFF797FB41EC1F
:100FD000100B06F0D1FD51EC100BFFF7D3FB206492
:100FE00094ED090A20EE080A10EE100AFFF786FBBE
:100FF00041EC100B06F0D8FE51EC100BFFF7C2FBD2
:10100000A06394ED090A20EE080A10EE100AFFF71B
:1010100075FB41EC100B06F0AFFD51EC100BFFF728
:10102000B1FB00EE100A84ED110A94ED101A20486D
:1010300060EE010AC0ED000AD4ED0C1AD4ED0D2AC1
:1010400094ED0F2AD4ED0E0A61EEA23A23EE803A17
:1010500002EE603A80ED013A21EEA04A22EE223AF9
:1010600003EE004A80ED024A20EE814A80ED034AF9
:1010700063EEA03A42EE003AC0ED043A63EE200A75
:1010800041EEC00AC0ED050AB1EE620A80ED060A23
:1010900021EE810A80ED070A22EE010A80ED080A9E
:1010A000BDEC028B10BD00001C00002035FA8E3C08
:1010B000500E0020014800F019B90000900B0020EC
:1010C0000168CAB2103A1823B2FBF3F2064B9B5CDC
:1010D000C365032A6FF3090102D9091D816500E088
:1010E0008165806D7047000034D90008014610B555
:1010F00000208A6A4FF0C0748B69002B0ED0B3F5C4
:10110000005F1AD062B3012A2AD0022A28D0032A0B
:1011100003D1C96AC90100D5012010BD1AB1012A45
:1011200006D0022AF9D1C96AC901F6D5012010BD3D
:10113000C96AA142FBD1012010BD52B1012A0AD0D7
:10114000022A06D0032AF7D1C96AA142F4D10120AC
:1011500010BD012010BDC96AC901FBD5012010BD19
:10116000012010BD30B50468256825F48025256070
:10117000046863608368402B04D00368996000684A
:10118000C26030BD03689A600068C16030BD7047BE
:1011900072B6FEE708B51248016841F0100101601F
:1011A000006800F0100000900F480E4901606B21AC
:1011B00041600021816042F20F71C1608021816134
:1011C00001F054FF00220521362000F07DFE36207C
:1011D00000F06CFEBDE80840034801F0F7BF0000D6
:1011E00040380240001000407415002030B50178EE
:1011F0000E4A0F4B00290CD101210170546A596825
:1012000040F27125694304EB0111816041600021C6
:10121000C16081684160546A5A6840F271235A4340
:1012200004EB02128260511AC16030BD0010004010
:10123000E40000202DE9F0410446A76D00F0ECFA2F
:10124000054694F835000026022806D08020606507
:1012500084F834600120BDE8F0812068016821F045
:10126000160101602068416921F080014161206C14
:1012700008B9A06C20B12068016821F00801016064
:101280002068016821F0010101600BE000F0C4FA60
:10129000401B052806D92020343420622670032004
:1012A0006070D8E720680068C007EFD134343F2071
:1012B00094F828108840B8602670012060700020E3
:1012C000C9E790F83510022903D08021416501203B
:1012D0007047052180F835100068016821F0010190
:1012E00001600020704790F8350070472DE9F84301
:1012F00004464FF00009CDF800904FF416516E48A7
:101300000068B0FBF1F7A56D2E68082294F85C0028
:1013100002FA00F1314210D02068016849070CD56B
:10132000016821F00401016094F85C0002FA00F108
:10133000A960606D40F00100606594F85C104FF0AA
:10134000010808FA01F0304208D02168496909060D
:1013500004D5A860606D40F00200606594F85C10F0
:1013600004208840304208D021680968890704D5E4
:10137000A860606D40F00400606594F85C10102077
:101380008840304220D02168096809071CD5A86030
:101390002068016849030CD50068000304D4216C5F
:1013A00091B1204688470FE0A16C69B1204688477B
:1013B0000AE00168C90503D4016821F00801016051
:1013C000216C09B12046884794F85C1020208840A1
:1013D00030424CD021680968C90648D5A86094F805
:1013E000350005280BD020680168490330D5006816
:1013F000000328D4616C51B32046884737E0206849
:10140000016821F0160101602068416921F0800126
:101410004161206C08B9A06C20B12068016821F0FE
:101420000801016094F85C103F208840A86084F8AF
:10143000349084F83580216D00293BD001B02046DE
:10144000BDE8F0430847E16B09B1204688470EE04C
:101450000168C90507D4016821F01001016084F812
:10146000349084F83580E16B09B120468847606D7F
:1014700000281FD0606DC00714D0052084F8350007
:101480002068016821F0010101600098401C009073
:10149000B84203D820680068C007F6D184F83490B9
:1014A00084F83580E16C002904D001B02046BDE805
:1014B000F0430847BDE8F883E80200202DE9F04139
:1014C000044600F0A9F905465CB1002684F83460B2
:1014D000022084F835002068016821F001010160D4
:1014E0000DE00120BDE8F08100F096F9401B0528D1
:1014F00005D920206065032084F83500F2E72068D4
:101500000068C007F0D121680A6820480240D4E989
:1015100001031843D4E903352B4318436369184387
:10152000A3691843E3691843236A18431043626AA6
:10153000042A03D1D4E90B231A431043086020681E
:10154000406920F00700656A294605430127042900
:101550000DD1A06A0543E06A48B12046FFF7C6FDF9
:1015600028B14020606584F835700120BAE7206812
:1015700045612046FFF7A4FD94F85C203F2191408F
:101580008160666584F835700020ABE73F8010F01D
:101590002DE9F04104460025A66D94F83400012899
:1015A0000DD0012084F8340094F835700020012F0C
:1015B00007D084F8340002252846BDE8F0810220D7
:1015C000FBE7022784F8357060652046FFF7CAFD07
:1015D00094F85C103F208840B0602068016841F0BA
:1015E000160101602068416941F080014161206C71
:1015F00020B12068016841F008010160206801689D
:1016000041F001010160D7E770B5044600F004F92C
:101610000546601C02D004480078044400F0FCF841
:10162000401BA042FAD370BD4C0300202DE9F84FB7
:101630000022DFF894A14FF003084FF00F090AF1E0
:10164000040B012595400B682B40AB4272D14C68CE
:10165000012C05D0022C03D0112C01D0122C10D15A
:101660008668540008FA04F7BE43CF68A7403743A2
:1016700087604668AE430C79C4F300149440344349
:101680004460C468570008FA07F5AC438E68BE4052
:101690002643C6604C68022C01D0122C12D1D4080B
:1016A00000EB840CDCF820605407E40E09FA04FE19
:1016B00026EA0E06D1F810E00EFA04FE4EEA060EF7
:1016C000CCF820E00468AC430D7905F00305BD407B
:1016D000254305604C68E4006FD53C4C256845F413
:1016E00080452560246804F480440094384C22F03E
:1016F00003052E19D6F808789407250F09FA05F482
:10170000A743344CA04201D100242EE0324CA04229
:1017100001D1012429E0314CA04201D1022424E06E
:101720002F4CA04201D103241FE02E4CA04202D135
:1017300004241AE041E02C4CA04201D1052414E01D
:101740002A4CA04201D106240FE0294CA04201D12D
:1017500007240AE0274CA04201D1082405E0264CCA
:10176000A04201D1092400E00A24AC403C43C6F861
:101770000848DAF800409C434D68ED0300D51C434F
:10178000CAF80040DBF800409C434D68AD0300D52B
:101790001C43CBF800400C4D08352C689C434E6828
:1017A000F60200D51C432C60074D0C352C689C4379
:1017B0004E68B60200D51C432C60521C102AFFF460
:1017C00040AFBDE8F88F0000003C014044380240C3
:1017D00000300140000002400004024000080240C6
:1017E000000C0240001002400014024000180240A9
:1017F000001C024000200240002402400069084210
:1018000001D00120704700207047002A01D081617B
:101810007047090481617047014880687047000083
:101820004C0300201CB500200090022001900023F2
:10183000094801A96A4600680BF086FC01280AD114
:101840000098002807D005494FF080500860BFF38A
:101850004F8FBFF36F8F1CBD3C01002004ED00E0F3
:101860001CB500200090012001900023094801A927
:101870006A4600680BF068FC01280AD1009800282D
:1018800007D005494FF080500860BFF34F8FBFF37A
:101890006F8F1CBD3C01002004ED00E01CB5002052
:1018A0000090012001900023094801A96A460068C0
:1018B0000BF04AFC01280AD10098002807D00549FE
:1018C0004FF080500860BFF34F8FBFF36F8F1CBD88
:1018D0003C01002004ED00E01CB500200090012038
:1018E00001900023094801A96A4600680BF02CFC0E
:1018F00001280AD10098002807D005494FF08050F0
:101900000860BFF34F8FBFF36F8F1CBD3C010020F9
:1019100004ED00E01CB500200090012001900023A0
:10192000094801A96A4600680BF00EFC01280AD19B
:101930000098002807D005494FF080500860BFF399
:101940004F8FBFF36F8F1CBD3C01002004ED00E002
:1019500090F84120202A01D00220704790F84020C2
:10196000012A20D0012280F84020242280F8412042
:101970000268136823F0010313600268136823F4FC
:1019800080531360026813680B43136001680A6890
:1019900042F001020A60202180F84110002180F805
:1019A0004010002070470220704790F84120202A04
:1019B00001D00220704790F84020012A1ED0012259
:1019C00080F84020242280F841200268136823F028
:1019D000010313600268136823F4706343EA012172
:1019E000116001680A6842F001020A60202180F853
:1019F0004110002180F840100020704702207047FD
:101A00007047704730B4026893691168DB43DC05A6
:101A100009D4CC43240606D4446C44F00104446445
:101A20004FF48074D4615A050AD4CA43120607D40D
:101A3000426C42F00802426404684FF48062E26142
:101A40009A050AD4C943090607D4416C41F0020142
:101A5000416402684FF40071D161416C11F00B0FC9
:101A600002D030BC03F07CB930BC70470268916989
:101A70001268436B002B00D0184770477047000076
:101A800070B50446002C04D094F84100002510B134
:101A90001EE0012070BD84F840503448E0643448B2
:101AA0002065344860653448A0653448E0653448B2
:101AB0002066344860663448A0663448E06634489E
:101AC0002067606F08B9334860672046616F8847B8
:101AD000242084F841002068016821F001010160A0
:101AE0002168606820F0706008612068816821F4D6
:101AF00000418160E068012808D02168A06840F4B6
:101B000004408860E068022806D009E02168A068E7
:101B100040F400408860F5E721684FF400604860B9
:101B2000206841681C4A114341602068C16821F463
:101B30000041C160D4E904010843A16940EA0120E1
:101B40002168C860D4E9070108432168086020685B
:101B5000016841F0010101606564202084F84100C2
:101B6000256384F84250002070BD0000A11B0008CE
:101B70009F1B0008D71D0008D51D00089D1B0008ED
:101B8000A51B0008A31B00087D1A0008011A000805
:101B9000031A0008491D00080080000270477047C2
:101BA00070477047704700002DE9FC4704460F4618
:101BB00090469946DDE90A6A94F84100202802D04F
:101BC0000220BDE8FC874EB1BAF1000F06D02068B4
:101BD0008069C043000406D40220F2E74FF400708D
:101BE00060640120EDE794F8400001281AD0243405
:101BF00001202077FFF710FE222161774021A17795
:101C0000002525622660A4F806A01949A16019499B
:101C10002161E188243CFF2906D9FF2121854FF06D
:101C2000807605E00220CCE7618D21854FF00076BB
:101C300019214B46CDE9001042463946204603F0B3
:101C400065FC18B184F840500120BAE70A483346D1
:101C50000090394694F82820204603F0EDFD84F8E2
:101C600040500221204602F0E3FF0020A9E70000D7
:101C70000000FFFFB5530008002400802DE9FC4759
:101C800004460F4690469946DDE90A6A94F84100F9
:101C9000202802D00220BDE8FC874EB1BAF1000F27
:101CA00006D020688069C043000406D40220F2E711
:101CB0004FF4007060640120EDE794F840000128C3
:101CC0001AD0243401202077FFF7A6FD2121617767
:101CD0004021A177002525622660A4F806A01849B6
:101CE000A16018492161E188243CFF2906D9FF2120
:101CF00021854FF0807605E00220CCE7618D2185BB
:101D00004FF0007619214B46CDE900104246394686
:101D1000204603F035FC18B184F840500120BAE7A2
:101D20000095334694F828203946204603F084FD78
:101D300084F840500121204602F07AFF0020AAE7F3
:101D40000000FFFFB553000810B586B0044614210B
:101D500001A8FEF703FB1C492068884231D11B48CB
:101D6000016841F002010160006800F0020000908B
:101D70004FF4C070019012200290002003900320C5
:101D8000049004200590124801A9FFF74FFC0F486A
:101D90001030016841F400110160006800F4001087
:101DA0000090002205211F2000F08EF81F2000F077
:101DB0007DF800220F21202000F086F8202000F07E
:101DC00075F806B010BD00000054004030380240E5
:101DD000000402407047704702488168027811444D
:101DE000816070474C03002010B5032000F08CF890
:101DF0000F2000F005F800F03DF8002010BD0000B5
:101E000000B587B001460022372000F05DF837208A
:101E100000F04CF81348016841F0200101600068AF
:101E200000F02000009001A902A800F0FBFD00F0E6
:101E30001DFE40000C49B0FBF1F1491E0C480B4A55
:101E4000026040F2E732C2604160002101618160BE
:101E500001F00CF910B1012007B000BD044801F0F9
:101E6000B5F9F9E74038024040420F000014004045
:101E7000F00B002082B00C48016841F080510160F5
:101E8000006800F0805001900748001D016841F48F
:101E900080410160006800F48040019000220F2121
:101EA000901E02B000F010B840380240002809DB54
:101EB000012100F01F0291404009800000F1E02064
:101EC000C0F8001170470000F0B40D460D4B1B68C0
:101ED000C3F30223C3F10704042C00D90424191D01
:101EE000072901D2002300E0DB1E012606FA04F1D7
:101EF000491E294099409E40761E16403143F0BC51
:101F000005F00DBA0CED00E000F00701054A10687D
:101F10004FF6FF03184040EA0120034908431060D0
:101F2000704700000CED00E00000FA05F8B5194814
:101F3000016841F080510160006800F0805000901D
:101F4000154C206840F480302060FFF765FC0546A2
:101F50004FF47A7606E0FFF75FFC401BB04201D9F0
:101F60000320F8BD6068C003F5D5206840F4003058
:101F70002060FFF751FC054606E0FFF74DFC401BD3
:101F8000B04201D90320F8BD60688003F5D5002078
:101F9000F8BD00004038024000700040F8B504462B
:101FA0000025FFF739FC064694F84100800736D536
:101FB000002084F840002068016849070BD50168BB
:101FC00021F004010160E06BFFF734F918B1606C97
:101FD00040F0040060642068016841F00201016083
:101FE000A06C0122022133460090204604F006FA3C
:101FF00005465DB921680220C8600022A06C20213E
:1020000033460090204604F0F9F905463DB92068B2
:10201000416921F040614161012084F84100284676
:10202000F8BD2DE9F84F04460E469046FFF7F4FB45
:10203000834694F8400001280ED0012784F84070B0
:1020400094F841004FF00009012807D0022584F8D8
:1020500040902846BDE8F88F0220FBE7C4F8449082
:102060004FF0020A84F841A0002220215B4620465E
:10207000CDF8008004F0C2F90546002DE7D100221A
:102080003146204604F0E1F8706A10B184F84170DE
:10209000DDE701225B4602212046CDF8008004F0F6
:1020A000ADF90546002DD2D12068C0F80CA084F807
:1020B0004170CCE7F8B50446FFF7AEFB064624B105
:1020C00094F84100002510B10BE00120F8BD84F820
:1020D0004050204600F042F841F28831204600F09E
:1020E00017F92068016821F4F852A168491E42EAF4
:1020F00001210160A06C002220213346009020467F
:1021000004F07CF910BBE268E16923790A43216A93
:1021100041EA03610A4321680B680E4E33401A43BB
:102120000A60D4E905210A4321684B680A4E33400E
:10213000268A43EA06431A434A6021680A6842F045
:1021400001020A606564012184F8411084F840505E
:10215000F8BD00002FFFFF00FEF8E0FF2DE9F04181
:1021600086B00446142101A8FEF7F8F82D4920682E
:10217000884254D12C48016841F002010160006896
:1021800000F00200009028480838016841F0100172
:102190000160016801F010010091016841F0020145
:1021A0000160016801F002010091016841F008013D
:1021B0000160006800F0080000904FF00408CDF8BE
:1021C000048002240294002503950326049609271F
:1021D0000597164801A9FFF729FACDF80480029463
:1021E00003950496059701A9DFF844804046FFF760
:1021F0001DFA4FF4605001900294039504960597E0
:1022000001A90C48FFF712FA4020019002940395AF
:1022100004960A20059001A94046FFF707FA06B088
:10222000BDE8F081001000A03838024000100240E4
:1022300000040240000C02402DE9F84F0446884695
:1022400017460025FFF7E8FA83462068816900F108
:10225000200694F84020012A0ED04FF0010984F89E
:10226000409094F84120AA46012A07D0022584F81C
:1022700040A02846BDE8F88F0220FBE7C4F844A040
:10228000B8F1000F3ED0222284F841200269521C8E
:10229000A2630269521C6263C4F83080426922F072
:1022A000406242F0806242612068816112E0012256
:1022B0005B4606212046009704F0A0F8054628005A
:1022C0000BD13078216B0870206B401C2063A06B11
:1022D000401EA063A06B0028E9D185B901225B46AE
:1022E00002212046009704F089F80546280006D10F
:1022F00021680220C8602046FFF750FE054684F89A
:102300004190B4E7606C40F0080060640125AEE7DE
:10231000816470472DE9F84F04468846174600252A
:10232000FFF77AFA8346206800F1200694F84010FF
:1023300001290ED04FF0010984F8409094F8411023
:10234000AA46012907D0022584F840A02846BDE806
:10235000F88F0220FBE7C4F844A0B8F1000F3AD090
:10236000122184F841100169491CE1620169491C8C
:10237000A162C4F82480416921F04061416112E00A
:1023800001225B4604212046009704F037F80546F9
:1023900028000BD1606A00783070606A401C60626F
:1023A000E06A401EE062E06A0028E9D185B90122B6
:1023B0005B4602212046009704F020F805462800DD
:1023C00006D121680220C8602046FFF7E7FD0546D8
:1023D00084F84190B8E7606C40F008006064012523
:1023E000B2E700002DE9F84F044600250026DFF88B
:1023F00078A42078C0070ED0DAF8000020F400009E
:10240000CAF80000DAF80000616B0843CAF800005F
:10241000606B00B901252068DFF8508400030ED5F9
:10242000D8F80000E16B20F440100843C8F8000021
:10243000E06BB0F5801F00D1012500B901262068AE
:10244000C0020ED5D8F80000216C20F440000843EB
:10245000C8F80000206CB0F5800F00D1012500B94C
:1024600001262068C10100D5012580065DD5FE4802
:102470003830016841F080510160006800F0805000
:102480000090DFF8EC93D9F8000040F48070C9F8B0
:102490000000FFF7C1F9074607E0FFF7BDF9C01BD1
:1024A000642802D90320BDE8F88FD9F80000C005E0
:1024B000F3D5EE4F1C3F386800F4407020B3218EF6
:1024C00001F4407181421FD0386820F440703968AF
:1024D00041F480313960396821F4803139603860E5
:1024E0003868C00710D0FFF797F9814641F2883B62
:1024F00007E0FFF791F9A0EB0900584501D9032047
:10250000D1E738688007F4D5206BC0F30121032997
:102510007ED0DAF8000020F4F810CAF8000038681D
:10252000218EC1F30B01084338602078C0060BD51B
:10253000D8F8000020F08070C8F80000D8F800003B
:10254000A16B0843C8F8000020884104C94805D59C
:102550000168626E21F44031114301602188090451
:1025600005D50168A26E21F4402111430160216864
:10257000C90305D50168E26E21F4401111430160E1
:102580002168890305D50168226F21F440011143B8
:1025900001602178490605D50168626C21F00301CC
:1025A000114301602178090605D50168A26C21F06C
:1025B0000C01114301602188C90505D50168E26C51
:1025C00021F03001114301602188890505D501689A
:1025D000226D21F0C001114301602188490505D514
:1025E0000168626D21F44071114301602188090581
:1025F00005D50168A26D21F4406111430160218875
:10260000C90407D50168E26D21F44051114300E08F
:1026100046E001602188890405D50168226E21F415
:102620004041114301602168490205D50168A26F4C
:1026300021F080611143016021684FF00069890237
:1026400009D50168E26F21F0006111430160E16F7B
:10265000494500D1012621680A0700D50126490312
:1026600005D50168626F21F0407111430160216856
:10267000090206D50168D4F8802021F08051114369
:102680000160794F083F012D02D0206880017DD57F
:10269000386820F080603860FFF7BEF8054610E02B
:1026A000DAF80010744A21F4F81110400143CAF816
:1026B000001034E7FFF7B0F8401B642801D903206D
:1026C000F1E638680001F5D420786C49C00711D0D4
:1026D000606B78B90868C0F301400A68C2F303620E
:1026E00063689B0143EA004040EA0260227A40EAC4
:1026F000027008602068020303D5E26BB2F5801F08
:1027000005D0C0021CD5206CB0F5800F18D1086828
:10271000C0F301400A68C2F3027263689B0143EA96
:102720000040237B40EA036040EA02700860D8F86A
:102730000000626A20F01F00521E1043C8F800001B
:102740002068C0010FD50868C0F303600A68C2F3AF
:1027500002726368258A9B0143EA054343EA0060ED
:1027600040EA02700860206880010BD56068228A08
:10277000800140EA0240227B40EA0260227A40EA7D
:1027800002700860386840F0806000E00EE0386059
:10279000FFF742F8054606E0FFF73EF8401B6428C5
:1027A00001D903207FE638680001F5D5012E5AD102
:1027B000386820F080503860FFF72EF8054606E0B4
:1027C000FFF72AF8401B642801D903206BE638681C
:1027D000C0438000F4D520682949020301D5E26B8B
:1027E0001AB1C0021BD5206CC8B90868C0F30140FB
:1027F0000A68C2F3027263699B0143EA0040237EC8
:1028000040EA036040EA02700860D8F8000020F453
:10281000F852A06A401E42EA0020C8F80000206872
:10282000800212D5E06F48450FD10868C0F30360FD
:102830000A68C2F302726369258C9B0143EA05436F
:1028400043EA006040EA027008602078000727D55C
:102850000868C0F303600A68C2F3014263699B0120
:1028600043EA02420EE02EE0083802408C38024073
:102870000070004090380240FFFCFF0F8438024097
:102880008838024042EA0060227F40EA0270086015
:10289000D8F80000E16A20F440300843C8F800008E
:1028A000386840F080503860FEF7B6FF044606E016
:1028B000FEF7B2FF001B642801D90320F3E5386856
:1028C000C0438000F4D40020EDE500002DE9F0477E
:1028D00004460D46002C17D0DFF83481D8F80000EC
:1028E00000F00F00A84211D2D8F8000020F00F002D
:1028F0002843C8F80000D8F8000000F00F00A842F4
:1029000004D00120BDE8F0870120FBE72068414E9C
:10291000810712D5400703D5306840F4E05030609D
:102920002078000703D5306840F46040306030689C
:10293000A16820F0F000084330602078C0072ED056
:10294000344960680839012806D0022809D009688E
:1029500089070BD40120D5E70968890306D4012033
:10296000D0E70968890101D40120CBE7316821F063
:10297000030101433160FEF74FFF074641F28839FA
:1029800006E0FEF749FFC01B484501D90320B9E71F
:102990003068616800F00C00B0EB810FF1D1D8F81D
:1029A000000000F00F00A8420ED9D8F8000020F077
:1029B0000F002843C8F80000D8F8000000F00F000E
:1029C000A84201D001209DE72078400705D5306856
:1029D000E16820F4E050084330602078000706D515
:1029E0003068216920F4604040EAC100306000F0A6
:1029F0005DF83168084AC1F30311515CC8400749CA
:102A0000086007480068FFF7FBF900207AE700003C
:102A1000003C0240083802401CD90008E8020020AF
:102A2000500300200F2202600B4A136803F00303D7
:102A30004360136803F0F0038360136803F4E0530A
:102A4000C360126802F46042D20802610348006861
:102A500000F00F000860704708380240003C024058
:102A60000148006870470000E802002000B5FFF749
:102A7000F7FF04490968044AC1F38221515CC84048
:102A800000BD0000083802402CD9000800B5FFF74F
:102A9000E7FF04490968044AC1F34231515CC84068
:102AA00000BD0000083802402CD9000810B51748B6
:102AB000006810F00C01164816D0164B042912D0ED
:102AC000082911D1114C241F216801F03F0221680F
:102AD00049020AD52068C0F38810A0FB0301002337
:102AE000FDF7F2FB09E0184610BD21680023C1F391
:102AF0008811A1FB0001FDF7E7FB2168C1F301414B
:102B0000491C4900B0FBF1F010BD0000083802403C
:102B10000024F40040787D012DE9F84F04464FF081
:102B20000008002C15D02078DFF80494A9F10407E0
:102B3000C007A7F1040560D0D9F80000C0F38100F8
:102B400001280CD0D9F80000C0F38100022803D07E
:102B50000CE00120BDE8F88F3868400206D52868EF
:102B600080034AD5606870BB0120F3E76068B0F568
:102B7000803F11D0A8B1B0F5A02F1BD0286820F459
:102B800080302860286820F480202860606830B396
:102B9000FEF742FE06461EE0286840F480302860BA
:102BA000F4E7286820F480302860286820F480202A
:102BB0002860EBE7286840F480202860286840F40B
:102BC00080302860E2E718E0FEF726FE801B6428CC
:102BD00001D90320BEE728688003F5D50DE0FEF794
:102BE0001BFE064606E0FEF717FE801B642801D98F
:102BF0000320AFE728688003F5D4207880074BD501
:102C0000D9F8000010F00C0F08D0D9F80000C0F37C
:102C10008100022812D1386840020FD4286880074A
:102C200004D5E068012801D0012093E728682169D4
:102C300020F0F80040EAC10028602DE0E068C8B14B
:102C4000286840F001002860FEF7E6FD064606E031
:102C5000FEF7E2FD801B022801D903207AE72868ED
:102C60008007F5D52868216920F0F80040EAC10006
:102C7000286011E0286820F001002860FEF7CCFDF4
:102C8000064606E0FEF7C8FD801B022801D9032096
:102C900060E728688007F5D42078000730D5DFF892
:102CA00090A260690AF16C0AA8B1DAF8000040F05D
:102CB0000100CAF80000FEF7AFFD064606E0FEF789
:102CC000ABFD801B022801D9032043E7DAF800009E
:102CD0008007F4D514E0DAF8000020F00100CAF80B
:102CE0000000FEF799FD064606E0FEF795FD801B05
:102CF000022801D903202DE7DAF800008007F4D478
:102D00002078400775D5DFF828A20AF1380ADAF8EA
:102D10000000C0000CD4DAF8000040F08050CAF87F
:102D20000000DAF8000000F0805000904FF0010839
:102D3000DFF800B2DBF80000C00514D4DBF80000B7
:102D400040F48070CBF80000FEF766FD064606E012
:102D5000FEF762FD801B642801D90320FAE6DBF848
:102D60000000C005F4D5DFF8C8B1A0680BF1680B0E
:102D7000012814D0D0B1052825D0DBF8000020F0C0
:102D80000100CBF80000DBF8000020F00400CBF8D5
:102D90000000A06870B3FEF73FFD06462BE0DBF8AD
:102DA000000040F00100CBF80000F2E7DBF8000083
:102DB00020F00100CBF80000DBF8000020F0040058
:102DC000CBF80000E5E7DBF8000040F00400CBF8AA
:102DD0000000DBF8000040F00100CBF80000D8E76D
:102DE000FEF71AFD811B41F28830814203D903208E
:102DF000B0E61FE004E0DBF800008007F0D510E04B
:102E0000FEF70AFD064608E0FEF706FD811B41F2CB
:102E10008830814201D903209CE6DBF8000080075E
:102E2000F2D4B8F1010F05D1DAF8000020F080509B
:102E3000CAF80000A169E9B3D9F800004FF0FF38E3
:102E4000C0F3810002284CD0022907D0286820F066
:102E500080702860FEF7E0FC04463EE0286820F021
:102E600080702860FEF7D8FC064606E0FEF7D4FC2A
:102E7000801B022801D903206CE628688001F5D464
:102E8000D4E90701A26A0843616A08EB520289018A
:102E900041EA0241084394F82C1040EA016040F0F6
:102EA00000503860286840F080702860FEF7B4FC5D
:102EB000044607E03AE0FEF7AFFC001B022801D908
:102EC000032047E628688001F5D52FE0FEF7A4FC33
:102ED000001B022801D903203CE628688001F5D4B4
:102EE00024E0386801291FD0E26900F48001914292
:102EF0001AD1226A00F03F01914215D1626A47F669
:102F0000C0710140B1EB821F0ED1A26A00F44031C2
:102F100008EB5202B1EB024F06D194F82C1000F0EE
:102F20007060B0EB016F01D0012013E6002011E6C4
:102F3000083802400070004070477047704700003A
:102F400030B590F83C20012A3AD0012280F83C208C
:102F5000CA6800248B6822F440721A434B6822F43A
:102F600080621A430B6822F400621A430B6922F450
:102F700080521A434B6922F400521A438B6A22F49E
:102F800080421A430B8B22F4702242EA03420D4D19
:102F90000368AB4202D00C4DAB420CD18D8C22F4B5
:102FA000700242EA0552CD6922F080722A43096A12
:102FB00022F000720A435A6480F83C40002030BD81
:102FC000022030BD0000014000040140F0B590F83F
:102FD0003C20012A3AD0012680F83C60022280F889
:102FE0003D2003685A689C68194FDFF868C0BB42EF
:102FF00001D0634503D122F470054A682A4322F0C8
:1030000070020D6815435D600268BA4213D0B2F1D8
:10301000804F10D0104B9A420DD0104B9A420AD0DC
:103020000F4B9A4207D0624505D00E4B9A4202D010
:103030000D4B9A4204D124F08003896819439160B2
:103040003C304670002101700020F0BD0220F0BD30
:10305000000001400004014000040040000800405E
:10306000000C0040004001400018004010B504462C
:10307000002C03D094F83D0010B107E0012010BDF2
:10308000002084F83C00204600F018F8022084F864
:103090003D002068211D03F00BFB01203D34E07250
:1030A0006070A070E07020716071A071E07120729A
:1030B0006072A0722070002010BD000008B500688A
:1030C0001C49884212D11C48016841F0010101608D
:1030D000006800F00100009000220F211920FEF787
:1030E000F3FEBDE808401920FEF7E0BE1249091FB3
:1030F000B0F1804F14D0114A904219D1086840F0C5
:1031000010000860086800F01000009000220521FF
:103110003620FEF7D9FEBDE808403620FEF7C6BED1
:10312000086840F001000860086800F001000090A5
:1031300008BD00000000014044380240001000407B
:1031400090F83D10012901D001207047022180F83C
:103150003D1000681549884214D0B0F1804F11D05D
:10316000134988420ED0134988420BD01249884235
:1031700008D01249884205D01149884202D011492D
:1031800088420CD18168104A114006290BD0B1F554
:10319000803F08D0016841F00101016003E001684F
:1031A00041F0010101600020704700000000014073
:1031B0000004004000080040000C004000040140F2
:1031C00000400140001800400700010090F83D1049
:1031D000012901D001207047022180F83D100168CB
:1031E000CA6842F00102CA6000681549884214D0DA
:1031F000B0F1804F11D0134988420ED01249884255
:103200000BD01249884208D01149884205D0114993
:10321000884202D0104988420CD181680F4A11407F
:1032200006290BD0B1F5803F08D0016841F00101BB
:10323000016003E0016841F0010101600020704776
:10324000000001400004004000080040000C004065
:103250000004014000400140001800400700010048
:1032600070B5044694F83C00012817D0012584F875
:103270003C50022084F83D0020688268314B1A409F
:1032800022F47F4282600868502831D00DDC20286B
:103290004DD005DCB0B310284ED148E0022070BDFF
:1032A000302844D0402847D137E060282BD0702800
:1032B00006D0B0F5805F3FD0B0F5005F3CD10BE0A9
:1032C000CB682068D1E9012103F065FA20688168A4
:1032D00041F0770181602FE0CB682068D1E90121BE
:1032E00003F059FA2068816841F48041816023E04D
:1032F000CA684968206803F08BFB2068502103F0FE
:1033000054FA19E013E0CA684968206803F0D2FB58
:103310002068602103F049FA0EE0CA684968206815
:1033200003F076FB2068402103F03FFA04E02268B6
:103330000146104603F039FA3C34657000202070D5
:1033400070BD000088FFFEFF2DE9F05F01462DED06
:103350000C8B9FEDFB9BFD4E4FF0FF38FA4A06F1B8
:103360003C0706F128049FEDFACB9FEDFB8B9FED08
:10337000FCAB9FEDFDBB9068A4F1340301254FF039
:10338000000B884203F1880903F1940A7DD191F87A
:103390001CC092F80CE0F445F8D11146B3F802C015
:1033A000BCF1000F096971D04FF0000CA3F802C006
:1033B000904601F00FF9A4F114018346486060685B
:1033C000FDF75FF941EC1D0B706840F27122ABEB29
:1033D00000017868504301EB0010FDF752F941EC11
:1033E000100B51EC1C0B53EC102BFDF7DBF853ECDE
:1033F0001D2BFDF765F82C3494ED021B53EC112BBB
:10340000FCF7B7FFC4E90201B9F80200401C02B2A0
:10341000A9F80220D8F8100000287CD004287BD01E
:1034200008287AD0D8F8081009680B6A23F42043DA
:103430000B62002872D0042871D0082870D0D8F808
:1034400008000068016A01620A2A3CD1DAF8040027
:10345000002866D094ED020B53EC182B51EC100BA6
:10346000FDF7A0F841EC180BB84D51EC180B343DAA
:1034700095ED020B53EC102BFCF77BFF41EC100B8E
:1034800004F086FC53EC1A2B01E0B5E01FE051EC90
:10349000100BFDF75FF911D895ED020B53EC182BCB
:1034A00051EC100BFCF765FF41EC100B53EC1B2BA0
:1034B00051EC100BFDF704F8C5E902010020A9F852
:1034C000020084ED029BBDEC0C8BBDE8F09FA94689
:1034D0005D80154601F07EF87060C7F804B0A988D9
:1034E0002868FEF78BF908B3C4F80480286900B394
:1034F000042825D008282AD0A96809680A6A22F475
:1035000020420A6250B304282FD0082834D0A8687B
:103510000068016A06E036E03DE044E04BE050E040
:1035200055E05AE041F400510162CCE7C4F8049040
:10353000DCE7A96809680A6A22F00A020A62E1E780
:10354000A96809680A6A22F0A0020A62DAE7A96893
:1035500009680A6A22F420620A62D3E7A868006850
:10356000016A41F002010162ADE7A8680068016AE2
:1035700041F020010162A6E7A8680068016A41F4F1
:10358000007101629FE7D8F8081009680B6A23F000
:103590000A030B624DE7D8F8081009680B6A23F09C
:1035A000A0030B6245E7D8F8081009680B6A23F4FA
:1035B00020630B623DE7D8F808000068016A0162E9
:1035C00042E7D8F808000068016A01623CE7D8F8D1
:1035D00008000068016A016236E7CAF8045094EDF9
:1035E000020B53EC182B51EC100BFCF7DBFF574A86
:1035F000343AC2E9020161E75D4A906888427DD1B0
:1036000091F81CC092F80CE0F445F8D11146B3F8DB
:1036100004C0BCF1000F096971D04FF0000CA3F891
:1036200004C0904600F0D6FF4849834614318860B4
:10363000A068FDF726F841EC1D0BB06840F271223E
:10364000ABEB0001B868504301EB0010FDF719F82F
:1036500041EC100B51EC1C0B53EC102BFCF7A2FFB0
:1036600053EC1D2BFCF72CFF384C543494ED040B19
:1036700053EC102BFCF77DFEC4E90401B9F80400FB
:10368000401C02B2A9F80420D8F81000002856D037
:1036900004286FD008286ED0D8F8081009680B6A83
:1036A00023F420430B6200287ED004287DD0082814
:1036B0007CD0D8F808000068016A01620A2A7FF409
:1036C00034AFDAF80800002871D094ED040B53EC05
:1036D000182B51EC100BFCF765FF41EC180B1B4D40
:1036E00051EC180B343D95ED040B53EC102BFCF70B
:1036F00040FE41EC100B04F04BFB01E0D0E03BE05E
:1037000053EC1A2B51EC100BFDF724F811D895ED62
:10371000040B53EC182B51EC100BFCF72AFE41EC78
:10372000100B53EC1B2B51EC100BFCF7C9FEC5E939
:1037300004010020A9F8040084ED049BC3E677E0AF
:103740000000000000000000F41400200418002015
:1037500000000000006AF840000000000000244063
:103760000000000000003440000000000000E03FC6
:103770001415002064E06BE0AA469D801546A9461A
:1037800000F028FFB060C7F808B0B9F80410D9F805
:103790000000FEF733F8F0B1C4F808802869E8B1FA
:1037A000042822D0082803E05AE05FE064E069E0E2
:1037B00022D0A96809680A6A22F420420A6210B37A
:1037C000042827D008282CD0A8680068016A41F492
:1037D0000051016277E6C4F808A0DFE7A96809682C
:1037E0000A6A22F00A020A62E9E7A96809680A6A15
:1037F00022F0A0020A62E2E7A96809680A6A22F4D4
:1038000020620A62DBE7A8680068016A41F00201F1
:10381000016258E6A8680068016A41F0200101626F
:1038200051E6A8680068016A41F4007101624AE645
:10383000D8F8081009680B6A23F00A030B6232E714
:10384000D8F8081009680B6A23F0A0030B622AE776
:10385000D8F8081009680B6A23F420630B6222E78A
:10386000D8F808000068016A016227E7D8F8080064
:103870000068016A016221E7D8F808000068016A5F
:1038800001621BE7CAF8085094ED040B53EC182BA7
:1038900051EC100BFCF786FEFE4AC2E9040148E732
:1038A000FD4A906888427DD191F81CC092F80CE0E6
:1038B000F44577D11146B3F806C0BCF1000F096991
:1038C00072D04FF0000CA3F806C0904600F082FEC4
:1038D000F04983464831C860E068FCF7D2FE41EC0D
:1038E0001D0BF06840F27122ABEB0001F868504309
:1038F00001EB0010FCF7C5FE41EC100B51EC1C0B6A
:1039000053EC102BFCF74EFE53EC1D2BFCF7D8FDAF
:10391000E04C883494ED061B53EC112BFCF729FD89
:10392000C4E90601B9F80600401C02B2A9F8062055
:10393000D8F81000B8B304287ED008287DD0D8F875
:10394000081009680B6A23F420430B6268B304284B
:1039500074D0082873D0D8F808000068016A0162A2
:103960000A2A7FF4E2ADDAF80C00D0B394ED060B2E
:1039700053EC182B51EC100BFCF714FE41EC180B18
:10398000C44D51EC180B95ED060B53EC102BFCF7C6
:10399000F0FC41EC100B04F0FBF953EC1A2B51EC4A
:1039A000100B03E0B1E078E01CE08EE0FCF7D2FE03
:1039B00011D895ED060B53EC182B51EC100BFCF7BE
:1039C000D8FC41EC100B53EC1B2B51EC100BFCF70B
:1039D00077FDC5E906010020A9F8060084ED069BE5
:1039E00071E584E0AA46DD801546A94600F0F2FDA7
:1039F000F060C7F80CB0B9F80410D9F80000FDF772
:103A0000FDFEE8B1C4F80C802869E0B1042821D09B
:103A1000082826D0A96809680A6A22F420420A62A6
:103A200030B304282BD0082830D0A8680068016A79
:103A300041F40051016246E537E03EE04BE050E0E2
:103A4000C4F80CA0E0E7A96809680A6A22F00A0233
:103A50000A62E5E7A96809680A6A22F0A0020A6218
:103A6000DEE7A96809680A6A22F420620A62D7E7D9
:103A7000A8680068016A41F00201016223E5A868B4
:103A80000068016A41F0200101621CE5A868006835
:103A9000016A41F40071016215E5D8F8081009685F
:103AA0000B6A23F00A030B6250E7D8F80810096884
:103AB0000B6A23F0A0030B6248E7D8F808100968E6
:103AC0000B6A23F420630B6240E7D8F80800006813
:103AD000016A016244E7D8F808000068016A0162DF
:103AE0003EE7D8F808000068016A016238E7CAF8C2
:103AF0000C5094ED060B53EC182B51EC100BFCF70B
:103B000051FD644AC2E9060165E7644A906888424B
:103B100091D1097F92F80CC061458CD11146B3F860
:103B200008C0BCF1000F096979D04FF0000CA3F870
:103B300008C0904600F04EFD564983464831086162
:103B40002069FCF79EFD41EC1D0B306940F27122AB
:103B5000ABEB00013869504301EB0010FCF791FD1D
:103B600041EC100B51EC1C0B53EC102BFCF71AFD25
:103B700053EC1D2BFCF7A4FC464C883494ED081B39
:103B800053EC112BFCF7F5FBC4E90801B9F8080068
:103B9000401C02B2A9F80820D8F81000F0B304289D
:103BA0007ED008287DD0D8F8081009680B6A23F465
:103BB00020430B62A0B3042874D0082873D0D8F82F
:103BC00008000068016A01620A2AA1D1DAF810002F
:103BD00038B394ED080B53EC182B51EC100BFCF799
:103BE000E1FC41EC180B2B4D51EC180B95ED080B3B
:103BF00053EC102BFCF7BDFB41EC100B04F0C8F8A4
:103C000053EC1A2B51EC100BFCF7A4FD16D895EDD4
:103C1000080B53EC182B51EC100B03E073E013E08E
:103C200089E09AE0FCF7A5FB41EC100B53EC1B2B51
:103C300051EC100BFCF744FCC5E908010020A9F881
:103C4000080084ED089B3EE4A9461D81154600F05E
:103C5000C1FC3061C7F810B0A9882868FDF7CEFD17
:103C600020B3C4F81080286918B3042828D0082885
:103C70002DD0A96809680A6A22F420420A6268B352
:103C8000042832D0082837D0A8680068016A41F4B7
:103C9000005109E0D01700203415002054150020F1
:103CA00039E040E04DE052E001620CE4C4F81090CD
:103CB000D9E7A96809680A6A22F00A020A62DEE7FF
:103CC000A96809680A6A22F0A0020A62D7E7A9680F
:103CD00009680A6A22F420620A62D0E7A8680068CC
:103CE000016A41F0020101621FE4A8680068016AEC
:103CF00041F02001016218E4A8680068016A41F4FB
:103D00000071016211E4D8F8081009680B6A23F009
:103D10000A030B624EE7D8F8081009680B6A23F013
:103D2000A0030B6246E7D8F8081009680B6A23F471
:103D300020630B623EE7D8F808000068016A016260
:103D400042E7D8F808000068016A01623CE7D8F849
:103D500008000068016A016236E7CAF8105094ED65
:103D6000080B53EC182B51EC100BFCF71BFC024A10
:103D7000C2E9080162E70000D017002070B50546CF
:103D80000C4695F83C0001281CD0012085F83C0029
:103D9000D2B1042A29D0082A39D0E3682868D4E9A6
:103DA000001202F0CDFE2868C16921F44061C161B2
:103DB0002868C169A26841EA0221C161002085F832
:103DC0003C0070BD022070BDE3682868D4E9001291
:103DD00002F030FE2868816921F00C0181612868B9
:103DE0008169A26811438161E8E7E3682868D4E942
:103DF000001202F071FE2868816921F4406181613E
:103E000028688169A26841EA02218161D6E7E368F6
:103E10002868D4E9001202F07AFE2868C16921F00E
:103E20000C01C1612868C169A2681143C161C5E77D
:103E300010B50446002C03D094F83D0010B107E003
:103E4000012010BD002084F83C00204600F018F846
:103E5000022084F83D002068211D02F029FC012089
:103E60003D34E0726070A070E07020716071A071EC
:103E7000E07120726072A0722070002010BD0000FE
:103E800070B586B00446142101A8FCF767FA3349DF
:103E90000025314E22681039304B02243048B2429E
:103EA00034D11A6842F002021A601A6802F0020263
:103EB00000920A6842F001020A600A6802F00102F8
:103EC00000920A6842F002020A60096801F00201E9
:103ED000009140210191029403950495059401A954
:103EE000FDF7A4FB0120019002940395049505942D
:103EF00001A91C48FDF79AFB002205211D20FDF7B2
:103F0000E3FF1D20FDF7D2FF06B070BD164EB24292
:103F1000FAD11A6842F008021A601A6802F0080220
:103F200000920A6842F001020A60096801F001018A
:103F3000009105210191029403950495059401A92E
:103F4000FDF774FB002205213220FDF7BDFF322072
:103F5000FDF7ACFFD8E70000000400404038024005
:103F60000000024000040240000C004010B504466E
:103F7000002913D0042914D0082915D00C2916D0F3
:103F8000102917D094F84300B9B1042918D0082992
:103F900019D094F8472001281AD117E094F83E0070
:103FA000F2E794F83F00EFE794F84000ECE794F86C
:103FB0004100E9E794F84200E6E794F84420EAE794
:103FC00094F84520E7E794F84620E4E7012A01D079
:103FD000012010BD0220C1B1042919D008291AD02E
:103FE0000C291BD010291CD084F84300E1B104290E
:103FF0001DD008291ED084F84700F1B1042922D031
:10400000082926D00C292FD129E084F83E00EDE7BD
:1040100084F83F00EAE784F84000E7E784F84100CD
:10402000E4E784F84200E1E784F84400E5E784F837
:104030004500E2E784F84600DFE72068C26842F006
:104040000202C26010E02068C26842F00402C2604E
:104050000AE02068C26842F00802C26004E02068FA
:10406000C26842F01002C2602068012202F086FBA2
:1040700015492068884214D0B0F1804F11D01349FF
:1040800088420ED0124988420BD01249884208D08B
:104090001149884205D01149884202D0104988420E
:1040A0000CD181680F4A114006290BD0B1F5803F31
:1040B00008D0016841F00101016003E0016841F0AE
:1040C00001010160002010BD00000140000400401B
:1040D00000080040000C0040000401400040014086
:1040E000001800400700010070B50446206801690F
:1040F0004FF00005C943890716D4C168C943890731
:1041000012D4E91E016101202077206880698007B0
:1041100003D02046FFF718F905E0204600F002F929
:10412000204600F0C0F9257720680169C943490796
:1041300018D4C168C943490714D46FF00401016160
:10414000022020772068806910F4407F03D0204649
:10415000FFF7FAF805E0204600F0E4F8204600F00A
:10416000A2F9257720680169C943090717D4C168F6
:10417000C943090713D46FF00801016104202077B7
:104180002068C069800703D02046FFF7DDF805E00E
:10419000204600F0C7F8204600F085F92577206812
:1041A0000169C943C90618D4C168C943C90614D4F2
:1041B0006FF010010161082020772068C06910F4B9
:1041C000407F03D02046FFF7BFF805E0204600F00F
:1041D000A9F8204600F067F9257720680169C943EE
:1041E000C90708D1C168C943C90704D1891E016143
:1041F000204600F0DFF920680169C943090609D4A7
:10420000C168C943090605D46FF0800101612046E9
:10421000FEF793FE20680169C943C90509D4C16846
:10422000C943090605D46FF4807101612046FEF789
:1042300083FE20680169C943490609D4C168C9439E
:10424000490605D46FF040010161204600F0D8F91D
:1042500020680169C94389060BD4C168C94389062E
:1042600007D46FF0200101612046BDE87040FEF7E1
:1042700065BE70BD70B586B00446142101A8FCF778
:104280006DF8234A02262168002422480125914224
:1042900014D1016841F010010160006800F01000C5
:1042A00000904FF4D4400190029603940494059535
:1042B00001A91948FDF7BAF906B070BDB1F1804FF8
:1042C000FAD1016841F001010160016801F00101CA
:1042D0000091016841F002010160006800F00200F5
:1042E000009020200190029603940494059501A962
:1042F0000A48FDF79BF940F60840019002960394A6
:104300000494059501A90648FDF790F9D4E700004B
:10431000000001403038024000100240000002401E
:1043200000040240704770B504460D4694F83C0006
:1043300001280BD0012084F83C000C2A4AD007DC6D
:104340005AB1042A1DD0082A1AD12FE0022070BDCC
:10435000102A54D0142A7AD165E02068294602F048
:104360002DFA2068816941F0080181612068816926
:1043700021F004018161206881692A69114381610A
:1043800065E02068294602F04FFA2068816941F40F
:10439000006181612068816921F480618161206808
:1043A00081692A6941EA0221816150E02068294639
:1043B00002F076FA2068C16941F00801C161206805
:1043C000C16921F00401C1612068C1692A691143F2
:1043D000C1613CE02068294602F09CFA2068C1696E
:1043E00041F40061C1612068C16921F48061C1614B
:1043F0002068C1692A6941EA0221C16127E0206879
:10440000294602F0B3FA2068416D41F00801416588
:104410002068416D21F0040141652068416D2A69E1
:104420001143416513E02068294602F0C7FA20686D
:10443000416D41F4006141652068416D21F4806166
:1044400041652068416D2A6941EA022141650020E9
:1044500084F83C0070BD10B50446002C03D094F8DD
:104460003D0010B107E0012010BD002084F83C00A1
:10447000204600F017F8022084F83D002068211D36
:1044800002F016F901203D34E0726070A070E07017
:1044900020716071A071E07120726072A072207052
:1044A000002010BD7047704710B5044600290DD09C
:1044B00004290ED008290FD00C2910D0102911D0B2
:1044C00094F84300012810D0012010BD94F83E005C
:1044D000F8E794F83F00F5E794F84000F2E794F825
:1044E0004100EFE794F84200ECE70220E1B3042931
:1044F0003ED008293FD00C2940D0102941D084F863
:1045000043000122206802F039F922492068224A3A
:10451000884201D0904203D1436C43F4004343648A
:104520002068884213D0B0F1804F10D01B498842D8
:104530000DD01B4988420AD01A49884207D09042C0
:1045400005D01949884202D0184988421CD1816897
:10455000174A114006291BD0B1F5803F18D00168D9
:1045600041F00101016013E0FFE784F83E00C8E775
:1045700084F83F00C5E784F84000C2E784F84100B2
:10458000BFE784F84200BCE7016841F00101016027
:10459000002010BD00000140000401400004004064
:1045A00000080040000C004000400140001800409E
:1045B0000700010010B50446204601F0EBFD044958
:1045C0002068884203D1BDE81040FDF705BC10BD4E
:1045D0000014004002460020002908D0042909D018
:1045E00008290AD00C2901D11068006C70471068A6
:1045F000406B70471068806B70471068C06B7047E5
:1046000070477047704700002DE9F041044622686A
:10461000D0691168936840F60F0500EA0506002E80
:104620000AD1850608D58D0606D5616E00297DD094
:104630002046BDE8F04108470025002E77D07E4F88
:1046400003F001060F40374371D0C70709D0CF05EB
:1046500007D501271762D4F8802042F00102C4F880
:10466000802082070AD5DA0708D0276802223A623A
:10467000D4F8802042F00402C4F8802042070AD512
:10468000DA0708D0236804221A62D4F8802042F0A6
:104690000202C4F8802002070CD501F02002324348
:1046A00008D0236808221A62D4F8802042F0080259
:1046B000C4F8802002050BD54A0109D523684FF4C0
:1046C00000621A62D4F8802042F02002C4F88020F0
:1046D000D4F88020002A2ED0800605D5880603D580
:1046E000616E09B120468847D4F880002168896846
:1046F000490602D410F0280F23D0204602F078FBA0
:1047000020688168490618D5816821F040018160E0
:10471000206F68B149490165206FFCF7D2FD002880
:1047200009D0206F016DBDE8F041084703E00EE0BD
:104730002046FFF767FFBDE8F0812046FFF762FFE4
:10474000F9E72046FFF75EFFC4F88050F3E7236ED9
:10475000012B5DD1C3065BD5CB0659D51020106265
:10476000206881684FF02003490631D5226F116817
:10477000496889B20029DED0B4F858608E42DAD98F
:10478000A4F85A10D169B1F5807F17D0016821F4DF
:10479000807101602068816821F0010181602068DA
:1047A000816821F040018160E36725662068016827
:1047B00021F010010160206FFCF73CFDB4F85800B7
:1047C000B4F85A10401A81B22046FFF71AFFB2E738
:1047D00034F8581F6288891A89B26288583C002AC6
:1047E000A9D00029A7D0026822F490720260206844
:1047F000826822F001028260E367256665662068B0
:10480000026822F0100202602046FFF7FAFE92E7EB
:10481000020608D50A0606D5A16E00298BD02046CF
:10482000BDE8F0410847400685D5480683D52046B7
:10483000BDE8F04102F0F4BA20010004196D00084F
:1048400010B50446002C02D0A06F10B107E0012083
:1048500010BD002084F87400204600F027F82420C2
:10486000A0672068016821F001010160204602F084
:10487000EDFA012818D0606A10B1204602F0C8F99C
:104880002068416821F4904141602068816821F0EE
:104890002A0181602068016841F001010160204621
:1048A000BDE8104002F018BA012010BD2DE9F04318
:1048B00087B00746142102A8FBF750FD964A002551
:1048C000DFF850C202263968103A93480324934B0C
:1048D00061454FF008091DD1016841F400210160D4
:1048E000006800F400200190106840F0040010609F
:1048F000106800F004000190A00202900396049555
:104900000594CDF8189002A91846FCF78FFE07B061
:10491000BDE8F083DFF808C2DFF8088261452FD1D7
:10492000016841F480110160006800F4801001907A
:10493000106840F004001060106800F0040001905E
:10494000106840F008001060106800F00800019046
:104950004FF480500290039604950594CDF818907A
:1049600002A91846FCF762FE042002900396049503
:104970000594CDF8189002A94046FCF757FEC6E70B
:10498000DFF8A4C1694B61451CD1016841F0804149
:104990000160006800F080400190106840F0100055
:1049A0001060106800F0100001904FF4C070029089
:1049B000039604950594CDF8189002A91846FCF7C3
:1049C00035FEA4E7DFF868C161451AD1016841F0FE
:1049D00000410160006800F000400190106840F064
:1049E00010001060106800F010000190029403960F
:1049F00004950594CDF8189002A91846FCF716FE08
:104A000085E7DFF830C10723614525D14248001D05
:104A1000016841F010010160006800F01000019091
:104A2000106840F001001060106800F00100019073
:104A30004FF4C0600290039604950594069302A972
:104A40003D48FCF7F3FD002206212520FDF73CFA46
:104A50002520FDF72BFA5AE7DFF8E0C061453AD18F
:104A6000016841F400310160006800F400300190F9
:104A7000106840F008001060106800F00800019015
:104A800060200290039604950594069302A940467F
:104A9000FCF7CCFD2B4C2A4820604FF00060606092
:104AA000A560E560401420616561A561E561C00114
:104AB000206265622046FCF701FD08B1FCF768FB47
:104AC0003C67A763002205212620FDF7FDF926207B
:104AD000FDF7ECF91BE71C4FB94291D1016841F495
:104AE00080210160006800F480200190106840F08F
:104AF00008001060106800F0080001904FF440704A
:104B00000290039604950594069302A94046FCF78B
:104B10008DFDFCE6004C0040403802400008024099
:104B200000500040000C024000780040001002409D
:104B3000007C0040001001400000024000440040A2
:104B400088600240900B00200048004030B4C36FE2
:104B5000202B02D0022030BC7047A1B19AB190F84E
:104B60007430012B11D0012380F8743000230366C8
:104B700003685C68240203D51C6844F080641C60F0
:104B800030BC02F0BFBA0120E5E70220E3E70000F5
:104B90000249884201D106F0B3BC7047880A002060
:104BA00070477047FEE700000148FCF72BBF00008C
:104BB000B00500200148FCF759BF0000B0050020F7
:104BC000806B0022816B002900D00A65C16B01B1A6
:104BD0000A6500F047BE30B500224FF02805CB072C
:104BE00006D0422290F8414035EA040300D0F22278
:104BF0008B0708D542F0440290F8414035EA04039F
:104C000001D042F0B0020B0401D542F0B8021029E5
:104C100001D142F09002202901D142F02002402926
:104C200001D142F04002006801689143016030BD4B
:104C300010B50022154C436BA34202D0144CA34282
:104C40000FD10B0400D5B822102901D142F09002F7
:104C5000202901D142F06002402911D142F04002E6
:104C60000EE00B0400D5B822CB0701D042F0F202CF
:104C70008B0701D542F0F402202901D142F0200235
:104C8000006801681143016010BD00008D520008EA
:104C9000F555000801688A69D243920701D40022C1
:104CA0008A6200688169C943C90703D0816941F0FC
:104CB0000101816170472DE9F041044694F84100FB
:104CC00028224FF000074FF008018243206804D0EB
:104CD000C16184F84070BDE8F0818269C2F300468A
:104CE000826902F47E02150C8268C2F30902C3686D
:104CF00003F0FE08E3684FF4004C022B0CD0614631
:104D00002046FFF768FF84F840702A46236F31463B
:104D10002046BDE8F041184705F00603062505EAE0
:104D2000D215AB420FD1A36C5B1CA364A36C022B06
:104D3000D1D1A764C16184F840703146236F204609
:104D4000BDE8F041184761462046FFF744FF84F86C
:104D500040704246236F31462046BDE8F041184777
:104D600070B5044694F84100002584F842503B4A4F
:104D7000E2626585626C0A436264282823D0292890
:104D800021D02A281FD048F203012046FFF723FF35
:104D900094F84100602802D0202084F84100656327
:104DA000206B2F4EA16B19B1112816D0212814D0D9
:104DB000E16B19B1122830D022282ED02046BDE850
:104DC000704000F04FBD03212046FFF704FF28206C
:104DD00084F8410023486063E2E7206801684904E1
:104DE00003D5016821F480410160A06BFCF77BFAD8
:104DF00001280DD0A06B066584F84050A06BFCF72D
:104E000060FA002829D0A06B016DBDE8704008470A
:104E10002046BDE8704000F025BD20680168090407
:104E200003D5016821F400410160E06BFCF75BFAF7
:104E300001280DD0E06B066584F84050E06BFCF76C
:104E400040FA002809D0E06B016DBDE870400847CA
:104E50002046BDE8704000F005BD70BD0000FFFFBA
:104E6000C14B00080D57000870B504461648E062B3
:104E700000252563202084F8410084F842506563B2
:104E8000C843400711D42068406A616A0870606AAC
:104E9000401C6062208D40B1401E2085608D401E08
:104EA0006085606C40F00400606448F203012046B5
:104EB000FFF791FE21681020C86184F84050204619
:104EC000E16DBDE8704008470000FFFFF8B50446FB
:104ED0000F4620262068C66194F84100212804D09E
:104EE00094F84100222807D00CE001212046FFF76A
:104EF00072FE1120206305E002212046FFF76BFEC1
:104F00001220206320684168344A11404160002526
:104F100065633348E062F843C10606D42268102175
:104F2000D161616C41F00401616494F84110602921
:104F300005D1400703D42068406AC0B200902046E3
:104F4000FFF7A8FE606C94F84110602900D028B1EA
:104F5000616C2046BDE8F840FFF702BF94F84100BD
:104F6000212814D094F84100222835D184F84160DA
:104F7000256394F84200402824D084F8425084F8F5
:104F800040502046216D01B0BDE8F040084784F84C
:104F90004160256394F84200402809D084F84250CB
:104FA00084F840502046E16C01B0BDE8F04008476D
:104FB00084F8425084F840502046216E01B0BDE88C
:104FC000F040084784F8425084F840502046616E13
:104FD00001B0BDE8F0400847F8BD000000E800FE61
:104FE0000000FFFF70B50446002584F8425094F895
:104FF0004110202021290FD084F841001220206385
:10500000656302212046FFF7E6FD84F84050204604
:10501000216DBDE87040084784F8410011202063ED
:10502000656301212046FFF7D6FD84F840502046F5
:10503000E16CBDE8704008472DE9F04104460D469B
:105040002268176894F841002026D661212806D0EE
:10505000292804D022280AD02A2808D00EE048F2B5
:1050600001012046FFF7B7FD2120206306E048F24A
:1050700002012046FFF7AFFD22202063206841682F
:1050800041F400414160206841683C4A1140416060
:105090002046FFF7FFFDF84341040AD42068016869
:1050A00021F480410160A06B78B1006840686085A0
:1050B0000BE0000409D42068016821F4004101607C
:1050C000E06B10B1006840686085E84340070FD48A
:1050D00025F004052068406A616A0870606A401C17
:1050E0006062208D20B1401E2085608D401E60854D
:1050F000608D18B1606C40F004006064002784F893
:1051000042706763606C68B1616C2046FFF728FEEF
:1051100094F8410028282FD129462046BDE8F041C7
:10512000FFF7A2BEE06A164DA8420DD0204600F05F
:1051300029F8E56284F84160276384F840702046CE
:10514000E16DBDE8F041084794F84100222809D0FC
:1051500084F84160276384F840702046616DBDE8A3
:10516000F041084784F84160276384F84070204686
:10517000A16DBDE8F0410847BDE8F08100E800FE00
:105180000000FFFF70B5044620680168002584F820
:105190004250C9434A0404D4016821F480410160AB
:1051A00005E0090403D4016821F40041016094F88A
:1051B00041102820292912D094F841102A291DD104
:1051C00084F841002220206302212046FFF703FDDE
:1051D00084F840502046A16DBDE87040084784F82F
:1051E00041002120206301212046FFF7F4FC84F8D0
:1051F00040502046616DBDE87040084770BD00001A
:105200002DE9F04104460D46164620688069C043EA
:10521000C00636D400274FF0200807E0681C05D0F0
:10522000FCF7FAFA801BA84220D8FDB120688069FB
:10523000C0438006F2D421681020C8612068C0F8FD
:105240001C802046FFF726FD206841680E4A114069
:105250004160606C40F00400606484F8418084F830
:10526000427084F840700120BDE8F08140346068ED
:1052700040F02000606084F80180A7702770012052
:10528000F2E70020F0E7000000E800FEF8B5044671
:1052900094F8400001281AD0012084F84000CB4344
:1052A0004FF000056FEA0200DE0612D4C20610D4E9
:1052B00021681020C861606C40F004006064202107
:1052C0002046FFF7B5FC2046FFF7E4FC6BE0022028
:1052D000F8BD374A1E0644D4460642D42068016809
:1052E00021F040010160608D70B320684068C0F318
:1052F0000901608DFF2804D9FF2020854FF08073BD
:1053000008E0608D2085E06A904201D0E36A01E008
:105310004FF00073009594F82820204600F08CFA96
:10532000608D218D401A608594F84100222805D0B7
:105330002068016841F48041016034E02068016820
:1053400041F4004101602EE020684068800103D4F0
:105350002046FFF747FE26E040212046FFF700FDEC
:1053600021E05E0618D4460616D4608D20B1402197
:105370002046FFF7F5FC16E020684168890112D449
:10538000E16A914204D1416841F4804141600AE000
:105390002046FFF727FE06E09A0604D4800602D4D2
:1053A0002046FFF793FD84F840500020F8BD000030
:1053B0000000FFFFF8B504460E4694F840000128AF
:1053C00016D0012084F84000F0434FF000076FEA48
:1053D0000205C1060ED4E9060CD421681020C8616C
:1053E000606C40F0040060642046FFF753FC6DE001
:1053F0000220F8BD410711D469070FD426F0040636
:105400002068406A616A0870606A401C6062208D92
:10541000401E2085608D401E608557E081070FD4B7
:10542000A9070DD4606A216800788862606A401C10
:105430006062208D401E2085608D401E608545E0A5
:10544000314A010638D4690636D4608D08B1208D02
:1054500038B120684068800129D42046FFF7C2FD9A
:1054600034E020684068C0F30901608DFF2808D946
:10547000FF2222854FF080732046009700F0DCF970
:1054800024E0608D2085E06A904207D00097E36AAF
:10549000204694F8282000F0CFF917E000974FF04D
:1054A000007394F82820204600F0C6F90EE0402151
:1054B0002046FFF755FC09E0400607D4680605D4EE
:1054C000608D80B140212046FFF74AFCF043800602
:1054D00005D4A80603D431462046FFF7F7FC84F82C
:1054E00040700020F8BD206841688901EED4E16A6F
:1054F000914204D1416841F480414160E6E7204691
:10550000FFF770FDE2E700000000FFFF2DE9F84320
:10551000044616461F46DDE9089818480023FAB2EB
:105520000090204600F088F942464946204600F0A7
:10553000D6F910B10120BDE8F883012FF5B20AD0E9
:105540002168300A886242464946204600F0C7F981
:1055500020B10120EFE72068856201E020688562C4
:10556000002240214B462046CDF8008000F08CF907
:1055700008B10120DFE70020DDE700000020008007
:105580002DE9F843044616461F46DDE908981848F9
:10559000FAB20090C302204600F04EF94246494656
:1055A000204600F09CF910B10120BDE8F883012FDE
:1055B000F5B20AD02168300A886242464946204640
:1055C00000F08DF920B10120EFE72068856201E04D
:1055D00020688562002280214B462046CDF800805D
:1055E00000F052F908B10120DFE70020DDE70000FC
:1055F000002000802DE9F04704468946E66A00272E
:1056000094F84000012822D0012084F840006FEA7D
:1056100009086FEA02055FEA886005D4A80603D48A
:1056200049462046FFF708FD5FEAC86060D4E806F7
:105630005ED468044FF0100101D5280455D4E06B06
:1056400048B12A0407D40068406818B103E002207A
:10565000BDE8F0870127A06B28B16A0403D4006875
:10566000406800B90127012F0CD02068C161606C2F
:1056700040F00400606494F841001EB3B6F1807FEE
:1056800020D03EE094F84100282802D1B6F1007FF6
:1056900004D094F84100292805D010E0494620465E
:1056A000FFF7E2FB2DE016F5803F08D02068C161CE
:1056B0002046FFF7EFFA2046FFF764FD21E020685F
:1056C000C1611EE0212806D0292804D0222805D057
:1056D0002A2803D004E02120206301E02220206357
:1056E000616C2046FFF73CFB0BE02068C16108E0DD
:1056F0005FEA087005D4280703D449462046FFF71F
:10570000DAFA002084F84000A2E700002DE9F04119
:1057100004468846E56A94F84000012826D0012016
:1057200084F840006FEA08076FEA0206B80605D45D
:10573000B00603D441462046FFF77EFC3D49F806FB
:105740004FF0807234D4F00632D4638D102083B1D0
:105750002168C861606C40F0040060640DB195423E
:1057600064D1616C2046FFF7FBFA5FE00220BDE8E0
:10577000F08194F84120282A02D1B5F1007F04D0AD
:1057800094F84120292A05D00FE041462046FFF732
:105790006BFB4BE08D4208D02168C8612046FFF7C3
:1057A00079FA2046FFF7EEFC40E02168C8613DE051
:1057B000780718D4700716D4608D60B12068406AED
:1057C000626A1070606A401C6062208D401E2085F5
:1057D000608D401E6085608D08BB8D4226D02046BE
:1057E000FFF7D0FC22E0380706D4300704D4414646
:1057F0002046FFF760FA19E0B80717D4B00715D4B0
:10580000608D68B1606A216800788862606A401CB7
:105810006062608D401E6085208D401E208505E001
:10582000954200D015B92046FFF7ACFC002084F863
:1058300040009CE70000FFFFF0B5059C006845684C
:105840004FF48066064FC1F3090106EA545641EA57
:1058500002413E431943B54321430D434560F0BD2A
:10586000FF63FF0390F841200021602A04D0016308
:1058700080F84010816E0847202280F841200163A3
:1058800080F84010C16E08472DE9F04104460E46ED
:1058900017461D46DDF8188008E0681C06D0FBF7A7
:1058A000BBFFA0EB0800A8420BD855B12068806967
:1058B00036EA000011D00020B842EED00020BDE84A
:1058C000F0814034606840F020006060202060700B
:1058D0000020A07020700120F1E70120ECE770B5F6
:1058E00004460D4616460FE0324629462046FFF78D
:1058F00087FC08B1012070BD681C05D0FBF78CFF48
:10590000801BA84207D835B120688069C043800752
:10591000EAD4002070BD4034606840F02000606030
:10592000202060700020A0702070012070BD08B59C
:1059300075216A46682004F0E3FE9DF8000068289F
:1059400001D0002008BD012008BD10B500226B2148
:10595000682004F0F9FE00221921682004F0F4FE0A
:1059600000221A21682004F0EFFE08221B21682083
:1059700004F0EAFE10221C21BDE81040682004F06B
:10598000E3BE7CB50546052406E006236A463B21B6
:10599000682004F091FE10B1641EE4B2F5D29DF8C7
:1059A00000109DF8010040EA012129809DF80220A5
:1059B0009DF8030040EA022068809DF804309DF8BD
:1059C000052042EA032229806880AA807CBD7CB53C
:1059D0000546052406E006236A464321682004F0B4
:1059E0006BFE10B1641EE4B2F5D29DF800109DF874
:1059F000010040EA012129809DF802209DF8030062
:105A000040EA022068809DF804309DF8052042EAB3
:105A1000032229806880AA807CBD000038B5054635
:105A2000052406E002236A464121682004F044FE72
:105A300010B1641EE4B2F5D29DF800109DF801008B
:105A400040EA012000B200EE100A9FED061AB8EEFF
:105A5000C00AC0EE010A9FED040A30EE800A85ED0F
:105A6000000A38BD0000AA43B81E124208B5094812
:105A7000016841F400110160006800F4001000901A
:105A8000002205211020FCF71FFABDE80840102075
:105A9000FCF70CBA3038024010B5B2B01C222749CE
:105AA0002BA8FAF742FC00212BA805F01AF8244C89
:105AB00020601C2221491C3124A8FAF736FC002161
:105AC00024A805F00EF860601C221C4938311DA87E
:105AD000FAF72BFC00211DA805F003F8A0601C229A
