:020000040800F2
:10000000985500208D030008FD430008013A0008C0
:10001000C1430008290B00087152000800000000CD
:10002000000000000000000000000000C9020008FD
:10003000E90B0008000000002503000851450008F6
:10004000A7030008A7030008A7030008A7030008E8
:10005000A7030008A7030008A7030008A7030008D8
:10006000A7030008A7030008A7030008A7030008C8
:10007000A7030008A7030008A7030008A7030008B8
:100080002D0B0008A7030008A7030008A70300081A
:10009000A7030008A7030008A7030008A703000898
:1000A000A7030008BD460008A7030008A70300082F
:1000B000A7030008C9460008A7030008A703000813
:1000C000A7030008A7030008A7030008A703000868
:1000D000A7030008B5510008C9510008D551000810
:1000E000EB0B0008A7030008A7030008A7030008FC
:1000F000A7030008A7030008A7030008A703000838
:10010000A7030008A7030008D5460008A7030008B6
:10011000154C0008294C0008E1460008F546000887
:10012000A7030008390B0008A7030008A70300086D
:10013000A7030008A7030008A7030008A7030008F7
:10014000A7030008A7030008A7030008A7030008E7
:10015000A7030008A7030008A7030008E951000847
:10016000A7030008A7030008A7030008A7030008C7
:10017000A7030008A7030008A7030008A7030008B7
:10018000A7030008A7030008A7030008A7030008A7
:10019000A7030008A7030008A7030008A703000897
:1001A000A7030008A7030008A7030008A703000887
:1001B000A7030008A7030008A7030008A703000877
:1001C000A7030008A703000800F002F800F06DF88C
:1001D0000AA090E8000C82448344AAF10107DA45A2
:1001E00001D100F062F8AFF2090EBAE80F0013F087
:1001F000010F18BFFB1A43F0010318471C930000BE
:100200003C9300000A444FF0000C10F8013B13F03F
:10021000070408BF10F8014B1D1108BF10F8015B5F
:10022000641E05D010F8016B641E01F8016BF9D152
:1002300013F0080F1EBF10F8014BAD1C0C1B09D1A9
:100240006D1E58BF01F801CBFAD505E014F8016B1B
:1002500001F8016B6D1EF9D59142D6D370470000AD
:100260000023002400250026103A28BF78C1FBD8BF
:10027000520728BF30C148BF0B607047642900F0A7
:100280007981752900F07681782900F0AF816329A2
:1002900000F0CE83732900F0D383002070471FB590
:1002A00008F067FF1FBD10B510BD00F0FFFB114641
:1002B000FFF7F5FF05F01EFD00F01DFC03B4FFF78E
:1002C000F2FF03BC04F0F7FF2D4B19680868B0E893
:1002D000F04F80F30988BFF36F8F4FF0000080F379
:1002E000118870470000000008480068006880F32B
:1002F00008884FF0000080F3148862B661B6BFF33F
:100300004F8FBFF36F8F00DF00BF00BF08ED00E02D
:10031000DFF80C00016841F470010160704700BF14
:1003200088ED00E0EFF30980BFF36F8F144B1A687C
:100330001EF0100F08BF20ED108A20E9F04F10606A
:1003400009B44FF0500072B680F31188BFF34F8F9D
:10035000BFF36F8F62B607F0F7FC4FF0000080F339
:10036000118809BC19680868B0E8F04F1EF0100F3A
:1003700008BFB0EC108A80F30988BFF36F8F704715
:1003800024030020EFF305807047000009488047F0
:1003900009480047FEE7FEE7FEE7FEE7FEE7FEE767
:1003A000FEE7FEE7FEE7FEE704480549054A064B7F
:1003B0007047000049460008C9010008984F002016
:1003C000985500209851002098510020704753EA1A
:1003D000020C00F069802DE9F04B4FF00006002B75
:1003E0001FBFB3FA83F503FA05F424FA05F65E405D
:1003F00012BF1643B2FA82F502FA05F4C5F12005E0
:100400001EBF22FA05FC44EA0C04203556EA044CCF
:100410004FEA144418BF641C4FF000084FF0000965
:10042000904271EB030C39D3002919BFB1FA81F75F
:1004300001FA07F6B0FA80F700FA07F6C7F12007CD
:100440001EBF20FA07FC46EA0C062037B6FBF4FC78
:10045000A7EB0507103F07F01F0BCBF120060CFAA6
:100460000BFB2CFA06F644BFB3460026202FA4BF90
:100470005E464FF0000B5BEA060C08BF4FF0010B25
:1004800019EB0B09ABFB027C48EB0608C01B06FB13
:1004900002CC0BFB03CC71EB0C01C1E70B4602460F
:1004A00041464846BDE8F08B13B54FF000004FF0D1
:1004B0000001AFF30080BDE81C4070470FB4044951
:1004C00010B503AA029800F0BFFA10BC5DF814FB47
:1004D0001C01002070B5044685690068C10601D57D
:1004E000302600E02026C00707D070BDD4E90121E6
:1004F00030469047206A401C20626D1EF6D570BDC4
:1005000070B5044685690078C00707D170BDD4E98D
:10051000012120209047206A401C20626D1EF6D5E4
:1005200070BD70B50C460546012A05D028788006B6
:1005300000D5EA69002302E0012305E05B1C934239
:1005400002D2E05C0028F9D1A869E618C01AA861B7
:10055000286A184428622846FFF7BCFF04E0D5E962
:10056000012114F8010B9047B442F8D32846FFF755
:10057000C7FF70BD2DE9F0410646002410687529BB
:10058000314616A510D0AFF30080002802DA4042B1
:1005900013A507E031688A0701D512A502E04907D3
:1005A00004D511A5012401E0AFF3008000210A2247
:1005B00006F1240709E0B0FBF2FCB0FBF2F302FB0A
:1005C0001C00303078541846491C0028F3D12346CB
:1005D0002A463046BDE8F04100F0C7B900000000EF
:1005E0002D0000002B0000002000000070B5044624
:1005F0000D4621461068AFF300802188090502D519
:100600000F4A7A4402E00E4A7A440E32002104F185
:10061000240305E000F00F060009965D5E54491CB6
:100620000028F7D120780023000704D5702D02D0D0
:1006300009B1022311322046BDE8704000F095B99F
:10064000728C00002DE9F05F894604464FF0000AE5
:10065000DFF874B1FB44C0F820A02046E168884769
:10066000002874D0252806D0D4E901219047206ABB
:10067000401C2062F1E700265F462046E16888477B
:100680002028054607DB312D05D2781910F8200CFB
:1006900008B10643F1E7B00701D526F00406C4F817
:1006A0001CA00027C4F818A02A2D09D0284604F061
:1006B000FBFD38B304EB8708303DC8F8185019E04B
:1006C00059F8041B204604EB87029161E1688847D2
:1006D000012F054618D1E069002820DA26F020060F
:1006E0001DE0D8F8180000EB800005EB4000303822
:1006F000C8F818002046E1688847054604F0D4FD94
:100700000028EED1012F0AD02E2D08D12046E16815
:1007100088477F1C0546022F46F02006C4DBA069EF
:10072000002803DA404246F00106A061F00701D03C
:1007300026F010066C2D0BD0682D09D04C2D39D029
:100740006A2D35D0742D35D07A2D33D016E038E0AF
:10075000E1682F4620468847B842054609D16C2FEC
:1007600026D04FF48060E16806432046884705465E
:1007700004E06C2F1AD04FF4807006430DB3A5F13E
:100780004100192802D8203546F400664A46294619
:10079000204626604E46FFF771FD80B101280BD040
:1007A000F61D26F0070000F1080956E74020E4E7AF
:1007B0008020D8E70020D6E706F104094DE7284657
:1007C00052E7206ABDE8F09F488C0000032A40F2FF
:1007D000308010F0030C00F0158011F8013BBCF1E3
:1007E000020F624498BF11F801CB00F8013B38BFFB
:1007F00011F8013BA2F1040298BF00F801CB38BF09
:1008000000F8013B11F0030300F02580083AC0F026
:10081000088051F8043B083A51F804CBA0E80810CE
:10082000F5E7121D5CBF51F8043B40F8043BAFF301
:100830000080D20724BF11F8013B11F801CB48BF5B
:1008400011F8012B24BF00F8013B00F801CB48BF91
:1008500000F8012B704710B5203AC0F00B80B1E8CA
:100860001850203AA0E81850B1E81850A0E81850E5
:10087000BFF4F5AF5FEA027C24BFB1E81850A0E8EE
:10088000185044BF18C918C0BDE810405FEA827C08
:1008900024BF51F8043B40F8043B08BF7047D2071F
:1008A00028BF31F8023B48BF11F8012B28BF20F8C0
:1008B000023B48BF00F8012B704701F0FF031146CF
:1008C00001B543EA032242EA024200F003F801BD07
:1008D0004FF000020429C0F0128010F0030C00F069
:1008E0001B80CCF1040CBCF1020F18BF00F8012BE7
:1008F000A8BF20F8022BA1EB0C0100F00DB85FEAB5
:10090000C17C24BF00F8012B00F8012B48BF00F880
:10091000012B70474FF0000200B5134694469646EF
:10092000203922BFA0E80C50A0E80C50B1F1200102
:10093000BFF4F7AF090728BFA0E80C5048BF0CC0B0
:100940005DF804EB890028BF40F8042B08BF70470E
:1009500048BF20F8022B11F0804F18BF00F8012B80
:10096000704770477047704770472DE9F0470D4654
:1009700099469246044600F124080168880604D589
:10098000E06921F01001216000E00120A84201DDB2
:10099000471B00E00027A1697A1902EB0900081A39
:1009A000A0612078C00602D42046FFF793FD002600
:1009B00008E0D4E901211AF806009047206A401C9B
:1009C000761C20624E45F4DB2078C0060AD520460E
:1009D000FFF780FD06E0D4E9012130209047206A2E
:1009E000401C2062381EA7F10107F4DC07E0D4E9BF
:1009F000012118F805009047206A401C2062281E3B
:100A0000A5F10105F3DC2046FFF77AFD207800060A
:100A100002D50220BDE8F0870120FBE710B543694D
:100A200013B1AFF3008001E0FFF77BFD012010BDA3
:100A3000127800F124010A7000224A700122EDE7C9
:100A400011684FF0FF32E9E7074B70B50D467B4464
:100A500000F011F80446284600F020F810B14FF0DD
:100A6000FF3070BD204670BD3350000001694A1C44
:100A700002610878704700B58FB0CDE901310021DF
:100A8000059105497944CDE9031011466846FFF701
:100A9000D9FD0FB000BD0000E5FFFFFF007B00F0B7
:100AA0008000704700487047344F00207546FFF7BC
:100AB000F9FFAE4605006946534620F0070085461B
:100AC00018B020B5FFF770FCBDE820404FF00006DD
:100AD0004FF000074FF000084FF0000B21F0070126
:100AE000AC46ACE8C009ACE8C009ACE8C009ACE869
:100AF000C0098D46704710B50446AFF3008020460C
:100B0000BDE81040FFF7DABB05480B2210B50549D8
:100B1000006802F043FFBDE81040002003F0C8BCAD
:100B200028000020ED0C0020FEE70000014800F046
:100B30001DB90000800B0020014800F017B900002B
:100B4000E00B002001681823CAB2103AB2FBF3F29E
:100B5000054B6FF30901032A9B5CC36500D9091D8E
:100B600081650846704700007092000810B58369DF
:100B70004FF0C074826A0146002053B1B3F5005FA4
:100B800015D072B1012A0CD0022A0AD0032A09D149
:100B900004E01AB1012A06D0022A03D1C96AC901A8
:100BA00000D5012010BDC96AA142FAD010BD002AAB
:100BB000F7D0012AF2D0022AF3D0032AF3D010BDD5
:100BC00030B50468256825F48025256004686360D5
:100BD0008368402B036803D099600068C26030BD11
:100BE0009A600068C16030BD704710B504F092FC97
:100BF000BDE810404FF4005000F04CBA72B6FEE76A
:100C0000114838B5016841F01001016000686B239C
:100C10000E4A002400F0100000900D48802142F29E
:100C20000F75816180E83C0001F00CFA002205217B
:100C3000362000F0AFFB362000F09EFBBDE83840C8
:100C4000034801F0B1BA00004038024000100040F3
:100C5000080F002070B502780E490F4B62B90122CF
:100C600002704D6A002440F271265A68724305EB07
:100C700002128260C460426040F271248268426065
:100C80004D6A5968614305EB01118A1AC0E90212E5
:100C900070BD000000100040040100200448D0EDA9
:100CA000030A416891ED000A30EE200A04F004BB0B
:100CB000280000202DE9F041876D044600F0ECFA91
:100CC000064694F835000025022806D0802060658D
:100CD000012084F83450BDE8F0812068016821F0DB
:100CE000160101602068416921F080014161206C9A
:100CF00008B9A06C20B12068016821F008010160EA
:100D00002068016821F0010101600CE000F0C4FAE4
:100D1000801B052807D920216165032084F8345001
:100D200084F83500D7E720680068C007EED194F852
:100D30005C203F2001219040B86084F8345084F852
:100D400035100020C7E790F83510022903D0802124
:100D5000416501207047052180F835100068016861
:100D600021F0010101600020704700002DE9F843E7
:100D700004464FF00009644B0820CDF800904FF472
:100D80001652A56D94F85C101B682E68B3FBF2F741
:100D900000FA01F131420FD021680A6852070BD5E1
:100DA0000A6822F004020A6094F85C108840A86087
:100DB000606D40F00100606594F85C104FF0010830
:100DC00008FA01F0304208D021684969090604D5C3
:100DD000A860606D40F00200606594F85C1004202B
:100DE0008840304208D021680968890704D5A86086
:100DF000606D40F00400606594F85C10102088403D
:100E0000304218D021680968090714D5A860206805
:100E10000168490304D50068000308D5A16C07E008
:100E20000168C90503D4016821F008010160216C43
:100E300009B12046884794F85C1020208840304251
:100E400031D021680968C9062DD5A86094F835000D
:100E500005282068016806D0490347D500680003CB
:100E60001DD4616C1CE021F016010160206841690D
:100E700021F080014161206C08B9A06C20B120688C
:100E8000016821F00801016094F85C303F229A402B
:100E9000AA6084F8349084F83580216D1FE0E16BFE
:100EA00009B120468847606D00282BD0606DC007CF
:100EB00014D0052084F835002068016821F0010174
:100EC00001600098401C0090B84203D82068006878
:100ED000C007F6D184F8349084F83580E16C00299D
:100EE00010D001B02046BDE8F04308470168C905AD
:100EF000D5D4036823F01003036084F8349084F899
:100F00003580CCE7BDE8F883200300202DE9F047C9
:100F1000044600F0C1F9054664B14FF0000984F8B9
:100F20003490022184F835102068016821F0010115
:100F300001600EE00120BDE8F08700BF00F0ACF9D1
:100F4000401B052805D920216165032084F8350060
:100F5000F1E720680068C007F0D1D4E90020D4E9A7
:100F60000251D4E9043C284304F11805194308430D
:100F7000116895E8E00140EA0C001C4B2843194039
:100F800040EA060040EA0700B8F1040F40EA010019
:100F900003D1D4E90B1319430843106020680126DC
:100FA000656A4069042D20F0070045EA00050CD170
:100FB000D4E90A01054341B12046FFF7D7FD20B12E
:100FC0004020606584F83560B4E7206845612046BC
:100FD000FFF7B8FD94F85C303F229A408260C4F875
:100FE000549084F835600020A5E700003F8010F0A1
:100FF0002DE9F041044690F8340000250128A66D43
:101000000ED094F835C00127002084F83470BCF16C
:10101000010F07D0022584F834002846BDE8F0818E
:101020000220FBE7022784F8357060652046FFF751
:10103000C7FD94F85C103F208840B06020680168CC
:1010400041F0160101602068416941F08001416171
:10105000206C20B12068016841F00801016020681F
:10106000016841F001010160D7E7000070B5044656
:1010700000F012F90546601C02D0044800780444D0
:1010800000F00AF9401BA042FAD370BD840300208F
:1010900070470000044910B50A68024202D0086097
:1010A000FFF7F6FF10BD0000143C01402DE9F84F9A
:1010B00000224FF001094FF0030A4FF00F0E00BF5E
:1010C0000B6809FA02F42340A34270D14D68012D48
:1010D00005D0022D03D0112D01D0122D11D185681C
:1010E0005700CE680AFA07FC25EA0C05BE402E43DD
:1010F000866045680E79A543C6F3001696402E43D8
:101100004660C56856008F680AFA06F4A543B740E2
:101110002F43C7604D68022D01D0122D12D1D50882
:101120000F694FEA427C00EB8505AB462D6A4FEA1A
:10113000DC6C0EFA0CF807FA0CF725EA08052F43C9
:10114000CBF820700D79076805F00305A743B5407B
:101150003D4305604C68E40074D53D4C256845F47A
:1011600080452560246822F00307960704F4804434
:101170000094384C360F2744D7F80848DFF8D8C019
:101180000EFA06F5604524EA050401D100252EE09B
:10119000324DA84201D1012529E0314DA84201D1AB
:1011A000022524E02F4DA84202D103251FE049E08B
:1011B0002D4DA84201D1042519E02C4DA84201D1A2
:1011C000052514E02A4DA84201D106250FE0294D3E
:1011D000A84201D107250AE0274DA84201D10825E0
:1011E00005E0264DA84201D1092500E00A25B540B9
:1011F000234E2543C7F808584D683468ED0324EAA8
:10120000030400D51C431E4D34602D1D4E682C6810
:10121000B60324EA030400D51C43194E2C6008369B
:101220004D683468ED0224EA030400D51C43144DD4
:1012300034600C354E682C68B60224EA030400D5ED
:101240001C432C60521C102AFFF43AAFBDE8F88F03
:1012500044380240003001400000024000040240D7
:1012600000080240000C024000100240001402403E
:1012700000180240001C02400020024000240240EE
:10128000003C01400069084000D0012070470AB1CD
:10129000816170470904FBE70148806870470000DE
:1012A00084030020024881680278114481607047FD
:1012B00084030020032010B500F08CF80F2000F00C
:1012C00005F800F03DF8002010BD000010B5002228
:1012D0000146372088B000F05DF8372000F04CF868
:1012E0001348016841F020010160006805A900F081
:1012F00020000690684600F0CBFB00F0E9FB0D49AA
:10130000400000220C4CB0FBF1F10C4840F2E733F6
:101310000460C0E90332491EC0E9011200F092FEE8
:1013200010B1012008B010BD044800F03DFFF9E7FE
:101330004038024040420F0000140040400C0020A2
:101340000C4882B0016841F080510160006800F0F3
:10135000805000900748001D016841F48041016001
:10136000006800220F2100F480400090901E02B01F
:1013700000F010B840380240002809DB410900F0B5
:101380001F028900012001F1E0219040C1F8000115
:10139000704700000E4BF0B41B680D46C3F30223E8
:1013A000C3F10706042E00D90426191D072901D20E
:1013B000002300E0DB1E012404FA06F19C40491ED4
:1013C0002940641E994014402143F0BC03F051BFF2
:1013D0000CED00E0064900F0070210B54FF6FF04DF
:1013E0000868044B204040EA02201843086010BD02
:1013F0000CED00E00000FA051848F8B5016841F06E
:10140000805101600068164C00F080500090206808
:1014100040F480302060FFF73FFF4FF47A760546B6
:1014200005E000BFFFF738FF401BB0420FD86068EF
:10143000C003F7D5206840F400302060FFF72CFF90
:10144000054606E0FFF728FF401BB04201D9032004
:10145000F8BD60688003F5D50020F8BD4038024033
:10146000007000402DE9F84F04460078DFF824941E
:101470004FF000063746C0070ED0D9F8001021F40F
:101480000001C9F80010D9F80010626B1143C9F8C7
:101490000010606B00B90126FE4D20688435000302
:1014A0000ED5E16B286820F4401008432860E06BFB
:1014B000B0F5801F01D010B102E0012600E0012745
:1014C00020684FF4800BC0020CD5216C286820F4F2
:1014D000400008432860206C584501D1012601E0F6
:1014E00000B901272068C10100D50126800666D514
:1014F000E8483830016841F0805101600068DFF849
:1015000098A300F080500090DAF8001041F4807148
:10151000CAF80010FFF7C0FE804605E0FFF7BCFEEA
:10152000A0EB080064287DD8DAF80000C005F5D5E6
:10153000DFF8608308F16808D8F8000010F4407004
:101540002AD0218E01F44071814225D0D8F80010B4
:10155000D8F8002021F4407142F48032C8F800200D
:10156000D8F8002022F48032C8F80020C8F8001013
:10157000D8F80000C0070FD0FFF78EFE824607E0C4
:10158000FFF78AFEA0EB0A0141F288308142CAD8F7
:10159000D8F800008007F3D5206BC0F301210329A0
:1015A0007ED0D9F8001021F4F811C9F80010228E6D
:1015B000D8F80010C2F30B021143C8F800102078CD
:1015C000C00607D5286820F0807028602868A16BC5
:1015D000084328602188AF488830490405D5626EE9
:1015E000016821F44031114301602188090405D5C7
:1015F000A26E016821F44021114301602168C903F2
:1016000005D5E26E016821F44011114301602168A3
:10161000890305D5226F016821F44001114301605F
:10162000217800E016E1490605D5626C016821F0D9
:101630000301114301602178090605D5A26C0168F8
:1016400021F00C01114301602188C90505D5E26C28
:10165000016821F03001114301602188890505D519
:10166000226D016821F0C001114301602188490504
:1016700005D5626D016821F4407111430160218834
:10168000090505D5A26D016821F44061114301608F
:101690002188C90407D5E26D016821F4405100E0BA
:1016A0004AE0114301602188890405D5226E016852
:1016B00021F44041114301602168490205D5A26F20
:1016C000016821F080611143016021684FF0006AD8
:1016D000890209D5E26F016821F0006111430160C0
:1016E000E16F514500D1012721680A0700D5012784
:1016F000490305D5626F016821F040711143016013
:101700002168090206D5D4F88020016821F08051B3
:1017100011430160DFF88491012E02D0206880011E
:101720007ED5D9F800004E4620F08060C9F8000050
:10173000FFF7B2FD80460FE0594AD9F8003010405B
:1017400023F4F8120243C9F8002030E7FFF7A4FDA4
:10175000A0EB080064287DD830680001F6D4217819
:101760004C487C30C90712D0616B81B9237A62681A
:101770000168D0F800C09201C1F3014142EA014280
:10178000CCF3036142EA016141EA0371016021681F
:101790000A0303D5E26BB2F5801F04D0C9021AD543
:1017A000216C594517D16368016894F80CC0026830
:1017B0009B01C1F3014143EA0141C2F3027241EAD4
:1017C0000C6141EA027101602968626A21F01F011F
:1017D000521E114329602168C90110D5238A62680D
:1017E0000168D0F800C09201C1F3036142EA0342EC
:1017F00042EA0162CCF3027142EA017101602168A0
:1018000089010CD56168228A237B94F808C089017C
:1018100041EA024141EA036141EA0C71016000E0E2
:1018200011E03168B04641F080613160FFF734FD6E
:10183000064604E0FFF730FD801B64280AD8D8F87C
:1018400000000001F6D56FB3D9F800004E4620F035
:10185000805000E07BE0C9F80000FFF71DFD07465F
:1018600005E000BFFFF718FDC01B64286FD8306883
:10187000C0438000F6D50748216880300A0301D5AF
:10188000E26B1AB1C90225D5216C19BB63690168E5
:10189000277E08E00838024000700040003802400F
:1018A000FFFCFF0F5AE00268C1F301419B0143EACC
:1018B0000143C2F3027143EA076242EA0171016027
:1018C00029686FF0FF03A26A21F4F85103EB0222AA
:1018D000114329602168890212D5E16F51450FD16A
:1018E000238C6269016807689201C1F3036142EACF
:1018F000034242EA0162C7F3027142EA01710160E8
:101900002178090716D561690268D0F800C08B01FB
:10191000277FC2F30362CCF3014143EA014141EA6C
:10192000026141EA077101602868E16A20F44030F1
:1019300008432860306840F080503060FFF7ACFC0E
:10194000044607E0FFF7A8FC001B642802D9032027
:10195000BDE8F88F3068C0438000F3D40020F7E77B
:101960002DE9F04705000F4663D0444E306800F083
:101970000F00B84209D2306820F00F0038433060C1
:10198000306800F00F00B84253D128683C4C810702
:1019900012D5400703D5206840F4E0502060287835
:1019A000000703D5206840F460402060A9682068E3
:1019B00020F0F000084320602878C0072AD0304982
:1019C00068680839012810D00968022810D08907F2
:1019D00000292EDA216821F0030101432160FFF77D
:1019E0005BFC804641F288390DE009688903EFE726
:1019F0008901EDE7FFF750FCA0EB0801494502D94A
:101A00000320BDE8F0876868216801F00C01B1EBA4
:101A1000800FEFD1306800F00F00B8420BD930686A
:101A200020F00F0038433060306800F00F00B842FB
:101A300001D00120E5E72878400705D5E96820684E
:101A400020F4E050084320602878000706D5286974
:101A5000216821F4604141EAC000206000F058F89C
:101A60002168084AC1F30311515CC8400649086067
:101A700006480068FFF72AFC0020C2E7003C02404D
:101A800008380240589200082003002088030020F4
:101A90000D4A0F2330B503604FF4E0540B4B15682B
:101AA00005F003054560156805F0F00585601568CB
:101AB00005F4E055C560126804EAD20202611868B4
:101AC00000F00F00086030BD08380240003C0240C2
:101AD0000449054809680068044AC1F38221515C41
:101AE000C840704708380240200300206892000870
:101AF0000449054809680068044AC1F34231515C51
:101B0000C84070470838024020030020689200084F
:101B1000154910B51548096811F00C0213D0144985
:101B2000042A0FD0082A0ED10F4C241F22682368E4
:101B300002F03F025B0207D52068C0F38810A0FBCB
:101B4000010106E0084610BD2168C1F38811A1FB20
:101B500000010023FEF73BFC2168C1F30141491C51
:101B60004900B0FBF1F010BD083802400024F40039
:101B700040787D012DE9F84F04004FF000076ED04A
:101B80002078DFF868A3AAF10408C007A8F10405CB
:101B90004CD0DAF800105046C1F38101012908D079
:101BA0000068C0F3810002280AD1D8F80000400282
:101BB00006D52868800339D560680028DFD035E075
:101BC0006068B0F5803F0BD010B1B0F5A02F11D0F8
:101BD000286820F480302860286820F4802002E003
:101BE000286840F480302860606890B1FFF754FBAB
:101BF00006460AE0286840F480202860F0E700BF2D
:101C0000FFF74AFB801B642872D828688003F7D549
:101C10000CE0FFF741FB064605E000BFFFF73CFB89
:101C2000801B6428F0D828688003F7D420788007C8
:101C300042D5DAF80010504611F00C0F08D00068B9
:101C4000C0F3810002280BD1D8F80000400207D46D
:101C50002868800718D5E068012800D114E041E128
:101C6000E0680028286817D040F001002860FFF7DE
:101C700013FB064605E000BFFFF70EFB801B0228A2
:101C8000C2D828688007F7D52069296821F0F801B3
:101C900041EAC00028600FE020F001002860FFF753
:101CA000FBFA064605E000BFFFF7F6FA801B0228A4
:101CB0001ED828688007F7D42078000729D58B48DC
:101CC00061696C3000298146016812D041F0010140
:101CD0000160FFF7E1FA064605E000BFFFF7DCFA16
:101CE000801B022804D8D9F800008007F6D510E040
:101CF00089E021F001010160FFF7CEFA064604E019
:101D0000FFF7CAFA801B02287DD8D9F800008007A7
:101D1000F6D4207840076BD5DFF8D09109F1380967
:101D2000D9F80000C0000BD4D9F8001041F0805160
:101D3000C9F80010D9F80000012700F08050009089
:101D40006B480168C90512D40168834641F480716B
:101D50000160FFF7A1FA064605E000BFFFF79CFA15
:101D6000801B64284FD8DBF80000C005F6D55F4E15
:101D7000A068683601280AD008B1052811D030685B
:101D800020F001003060306820F0040002E030688C
:101D900040F001003060A068A0B1FFF77DFA8346F3
:101DA0000CE0306840F004003060F0E7FFF774FAB0
:101DB000A0EB0B0141F28830814266D83068800781
:101DC000F4D50EE0FFF768FA834607E0FFF764FA00
:101DD000A0EB0B0141F28830814256D83068800771
:101DE000F4D42FB1D9F8001021F08051C9F80010B7
:101DF000A069C8B3DAF80010C1F3810102294BD001
:101E00000228286800E040E020F08070286003D0BD
:101E1000FFF742FA04463BE0FFF73EFA064604E0CD
:101E2000FFF73AFA801B02282FD828688001F7D4E0
:101E3000D4E90962D4E907012E4B570894F82C2005
:101E4000084303EB074343EA8611084340EA026074
:101E500040F00050C8F80000286840F0807028600A
:101E6000FFF71AFA044606E03EE000BFFFF714FA57
:101E7000001B022809D828688001F7D534E000BF8C
:101E8000FFF70AFA001B022802D90320BDE8F88FE9
:101E900028688001F4D427E00128D8F8000021D078
:101EA000E16900F480028A421CD1216A00F03F02FD
:101EB0008A4217D1626A47F6C0710140B1EB821FB6
:101EC00010D1A16A4FF0FF3200F4403302EB510110
:101ED000B3EB014F06D194F82C1000F07060B0EB1A
:101EE000016F01D00120D1E70020CFE70838024080
:101EF000007000400000FFFF70477047704700000F
:101F00002DE9F04390F83C20012A42D0012280F8CC
:101F10003C2051F80C4BDFF880804FF0000991E82D
:101F2000680051E9022723F44073B1F80CC03B4329
:101F3000CF6923F480631343026823F400632343CF
:101F400023F4805343EA050323F4005343EA0603D2
:101F500023F4804343EA07030C3923F470234245FA
:101F600043EA0C4302D00D4CA2420CD18D8C23F4D9
:101F70007006D1E9073446EA055121F08071194312
:101F800021F000732343536480F83C900020BDE8A7
:101F9000F0830220FBE70000000001400004014044
:101FA000F0B590F83C20012A3BD01F4E012480F868
:101FB0003C40022280F83D2002681C4D5368B2422A
:101FC000D2F808C001D0AA4203D14F6823F47003AD
:101FD0003B430F6823F070031F4357600268B2420F
:101FE00013D0B2F1804F10D0114B9A420DD0114B4B
:101FF0009A420AD0104B9A4207D0AA4205D00F4B02
:102000009A4202D00E4B9A4204D189682CF0800388
:1020100019439160002180F83D4080F83C1008464B
:10202000F0BD0220F0BD00000000014000040140AE
:102030000004004000080040000C00400040014047
:102040000018004010B5040003D094F83D0010B112
:1020500007E0012010BD002084F83C00204600F07D
:1020600023F8022084F83D002068211D02F048FB7F
:10207000012084F8480084F83E0084F83F0084F88A
:10208000400084F8410084F8420084F8430084F85A
:10209000440084F8450084F8460084F8470084F83A
:1020A0003D00002010BD000008B501681A488142BB
:1020B0000FD11A48016841F0010101600068002257
:1020C000062100F0010000901920FFF763F91920A4
:1020D00014E01348B1F1804F14D0124A914219D143
:1020E000016841F01001016000680022062100F043
:1020F000100000903620FFF74DF93620BDE808406B
:10210000FFF73AB9016841F001010160006800F091
:102110000100009008BD000000000140443802406A
:10212000403802400010004090F83D10012901D0D5
:1021300001207047144B0222016880F83D2099422B
:1021400014D0B1F1804F11D0104881420ED0104808
:1021500081420BD00F48814208D00F48814205D000
:102160000E48814202D00E48814207D188680D4A4C
:102170001040062806D0B0F5803F03D0086840F034
:10218000010008600020704700000140000400408A
:1021900000080040000C00400004014000400140E5
:1021A000001800400700010090F83D10012901D0FF
:1021B00001207047174A022180F83D100168CB6862
:1021C00043F00103CB600068904214D0B0F1804F1F
:1021D00011D0114988420ED0104988420BD01049C5
:1021E000884208D00F49884205D00F49884202D062
:1021F0000E49884207D181680D4A1140062906D050
:10220000B1F5803F03D0016841F001010160002079
:10221000704700000000014000040040000800403A
:10222000000C004000040140004001400018004044
:102230000700010070B5044690F83C00012817D053
:10224000324B012584F83C50022084F83D0022687E
:102250009068184020F47F4090600868502830D083
:102260000DDC20284DD005DC98B310283BD148E088
:10227000022070BD302844D0402834D139E0602895
:1022800028D0702806D0B0F5805F2CD0B0F5005F64
:1022900029D10AE04A682068D1E9021302F0A3FAC2
:1022A0002068816841F0770109E04A682068D1E937
:1022B000021302F098FA2068816841F4804181603D
:1022C00011E0CA684968206802F0D4FB20685021F8
:1022D00007E016E0CA684968206802F01DFC206823
:1022E000602102F089FA002084F83D5084F83C0017
:1022F00070BDCA684968206802F0BCFB20684021B4
:10230000EFE7226801461046EBE7000088FFFEFF7A
:102310002DE9F04FFE4B01462DED0C8B81B09FED6A
:10232000FD9BFE4D0126986805F12804A4F13402B6
:102330009FEDFBCB9FEDFC8B9FEDFDAB9FEDFEBBBF
:10234000884205F13C07A4F1140B02F1880902F15F
:10235000940A71D191F81CC098461B7B9C45F8D11A
:10236000EB4953880969EBB30023538001F018F857
:102370000090CBF80400606806F0F9FB41EC1D0BFF
:10238000796840F271206A6841430098801A00EB36
:10239000011006F0ECFB41EC100B51EC1C0B53EC64
:1023A000102B06F02FFA53EC1D2B06F047FC2C34B3
:1023B00094ED021B53EC112B06F070F9C4E90201F5
:1023C000B9F802004D46401C02B2A9F80220D8F824
:1023D000101081B3042940D0D8F8080008290168FA
:1023E0000B6A00E009E03FD023F420430B62006851
:1023F000016A01620A2A3AD051E3B1465680464644
:1024000000F0CEFF686000217960B1883068FEF787
:1024100039FF90B14FF0FF306060306980B104281F
:1024200010D0082810D0B2681168086A20F4204043
:1024300008621068F8E009E05CE0C4F80490ECE79A
:10244000B068CEE2B168E8E1B068DCE2D8F8080034
:1024500001680B6A23F00A03C8E7D8F8080001688E
:102460000B6A23F0A003C1E723F42063BEE7DAF888
:10247000041079B394ED020B53EC182B51EC100BB4
:1024800006F0C0F9A54E41EC180B343E96ED020B58
:1024900053EC102B06F002F941EC100B02F0FAFE9F
:1024A00053EC1A2B51EC100B06F0C6FC0DD896ED30
:1024B000020B51EC180B53EC102B06F0EFF853EC19
:1024C0001B2B06F0BBFBC6E902010020688084EDEF
:1024D000029BE4E2FFE7CAF8046094ED020B53ECC0
:1024E000182B51EC100B06F08DF98C4A343AC2E9E6
:1024F0000201EAE7DFF84882D8F8080088427AD17A
:102500000B7F98F80CC06345F9D14146938809695F
:10251000F3B30023938000F043FF0090CBF8080052
:10252000A06806F024FB41EC1D0BB96840F2712055
:10253000AA6841430098801A00EB011006F017FBCF
:1025400041EC100B51EC1C0B53EC102B06F05AF91C
:1025500053EC1D2B06F072FB704D543595ED041BAA
:1025600053EC112B06F09AF8C5E90401B9F8040000
:102570004C46401C02B2A9F80420D8F81010C9B388
:1025800004295DD0D8F80800082901680B6A00E02A
:1025900009E05ED023F420430B620068016A016207
:1025A0000A2A59D07BE2968000F0FAFEA86000214A
:1025B000B960B8F80410D8F80000FEF763FE58B10F
:1025C0004FF0FF30C4F80800D8F8100030B10428EC
:1025D00012D008281CD0F6E1A660F5E7D8F808105C
:1025E0000A68106A20F00A0010620868016A41F067
:1025F00002011CE01DE072E0D8F808201168086AAA
:1026000020F0A00008621068016A41F020010EE08D
:10261000D8F808100868026A22F42062026208688A
:10262000016A41F4007102E0016A41F40051016263
:1026300035E2D8F8080001680B6A23F00A03ABE71B
:10264000D8F808100868036A23F0A003036208683A
:10265000A4E723F420639FE7DAF8081079B395ED37
:10266000040B53EC182B51EC100B06F0CBF82B4E4F
:1026700041EC180B343E96ED040B53EC102B06F096
:102680000DF841EC100B02F005FE53EC1A2B51EC47
:10269000100B06F0D1FB0DD896ED040B51EC180B86
:1026A00053EC102B05F0FAFF53EC1B2B06F0C6FA87
:1026B000C6E904010020A08085ED049BEFE1FFE75F
:1026C000CAF8086095ED040B53EC182B51EC100B75
:1026D00006F098F8114A343AC2E90401EAE7DFF853
:1026E0006480D8F8080088427ED10B7F98F80CC02F
:1026F000634579D14146D388096943B10023D3802A
:1027000000F04EFE0090CBF80C00E0681CE054E0B6
:10271000880E002000000000000000009C11002036
:1027200000000000006AF8400000000000002440A3
:102730000000000000003440000000000000E03F06
:10274000A80E0020C80E002006F011FA41EC1D0B67
:10275000F96840F27120EA6841430098801A00EB62
:10276000011006F004FA41EC100B51EC1C0B53EC79
:10277000102B06F047F853EC1D2B06F05FFAEC4CDB
:1027800094ED061B53EC112B05F088FFC4E90601FC
:10279000B9F806004D46401C02B2A9F80620D8F848
:1027A000101079B3042946D008294DD0D8F8081064
:1027B0000868036A23F4204343E0D68000F0F0FD6C
:1027C000E8600021F960B8F80410D8F80000FEF7BE
:1027D00059FDA8B14FF0FF30C4F80C00D8F8100034
:1027E00088B1042817D000E07EE008286CD0D8F823
:1027F00008100868026A22F420420262086813E79F
:10280000E660EBE710E0D8F808000268116A21F0F2
:102810000A011162EAE0D8F808100868026A22F09A
:10282000A00202620868EFE6D8F808100868036A98
:1028300023F00A0305E0D8F808100868036A23F0BB
:10284000A0030362086807E0D8F8080001680B6A73
:1028500023F420630B620068016A01620A2A31D105
:10286000DAF80C1079B394ED060B53EC182B51ECFD
:10287000100B05F0C7FFAE4E41EC180B883E96EDED
:10288000060B53EC102B05F009FF41EC100B02F086
:1028900001FD53EC1A2B51EC100B06F0CDFA0DD8BC
:1028A00096ED060B51EC180B53EC102B05F0F6FED1
:1028B00053EC1B2B06F0C2F9C6E906010020E880A4
:1028C00084ED069BEBE000E09BE0CAF80C6094ED21
:1028D000060B53EC182B51EC100B05F093FF944AA8
:1028E000883AC2E90601E9E7DFF84882D8F808002B
:1028F000884250D1097F98F80C3099424BD141461B
:1029000013890969F3B30023138100F049FD009096
:10291000CBF81000206906F02AF941EC1D0B39694B
:1029200040F271202A6941430098801A00EB01109F
:1029300006F01DF941EC100B51EC1C0B53EC102B65
:1029400005F060FF53EC1D2B06F078F9784C94ED00
:10295000081B53EC112B05F0A1FEC4E90801B9F8DE
:1029600008004D46401C02B2A9F80820D8F8101003
:1029700091B3042955D0D8F80800082901680B6ADA
:1029800058D000E008E023F420430B620068016A9D
:1029900001620A2A51D082E0168100F001FD28610F
:1029A00000213961B8F80410D8F80000FEF76AFC7D
:1029B00098B14FF0FF302061D8F8100078B10428AA
:1029C00016D008281DD0D8F8080001680A6A22F439
:1029D00020420A62006827E61CE02661ECE7D8F88E
:1029E000080001680A6A22F00A020A620068FDE52E
:1029F000D8F8080001680A6A22F0A0020A6200689A
:102A000002E6D8F8080001680A6A22F420620A6225
:102A1000006805E6D8F808100868036A23F00A037E
:102A200005E0D8F808100868036A23F0A0030362E1
:102A30000868ACE723F42063A7E7DAF81010D9B3ED
:102A400094ED080B53EC182B51EC100B05F0DAFE4B
:102A5000374E41EC180B883E96ED080B53EC102BCB
:102A600005F01CFE41EC100B02F014FC53EC1A2B89
:102A700051EC100B06F0E0F90DD896ED080B51EC77
:102A8000180B53EC102B05F009FE53EC1B2B06F032
:102A9000D5F8C6E908010020288184ED089B264C62
:102AA0002068401C2060B0F5C87F2CD1204E00204B
:102AB0002060883E012500E02AE006EBC50090ED8D
:102AC000000B02F0E7FB94ED041B51EC100B53ECF0
:102AD000112B05F0E3FD6D1CEDB2042DC4E90401DA
:102AE000E9D99FED160B53EC102B94ED040B51EC30
:102AF000100B06F0A3F894ED021B53EC112B05F01C
:102B0000CDFDC4E9020101B0BDEC0C8BBDE8F08F36
:102B1000CAF8106094ED080B53EC182B51EC100B15
:102B200005F070FE024A883AC2E90801B3E70000E6
:102B3000F0110020E80E00209001002000000000AD
:102B40000000D03F2DE9F041054690F83C000C46CE
:102B5000012836D0012085F83C008AB3042A42D0EF
:102B60002868082A51D0D4E90023E168066A4FF6A4
:102B7000FF774FF4204C26F48056066207EA0131B5
:102B8000C669076A0CEA023226F4407C27F4204624
:102B90004CEA0323324323F470431943C1610262B8
:102BA0002868C16921F44061C1612868A168C269CF
:102BB00042EA0121C161002085F83C00BDE8F081B6
:102BC00001E00220FAE7E3682868D4E9001201F086
:102BD00063FF2868816921F00C018161286881699F
:102BE000A26811430FE0E3682868D4E9001201F0FD
:102BF000A5FF2868816921F44061816128688169A5
:102C0000A26841EA02218161D5E7D4E90027217B4E
:102C1000036A4FF4206606EA0222090723F4807350
:102C20000362C369066A23F003033B4326F420666C
:102C300023F0F003324343EA1161C1610262286864
:102C4000C16921F00C01C1612868A268C169114302
:102C5000B0E710B5040003D094F83D0010B107E0D0
:102C6000012010BD002084F83C00204600F022F82E
:102C7000022084F83D002068211D01F041FD012063
:102C800084F8480084F83E0084F83F0084F840004F
:102C900084F8410084F8420084F8430084F844003A
:102CA00084F8450084F8460084F8470084F83D0025
:102CB000002010BD70B586B0044614216846FDF7AB
:102CC00029FE2F490025236802242E4E10392C4A54
:102CD0002D48B3422FD1136843F0020313601268EA
:102CE00002F0020205920A6842F001020A600A68D4
:102CF00002F0010205920A6842F002020A600968C5
:102D000001F00201059140218DE83200CDE9035424
:102D10006946FEF7CBF9012069468DE831001B4872
:102D2000CDE90354FEF7C2F9002206211D20FEF76B
:102D300031FB1D2020E0164EB3421FD1136843F033
:102D400008031360126802F0080205920A6842F054
:102D500001020A60096801F00101059105218DE871
:102D60003200CDE903546946FEF7A0F9002206219E
:102D70003220FEF70FFB3220FEF7FEFA06B070BDE0
:102D800040380240000400400000024000040240BD
:102D9000000C004010B5044679B1042912D008296E
:102DA00015D00C2918D0102919D094F8430000BF71
:102DB00094F84720012817D114E094F83E0094F8C5
:102DC0004420F7E794F83F0094F84520F2E794F8A0
:102DD000400094F84620EDE794F84100E8E794F8C5
:102DE0004200E5E7012A01D0012010BD4FF00200AA
:102DF00071B1042915D008291CD00C294ED01029F6
:102E00004FD084F843000C2984F847001BD14BE0D5
:102E100084F83E0084F844002068C26842F0020250
:102E200010E084F83F0084F845002068C26842F052
:102E3000040207E084F8400084F846002068C26875
:102E400042F00802C2602068012201F0BFFC19496B
:102E50002068884214D0B0F1804F11D016498842C2
:102E60000ED0164988420BD01549884208D0154922
:102E7000884205D01449884202D01449884207D1BB
:102E80008168134A1140062906D0B1F5803F03D06E
:102E9000016841F001010160002010BD84F841008B
:102EA000B1E784F84200AEE72068C26842F0100241
:102EB000C8E7000000000140000400400008004096
:102EC000000C004000040140004001400018004098
:102ED0000700010070B50446006800250169C94378
:102EE000890715D4C168C943890711D4EA1E026154
:102EF00001212177206880698007204602D0FFF7F2
:102F000007FA04E000F0FCF8204600F0BBF9257752
:102F100020680169C943490717D4C168C9434907F3
:102F200013D402216FF004020261217720688069C6
:102F300010F4407F204602D0FFF7EAF904E000F0E9
:102F4000DFF8204600F09EF9257720680169C94323
:102F5000090716D4C168C943090712D404216FF0C8
:102F60000802026121772068C0698007204602D0EC
:102F7000FFF7CEF904E000F0C3F8204600F082F934
:102F8000257720680169C943C90617D4C168C943B8
:102F9000C90613D408216FF010020261217720685E
:102FA000C06910F4407F204602D0FFF7B1F904E079
:102FB00000F0A6F8204600F065F925772068016941
:102FC000C943C90708D1C168C943C90704D1891ECB
:102FD0000161204600F0D4F920680169C94309065F
:102FE00009D4C168C943090605D46FF080010161A5
:102FF0002046FEF782FF20680169C943C90509D44C
:10300000C168C943090605D46FF480710161204687
:10301000FEF772FF20680169C943490609D4C168F7
:10302000C943490605D46FF040010161204600F014
:10303000CDF920680169C94389060BD4C168C94329
:10304000890607D46FF0200101612046BDE8704079
:10305000FEF754BF70BD000070B586B00546142160
:103060006846FDF757FC28680024214A02251F49BD
:10307000012690420FD1086840F0100008600868EF
:10308000694600F0100005904FF4D44000901948B4
:10309000CDE9015423E0B0F1804F24D1086840F01D
:1030A00001000860086800F001000590086840F021
:1030B000020008600868694600F0020005902020C0
:1030C0000090CDE901540C48CDE90346FDF7EEFF31
:1030D00040F60840009009486946CDE90154CDE921
:1030E0000346FDF7E3FF06B070BD00003038024034
:1030F00000000140001002400000024000040240B5
:10310000704770B5044690F83C000D4601280BD07E
:10311000012084F83C000C2A45D007DC5AB1042A6F
:103120001BD0082A78D12CE0022070BD102A4ED086
:10313000142A71D15DE0206801F066FB2068816986
:1031400041F0080181612068816921F004018161F9
:1031500020682A698169114311E0206801F08EFB23
:103160002068816941F4006181612068816921F4EE
:103170008061816120682969826942EA0121816157
:103180004AE0206801F0B6FB2068C16941F00801FF
:10319000C1612068C16921F00401C16120682A6908
:1031A000C169114311E0206801F0E0FB2068C169AA
:1031B00041F40061C1612068C16921F48061C1618D
:1031C00020682969C26942EA0121C16124E02068BE
:1031D00001F0F8FB2068416D41F00801416520686D
:1031E000416D21F00401416520682A69416D114358
:1031F00011E0206801F012FC2068416D41F400618B
:1032000041652068416D21F480614165206829692C
:10321000426D42EA01214165002084F83C0070BD06
:1032200010B5040003D094F83D0010B107E0012070
:1032300010BD002084F83C00204600F022F8022057
:1032400084F83D002068211D01F05AFA012084F81D
:10325000480084F83E0084F83F0084F8400084F879
:10326000410084F8420084F8430084F8440084F864
:10327000450084F8460084F8470084F83D000020AB
:1032800010BD70477047000010B504464FF00202B1
:1032900069B1042912D0082917D00C291CD0102993
:1032A00021D094F84300012824D0012010BD94F8C7
:1032B0003E000128F9D184F83E201DE094F83F003B
:1032C0000128F2D184F83F2016E094F8400001284C
:1032D000EBD184F840200FE094F841000128E4D1BC
:1032E00084F8412008E094F842000128DDD184F8F8
:1032F000422001E084F843200122206801F066FAB0
:1033000017492068174A884201D0904203D1436C84
:1033100043F4004343642068884213D0B0F1804FE7
:1033200010D0114988420DD0104988420AD0104966
:10333000884207D0904205D00E49884202D00E49FB
:10334000884207D181680D4A1140062906D0B1F59F
:10335000803F03D0016841F001010160002010BDF1
:10336000000001400004014000040040000800404B
:10337000000C004000400140001800400700010020
:1033800010B5044600F0E2FF04492068884203D1EA
:10339000BDE81040FDF786BF10BD000000140040DE
:1033A00002464FF0000041B1042909D008290AD093
:1033B0000C2901D11068006C70471068406B704791
:1033C0001068806B70471068C06B7047704770471B
:1033D000704700002DE9F04102680446002540F6E0
:1033E0000F06D06911689368304205D1830678D5FD
:1033F0008B0676D5616EE7E07C4F03F001060F4047
:1034000037437ED0C70709D0CF0507D501271762FC
:10341000D4F8802042F00102C4F8802082070AD547
:10342000DA0708D0276802223A62D4F8802042F0F6
:103430000402C4F8802042070AD5DA0708D02368BE
:1034400004221A62D4F8802042F00202C4F88020DC
:1034500002070CD501F02002324308D0236808226D
:103460001A62D4F8802042F00802C4F880200205D5
:103470000BD54A0109D523684FF400621A62D4F8CB
:10348000802042F02002C4F88020D4F88020002A56
:103490002FD0800605D5880603D5616E09B1204678
:1034A00088472168D4F880008968490602D410F062
:1034B000280F20D0204601F0AFFC20688168490623
:1034C00014D5816821F040018160206F70B14849B6
:1034D0000165206FFDF737FC00280AD0206F016DD1
:1034E00001E00EE02046BDE8F04108472046FFF726
:1034F0006FFFBDE8F0812046FFF76AFFC4F88050F7
:10350000F7E7266E2023012E59D1C60657D5CE06E1
:1035100055D5102010622068816849062ED5226F8B
:10352000116849680904090CE3D0B4F858608E4268
:10353000DFD9A4F85A10D169B1F5807F17D001689E
:1035400021F4807101602068816821F001018160AF
:103550002068816821F040018160E367256620686A
:10356000016821F010010160206FFDF7A3FBB4F8A2
:103570005800B4F85A10401A81B21CE0B4F8581040
:10358000B4F85A20B4F85A60891A89B2002EB0D023
:103590000029AED0026822F490720260206882682E
:1035A00022F001028260E367256665662068026892
:1035B00022F0100202602046FFF709FF99E7060695
:1035C00005D50E0603D5A16E00298BD191E74006E3
:1035D0008FD548068DD51168204621F04001116035
:1035E000A367A56600F00BFA83E700002001000442
:1035F000454D000810B5040002D0A06F10B107E0DF
:10360000012010BD002084F87400204600F026F848
:103610002420A0672068016821F001010160204694
:1036200001F01AFC0128ECD0606A10B1204601F0CC
:1036300005FB2068416821F4904141602068816861
:1036400021F02A0181602068016841F001010160D8
:103650002046BDE8104001F055BB00002DE9F04FB9
:1036600087B0074614216846FDF754F9BB4800248B
:10367000BB4B02263A681038B8490325DFF8E492BC
:103680009A424FF0080820D10A6842F400220A60EA
:10369000096801F400210591016841F0040101600D
:1036A000006802AA694600F004000590A802CDE96E
:1036B000000682E830014846FDF7F8FC00220521AB
:1036C0003420FDF767FE342034E0A74B9A4236D110
:1036D0000A6842F480120A60096801F480110591B9
:1036E000016841F004010160016801F004010591E5
:1036F000016841F008010160006802AA694600F013
:10370000080005909814CDE9000682E8300148468B
:10371000FDF7CCFC0420694602AACDE900069348D7
:1037200082E83001FDF7C2FC002206213520FDF7BA
:1037300031FE3520FDF720FE07B0BDE8F08FDFF841
:1037400030C28C4B624519D10A6842F080420A604F
:10375000096801F080410591016841F010010160A4
:10376000006802AA694600F0100005904FF4C0708E
:10377000CDE9000682E8300118461AE0DFF8F8C10A
:10378000624519D10A6842F000420A60096801F0F6
:1037900000410591016841F010010160006869462F
:1037A000CDE9005600F01000CDE90245CDE90480D6
:1037B0001846FDF77BFCBFE7704BDFF8A0A19A42EB
:1037C0004FF007030AF1040A24D1DAF8002042F08E
:1037D0001002CAF80020DAF8001001F0100105917B
:1037E000016841F00101016000686946029400F03F
:1037F000010005904FF4C060CDE900066048CDE9B6
:103800000353FDF753FC002205212520FDF7C2FDDF
:1038100025208FE7DFF86CC14FF4806B624537D10C
:103820000A6842F400320A60096801F40031059127
:10383000016841F00801016000686946029400F0E7
:10384000080005906020CDE900064848CDE9035303
:10385000FDF72CFC4C4D4FF000624C492846296086
:103860009112C5E90124C5E9034B6C61AC61C5E95E
:1038700007416C62FDF74AFB08B1FDF7BFF93D67F0
:1038800000220621AF632620FDF784FD262051E7A4
:10389000DFF8FCC0624521D10A6842F480220A6048
:1038A000096801F480210591016841F00801016077
:1038B00000686946029400F0080005904FF44070DB
:1038C000CDE900062948CDE90353FDF7EFFB0022BF
:1038D00005212720FDF75EFD27202BE72D498A4291
:1038E0007FF469AFDAF8002042F02002CAF8002025
:1038F000DAF8001001F020010591016841F004019F
:103900000160006802AA694600F004000590C0202A
:10391000CDE9000682E830014846FDF7C7FB1A4DA5
:103920001D49603528468A0529604FF40031C5E9F4
:103930000124C5E9034B6C61AC61C5E907416C62C8
:10394000FDF7E4FA08B1FDF759F93D6700220621B9
:10395000AF634720FDF71EFD4720EBE640380240ED
:10396000004C00400008024000500040000C0240A3
:103970000078004000100240007C00400010014030
:103980000000024000440040800B0020886002409C
:1039900000480040001401402864024030B4C36F66
:1039A000202B18D1A1B19AB190F87430012B12D00C
:1039B000012480F874400023036603685C682402D5
:1039C00003D51C6844F080641C6030BC01F05EBB11
:1039D000012030BC70470220FBE700000549884207
:1039E00001D103F0EBB804490968814201D100F02C
:1039F00009B87047F409002028000020704770477C
:103A0000FEE7000070B50B4D0024285D02F0E4F8DD
:103A100018B10848213801F077FC641CE4B20B2C83
:103A2000F3D305480B2203490068BDE87040FFF757
:103A3000B5BF0000ED0C0020280000202DE9F05F4C
:103A4000DFF8A0A10027684D4FF4167BDFF89C81BA
:103A50004FF00109664C2069012831D00228FAD1C3
:103A60008AF84090564685F8407088F84070606942
:103A7000002802DAB42002F0E1FFF7706069002844
:103A800000DC4042F178401A00B22080002874D057
:103A900000EB0012594602EB8202BBEB420F02DB45
:103AA000AA2110FB01F10022A160104603F040F8AA
:103AB000052002F0AFFBB4F900000028DEDACAE707
:103AC000606900282CDD8AF84070464685F84090F1
:103AD00088F8409088F80370F178A08AA0EB010084
:103AE00001B22180C1B101EB0112584602EB820202
:103AF000BBEB420F02DBAA2011FB00F0A06000220A
:103B00004843114603F014F8052002F083FBB4F992
:103B100000000028E0DA9EE700226420114631E030
:103B200099DA8AF840705E4685F8409088F84090AF
:103B3000EF7002E06069002801DC60694042E978CA
:103B4000401A01B22180C9B101EB0112304602EBEB
:103B50008202B6EB420F02DBAA2011FB00F000222A
:103B6000A0604042114602F0E3FF052002F052FB44
:103B7000B4F900000028A2DBDCE70AE000226FF0C5
:103B80006300114602F0D4FF4FF4FA7002F042FBDA
:103B90000EE000226421104602F0CAFF464602E011
:103BA000052002F037FB687810B970780028F7D04C
:103BB00000221146104602F0BBFF46468AF84090AC
:103BC00005F8409F4FF4FA6006F8409F02F022FB90
:103BD0008AF840702F703770606803F0F5FF6760F7
:103BE000BDE8F09F381000207C100020C01000209D
:103BF000A8010020154810B490F82020022A17D2FE
:103C0000016800230968496AC9B2FF2900D18AB155
:103C1000012A0DD1992912D00C4AC47F0B32A1542C
:103C2000C17F491CC9B2C177142901D180F8203065
:103C300010BC7047012180F82010C377F8E70221FB
:103C400080F8201010BC00F003B800004C000020E9
:103C50000A4830B5A0F10C01027B012A01D04FF0D7
:103C6000FF324A60847B0022437B4D6803EB0423D0
:103C70006B438B60C27780F8202030BD4C00002061
:103C8000114808B5016841F400110160016801F4B0
:103C900000110091016841F4800101600068002278
:103CA000062100F4800000901020FDF773FB102027
:103CB000FDF762FB002206213920FDF76BFBBDE812
:103CC00008403920FDF758BB3038024010B5AAB083
:103CD00021491C226846FCF7BEFD0021684602F01F
:103CE000A5FA1E4C1C221C491C31206007A8FCF7B9
:103CF000B2FD002107A802F099FA17491C22606062
:103D00000EA83831FCF7A7FD00210EA802F08EFAAC
:103D100011491C22A06015A85431FCF79CFD00211C
:103D200015A802F083FA0C491C22E0601CA870312F
:103D3000FCF791FD00211CA802F078FA06491C222C
:103D4000206123A88C31FCF786FD002123A802F016
:103D50006DFA60612AB010BD889100080000002053
:103D600070B586B014216846FCF7D4FD324801686E
:103D700041F080010160016801F080010591016856
:103D800041F001010160016801F001010591016844
:103D900041F002010160016801F002010591016832
:103DA00041F010010160016801F010010591016806
:103DB00041F008010160016801F008010591016806
:103DC00041F00401016000684FF480551B4E002251
:103DD00000F00400294605903046FDF758FA00240B
:103DE00069468A200294CDE900041548FDF75EF982
:103DF00002206946CDE9000430460294FDF756F9E9
:103E000001200095CDE90104694630460394FDF791
:103E10004DF90C4968008DE8130069463046FDF7FE
:103E200045F9002206212820FDF7B4FA2820FDF7E5
:103E3000A3FA06B070BD0000303802400004024012
:103E4000000002400000111010B59AB000241C219F
:103E5000009407A801940294039404940594069492
:103E6000FCF758FD2C210EA8FCF754FD364815220E
:103E7000344942F20F7380E81600C0E9033444610C
:103E80008461FEF7DFF808B1FCF7B8FE4FF480500C
:103E900000902D486946FEF7CDF908B1FCF7AEFE5B
:103EA0002948FFF7BDF908B1FCF7A8FE264804A988
:103EB000049405940694FEF773F808B1FCF79EFE8F
:103EC0006020CDE907042048002207A909940A943C
:103ED0000B940C940D94FFF714F908B1FCF78EFEC7
:103EE0001948042207A9FFF70CF908B1FCF786FE70
:103EF0001548082207A9FFF704F908B1FCF77EFE70
:103F000011480C2207A9FFF7FCF808B1FCF776FE70
:103F10004FF400500E940F9401031094CDE9124019
:103F200011941494CDE9154107480EA917941894DB
:103F3000FDF7E6FF08B1FCF761FE0348FFF78CF8D8
:103F40001AB010BD00000140E405002010B58EB08D
:103F500000241C21009407A8019402940394049463
:103F600005940694FCF7D6FC294842F20F710A2208
:103F70004FF08043C0E9024104618461C0E900322E
:103F8000FEF760F808B1FCF739FE4FF4805000905E
:103F90001F486946FEF74EF908B1FCF72FFE1C4892
:103FA000FFF73EF908B1FCF729FE194804A904946B
:103FB0000694FDF7F5FF08B1FCF720FE6020CDE97F
:103FC00007041348002207A909940B94FFF799F8F6
:103FD00008B1FCF713FE0E48042207A9FFF791F879
:103FE00008B1FCF70BFE0A48082207A9FFF789F879
:103FF00008B1FCF703FE06480C2207A9FFF781F879
:1040000008B1FCF7FBFD0248FFF726F80EB010BD23
:104010003006002010B588B01C4800241A496B22D5
:1040200042F20F7300940194029403940494059453
:10403000069480E81600C0E903348461FEF709FEA7
:1040400008B1FCF7DBFD1148694600940294FDF7C6
:10405000A7FF08B1FCF7D2FD0120002203A9CDE99A
:1040600003400A4805940694FEF76CFD08B1FCF77E
:10407000C5FD0648082203A9FEF764FD002801D00B
:10408000FCF7BCFD08B010BD000400407C06002019
:1040900010B588B01C4800241A496B2242F20F73F5
:1040A000009401940294039404940594069480E887
:1040B0001600C0E903348461FEF7CBFD08B1FCF7BC
:1040C0009DFD1148694600940294FDF769FF08B10F
:1040D000FCF794FD0120002203A9CDE903400A4822
:1040E00005940694FEF72EFD08B1FCF787FD0648FF
:1040F000082203A9FEF726FD002801D0FCF77EFD6B
:1041000008B010BD000C0040C80600203EB51048A5
:10411000002442F20F710D4B6B2200940194029423
:10412000C0E902418461C0E90032FDF78BFF08B1AC
:10413000FCF764FD0648694600940294FDF730FFE1
:10414000002801D0FCF75AFD3EBD000000100040E1
:10415000140700200D48002110B50B4C0C224FF421
:10416000E1330460C0E90131C160C0E9041281613A
:10417000C16101624162FFF73DFA002803D0BDE84A
:104180001040FCF73BBD10BD004C00406007002014
:104190000F480C2310B50D4C4FF4E13200210460A0
:1041A0001024426081602202C160C0E90413816171
:1041B0008263C161C0E90814FFF71CFA002803D02C
:1041C000BDE81040FCF71ABD10BD000000500040D3
:1041D000E40700200D48002110B50B4C0C224FF4D1
:1041E000E1330460C0E90131C160C0E904128161BA
:1041F000C16101624162FFF7FDF9002803D0BDE80B
:104200001040FCF7FBBC10BD00780040680800209F
:104210000D48002110B50B4C0C224FF4E133046023
:10422000C0E90131C160C0E904128161C16101626C
:104230004162FFF7DFF9002803D0BDE81040FCF72A
:10424000DDBC10BD007C0040EC0800200F480C23B2
:1042500010B50D4C4FF4E13200210460102442608F
:1042600081602202C160C0E9041381618263C1617F
:10427000C0E90814FFF7BEF9002803D0BDE81040DC
:10428000FCF7BCBC10BD000000100140700900200C
:104290000F480C2310B50D4C4FF4E132002104609F
:1042A0001024426081602202C160C0E90413816170
:1042B0008263C161C0E90814FFF79CF9002803D0AC
:1042C000BDE81040FCF79ABC10BD0000004400405F
:1042D000F40900200D48002110B50B4C0C224FF4BE
:1042E000E1330460C0E90131C160C0E904128161B9
:1042F000C16101624162FFF77DF9002803D0BDE88A
:104300001040FCF77BBC10BD00480040780A00203C
:104310000D48002110B50B4C0C224FF4E133046022
:10432000C0E90131C160C0E904128161C16101626B
:104330004162FFF75FF9002803D0BDE81040FCF7A9
:104340005DBC10BD00140140FC0A002010B5174CE4
:104350000021194A03689FED160BA34202F1700079
:1043600010D143685B1C4360032B02DB416082ED8C
:10437000020B83685B1C8360032B02DB816082ED90
:10438000040B10BD0D4CA342FBD1C3685B1CC36082
:10439000032B02DBC16082ED060B03695B1C03612A
:1043A000032BEEDB016182ED080B10BD0004004021
:1043B000000000000000000068110020000C004018
:1043C000FEE700000B490C4891ED000A80ED000A61
:1043D00091ED010A80ED040A91ED020A80ED010AD7
:1043E00091ED030A80ED020A91ED040A80ED030AC3
:1043F00070470000F0000020740E0020FEE700006F
:104400001B48002230B4A0F10B0183790C78A34241
:1044100022D1C3794C78A3421ED1037A8C78A3426F
:104420001AD1C978437A8B4216D1C11FC37A0C784E
:10443000A34211D1037B4C78A3420DD1437B8C78EE
:10444000A34209D1C978837B8B4205D1817A522955
:1044500009D0422909D08276142102714271801D4F
:1044600030BCFCF735BA012100E002218176F3E788
:104470007C0000200D4801680968CA69920614D5BD
:10448000496AA0F10C02C9B211704279002A0CD11C
:104490000379821D99540179491CC9B20171092916
:1044A00003D301214171FFF7ABBF70477C000020AF
:1044B0002DE9F041204C064600EE106A00202DED5B
:1044C000028BB8EEC00A207400F0F6FE84ED020AFA
:1044D00060680025194F90ED008AF0EE488A00BF11
:1044E00038EE680AB0EEC00A10EE100AB84201DADF
:1044F0006D1C00E000256068F0EE488A90ED008AAF
:104500000A20FCF7B3FD642DEADB00EE106AB8EE7A
:10451000C00A00F0D1FEF0EE401AB0EE480A00F0FA
:10452000CBFE31EEC00A012084ED030A2074BDECFD
:10453000028BBDE8F081000028000020CDCCCC3DEE
:10454000012001F067FEFBE7012001F063FEFBE7BD
:10455000502010B572B680F31188BFF34F8FBFF3B0
:104560006F8F62B603F00EFF18B104494FF0805010
:104570000860002080F3118810BD000004ED00E009
:1045800030B5B3B0302121A8FCF7C4F914212DA80F
:10459000FCF7C0F984216846FCF7BCF9284801689B
:1045A00041F080510160006800F080503290254851
:1045B000016841F440410160006800240DF1A40C41
:1045C00000F4404032900225219510210822D82382
:1045D000CDE927548CE82C0001202C95CDE924014D
:1045E00021A8FDF7C7FA08B172B6FEE7FCF704FF91
:1045F00008B172B6FEE74FF480522F944FF4A051E9
:104600000F20CDE93012CDE92D0507212DA8FDF7AA
:10461000A7F908B172B6FEE74FF47F5011941294D7
:104620001394149415941694179418940090684653
:10463000FCF718FF002801D072B6FEE733B030BD9A
:1046400040380240007000400248016841F47001A7
:104650000160704788ED00E0164810B503681869DE
:10466000C043C00724D1144A02F108005168491C14
:10467000516011880A3189B21180B1F57A7F12D365
:10468000002111808488641CA4B284803C2C0AD34D
:1046900081804488641CA4B244803C2C03D34180B4
:1046A0000188491C018012886FF00101C2801961E4
:1046B00010BD0000080F0020040100200148FEF793
:1046C00009BC0000E40500200148FEF703BC00001F
:1046D0007C0600200148FEF7FDBB0000C806002054
:1046E00010B5FFF7B9FFBDE810400148FEF7F2BB77
:1046F000140700200148FEF7EDBB0000400C00202D
:10470000F0B5274B4FF0804E264D02689842264E5A
:10471000264F274C09D0704507D0A84205D0B0429B
:1047200003D0B84201D0A04205D1D1F804C022F094
:1047300070024CEA020298421BD0704519D0A84280
:1047400017D0B04215D0B84213D0A04211D0194DA5
:10475000A8420ED0184DA8420BD0184DA84208D040
:10476000174DA84205D0174DA84202D0164DA842B9
:1047700003D1CD6822F440722A434D6922F08002B1
:104780002A43026098428A68C2620A68826201D043
:10479000A04201D10969016301214161F0BD00001E
:1047A000000001400004004000080040000C0040F0
:1047B0000004014000400140004401400048014025
:1047C00000180040001C00400020004010B5046AA2
:1047D000012301F01F018B409C4304628A40016A5F
:1047E0001143016210BD42EA032283680A4323F4A5
:1047F0007F410A4382607047826822F070020A4358
:1048000042F0070181607047F0B5026ADFF860C0CE
:10481000184F22F00102DFF860E00262066A426887
:10482000836926F002060D68B8428C6803EA0C031F
:1048300023F0030344EA060445EA030501D070456A
:1048400005D1CB6824F00804234323F00404B842C4
:1048500001D0704505D122F44076D1E905323343C9
:104860001A4342608561496841630462F0BD0000FB
:104870008FFFFEFF0000014000040140F0B5026A16
:10488000194E1A4C22F01002DFF864E00262056A49
:104890004368826925F02005D1F808C0A0420F685E
:1048A00002EA060222F4407245EA0C1542EA0722A7
:1048B00001D0704506D1CE6825F0800545EA061581
:1048C00025F04005A04201D0704507D1D1E9054649
:1048D00023F4406343EA840343EA8603436082612E
:1048E000496881630562F0BDFF8FFFFE0000014053
:1048F00000040140F0B5026A194F1A4E22F480728A
:10490000DFF864E00262056A4368C26925F4007555
:10491000D1F808C0B0420C6802EA070222F0030294
:1049200045EA0C2544EA020401D0704506D1CF685F
:1049300025F4006242EA072222F48065B04201D0E9
:10494000704507D123F44052D1E9053642EA0312FB
:1049500042EA06134360C4614968C1630562F0BD61
:104960008FFFFEFF0000014000040140F0B5026A25
:10497000124B114F22F4805298420262046A42683C
:10498000C36924F400548E680D6803EA070323F416
:10499000407344EA063443EA052302D0084DA84296
:1049A00004D14D6922F4804242EA85124260C3611B
:1049B000496801640462F0BDFF8FFFFE0000014002
:1049C00000040140F0B5026ADFF844C022F48032EE
:1049D0000262056A4268446D25F400350E8960451F
:1049E0000C4F0B6804EA070445EA064543EA040352
:1049F00002D0094CA04204D14C6922F4803242EA30
:104A0000042242604365496881650562F0BD00008B
:104A1000000001408FFFFEFF00040140F0B5026A74
:104A2000DFF844C022F480120262046A4268436DD7
:104A300024F400140E8960450C4F0D6803EA070347
:104A400044EA065443EA052302D0094DA84204D1A2
:104A50004D6922F4802242EA85224260436549681A
:104A6000C1650462F0BD000000000140FF8FFFFE41
:104A70000004014010B5036A046A23F00A0324F01D
:104A80000104046284690B4324F0F00141EA02113D
:104A90008161036210BD000070B5046A174D24F0F7
:104AA00001040462A8428469056A14D0B0F1804F01
:104AB00011D0134EB0420ED0124EB0420BD0124E57
:104AC000B04208D0114EB04205D0114EB04202D0D3
:104AD000104EB04203D124F00304144301E044F02B
:104AE00001041A0724F0F00325F00A0401F00A017A
:104AF000214343EA12628261016270BD00000140FD
:104B00000004004000080040000C00400004014088
:104B1000004001400018004010B5036A23F0100364
:104B200003628369046A23F4704324F0A00443EA17
:104B30000232826144EA0111016210BD70B5056A5A
:104B4000A0244FF6FF7606EA033325F01005056230
:104B500004EA01118469056A24F4407425F0A00573
:104B600044EA0222294322F4704213438361016222
:104B700070BD00001CB5234C23482168CA69920609
:104B80001CD50A6842F020020A602168496AC9B24D
:104B90008DF80410028813040BD40A290AD02129A5
:104BA00008D00D2905D0194CC2F30D03521CE15455
:104BB00002801CBD42F4004101801CBDCA6912067E
:104BC00016D52268802111620021009101A9406858
:104BD0006A4603F0D9FA012805D02068016821F05F
:104BE000800101601CBD21689DF8040088621CBD25
:104BF000C8690007FBD5064808220A62C169406AF5
:104C00001CBD00007009002014010020540F00207A
:104C10000010014010B5FEF7EDFFBDE8104001485F
:104C2000FEF7D8BB6007002010B5FEF7EBFEBDE82D
:104C300010400148FEF7CEBBE407002090F8241096
:104C4000C90706D00168836A4A6822F400321A4311
:104C50004A6090F82410890706D50168C36A4A683B
:104C600022F480321A434A6090F82410490706D58E
:104C70000168036B4A6822F480221A434A6090F864
:104C80002410090706D50168436B4A6822F40042E4
:104C90001A434A6090F82410C90606D50168836B50
:104CA0008A6822F480521A438A6090F82410890698
:104CB00006D50168C36B8A6822F400521A438A60E1
:104CC00090F82410490611D50168036C4A6822F453
:104CD00080121A434A60016CB1F5801F06D1016849
:104CE000436C4A6822F4C0021A434A6090F82410C8
:104CF000090606D50168826C486820F4002010433C
:104D00004860704738B500250446C0F88050FCF76D
:104D1000C3FA03462068006800070BD56FF07E4099
:104D20000090002220464FF4001100F0F1F908B184
:104D3000032038BD2020A067E0672566002084F8A6
:104D4000745038BD10B5806B0021A0F85A10A0F83F
:104D50005210FEF73DFB10BD70B5846B0025216835
:104D6000A06FE66F8968090606D5212804D1A4F84A
:104D70005250204600F068F820688068400606D54A
:104D8000222E04D1A4F85A50204600F045F8D4F859
:104D9000800040F01000C4F880002046FEF718FBA9
:104DA00070BD10B5C169806BB1F5807F1BD000214B
:104DB000A0F85A10202201680B6823F480730B605E
:104DC00001688B6823F001038B6001688B6823F016
:104DD00040038B60C267016E012904D101680A6833
:104DE00022F010020A60016E012902D0FEF7F6FDE2
:104DF00010BDB0F85810FEF7EAFA10BD10B5806B80
:104E0000016E012902D0FEF7F9FD10BDB0F858106F
:104E10004908FEF7DCFA10BD01680A6822F49072B6
:104E20000A6001688A6822F001028A60016E012925
:104E300004D101680A6822F010020A6000212022D1
:104E4000C267016641667047016820220B6823F043
:104E5000C0030B60826770472DE9F0410446036888
:104E6000C2698168D4E90450DFF8F4C17D4E29435A
:104E70001F68002510437C4A014307EA0C070F43D3
:104E80001F604FF400402168E7684B6823F44053EB
:104E90003B434B602768A369216AD7F808C01943D0
:104EA0002CF430630B43BB602168B1420AD1116816
:104EB00011F0030152D001297CD0022971D00329BD
:104EC0006ED184E0694B99420AD1116811F00C014E
:104ED00067D0042965D0082975D00C2960D176E007
:104EE000634B99420AD1116811F0300159D0102951
:104EF0006BD0202967D0302952D168E05D4B9942B0
:104F00000AD1116811F0C0014BD040295DD0802931
:104F100059D0C02944D15AE0574B99420DD111685C
:104F200011F440713DD0B1F5807F4ED0B1F5007FD6
:104F300049D0B1F5407F33D149E0504B99420FD170
:104F4000116811F4406109D0B1F5806F3DD0B1F521
:104F5000006F38D0B1F5406F22D138E0012120E058
:104F6000474B99420DD1116811F4405119D0B1F558
:104F7000805F2AD0B1F5005F25D0B1F5405F0FD139
:104F800025E0404B99420BD1116811F4404108D003
:104F9000B1F5804F19D0814215D0B1F5404F16D0F0
:104FA0001021E369384A4FF6EF7683422FD1092961
:104FB0004BD201E009E006E0DFE801F00B0E1147FB
:104FC0001347474716000221EBE70421E9E70821D0
:104FD000E7E7FCF77DFD06E0FCF78AFD03E01046FD
:104FE00002E0FCF795FD88B36168400000EB5100DA
:104FF000B0FBF1F080B2A0F11001B14225D84FF61C
:10500000F0732168C0F342021840104320E00929E0
:105010001BD2DFE801F005080B1A0D1A1A1A10004E
:10502000FCF756FD06E0FCF763FD03E0104602E0E6
:10503000FCF76EFD50B1616800EB5100B0FBF1F080
:1050400080B2A0F11001B14201D9012501E021682F
:10505000C86000206066A0662846BDE8F0810000B8
:10506000F369FFEF00100140903802400044004017
:1050700000480040004C0040005000400014014037
:1050800000780040007C00400024F40070B5044625
:10509000006F002522236165A4F85820C4F88050D1
:1050A000E367D8B117491346C163216F16480864F6
:1050B000216F1648C864206F0565666D2168206FF2
:1050C00032462431FBF794FF40B11021C4F8801020
:1050D000202084F87450A067012070BD84F87450BB
:1050E0002068016841F4807101602068816841F0A6
:1050F000010181602068816841F0400181600020E9
:1051000070BD0000A34D0008FD4D0008594D00087A
:105110002DE9F0479A4617460E460446089D4FF083
:1051200000094FF0200839E0681C37D0FCF7B4F8CC
:10513000A0EB0A00A84222D80DB3206801684907F5
:105140002CD5C069C043000528D423684FF4006102
:10515000196221680B6823F4D0730B6021688B6897
:1051600023F001038B60C4F87880C4F87C80C4F815
:10517000808000BF032084F87490BDE8F087216828
:105180000B6823F4D0730B6021688B6823F0010354
:105190008B60C4F87880C4F87C80EBE72068C06935
:1051A00036EA000004D00020B842BDD00020E4E779
:1051B0000120F9E710B5FFF7DDFCBDE8104001481C
:1051C000FEF708B9700900200148FEF703B9000096
:1051D000F409002010B5FFF74DF9BDE81040014873
:1051E000FEF7F8B8780A00200148FEF7F3B800008F
:1051F000FC0A002010B501F00DFD18480068016898
:1052000041F02002164902600868016841F020025E
:10521000144902600868016841F020010160FBF751
:10522000EFFCFBF771FC1048012100F0AFFB0F48C9
:105230004168D8208847FFF7C5F8012001F0F2FB4C
:1052400000F088FD01F00AF90021012001F0E6FDDF
:105250000021BDE81040022001F0E0BD70090020EF
:10526000780A0020600700201407002010020020A8
:10527000FEE7090700284FEA116104DB00F1E02096
:1052800080F80014704700F00F0000F1E02080F873
:10529000141D70472DED020B019820F00040019085
:1052A0009DED000B02B0704730380A2801D2012072
:1052B00070470020704770471148124ADFED0F0A0F
:1052C00002E000BF30EE600A10EE101A8142F9DCF5
:1052D00002E000BF30EE200A10EE101A9142F9D21F
:1052E000B5EEC00AF1EE10FAB1EE401A30FE011A26
:1052F00011EE101A8142E7DC704700000000B44351
:1053000000003443000034C370B581789FED7C0AFF
:1053100001290FD002293ED0032974D0062908D1D3
:10532000784982880A80C2884A8002898A804089B6
:10533000C88070BD417903799FED731A0902734AE1
:1053400009B2194300EE901AF8EEE00A60EE800A06
:1053500060EE810AC2ED000AC1798379090209B2BF
:10536000194300EE901AF8EEE00A60EE800A60EE53
:10537000810AC2ED010A417A037A080200B2184399
:1053800000EE900AF8EEE00A20EE800A20EE010A14
:1053900082ED020A70BD427903795C49120212B2B1
:1053A0001A4300EE902A0C31F8EEE00A60EE800A13
:1053B000C1ED000AC2798379120212B21A4300EEDB
:1053C000902AF8EEE00A60EE800AC1ED010A427A06
:1053D000037A120212B21A4300EE902AF8EEE00AA3
:1053E00060EE800AC1ED020AC27A837A100200B22E
:1053F000184300EE900AF8EEE00A20EE800A81EDF4
:10540000030A70BDFFE742794049067912023D4B1D
:1054100012B23F4D1C31324300EE902ACA805B1F0E
:10542000C2792C1DF8EEE00A8679120212B23243DC
:105430000A8120EE801A00EE902A427A067AF8EE6F
:10544000E00A120212B232434A8160EE801A00EE84
:10545000902AC27A867AF8EEE00A120212B2324339
:105460000A8060EE802A00EE902A427B067BF8EEEE
:10547000E00A120212B232434A8020EE802A00EE85
:10548000902AC27B867BF8EEE00A100200B230431D
:10549000888020EE803A00EE900A5878F8EEE00A14
:1054A000285C60EE800A00EE100AF8EE403AB8EE92
:1054B000404AB8EE400A21EE231A61EE841A22EE29
:1054C000800A81ED061AC1ED071A81ED080A1878E5
:1054D00034F8100000EE100AB8EE401AF8EE401A48
:1054E000B8EE400A22EE011A63EE211A20EE800A7D
:1054F00081ED031AC1ED041A81ED050A81E7000070
:105500000000003820000020000034438C0C0020F4
:10551000309200082DE9F0471C4C4FF400561C4D0A
:105520004FF00108DFF86C902078E8B105F1140025
:10553000FBF790FB05F11400808980B2608000F0D9
:1055400085FAB0F5FA6F4FF00007A08000D9A78068
:1055500048461149C5F80880C5E900610C49FBF7C8
:10556000A5FD2770BDE8F0870948474684F800800C
:105570001430FBF76FFB0948AF600549C5E90060CF
:105580004846BDE8F047FBF791BD000088010020C8
:105590004011002000040240000011100000211002
:1055A000094C4FF48055012229462046FBF76FFE37
:1055B0000F2000F0F5F9002229462046FBF767FE90
:1055C000642000F027FEEEE7000402402DE9F041E0
:1055D000D84D2DED0C8B2878002878D0D64C20881B
:1055E000401C00B220800A2816D100202080D34819
:1055F00001F0F8FBD24884ED020A01F0F3FBD14838
:10560000B0EE408A01F0EEFB38EE400AF6EE000AFA
:1056100020EE200A84ED010AF7EE009A9FEDCA0BF6
:1056200084ED0C0BC4ED089A00F020FB84ED030A16
:10563000A06810EE106A03F02BFD95ED021B53ECF1
:10564000112B03F02FFC02F0F7FF08EE100A84ED97
:10565000058A606803F01CFD95ED041B53EC112BCB
:1056600003F020FC02F0E8FF08EE900A3046C4ED9B
:10567000068A03F00DFD95ED061B53EC112B03F08C
:105680000DF802F0D9FF09EE100AB4EEE88A84EDB5
:10569000079AF1EE10FA84ED0A8A01DDC4ED0A8A58
:1056A00094ED0A0AB4EEC90AF1EE10FA01DD84EDB8
:1056B0000A9A94ED0A0AA64910EE100A884207DDFC
:1056C000DFEDA40A80EE201A84ED041A02E02DE139
:1056D000C4ED049A984E383696ED010A20EE090A78
:1056E00010EE100A03F0D4FC41EC1C0B18EE100A6B
:1056F00003F0CEFC9FED98AB53EC1A2B03F09EFA0F
:1057000041EC1B0B18EE900A03F0C2FC53EC1A2B71
:1057100003F094FA53EC1B2B02F0C0FF53EC1C2B4C
:1057200003F0CCFB02F088FF824D2035686096EDD7
:10573000020A20EE090A10EE100A03F0A9FC41EC5F
:105740001B0B18EE100A03F0A3FC53EC1A2B03F00A
:1057500075FA41EC1C0B18EE900A03F099FC9FEDD2
:1057600080DB53EC1D2B03F069FA53EC1C2B02F089
:1057700095FF53EC1B2B03F0A1FB02F05DFFA8602B
:1057800096ED030A20EE090A10EE100A03F080FCE1
:1057900041EC1C0B18EE100A03F07AFC53EC1A2BA8
:1057A00003F04CFA41EC1B0B18EE900A03F070FC6E
:1057B00053EC1A2B03F042FA53EC1B2B03F07EFB45
:1057C00053EC1C2B03F07AFB02F036FFE86096EDF9
:1057D000040A20EE090A10EE100A03F059FC41EC0D
:1057E000190B18EE100A03F053FC53EC1A2B03F0BC
:1057F00025FA41EC1A0B18EE900A03F049FC53EC21
:105800001D2B03F01BFA53EC1A2B03F057FB53EC40
:10581000192B03F053FB02F00FFF2861012666628B
:10582000606A55F8200003F033FC94ED0C1B53EC38
:10583000112B03F001FB06D2606A55F8200003F03B
:1058400027FCC4E90C019FED488B606A401C606234
:105850000428E5DD94ED0C0B53EC182B51EC100BE8
:1058600003F0EAFA0AD294ED0C0B51EC180B53EC4E
:10587000102B02F0C7FF41EC100B01E09FED3C0B39
:1058800051EC100B02F0D8FE206294ED0C0B53EC9F
:10589000182B51EC100B03F0CFFA1BD294ED0C0B2C
:1058A00051EC180B53EC102B02F0ACFF02F0C4FECD
:1058B000C4E9080600EE100A4FEA060005EB800175
:1058C000401CD1ED000A042860EE800AC1ED000AF8
:1058D0006062F3DB3046174E274F3436C4F824009D
:1058E00005EB8001C0EB001291ED000A07EB82018D
:1058F00081ED000A01F084F8606A2049C0EB0010D5
:1059000007EB800080ED010A00F0BAFC606A06EB4C
:10591000800181ED000ABDEEC00A10EE101A01F000
:10592000D9F8606A401C60620428D9DDBDEC0C8B9C
:10593000BDE8F081000D0020980000203810002004
:10594000C01000207C1000200000000000000000BB
:10595000000048420000484239B4C876BE9FE63F86
:1059600039B4C876BE9FE6BF0000000000E0754075
:10597000000000000000F03F480D0020740E0020E1
:10598000FFF724FE0A2000F045FCF9E7034A5060C7
:105990001170C1689160FCF7C7BB00001C100020AB
:1059A000134930B54B680A788C681B68596A012A1C
:1059B00010D15A6A8A42FCD002D9A2EB010103E05D
:1059C00004EB0205A5EB0101A0EB01001146002844
:1059D000EFDC30BD5A6A8A42FCD000BFA1EB020165
:1059E00000D32144A0EB010011460028F2DC30BDB9
:1059F0001C10002030B5124B012887B04FF0000476
:105A00004FF0010502D0022807D00AE012B19D60D4
:105A10005D6006E09C605C6003E00AB11D6000E030
:105A20001C601C22074CC4E9040107496846FAF7C8
:105A300012FF0021684600F0F9FB606007B030BD3E
:105A400038120020A80100203C92000810B503F095
:105A5000A5F89FED081B53EC112B03F0EFF89FED19
:105A6000071B53EC112B03F0E9F803F053F880B255
:105A700010BD0000C3F5285C8FC2D53F00000000B8
:105A80000000E03F13B5154C82B06068E8B1FAF74A
:105A900079FCA0B1002000906068002302A96A464A
:105AA00002F00CFB0128F7D1009870B10C494FF0BF
:105AB00080500860BFF34F8FBFF36F8F05E06068C1
:105AC0000023012202A902F041FA06480068016899
:105AD00041F080010160029804B010BD1401002063
