:020000040800F2
:10000000C85C0020A5030008FD700008215A000804
:10001000C1700008F51800085981000800000000B0
:10002000000000000000000000000000E1020008E5
:10003000C31F0008000000003D030008B57300085E
:10004000BF030008BF030008BF030008BF03000888
:10005000BF030008BF030008BF030008BF03000878
:10006000BF030008BF030008BF030008BF03000868
:10007000BF030008BF030008BF030008BF03000858
:10008000E91E0008BF030008BF030008BF03000803
:10009000BF030008BF030008BF030008BF03000838
:1000A000BF03000821750008BF030008BF03000854
:1000B000BF0300082D750008BF030008315A00086F
:1000C000255A0008BF030008BF030008BF0300084B
:1000D000BF030008E5800008F9800008BF0300089E
:1000E000BF030008BF030008BF030008BF030008E8
:1000F000BF030008BF030008BF030008BF030008D8
:10010000BF030008BF03000839750008BF030008DB
:10011000BF030008BF0300084575000859750008B3
:10012000BF030008BF030008BF030008BF030008A7
:10013000BF030008BF030008BF030008BF03000897
:10014000BF030008BF030008BF030008BF03000887
:10015000BF030008BF030008BF030008BF03000877
:10016000BF030008BF030008BF030008BF03000867
:10017000BF030008BF030008BF030008BF03000857
:10018000BF030008BF030008BF030008BF03000847
:10019000BF030008BF030008BF030008BF03000837
:1001A000BF030008BF030008BF030008BF03000827
:1001B000BF030008BF030008BF030008BF03000817
:1001C000BF030008BF03000800F002F800F078F851
:1001D0000AA090E8000C82448344AAF10107DA45A2
:1001E00001D100F06DF8AFF2090EBAE80F0013F07C
:1001F000010F18BFFB1A43F00103184714F1000068
:1002000034F100000A444FF0000C10F8013B13F0E9
:10021000070408BF10F8014B1D1108BF10F8015B5F
:10022000641E05D010F8016B641E01F8016BF9D152
:1002300013F0080F1EBF10F8014BAD1C0C1B09D1A9
:100240006D1E58BF01F801CBFAD505E014F8016B1B
:1002500001F8016B6D1EF9D59142D6D370470000AD
:100260000023002400250026103A28BF78C1FBD8BF
:10027000520728BF30C148BF0B60704766290EF097
:10028000DA84642900F08281752900F07F81782961
:1002900000F0B881632900F0C485732900F0C98596
:1002A000002070471FB50EF0BCFC00F0D9FD040023
:1002B000002000210DF01CFEE0601FBD10B510BD38
:1002C00000F0EEFE1146FFF7EDFF0AF0B7FD00F07B
:1002D0000CFF03B4FFF7F2FF03BC09F0EEFA0000D5
:1002E0002D4B19680868B0E8F04F80F30988BFF318
:1002F0006F8F4FF0000080F31188704700000000FE
:1003000008480068006880F308884FF0000080F318
:10031000148862B661B6BFF34F8FBFF36F8F00DFF3
:1003200000BF00BF08ED00E0DFF80C00016841F4F9
:1003300070010160704700BF88ED00E0EFF30980B5
:10034000BFF36F8F144B1A681EF0100F08BF20ED1B
:10035000108A20E9F04F106009B44FF0500072B6D7
:1003600080F31188BFF34F8FBFF36F8F62B60CF02D
:10037000D1FF4FF0000080F3118809BC19680868AC
:10038000B0E8F04F1EF0100F08BFB0EC108A80F3F9
:100390000988BFF36F8F704708030020EFF30580D3
:1003A000704700000948804709480047FEE7FEE71C
:1003B000FEE7FEE7FEE7FEE7FEE7FEE7FEE7FEE715
:1003C00004480549054A064B70470000AD74000813
:1003D000C9010008C8560020C85C0020C858002089
:1003E000C8580020704753EA020C00F069802DE9DC
:1003F000F04B4FF00006002B1FBFB3FA83F503FA52
:1004000005F424FA05F65E4012BF1643B2FA82F5EF
:1004100002FA05F4C5F120051EBF22FA05FC44EAE4
:100420000C04203556EA044C4FEA144418BF641CEF
:100430004FF000084FF00009904271EB030C39D3E4
:10044000002919BFB1FA81F701FA07F6B0FA80F76F
:1004500000FA07F6C7F120071EBF20FA07FC46EA9C
:100460000C062037B6FBF4FCA7EB0507103F07F09E
:100470001F0BCBF120060CFA0BFB2CFA06F644BF3F
:10048000B3460026202FA4BF5E464FF0000B5BEA68
:10049000060C08BF4FF0010B19EB0B09ABFB027CFC
:1004A00048EB0608C01B06FB02CC0BFB03CC71EB30
:1004B0000C01C1E70B46024641464846BDE8F08BB9
:1004C00013B54FF000004FF00001AFF30080BDE81E
:1004D0001C4070470FB4044910B503AA029800F0FD
:1004E000ADFC10BC5DF814FBFC00002070B50446A8
:1004F00085690068C10601D5302600E02026C007C6
:1005000007D070BDD4E9012130469047206A401CD5
:1005100020626D1EF6D570BD70B504468569007801
:10052000C00707D170BDD4E9012120209047206A7F
:10053000401C20626D1EF6D570BD70B50C46054698
:10054000012A05D02878800600D5EA69002302E058
:10055000012305E05B1C934202D2E05C0028F9D144
:10056000A869E618C01AA861286A184428622846B3
:10057000FFF7BCFF04E0D5E9012114F8010B904717
:10058000B442F8D32846FFF7C7FF70BD2DE9F0410C
:100590000646002410687529314616A510D0AFF321
:1005A0000080002802DA404213A507E031688A077C
:1005B00001D512A502E0490704D511A5012401E0E7
:1005C000AFF3008000210A2206F1240709E0B0FB06
:1005D000F2FCB0FBF2F302FB1C00303078541846FA
:1005E000491C0028F3D123462A463046BDE8F04195
:1005F00000F0A5B9000000002D0000002B00000055
:100600002000000070B504460D4621461068AFF387
:1006100000802188090502D50F4A7A4402E00E4A7B
:100620007A440E32002104F1240305E000F00F06A5
:100630000009965D5E54491C0028F7D120780023FC
:10064000000704D5702D02D009B1022311322046D3
:10065000BDE8704000F073B91EE700002DE9F05FBF
:10066000894604464FF0000ADFF874B1FB44C0F835
:1006700020A02046E1688847002874D0252806D0AD
:10068000D4E901219047206A401C2062F1E700264E
:100690005F462046E16888472028054607DB312D64
:1006A00005D2781910F8200C08B10643F1E7B0071D
:1006B00001D526F00406C4F81CA00027C4F818A031
:1006C0002A2D09D0284609F0F1F838B304EB870841
:1006D000303DC8F8185019E059F8041B204604EBC7
:1006E00087029161E1688847012F054618D1E069CA
:1006F000002820DA26F020061DE0D8F8180000EBCC
:10070000800005EB40003038C8F818002046E1684A
:100710008847054609F0CAF80028EED1012F0AD013
:100720002E2D08D12046E16888477F1C0546022F00
:1007300046F02006C4DBA069002803DA404246F0F8
:100740000106A061F00701D026F010066C2D0BD039
:10075000682D09D04C2D39D06A2D35D0742D35D067
:100760007A2D33D016E038E0E1682F4620468847DE
:10077000B842054609D16C2F26D04FF48060E1685D
:10078000064320468847054604E06C2F1AD04FF4F4
:10079000807006430DB3A5F14100192802D8203519
:1007A00046F400664A462946204626604E46FFF734
:1007B00065FD80B101280BD0F61D26F0070000F181
:1007C000080956E74020E4E78020D8E70020D6E774
:1007D00006F104094DE7284652E7206ABDE8F09F7C
:1007E000F4E60000032A40F2308010F0030C00F021
:1007F000158011F8013BBCF1020F624498BF11F85B
:1008000001CB00F8013B38BF11F8013BA2F1040213
:1008100098BF00F801CB38BF00F8013B11F003038B
:1008200000F02580083AC0F0088051F8043B083AEF
:1008300051F804CBA0E80810F5E7121D5CBF51F891
:10084000043B40F8043BAFF30080D20724BF11F80B
:10085000013B11F801CB48BF11F8012B24BF00F870
:10086000013B00F801CB48BF00F8012B704710B5E1
:10087000203AC0F00B80B1E81850203AA0E8185098
:10088000B1E81850A0E81850BFF4F5AF5FEA027C59
:1008900024BFB1E81850A0E8185044BF18C918C0C8
:1008A000BDE810405FEA827C24BF51F8043B40F869
:1008B000043B08BF7047D20728BF31F8023B48BF4E
:1008C00011F8012B28BF20F8023B48BF00F8012B8C
:1008D00070474FF0000200B5134694469646203903
:1008E00022BFA0E80C50A0E80C50B1F12001BFF4E9
:1008F000F7AF090728BFA0E80C5048BF0CC05DF84F
:1009000004EB890028BF40F8042B08BF704748BF9C
:1009100020F8022B11F0804F18BF00F8012B704710
:10092000704770477047704710B500F09DFA006837
:1009300010BD10B5044600F097FA046010BD2DE913
:10094000F0470D4699469246044600F12408016896
:10095000880604D5E06921F01001216000E0012043
:10096000A84201DD471B00E00027A1697A1902EBCC
:100970000900081AA0612078C00602D42046FFF7BB
:10098000B5FD002608E0D4E901211AF806009047D9
:10099000206A401C761C20624E45F4DB2078C0069D
:1009A0000AD52046FFF7A2FD06E0D4E90121302058
:1009B0009047206A401C2062381EA7F10107F4DC32
:1009C00007E0D4E9012118F805009047206A401C8F
:1009D0002062281EA5F10105F3DC2046FFF79CFDEF
:1009E0002078000602D50220BDE8F0870120FBE751
:1009F00070472DE9FF4F0C461E464FF0FF378BB076
:100A0000D2E90001DDF860800A908A46C1F30A55F8
:100A100005B93D46002108464FF00000BAF1000F2D
:100A200000F4400005DA00EB80004FF4400101EAD9
:100A300050004FEA9059B9F1010F00DDB9460A980C
:100A400050EA4A000ED044F61050A5F2FF35454357
:100A50002F14B8F1000F1ED07542291E1EDDC9F1FA
:100A600000021CE0B8F1010F4FF0000001D030216E
:100A700003E0F24305E02154401CB042FBDB30466A
:100A80000022002121540B99C1F80880C1E90020FF
:100A90000FB0BDE8F08FBD1B6D1CDEE74A4600DAE3
:100AA000694206A800F082FA06AB93E8070003ABA0
:100AB00083E8070050460A9900F054FB8DE80700D0
:100AC000A0F500501F3800900398002D0ADD42F277
:100AD0001F014A460844002303A90390684600F01A
:100AE000BDFD09E0A0F500504A461F38002303A9C8
:100AF0000390684600F0C7FD8DE807000004000C75
:100B000003D04FF0FF30410800E01046B8F1000F6D
:100B100003D00022009215461EE0751E05D400F099
:100B2000A7F9303262556D1EF9D5B346012208434C
:100B300002D000227F1C04E02078302801D100225E
:100B40007F1E002A099784D01DE0112D07DA00F0DE
:100B50008FF9303262556D1C50EA0102F5D108431D
:100B600002D00098C8B10EE00021681E05E0235CA9
:100B7000625C63542254401E491C8142F7DBAB4641
:100B8000A81B401E0990002004F80B000B98099A3E
:100B9000C0F80880C0E9002B7AE711264FF0000862
:100BA00057E72DE9F04F88460446D21D22F0070191
:100BB00091B0D1E90001CDE90A0107F0CEFA024671
:100BC0000B98C00F01D02D2007E02068810701D5C8
:100BD0002B2002E0202101EAC000032A099001D065
:100BE000072A05DB03464146204600F09FF90BE14A
:100BF0002078800601D5E06900E00620B8F1650F95
:100C0000814606D0B8F1660F18D0B8F1670F70D1E1
:100C100031E00020B9F1110F009001DB112301E058
:100C200009F101030AAA01A90CA8FFF7E2FEDDE918
:100C30000C70002609F10105834647E001204B4670
:100C400000904FF000470AAA01A90CA8FFF7D1FEB7
:100C5000DDE90DB00C995D46002610B909F10100DF
:100C60000D18B9EB050003D4C0F1FF3609F10105F9
:100C7000A5EB09002BE0B9F1010F01DA4FF00109F2
:100C80000020B9F1110F0090484601DD112300E06A
:100C900003460AAA01A90CA8FFF7ABFEDDE90C7018
:100CA0004D4600268346207800070AD4AB4500DA7B
:100CB0005D4601A8012D04DD411911F8011C302900
:100CC00007D04F4502DA17F1040F04DA01208246FB
:100CD0000FE06D1EEEE7002F02DCED1B3E4403E04B
:100CE000781CA84200DD7D1CB81B00F1010A4FF002
:100CF00000472078000703D4AA4501DB4FF0FF3AF4
:100D00000021B7F1004F0DF143088DF8431024D0B6
:100D100002202B23002F01DA7F422D230A21021EFD
:100D2000A0F1010000DC5FB197FBF1FC97FBF1F251
:100D300001FB1C7C17460CF1300C08F801CDEEE7E6
:100D4000A8F1010003702188090501D5452100E0C3
:100D50006521A0F1010800F8011C09980FA9A1EB79
:100D60000807FF1D00B10120411901EBEA70A169DC
:100D70003844081A401EA0612078C00602D42046DC
:100D8000FFF7B4FB099828B1D4E901219047206A04
:100D9000401C20622078C00622D52046FFF7A6FB23
:100DA0001EE0002E04DBB34502DD01A8805D00E0FB
:100DB0003020D4E901219047206A401C2062761C33
:100DC000AAF101005FEA000A0AD100F049F8C06800
:100DD0000168405CD4E901219047206A401C2062F0
:100DE000281EA5F10105DCDC07E0D4E9012118F893
:100DF000010B9047206A401C2062381EA7F10107B2
:100E0000F3DC2046FFF788FB032011B041E610B564
:100E1000436913B1AFF3008001E0FFF78EFB0120BF
:100E200010BD127800F124010A7000224A700122DC
:100E3000EDE711684FF0FF32E9E70000074B70B5AE
:100E40000D467B4400F05FF80446284600F020F988
:100E500010B14FF0FF3070BD204670BD4F980000BC
:100E600000487047885600200048704768560020A8
:100E700030B5B0F10A024FEA900E71F100034EEA6C
:100E8000817EB0EB0E0061EB91014FEA101E4EEA3D
:100E9000017E10EB0E0041EB11114FEA102E4EEACD
:100EA000016E10EB0E0041EB11214FEA104E4EEA9D
:100EB000014E10EB0E0041EB1141401841F10001D1
:100EC0004FEAD00040EA41704FEAD10110EB8005B3
:100ED0004FEA810444EA907444EB01046D1944EB39
:100EE0000404521BA3414FF0000348BF0A3200D54F
:100EF00030BD401C41F1000130BD000001694A1CB9
:100F000002610878704700B58FB0CDE9013100214A
:100F1000059105497944CDE9031011466846FFF76C
:100F20009DFB0FB000BD0000E5FFFFFF2DE9F04184
:100F30001F46044603260168072A01F4006004DB0B
:100F400008B116A505E016A503E008B115A500E057
:100F500015A521F010002060A069C01EA0610FB18E
:100F6000401EA0612046FFF7C1FA4FB1D4E901212C
:100F700038469047206A401C2062C01C206206E070
:100F8000206AFAE7D4E9012115F8010B9047761E93
:100F9000F8D22046FFF7C0FABDE8F0814E414E007E
:100FA0006E616E00494E4600696E66002DE9F0479D
:100FB000814616468AB0354878440DC88DE80D0044
:100FC00032487844801C03AC0DC884E80D0041F61B
:100FD0009B300844372190FBF1F290FBF1F5A5F12D
:100FE000800501FB12041B3C02D56442012000E095
:100FF0000020DFF898A080460027FA44AAF1BE0A34
:101000000EE0E0070AD03246684607EB47010123AD
:101010000AEB810100F037FB8DE8070064107F1CAC
:10102000002CEED1194F7F44AE3F19E0E80715D0F0
:1010300007EB04100DF1180A90E80E008AE80E0084
:10104000C068F04201D1981908903246012306A9E0
:1010500003A800F018FB03AB83E807006D10641CC5
:10106000002DE3D14FF0010332466946B8F1000F7D
:1010700003A802D000F0F2FA01E000F004FBC9E995
:101080000001C9F808200AB0BDE8F08768E0000058
:10109000007B00F0800070470048704768560020D1
:1010A0007546FFF7F9FFAE4605006946534620F046
:1010B0000700854618B020B5FFF782F9BDE820404B
:1010C0004FF000064FF000074FF000084FF0000B04
:1010D00021F00701AC46ACE8C009ACE8C009ACE8B7
:1010E000C009ACE8C0098D46704710B50446AFF39F
:1010F00000802046BDE81040FFF7EBB84FF0013C00
:1011000050F8042B51F8043B9A4215D1A2EB0C0382
:10111000934313EACC130BD150F8042B51F8043B42
:101120009A4209D1A2EB0C03934313EACC13E7D004
:101130004FF00000704700BFD01A01BAB1FA81F138
:1011400001F0180122FA01F0CB40C1F12001DBB21D
:10115000C0B2C01A2CFA01F3D11A914311EAC3119B
:10116000E6D170475FEA400C08BF91F0000F4FEAEC
:101170008C234FEAC12243EA51514FEA1C5018BF59
:1011800000F5F0404FEA300018BF41F000415FEA3F
:101190006C5C00F02980BCF1FF3F08BF40F080404C
:1011A0007047130C06BF12044FF0100C4FF0000CE8
:1011B000130E04BF12020CF1080C130F04BF12012E
:1011C0000CF1040C930F04BF92000CF1020CD30F2E
:1011D00004BF52000CF1010C11464FF00002A0F1C7
:1011E0001F00A0EB0C00704711F0004F08BF7047C4
:1011F00031F000413FF4D5AF0B0C06BF09044FF0AE
:10120000100C4FF0000C0B0E04BF09020CF1080C7F
:101210000B0F04BF09010CF1040C8B0F04BF8900F4
:101220000CF1020CCB0F04BF49000CF1010CCCF106
:101230002003A0EB0C0022FA03F302FA0CF241EABD
:10124000030100F10100704720F07F4C80EA0300A9
:1012500023F07F47ACEB070303F57C5300F000401D
:1012600003F1FF032DE980494FEA154B09B44FEA1A
:10127000144325EA0B4E24EA03480FF2042606EB3A
:10128000132749083E785FEA320203FB0667C7F579
:10129000000707FB06F64FEA54374FEAD64606F139
:1012A000020607FB066CCCF1005C4FEA1C472CEAF7
:1012B000074C07FB06F40CFB06F504EB15464FEA5A
:1012C000961634BF00204FF000404FEAD13706FB9E
:1012D00007FC4FEA1C4C0CFB0BF7D21B03FB0CF773
:1012E00061EB07010CFB0EF7B0EB074072EB174206
:1012F0000CFB08F734BFA2EB0742B2EB074261EBED
:1013000017414FEA0C444FEA910706FB07FC4FEAEE
:101310001C4C0CFB0BF7B0EBC74072EB573203FBD6
:101320000CF734BFA2EBC742B2EBC74261EB5731B7
:101330000CFB0EF7B0EBC70072EB57720CFB08F713
:1013400034BFA2EBC702B2EBC70261EB5771039F38
:101350004FEA816141EA921104EBCC044FEAD137A4
:101360004FEA826206FB07FC42EA90124FEA806075
:101370004FEA1C4C0CFB0BF7D21B03FB0CF761EB89
:1013800007010CFB0EF7B0EB074072EB17420CFBAA
:1013900008F734BFA2EB0742B2EB074261EB1741FB
:1013A0004FEA8C554FEA910704EB9C2406FB07FC9F
:1013B0004FEA1C4C0CFB0BF7B0EBC74072EB5732FB
:1013C00003FB0CF734BFA2EBC742B2EBC74261EBA1
:1013D00057310CFB0EF7B0EBC70072EB57720CFBEA
:1013E00008F734BFA2EBC702B2EBC70261EB57713B
:1013F00015EB4C254FEA816141EA92114FEA826276
:101400004FEAD13742EA901206FB07FC44F1000490
:101410004FEA80604FEA1C4C0CFB0BF7D21B03FB1E
:101420000CF761EB07010CFB0EF7B0EB074072EB1A
:1014300017420CFB08F734BFA2EB0742B2EB07429E
:1014400061EB174115EB1C154FEA813141EA9241DE
:101450004FEA823242EA90424FEA80304FEA0C76FD
:1014600044F1000448EA03434EEA0B484FF0000EF3
:10147000B2EB080C71EB030724BF624639464EEB12
:101480000E0E4FF0000B0018524149414BEB0B0B75
:10149000B2EB080C71EB03077BF1000B24BF624633
:1014A00039464EEB0E0E4FF0000B001852414941E9
:1014B0004BEB0B0BB2EB080C71EB03077BF1000B52
:1014C00024BF624639464EEB0E0E51EA020718BFA2
:1014D00046F0010616EB0E7655F1000254F10001BC
:1014E00003D5BDE88901BDE80088BDE88901BDE8F4
:1014F0000048B619524141EB0101A3F101037047C5
:1015000080807F7E7D7C7B7A797877767675747340
:10151000727171706F6E6E6D6C6C6B6A6A696868FF
:10152000676666656464636362616160605F5F5E95
:101530005E5D5D5C5C5B5B5A5A595958585757560B
:101540005655555554545353525252515150505070
:101550004F4F4F4E4E4D4D4D4C4C4C4B4B4B4A4AC2
:101560004A49494948484847474747464646454506
:10157000454444444443434343424242424141413F
:10158000002B9C4630D477002BD01CB54FEA370790
:1015900003B44FF010004FF01001BAF1000F06D065
:1015A000BCF1000FDCBF40F0080040F008014FF034
:1015B00000000FBCBDE810400BF1010BBBF1010FA7
:1015C00008BF5FEA170722BF12F1010211F1010102
:1015D0004FF0004143F1000300F0004043EA0000F7
:1015E0007047F9D35708D0E746EA064613F1400F93
:1015F0004FEA16461FDD13F1200FDFBF16430A46E0
:10160000002120335B42BED0C3F1200746EA0646E4
:1016100002FA07F74FEA164646EA0706C3F1200723
:1016200022FA03F201FA07F721FA03F14FF000035F
:1016300042EA0702A7E746EA020646EA06464FEAFA
:10164000164646EA0106BCBF46EA0646360C4FF08F
:1016500000034FF000024FF0000194E72DE9804CA9
:101660009A46934670B491E8380007C831EA400CB6
:1016700048BF34EA430C03D5FFF7E6FDFFF780FFD0
:10168000F0BCBDE8008C2DE9804C9A46934670B4BE
:1016900091E8380007C810F0804F08BF13F0804F62
:1016A00003D100F005F8FFF76BFFF0BCBDE8008C3C
:1016B00020F07F4780EA030023F07F4C07EB0C0308
:1016C000A3F57C5300F00040A3F1FE0392F0000F5D
:1016D00000F0B38095F0000F00F077802DE901490C
:1016E0004FEA11404FEA144621EA004800FB06FC8D
:1016F00024EA064708FB06F607FB08F800FB07F795
:1017000018EB06484CEB164C4FEA124B18EB074807
:101710004FEA15464CEB174022EA0B4E0BFB06FC3A
:1017200025EA06470EFB06F607FB0EFE0BFB07F746
:101730001EEB064E4CEB164C4FF000061EEB074E10
:101740004CEB174B18EB0B0840F1000018EB0E0B9D
:1017500058EB000840F100008F1A4FF000013CBF29
:10176000C943661B14BFB5EB040C00213CBFC94341
:10177000F61B4FEA17444EEA8E0E27EA04454FEA5D
:101780001C4704FB07622CEA074C05FB07F70CFB20
:1017900005F604FB0CFC16EB074642EB174216EB72
:1017A0000C4642EB1C421BEB060658EB0202414181
:1017B00046EA9E0601D5BDE80189B619524141EBC2
:1017C0000101A3F10103BDE801894FEA14454FEA85
:1017D000114724EA054621EA074C05FB07F406FBFE
:1017E00007F70CFB06F105FB0CFC11EB074144EB82
:1017F00017444FEA124711EB0C4144EB1C4422EA18
:10180000074C05FB07F206FB07F70CFB06F605FB8A
:101810000CFC16EB074642EB174216EB0C4642EB6C
:101820001C456A1854F1000148BF7047B61952416F
:1018300041EB0101A3F10103704795F0000F37D090
:101840004FEA11424FEA144721EA024624EA074CC4
:1018500002FB07F106FB07F70CFB06F402FB0CFC8E
:1018600014EB074441EB17414FEA154714EB0C44C6
:1018700041EB1C4125EA074C02FB07F506FB07F785
:101880000CFB06F602FB0CFC16EB074645EB174576
:1018900016EB0C4645EB1C42121951F1000148BFF2
:1018A0007047B619524141EB0101A3F101037047A2
:1018B0004FEA14454FEA114724EA054621EA074C4E
:1018C00005FB07F106FB07F70CFB06F24FF00006DD
:1018D00005FB0CFC12EB074241EB174112EB0C42EB
:1018E00051EB1C4148BF7047921841EB0101A3F135
:1018F00001037047FEE780ED020AD1ED030AD1ED46
:10190000041A90ED011A60EE800A90ED002AD0EDE5
:10191000032A41EE810AD1ED051A41EE820A91EDCA
:10192000012AD0ED041A42EE610A91ED022A42EE3C
:10193000620AC0ED050A80ED001A80ED010AC0EDD3
:10194000031AC0ED040AB0EE600A7047F0B5002437
:10195000631C1BB29C4636E004EB440501EBC50555
:1019600005EB830605EB8405D6ED000A95ED001A1C
:1019700080EE810AB5EEC00AF1EE10FA21D000EB3C
:10198000830500EB8406D5ED000A96ED001A40EEC3
:10199000410AC5ED000A1D4611E005EB450601EBC5
:1019A000C60606EB830706EB8406D7ED000A96ED24
:1019B000001A40EE410AC7ED000A6D1C2DB2062D3B
:1019C000EBDB5B1C1BB2062BC6DB6446062CBFDBC5
:1019D0000524B7EE002A04EB440300EB840701EB77
:1019E000C30C0CEB8403D7ED000A93ED000A80EEE4
:1019F000801A87ED001A83ED002A0023DFED140A18
:101A000011E00CEB830595ED000A00EB8306D7EDA2
:101A1000001A96ED001A00EE611A86ED001AC5ED67
:101A2000000A5B1C1BB2A342EBDB641E24B2002C39
:101A3000D1DA002100EB810393ED000A02EB810370
:101A400083ED000A491C09B20629F3DBF0BD000052
:101A50000000000030B500239FED0B0A00EB83026D
:101A600082ED000A002203EB430401EBC40404EB03
:101A7000820585ED000A521C12B2062AF7DB5B1CB8
:101A80001BB2062BEADB30BD00000000F0B586B0CB
:101A9000B7EE001A00246D46F0EE001AB8EE002AE8
:101AA000E61C02EB8607D7ED000A03EB840797EDEF
:101AB000000A02EB8407D7ED002A30EE620A60EEDE
:101AC000A02A62EE802A02EEC01A60EEA12A05EB7F
:101AD000840762EEA02A62EE802AC7ED002A60EE3B
:101AE000820A05EB860660EE800A20EE800A86ED0B
:101AF000000A641C24B2032CD2DB002300EB830217
:101B000005EB8304D2ED000A94ED000A40EE010AD1
:101B1000C2ED000A002203EB430401EBC40606EB0E
:101B2000820405EB8207D4ED000AD7ED001A40EEDF
:101B3000210AC4ED000A521C12B2062AEFDB5B1C1C
:101B40001BB2062BDADB06B0F0BD00002DE9F04138
:101B500080460F4615462DED028BBAB000269FED4C
:101B6000828ADFED828A00203790389039901821E0
:101B700031A8FEF7AEFE18212BA8FEF7AAFE182109
:101B800025A8FEF7A6FE902101A8FEF7A2FE9FED74
:101B9000780A8DED330A8DED320A8DED310A9FED15
:101BA000750A8DED360A8DED350A8DED340A6AE041
:101BB000761C36B201A925A8FFF74CFF002404EBE0
:101BC000440008EB800393ED000A8DED370A93ED96
:101BD000010A8DED380A93ED020A8DED390A37AB13
:101BE00031AA01A925A8FFF751FF641C24B2062CD5
:101BF000E5DB2BAA01A925A8FFF7A8FE9DED2E0A7B
:101C000060EE000A9DED340A20EE000A80EE801A94
:101C10009DED2B0A20EE000A70EE000A9DED2C0AC5
:101C200040EE000A9DED2D0A40EE000A9DED2F0AC0
:101C300031EE201A60EE000A9DED350A20EE000A12
:101C4000C0EE801A9DED300A71EE210A20EE001AD6
:101C50009DED360A20EE000AC1EE001A70EEA18A50
:101C6000002331A92BAA01EB830002EB830490ED42
:101C7000000AD4ED000A30EE600A80ED000A5B1C19
:101C80001BB2062BEFDB142E04DAF4EEC88AF1EE59
:101C900010FA8DDC9DED340ADFED370A20EE200AC4
:101CA00085ED000A9DED351A21EE201A85ED011A09
:101CB0009DED361A61EE200AC5ED020ADDED310A0E
:101CC00020EE801A87ED001A9DED320AD5ED010A4B
:101CD00060EE200AC7ED010A9DED330AD5ED021A28
:101CE00020EE210A87ED020AD5ED001AB7EE002A90
:101CF0004FF07C5171EEC21AF0EEE11A11EE900A2B
:101D0000884213DCD5ED011A71EEC21AF0EEE11A29
:101D100011EE900A884209DCD5ED021A71EEC21A62
:101D2000F0EEE11A11EE900A884205DD00203AB08B
:101D3000BDEC028BBDE8F081B0EEC11A11EE100AC5
:101D40000E4988420BDCF0EEE00A10EE900A884261
:101D500005DCB0EEC00A10EE100A884201DD00205A
:101D6000E5E70120E3E700005F7089300000C8422A
:101D7000000000007FD6D03D0AE81C410000A040D2
:101D800010B52DED028B554C94ED0A0A9FED548A47
:101D900020EE080A10EE100A0CF0D2FE41EC100BF7
:101DA00006F04AFF51EC100B0CF0C4F8206394EDE0
:101DB0000A0A20EE080A10EE100A0CF0C1FE41ECEF
:101DC000100B06F021FE51EC100B0CF0B3F8E063A1
:101DD00094ED0B0A20EE080A10EE100A0CF0B0FE8B
:101DE00041EC100B06F028FF51EC100B0CF0A2F8A0
:101DF000606394ED0B0A20EE080A10EE100A0CF056
:101E00009FFE41EC100B06F0FFFD51EC100B0CF0A7
:101E100091F8206494ED090A20EE080A10EE100AE9
:101E20000CF08EFE41EC100B06F006FF51EC100B8F
:101E30000CF080F8A06394ED090A20EE080A10EE79
:101E4000100A0CF07DFE41EC100B06F0DDFD51ECAC
:101E5000100B0CF06FF800EE100A84ED110A94EDEF
:101E6000101A204860EE010AC0ED000AD4ED0C1AE9
:101E7000D4ED0D2A94ED0F2AD4ED0E0A61EEA23AAC
:101E800023EE803A02EE603A80ED013A21EEA04A5C
:101E900022EE223A03EE004A80ED024A20EE814A09
:101EA00080ED034A63EEA03A42EE003AC0ED043AF8
:101EB00063EE200A41EEC00AC0ED050AB1EE620AE7
:101EC00080ED060A21EE810A80ED070A22EE010A62
:101ED00080ED080ABDEC028B10BD00001C00002044
:101EE00035FA8E3CEC0E0020014800F019B90000D4
:101EF0002C0C00200168CAB2103A1823B2FBF3F28E
:101F0000064B9B5CC365032A6FF3090102D9091DC7
:101F1000816500E08165806D7047000034ED000848
:101F2000014610B500208A6A4FF0C0748B69002BFF
:101F30000ED0B3F5005F1AD062B3012A2AD0022A6C
:101F400028D0032A03D1C96AC90100D5012010BDD8
:101F50001AB1012A06D0022AF9D1C96AC901F6D5F7
:101F6000012010BDC96AA142FBD1012010BD52B1B0
:101F7000012A0AD0022A06D0032AF7D1C96AA1424F
:101F8000F4D1012010BD012010BDC96AC901FBD5E3
:101F9000012010BD012010BD30B50468256825F46E
:101FA00080252560046863608368402B04D0036843
:101FB00099600068C26030BD03689A600068C160C3
:101FC00030BD704772B6FEE708B51248016841F0AF
:101FD00010010160006800F0100000900F480E49E9
:101FE00001606B2141600021816042F20F71C1608C
:101FF0008021816101F054FF00220521362000F08C
:102000007DFE362000F06CFEBDE80840034801F07C
:10201000F7BF000040380240001000400C160020BE
:1020200030B501780E4A0F4B00290CD10121017007
:10203000546A596840F27125694304EB01118160CB
:1020400041600021C16081684160546A5A6840F271
:1020500071235A4304EB02128260511AC16030BDF1
:1020600000100040E40000202DE9F0410446A76D77
:1020700000F0ECFA054694F835000026022806D058
:102080008020606584F834600120BDE8F08120681C
:10209000016821F0160101602068416921F080018A
:1020A0004161206C08B9A06C20B12068016821F062
:1020B000080101602068016821F0010101600BE066
:1020C00000F0C4FA401B052806D9202034342062D1
:1020D000267003206070D8E720680068C007EFD141
:1020E00034343F2094F828108840B86026700120CE
:1020F00060700020C9E790F83510022903D08021D4
:10210000416501207047052180F83510006801689D
:1021100021F0010101600020704790F83500704700
:102120002DE9F84304464FF00009CDF800904FF434
:1021300016516E480068B0FBF1F7A56D2E680822B5
:1021400094F85C0002FA00F1314210D02068016876
:1021500049070CD5016821F00401016094F85C0086
:1021600002FA00F1A960606D40F00100606594F82A
:102170005C104FF0010808FA01F0304208D02168E5
:102180004969090604D5A860606D40F002006065E9
:1021900094F85C1004208840304208D02168096817
:1021A000890704D5A860606D40F00400606594F86C
:1021B0005C1010208840304220D02168096809074F
:1021C0001CD5A8602068016849030CD5006800038D
:1021D00004D4216C91B1204688470FE0A16C69B10D
:1021E000204688470AE00168C90503D4016821F048
:1021F00008010160216C09B12046884794F85C1001
:102200002020884030424CD021680968C90648D552
:10221000A86094F8350005280BD0206801684903B0
:1022200030D50068000328D4616C51B3204688473C
:1022300037E02068016821F01601016020684169DB
:1022400021F080014161206C08B9A06C20B12068A8
:10225000016821F00801016094F85C103F2088407B
:10226000A86084F8349084F83580216D00293BD033
:1022700001B02046BDE8F0430847E16B09B12046B4
:1022800088470EE00168C90507D4016821F01001F4
:10229000016084F8349084F83580E16B09B1204600
:1022A0008847606D00281FD0606DC00714D00520DE
:1022B00084F835002068016821F001010160009870
:1022C000401C0090B84203D820680068C007F6D1CF
:1022D00084F8349084F83580E16C002904D001B092
:1022E0002046BDE8F0430847BDE8F883040300201A
:1022F0002DE9F041044600F0A9F905465CB100263D
:1023000084F83460022084F835002068016821F0E8
:10231000010101600DE00120BDE8F08100F096F9B7
:10232000401B052805D920206065032084F835006E
:10233000F2E720680068C007F0D121680A682048E9
:102340000240D4E901031843D4E903352B43184371
:1023500063691843A3691843E3691843236A184360
:102360001043626A042A03D1D4E90B231A431043B1
:1023700008602068406920F00700656A2946054327
:10238000012704290DD1A06A0543E06A48B120461F
:10239000FFF7C6FD28B14020606584F83570012044
:1023A000BAE7206845612046FFF7A4FD94F85C2059
:1023B0003F2191408160666584F835700020ABE76D
:1023C0003F8010F02DE9F04104460025A66D94F8F9
:1023D000340001280DD0012084F8340094F83570C1
:1023E0000020012F07D084F8340002252846BDE8DC
:1023F000F0810220FBE7022784F8357060652046F3
:10240000FFF7CAFD94F85C103F208840B060206858
:10241000016841F0160101602068416941F08001C6
:102420004161206C20B12068016841F00801016021
:102430002068016841F001010160D7E770B50446EA
:1024400000F004F90546601C02D0044800780444FA
:1024500000F0FCF8401BA042FAD370BD68030020D6
:102460002DE9F84F0022DFF894A14FF003084FF058
:102470000F090AF1040B012595400B682B40AB4274
:1024800072D14C68012C05D0022C03D0112C01D044
:10249000122C10D18668540008FA04F7BE43CF68A6
:1024A000A740374387604668AE430C79C4F30014F5
:1024B000944034434460C468570008FA07F5AC43BD
:1024C0008E68BE402643C6604C68022C01D0122C98
:1024D00012D1D40800EB840CDCF820605407E40E21
:1024E00009FA04FE26EA0E06D1F810E00EFA04FE00
:1024F0004EEA060ECCF820E00468AC430D7905F0F6
:102500000305BD40254305604C68E4006FD53C4C95
:10251000256845F480452560246804F480440094CF
:10252000384C22F003052E19D6F808789407250FA9
:1025300009FA05F4A743344CA04201D100242EE04F
:10254000324CA04201D1012429E0314CA04201D1FA
:10255000022424E02F4CA04201D103241FE02E4C82
:10256000A04202D104241AE041E02C4CA04201D147
:10257000052414E02A4CA04201D106240FE0294C86
:10258000A04201D107240AE0274CA04201D108242F
:1025900005E0264CA04201D1092400E00A24AC4009
:1025A0003C43C6F80848DAF800409C434D68ED0308
:1025B00000D51C43CAF80040DBF800409C434D683E
:1025C000AD0300D51C43CBF800400C4D08352C68FA
:1025D0009C434E68F60200D51C432C60074D0C3519
:1025E0002C689C434E68B60200D51C432C60521CDC
:1025F000102AFFF440AFBDE8F88F0000003C014016
:102600004438024000300140000002400004024013
:1026100000080240000C024000100240001402407A
:1026200000180240001C024000200240002402402A
:102630000069084201D00120704700207047002A3D
:1026400001D0816170470904816170470148806849
:1026500070470000680300201CB500200090022095
:1026600001900023094801A96A4600680BF0C6F8EA
:1026700001280AD10098002807D005494FF0805062
:102680000860BFF34F8FBFF36F8F1CBD4001002068
:1026900004ED00E01CB50020009001200190002313
:1026A000094801A96A4600680BF0A8F801280AD178
:1026B0000098002807D005494FF080500860BFF30C
:1026C0004F8FBFF36F8F1CBD4001002004ED00E071
:1026D0001CB500200090012001900023094801A9A9
:1026E0006A4600680BF08AF801280AD10098002891
:1026F00007D005494FF080500860BFF34F8FBFF3FC
:102700006F8F1CBD4001002004ED00E01CB50020CF
:102710000090012001900023094801A96A46006841
:102720000BF06CF801280AD10098002807D0054961
:102730004FF080500860BFF34F8FBFF36F8F1CBD09
:102740004001002004ED00E01CB5002000900120B5
:1027500001900023094801A96A4600680BF04EF871
:1027600001280AD10098002807D005494FF0805071
:102770000860BFF34F8FBFF36F8F1CBD4001002077
:1027800004ED00E090F84120202A01D0022070479B
:1027900090F84020012A20D0012280F840202422F5
:1027A00080F841200268136823F001031360026877
:1027B000136823F480531360026813680B4313609B
:1027C00001680A6842F001020A60202180F8411085
:1027D000002180F84010002070470220704790F8D8
:1027E0004120202A01D00220704790F84020012A81
:1027F0001ED0012280F84020242280F84120026867
:10280000136823F0010313600268136823F47063F4
:1028100043EA0121116001680A6842F001020A607E
:10282000202180F84110002180F8401000207047DE
:10283000022070477047704730B40268936911688E
:10284000DB43DC0509D4CC43240606D4446C44F0B5
:10285000010444644FF48074D4615A050AD4CA4315
:10286000120607D4426C42F00802426404684FF436
:102870008062E2619A050AD4C943090607D4416C13
:1028800041F00201416402684FF40071D161416C72
:1028900011F00B0F02D030BC03F0A0B930BC704770
:1028A000026891691268436B002B00D0184770478B
:1028B0007047000070B50446002C04D094F8410025
:1028C000002510B11EE0012070BD84F8405034484E
:1028D000E06434482065344860653448A065344875
:1028E000E06534482066344860663448A066344861
:1028F000E06634482067606F08B933486067204657
:10290000616F8847242084F841002068016821F025
:10291000010101602168606820F070600861206832
:10292000816821F400418160E068012808D02168B5
:10293000A06840F404408860E068022806D009E0FE
:102940002168A06840F400408860F5E721684FF4F2
:1029500000604860206841681C4A1143416020685B
:10296000C16821F40041C160D4E904010843A169B0
:1029700040EA01202168C860D4E9070108432168C2
:1029800008602068016841F0010101606564202051
:1029900084F84100256384F84250002070BD000097
:1029A000D5290008D32900080B2C0008092C0008A1
:1029B000D1290008D9290008D7290008B128000822
:1029C00035280008372800087D2B00080080000209
:1029D0007047704770477047704700002DE9FC470B
:1029E00004460F4690469946DDE90A6A94F841008C
:1029F000202802D00220BDE8FC874EB1BAF1000FBA
:102A000006D020688069C043000406D40220F2E7A3
:102A10004FF4007060640120EDE794F84000012855
:102A20001AD0243401202077FFF710FE222161778D
:102A30004021A177002525622660A4F806A0194947
:102A4000A16019492161E188243CFF2906D9FF21B1
:102A500021854FF0807605E00220CCE7618D21854D
:102A60004FF0007619214B46CDE900104246394619
:102A7000204603F089FC18B184F840500120BAE7E1
:102A80000A4833460090394694F82820204603F03F
:102A900011FE84F840500221204603F007F8002080
:102AA000A9E700000000FFFF316200080024008059
:102AB0002DE9FC4704460F4690469946DDE90A6A2F
:102AC00094F84100202802D00220BDE8FC874EB1D6
:102AD000BAF1000F06D020688069C043000406D414
:102AE0000220F2E74FF4007060640120EDE794F8F3
:102AF000400001281AD0243401202077FFF7A6FDDA
:102B0000212161774021A177002525622660A4F864
:102B100006A01849A16018492161E188243CFF29D9
:102B200006D9FF2121854FF0807605E00220CCE711
:102B3000618D21854FF0007619214B46CDE90010BB
:102B400042463946204603F059FC18B184F84050FB
:102B50000120BAE70095334694F8282039462046EC
:102B600003F0A8FD84F840500121204602F09EFFAA
:102B70000020AAE70000FFFF3162000810B586B010
:102B80000446142101A8FDF7A4FE1C4920688842D0
:102B900031D11B48016841F002010160006800F07A
:102BA000020000904FF4C0700190122002900020AB
:102BB00003900320049004200590124801A9FFF718
:102BC0004FFC0F481030016841F4001101600068AB
:102BD00000F400100090002205211F2000F08EF864
:102BE0001F2000F07DF800220F21202000F086F841
:102BF000202000F075F806B010BD00000054004021
:102C00003038024000040240704770470248816833
:102C100002781144816070476803002010B50320DA
:102C200000F08CF80F2000F005F800F03DF80020CF
:102C300010BD000000B587B001460022372000F02B
:102C40005DF8372000F04CF81348016841F020018E
:102C50000160006800F02000009001A902A800F0C7
:102C6000FBFD00F01DFE40000C49B0FBF1F1491ED8
:102C70000C480B4A026040F2E732C260416000211A
:102C80000161816001F00CF910B1012007B000BDB5
:102C9000044801F0B5F9F9E74038024040420F001E
:102CA000001400408C0C002082B00C48016841F0F8
:102CB00080510160006800F0805001900748001DBD
:102CC000016841F480410160006800F48040019097
:102CD00000220F21901E02B000F010B840380240D0
:102CE000002809DB012100F01F029140400980000B
:102CF00000F1E020C0F8001170470000F0B40D466C
:102D00000D4B1B68C3F30223C3F10704042C00D945
:102D10000424191D072901D2002300E0DB1E01262F
:102D200006FA04F1491E294099409E40761E16403D
:102D30003143F0BC05F03CBA0CED00E000F00701B7
:102D4000054A10684FF6FF03184040EA0120034986
:102D500008431060704700000CED00E00000FA0529
:102D6000F8B51948016841F080510160006800F031
:102D700080500090154C206840F480302060FFF7B0
:102D800065FC05464FF47A7606E0FFF75FFC401BD2
:102D9000B04201D90320F8BD6068C003F5D52068B2
:102DA00040F400302060FFF751FC054606E0FFF7D5
:102DB0004DFC401BB04201D90320F8BD6068800380
:102DC000F5D50020F8BD00004038024000700040FA
:102DD000F8B504460025FFF739FC064694F8410093
:102DE000800736D5002084F8400020680168490734
:102DF0000BD5016821F004010160E06BFFF734F9A5
:102E000018B1606C40F0040060642068016841F013
:102E100002010160A06C012202213346009020468D
:102E200004F046FA05465DB921680220C860002218
:102E3000A06C202133460090204604F039FA054664
:102E40003DB92068416921F040614161012084F869
:102E500041002846F8BD2DE9F84F04460E4690463D
:102E6000FFF7F4FB834694F8400001280ED00127B9
:102E700084F8407094F841004FF00009012807D011
:102E8000022584F840902846BDE8F88F0220FBE731
:102E9000C4F844904FF0020A84F841A00022202197
:102EA0005B462046CDF8008004F002FA0546002D6E
:102EB000E7D100223146204604F021F9706A10B1B2
:102EC00084F84170DDE701225B4602212046CDF8FF
:102ED000008004F0EDF90546002DD2D12068C0F83D
:102EE0000CA084F84170CCE7F8B50446FFF7AEFBC0
:102EF000064624B194F84100002510B10BE00120F2
:102F0000F8BD84F84050204600F042F841F2883184
:102F1000204600F017F92068016821F4F852A168F2
:102F2000491E42EA01210160A06C002220213346A3
:102F30000090204604F0BCF910BBE268E1692379F7
:102F40000A43216A41EA03610A4321680B680E4E75
:102F500033401A430A60D4E905210A4321684B68CB
:102F60000A4E3340268A43EA06431A434A602168E0
:102F70000A6842F001020A606564012184F8411088
:102F800084F84050F8BD00002FFFFF00FEF8E0FF7E
:102F90002DE9F04186B00446142101A8FDF799FC03
:102FA0002D492068884254D12C48016841F0020123
:102FB0000160006800F002000090284808380168AD
:102FC00041F010010160016801F0100100910168F9
:102FD00041F002010160016801F002010091016805
:102FE00041F008010160006800F0080000904FF017
:102FF0000408CDF8048002240294002503950326DA
:10300000049609270597164801A9FFF729FACDF874
:103010000480029403950496059701A9DFF8448083
:103020004046FFF71DFA4FF460500190029403955B
:103030000496059701A90C48FFF712FA4020019069
:103040000294039504960A20059001A94046FFF7D3
:1030500007FA06B0BDE8F081001000A03838024041
:103060000010024000040240000C02402DE9F84F1D
:103070000446884617460025FFF7E8FA834620688D
:10308000816900F1200694F84020012A0ED04FF00B
:10309000010984F8409094F84120AA46012A07D0FB
:1030A000022584F840A02846BDE8F88F0220FBE7FF
:1030B000C4F844A0B8F1000F3ED0222284F8412089
:1030C0000269521CA2630269521C6263C4F8308018
:1030D000426922F0406242F0806242612068816170
:1030E00012E001225B4606212046009704F0E0F83A
:1030F000054628000BD13078216B0870206B401CEE
:103100002063A06B401EA063A06B0028E9D185B9A5
:1031100001225B4602212046009704F0C9F80546CB
:10312000280006D121680220C8602046FFF750FE23
:10313000054684F84190B4E7606C40F00800606494
:103140000125AEE7816470472DE9F84F04468846B3
:1031500017460025FFF77AFA8346206800F120061B
:1031600094F8401001290ED04FF0010984F84090E6
:1031700094F84110AA46012907D0022584F840A0FE
:103180002846BDE8F88F0220FBE7C4F844A0B8F158
:10319000000F3AD0122184F841100169491CE16204
:1031A0000169491CA162C4F82480416921F0406191
:1031B000416112E001225B4604212046009704F0A1
:1031C00077F8054628000BD1606A00783070606A95
:1031D000401C6062E06A401EE062E06A0028E9D1BB
:1031E00085B901225B4602212046009704F060F871
:1031F0000546280006D121680220C8602046FFF756
:10320000E7FD054684F84190B8E7606C40F008009F
:1032100060640125B2E700002DE9F84F044600255F
:103220000026DFF878A42078C0070ED0DAF8000076
:1032300020F40000CAF80000DAF80000616B0843CF
:10324000CAF80000606B00B901252068DFF85084DF
:1032500000030ED5D8F80000E16B20F440100843BD
:10326000C8F80000E06BB0F5801F00D1012500B95F
:1032700001262068C0020ED5D8F80000216C20F489
:1032800040000843C8F80000206CB0F5800F00D162
:10329000012500B901262068C10100D5012580065D
:1032A0005DD5FE483830016841F08051016000680A
:1032B00000F080500090DFF8EC93D9F8000040F463
:1032C0008070C9F80000FFF7C1F9074607E0FFF773
:1032D000BDF9C01B642802D90320BDE8F88FD9F8D6
:1032E0000000C005F3D5EE4F1C3F386800F4407075
:1032F00020B3218E01F4407181421FD0386820F440
:103300004070396841F480313960396821F4803186
:10331000396038603868C00710D0FFF797F98146E8
:1033200041F2883B07E0FFF791F9A0EB090058450F
:1033300001D90320D1E738688007F4D5206BC0F3AA
:10334000012103297ED0DAF8000020F4F810CAF831
:1033500000003868218EC1F30B01084338602078E3
:10336000C0060BD5D8F8000020F08070C8F8000027
:10337000D8F80000A16B0843C8F800002088410479
:10338000C94805D50168626E21F4403111430160DE
:103390002188090405D50168A26E21F4402111435A
:1033A00001602168C90305D50168E26E21F440116E
:1033B000114301602168890305D50168226F21F45A
:1033C0004001114301602178490605D50168626C0E
:1033D00021F00301114301602178090605D5016838
:1033E000A26C21F00C01114301602188C90505D5AB
:1033F0000168E26C21F030011143016021888905E8
:1034000005D50168226D21F0C001114301602188BA
:10341000490505D50168626D21F4407111430160D1
:103420002188090505D50168A26D21F44061114389
:1034300001602188C90407D50168E26D21F440517B
:10344000114300E046E001602188890405D5016848
:10345000226E21F44041114301602168490205D5E3
:103460000168A26F21F080611143016021684FF073
:103470000069890209D50168E26F21F000611143FA
:103480000160E16F494500D1012621680A0700D596
:103490000126490305D50168626F21F0407111438F
:1034A00001602168090206D50168D4F8802021F066
:1034B000805111430160794F083F012D02D02068EF
:1034C00080017DD5386820F080603860FFF7BEF855
:1034D000054610E0DAF80010744A21F4F8111040A3
:1034E0000143CAF8001034E7FFF7B0F8401B642826
:1034F00001D90320F1E638680001F5D420786C4941
:10350000C00711D0606B78B90868C0F301400A6841
:10351000C2F3036263689B0143EA004040EA026031
:10352000227A40EA027008602068020303D5E26B49
:10353000B2F5801F05D0C0021CD5206CB0F5800FFD
:1035400018D10868C0F301400A68C2F302726368C8
:103550009B0143EA0040237B40EA036040EA02709B
:103560000860D8F80000626A20F01F00521E104365
:10357000C8F800002068C0010FD50868C0F30360D8
:103580000A68C2F302726368258A9B0143EA054315
:1035900043EA006040EA02700860206880010BD5B1
:1035A0006068228A800140EA0240227B40EA026091
:1035B000227A40EA02700860386840F0806000E0DB
:1035C0000EE03860FFF742F8054606E0FFF73EF8E8
:1035D000401B642801D903207FE638680001F5D537
:1035E000012E5AD1386820F080503860FFF72EF84D
:1035F000054606E0FFF72AF8401B642801D903209E
:103600006BE63868C0438000F4D52068294902037E
:1036100001D5E26B1AB1C0021BD5206CC8B908688D
:10362000C0F301400A68C2F3027263699B0143EA76
:103630000040237E40EA036040EA02700860D8F848
:10364000000020F4F852A06A401E42EA0020C8F8A8
:1036500000002068800212D5E06F48450FD108684D
:10366000C0F303600A68C2F302726369258C9B0190
:1036700043EA054343EA006040EA027008602078AC
:10368000000727D50868C0F303600A68C2F3014247
:1036900063699B0143EA02420EE02EE008380240D3
:1036A0008C3802400070004090380240FFFCFF0F51
:1036B000843802408838024042EA0060227F40EAB3
:1036C00002700860D8F80000E16A20F44030084336
:1036D000C8F80000386840F080503860FEF7B6FF48
:1036E000044606E0FEF7B2FF001B642801D9032060
:1036F000F3E53868C0438000F4D40020EDE5000015
:103700002DE9F04704460D46002C17D0DFF8348130
:10371000D8F8000000F00F00A84211D2D8F800003D
:1037200020F00F002843C8F80000D8F8000000F08F
:103730000F00A84204D00120BDE8F0870120FBE77C
:103740002068414E810712D5400703D5306840F408
:10375000E05030602078000703D5306840F46040C6
:1037600030603068A16820F0F000084330602078B5
:10377000C0072ED0344960680839012806D00228D5
:1037800009D0096889070BD40120D5E709688903A6
:1037900006D40120D0E70968890101D40120CBE7D4
:1037A000316821F0030101433160FEF74FFF074606
:1037B00041F2883906E0FEF749FFC01B484501D9B0
:1037C0000320B9E73068616800F00C00B0EB810FAE
:1037D000F1D1D8F8000000F00F00A8420ED9D8F8B7
:1037E000000020F00F002843C8F80000D8F80000BF
:1037F00000F00F00A84201D001209DE7207840078B
:1038000005D53068E16820F4E05008433060207846
:10381000000706D53068216920F4604040EAC10005
:10382000306000F05DF83168084AC1F30311515C63
:10383000C8400749086007480068FFF7FBF9002007
:103840007AE70000003C0240083802401CED000806
:10385000040300206C0300200F2202600B4A13684F
:1038600003F003034360136803F0F00383601368FD
:1038700003F4E053C360126802F46042D2080261AC
:103880000348006800F00F000860704708380240E5
:10389000003C02400148006870470000040300201B
:1038A00000B5FFF7F7FF04490968044AC1F3822114
:1038B000515CC84000BD0000083802402CED0008F3
:1038C00000B5FFF7E7FF04490968044AC1F3423134
:1038D000515CC84000BD0000083802402CED0008D3
:1038E00010B51748006810F00C01164816D0164B9A
:1038F000042912D0082911D1114C241F216801F08C
:103900003F02216849020AD52068C0F38810A0FB55
:1039100003010023FCF767FD09E0184610BD21688C
:103920000023C1F38811A1FB0001FCF75CFD2168B5
:10393000C1F30141491C4900B0FBF1F010BD00008A
:10394000083802400024F40040787D012DE9F84F4A
:1039500004464FF00008002C15D02078DFF80494BE
:10396000A9F10407C007A7F1040560D0D9F8000049
:10397000C0F3810001280CD0D9F80000C0F3810009
:10398000022803D00CE00120BDE8F88F386840021F
:1039900006D5286880034AD5606870BB0120F3E72C
:1039A0006068B0F5803F11D0A8B1B0F5A02F1BD052
:1039B000286820F480302860286820F4802028605F
:1039C000606830B3FEF742FE06461EE0286840F409
:1039D00080302860F4E7286820F480302860286868
:1039E00020F480202860EBE7286840F480202860DD
:1039F000286840F480302860E2E718E0FEF726FEF1
:103A0000801B642801D90320BEE728688003F5D510
:103A10000DE0FEF71BFE064606E0FEF717FE801BD4
:103A2000642801D90320AFE728688003F5D4207803
:103A300080074BD5D9F8000010F00C0F08D0D9F84A
:103A40000000C0F38100022812D1386840020FD470
:103A50002868800704D5E068012801D0012093E799
:103A60002868216920F0F80040EAC10028602DE0B4
:103A7000E068C8B1286840F001002860FEF7E6FD64
:103A8000064606E0FEF7E2FD801B022801D903206E
:103A90007AE728688007F5D52868216920F0F800C2
:103AA00040EAC100286011E0286820F00100286089
:103AB000FEF7CCFD064606E0FEF7C8FD801B022897
:103AC00001D9032060E728688007F5D42078000733
:103AD00030D5DFF890A260690AF16C0AA8B1DAF873
:103AE000000040F00100CAF80000FEF7AFFD0646F6
:103AF00006E0FEF7ABFD801B022801D9032043E757
:103B0000DAF800008007F4D514E0DAF8000020F0BD
:103B10000100CAF80000FEF799FD064606E0FEF730
:103B200095FD801B022801D903202DE7DAF800005B
:103B30008007F4D42078400775D5DFF828A20AF171
:103B4000380ADAF80000C0000CD4DAF8000040F0BF
:103B50008050CAF80000DAF8000000F080500090B1
:103B60004FF00108DFF800B2DBF80000C00514D404
:103B7000DBF8000040F48070CBF80000FEF766FD33
:103B8000064606E0FEF762FD801B642801D903208B
:103B9000FAE6DBF80000C005F4D5DFF8C8B1A0688C
:103BA0000BF1680B012814D0D0B1052825D0DBF823
:103BB000000020F00100CBF80000DBF8000020F04E
:103BC0000400CBF80000A06870B3FEF73FFD064686
:103BD0002BE0DBF8000040F00100CBF80000F2E73A
:103BE000DBF8000020F00100CBF80000DBF800005B
:103BF00020F00400CBF80000E5E7DBF8000040F01F
:103C00000400CBF80000DBF8000040F00100CBF826
:103C10000000D8E7FEF71AFD811B41F2883081428F
:103C200003D90320B0E61FE004E0DBF800008007C2
:103C3000F0D510E0FEF70AFD064608E0FEF706FDA7
:103C4000811B41F28830814201D903209CE6DBF8D8
:103C500000008007F2D4B8F1010F05D1DAF80000B6
:103C600020F08050CAF80000A169E9B3D9F800003B
:103C70004FF0FF38C0F3810002284CD0022907D052
:103C8000286820F080702860FEF7E0FC04463EE0E3
:103C9000286820F080702860FEF7D8FC064606E011
:103CA000FEF7D4FC801B022801D903206CE62868AB
:103CB0008001F5D4D4E90701A26A0843616A08EBE0
:103CC0005202890141EA0241084394F82C1040EA6B
:103CD000016040F000503860286840F08070286033
:103CE000FEF7B4FC044607E03AE0FEF7AFFC001B29
:103CF000022801D9032047E628688001F5D52FE086
:103D0000FEF7A4FC001B022801D903203CE628682A
:103D10008001F5D424E0386801291FD0E26900F45D
:103D2000800191421AD1226A00F03F01914215D1DF
:103D3000626A47F6C0710140B1EB821F0ED1A26AE0
:103D400000F4403108EB5202B1EB024F06D194F877
:103D50002C1000F07060B0EB016F01D0012013E671
:103D6000002011E60838024000700040704770479C
:103D70007047000030B590F83C20012A3AD001226B
:103D800080F83C20CA6800248B6822F440721A43F1
:103D90004B6822F480621A430B6822F400621A43D3
:103DA0000B6922F480521A434B6922F400521A43E1
:103DB0008B6A22F480421A430B8B22F4702242EA6F
:103DC00003420D4D0368AB4202D00C4DAB420CD107
:103DD0008D8C22F4700242EA0552CD6922F0807285
:103DE0002A43096A22F000720A435A6480F83C4070
:103DF000002030BD022030BD000001400004014021
:103E0000F0B590F83C20012A3AD0012680F83C60B9
:103E1000022280F83D2003685A689C68194FDFF839
:103E200068C0BB4201D0634503D122F470054A68E3
:103E30002A4322F070020D6815435D600268BA42A1
:103E400013D0B2F1804F10D0104B9A420DD0104BCE
:103E50009A420AD00F4B9A4207D0624505D00E4BCA
:103E60009A4202D00D4B9A4204D124F08003896813
:103E7000194391603C304670002101700020F0BD74
:103E80000220F0BD00000140000401400004004099
:103E900000080040000C00400040014000180040B5
:103EA00010B50446002C03D094F83D0010B107E093
:103EB000012010BD002084F83C00204600F018F8D6
:103EC000022084F83D002068211D03F04BFB0120F7
:103ED0003D34E0726070A070E07020716071A0717C
:103EE000E07120726072A0722070002010BD00008E
:103EF00008B500681C49884212D11C48016841F08D
:103F000001010160006800F001000090002205211D
:103F10001920FEF7F3FEBDE808401920FEF7E0BEC9
:103F20001249091FB0F1804F14D0114A904219D1A3
:103F3000086840F010000860086800F01000009069
:103F4000002205213620FEF7D9FEBDE808403620C4
:103F5000FEF7C6BE086840F001000860086800F07F
:103F60000100009008BD00000000014044380240FC
:103F70000010004090F83D10012901D00120704749
:103F8000022180F83D1000681549884214D0B0F134
:103F9000804F11D0134988420ED0134988420BD06C
:103FA0001249884208D01249884205D011498842F6
:103FB00002D0114988420CD18168104A114006296B
:103FC0000BD0B1F5803F08D0016841F001010160DC
:103FD00003E0016841F0010101600020704700002A
:103FE000000001400004004000080040000C0040B8
:103FF000000401400040014000180040070001009B
:1040000090F83D10012901D001207047022180F86D
:104010003D100168CA6842F00102CA600068154993
:10402000884214D0B0F1804F11D0134988420ED08D
:10403000124988420BD01249884208D0114988425F
:1040400005D01149884202D0104988420CD18168BC
:104050000F4A114006290BD0B1F5803F08D0016806
:1040600041F00101016003E0016841F001010160DC
:10407000002070470000014000040040000800409C
:10408000000C0040000401400040014000180040C6
:104090000700010070B5044694F83C00012817D0D1
:1040A000012584F83C50022084F83D002068826895
:1040B000314B1A4022F47F4282600868502831D088
:1040C0000DDC20284DD005DCB0B310284ED148E0DF
:1040D000022070BD302844D0402847D137E0602806
:1040E0002BD0702806D0B0F5805F3FD0B0F5005FD0
:1040F0003CD10BE0CB682068D1E9012103F0A5FA9F
:104100002068816841F0770181602FE0CB682068EA
:10411000D1E9012103F099FA2068816841F48041D6
:10412000816023E0CA684968206803F0CBFB2068FF
:10413000502103F094FA19E013E0CA684968206836
:1041400003F012FC2068602103F089FA0EE0CA68CF
:104150004968206803F0B6FB2068402103F07FFA2D
:1041600004E022680146104603F079FA3C34657099
:104170000020207070BD000088FFFEFF2DE9F05F79
:1041800001462DED0C8B9FEDFB9BFD4E4FF0FF3854
:10419000FA4A06F13C0706F128049FEDFACB9FEDA1
:1041A000FB8B9FEDFCAB9FEDFDBB9068A4F134034E
:1041B00001254FF0000B884203F1880903F1940AAE
:1041C0007DD191F81CC092F80CE0F445F8D111466D
:1041D000B3F802C0BCF1000F096971D04FF0000CB8
:1041E000A3F802C0904601F00FF9A4F11401834630
:1041F000486060680AF047F941EC1D0B706840F2B6
:104200007122ABEB00017868504301EB00100AF01B
:104210003AF941EC100B51EC1C0B53EC102B09F04C
:104220006FFF53EC1D2B0AF095F92C3494ED021B13
:1042300053EC112B09F0B0FEC4E90201B9F80200F9
:10424000401C02B2A9F80220D8F8100000287CD047
:1042500004287BD008287AD0D8F8081009680B6A9F
:1042600023F420430B62002872D0042871D0082860
:1042700070D0D8F808000068016A01620A2A3CD1AF
:10428000DAF80400002866D094ED020B53EC182BEA
:1042900051EC100B09F034FF41EC180BB84D51EC08
:1042A000180B343D95ED020B53EC102B09F074FE06
:1042B00041EC100B04F0B4FC53EC1A2B01E0B5E018
:1042C0001FE051EC100B0AF043FA11D895ED020BE8
:1042D00051EC180B53EC102B09F05EFE41EC100B67
:1042E00053EC1B2B51EC100B0AF034F9C5E9020119
:1042F0000020A9F8020084ED029BBDEC0C8BBDE808
:10430000F09FA9465D80154601F07EF87060C7F801
:1043100004B0A9882868FEF78BF908B3C4F80480B4
:10432000286900B3042825D008282AD0A96809687C
:104330000A6A22F420420A6250B304282FD00828C7
:1043400034D0A8680068016A06E036E03DE044E049
:104350004BE050E055E05AE041F400510162CCE7F7
:10436000C4F80490DCE7A96809680A6A22F00A0226
:104370000A62E1E7A96809680A6A22F0A0020A62F3
:10438000DAE7A96809680A6A22F420620A62D3E7B8
:10439000A8680068016A41F002010162ADE7A868FF
:1043A0000068016A41F020010162A6E7A868006880
:1043B000016A41F4007101629FE7D8F808100968AA
:1043C0000B6A23F00A030B624DE7D8F8081009685E
:1043D0000B6A23F0A0030B6245E7D8F808100968C0
:1043E0000B6A23F420630B623DE7D8F808000068ED
:1043F000016A016242E7D8F808000068016A0162B8
:104400003CE7D8F808000068016A016236E7CAF89C
:10441000045094ED020B53EC182B51EC100B09F0E7
:104420006FFE574A343AC2E9020161E75D4A90687B
:1044300088427DD191F81CC092F80CE0F445F8D187
:104440001146B3F804C0BCF1000F096971D04FF0F8
:10445000000CA3F804C0904600F0D6FF48498346FC
:1044600014318860A0680AF00EF841EC1D0BB068AA
:1044700040F27122ABEB0001B868504301EB001031
:104480000AF001F841EC100B51EC1C0B53EC102B13
:1044900009F036FE53EC1D2B0AF05CF8384C54340E
:1044A00094ED041B53EC112B09F076FDC4E90401D3
:1044B000B9F80400401C02B2A9F80420D8F8100092
:1044C000002856D004286FD008286ED0D8F80810DD
:1044D00009680B6A23F420430B6200287ED004286D
:1044E0007DD008287CD0D8F808000068016A0162F5
:1044F0000A2A7FF434AFDAF80800002871D094ED6E
:10450000040B53EC182B51EC100B09F0F9FD41ECA6
:10451000180B1B4D51EC180B343D95ED040B53EC6F
:10452000102B09F039FD41EC100B04F079FB01E090
:10453000D0E03BE053EC1A2B51EC100B0AF008F9D9
:1045400011D895ED040B51EC180B53EC102B09F01E
:1045500023FD41EC100B53EC1B2B51EC100B09F01D
:10456000F9FFC5E904010020A9F8040084ED049BCB
:10457000C3E677E000000000000000008C1500207A
:104580009C18002000000000006AF84000000000B5
:104590000000244000000000000034400000000043
:1045A0000000E03FAC15002064E06BE0AA469D806F
:1045B0001546A94600F028FFB060C7F808B0B9F862
:1045C0000410D9F80000FEF733F8F0B1C4F8088001
:1045D0002869E8B1042822D0082803E05AE05FE007
:1045E00064E069E022D0A96809680A6A22F42042DE
:1045F0000A6210B3042827D008282CD0A8680068C5
:10460000016A41F40051016277E6C4F808A0DFE7CF
:10461000A96809680A6A22F00A020A62E9E7A96839
:1046200009680A6A22F0A0020A62E2E7A96809683A
:104630000A6A22F420620A62DBE7A8680068016A5D
:1046400041F00201016258E6A8680068016A41F081
:104650002001016251E6A8680068016A41F4007116
:1046600001624AE6D8F8081009680B6A23F00A03C9
:104670000B6232E7D8F8081009680B6A23F0A00330
:104680000B622AE7D8F8081009680B6A23F4206344
:104690000B6222E7D8F808000068016A016227E788
:1046A000D8F808000068016A016221E7D8F808001C
:1046B0000068016A01621BE7CAF8085094ED040B18
:1046C00053EC182B51EC100B09F01AFDFE4AC2E90D
:1046D000040148E7FD4A906888427DD191F81CC0EA
:1046E00092F80CE0F44577D11146B3F806C0BCF15E
:1046F000000F096972D04FF0000CA3F806C0904675
:1047000000F082FEF04983464831C860E06809F055
:10471000BAFE41EC1D0BF06840F27122ABEB0001D8
:10472000F868504301EB001009F0ADFE41EC100BAE
:1047300051EC1C0B53EC102B09F0E2FC53EC1D2B3D
:1047400009F008FFE04C883494ED061B53EC112B64
:1047500009F022FCC4E90601B9F80600401C02B2C7
:10476000A9F80620D8F81000B8B304287ED008288D
:104770007DD0D8F8081009680B6A23F420430B6237
:1047800068B3042874D0082873D0D8F808000068EB
:10479000016A01620A2A7FF4E2ADDAF80C00D0B3B4
:1047A00094ED060B53EC182B51EC100B09F0A8FC00
:1047B00041EC180BC44D51EC180B95ED060B53EC66
:1047C000102B09F0E9FB41EC100B04F029FA53EC33
:1047D0001A2B51EC100B03E0B1E078E01CE08EE006
:1047E00009F0B6FF11D895ED060B51EC180B53EC00
:1047F000102B09F0D1FB41EC100B53EC1B2B51ECAF
:10480000100B09F0A7FEC5E906010020A9F8060073
:1048100084ED069B71E584E0AA46DD801546A94635
:1048200000F0F2FDF060C7F80CB0B9F80410D9F848
:104830000000FDF7FDFEE8B1C4F80C802869E0B186
:10484000042821D0082826D0A96809680A6A22F419
:1048500020420A6230B304282BD0082830D0A86840
:104860000068016A41F40051016246E537E03EE02C
:104870004BE050E0C4F80CA0E0E7A96809680A6AB8
:1048800022F00A020A62E5E7A96809680A6A22F0CA
:10489000A0020A62DEE7A96809680A6A22F42062B7
:1048A0000A62D7E7A8680068016A41F00201016264
:1048B00023E5A8680068016A41F0200101621CE557
:1048C000A8680068016A41F40071016215E5D8F832
:1048D000081009680B6A23F00A030B6250E7D8F846
:1048E000081009680B6A23F0A0030B6248E7D8F8A8
:1048F000081009680B6A23F420630B6240E7D8F8BC
:1049000008000068016A016244E7D8F808000068FE
:10491000016A01623EE7D8F808000068016A016296
:1049200038E7CAF80C5094ED060B53EC182B51ECF9
:10493000100B09F0E5FB644AC2E9060165E7644A29
:104940009068884291D1097F92F80CC061458CD162
:104950001146B3F808C0BCF1000F096979D04FF0D7
:10496000000CA3F808C0904600F04EFD564983465F
:1049700048310861206909F086FD41EC1D0B306962
:1049800040F27122ABEB00013869504301EB00109B
:1049900009F079FD41EC100B51EC1C0B53EC102B82
:1049A00009F0AEFB53EC1D2B09F0D4FD464C8834C6
:1049B00094ED081B53EC112B09F0EEFAC4E9080141
:1049C000B9F80800401C02B2A9F80820D8F8100075
:1049D000F0B304287ED008287DD0D8F808100968E4
:1049E0000B6A23F420430B62A0B3042874D0082878
:1049F00073D0D8F808000068016A01620A2AA1D1C0
:104A0000DAF8100038B394ED080B53EC182B51EC86
:104A1000100B09F075FB41EC180B2B4D51EC180BEA
:104A200095ED080B53EC102B09F0B6FA41EC100B86
:104A300004F0F6F853EC1A2B51EC100B09F088FE39
:104A400016D895ED080B51EC180B53EC102B03E026
:104A500073E013E089E09AE009F09EFA41EC100B54
:104A600053EC1B2B51EC100B09F074FDC5E9080148
:104A70000020A9F8080084ED089B3EE4A9461D81AA
:104A8000154600F0C1FC3061C7F810B0A98828684D
:104A9000FDF7CEFD20B3C4F81080286918B30428B0
:104AA00028D008282DD0A96809680A6A22F4204273
:104AB0000A6268B3042832D0082837D0A868006892
:104AC000016A41F4005109E068180020CC1500206B
:104AD000EC15002039E040E04DE052E001620CE4CA
:104AE000C4F81090D9E7A96809680A6A22F00A0296
:104AF0000A62DEE7A96809680A6A22F0A0020A626F
:104B0000D7E7A96809680A6A22F420620A62D0E736
:104B1000A8680068016A41F0020101621FE4A86808
:104B20000068016A41F02001016218E4A868006889
:104B3000016A41F40071016211E4D8F808100968B3
:104B40000B6A23F00A030B624EE7D8F808100968D5
:104B50000B6A23F0A0030B6246E7D8F80810096837
:104B60000B6A23F420630B623EE7D8F80800006864
:104B7000016A016242E7D8F808000068016A016230
:104B80003CE7D8F808000068016A016236E7CAF815
:104B9000105094ED080B53EC182B51EC100B09F04E
:104BA000AFFA024AC2E9080162E700006818002073
:104BB00070B505460C4695F83C0001281CD0012034
:104BC00085F83C00D2B1042A29D0082A39D0E368FC
:104BD0002868D4E9001202F00DFF2868C16921F4A9
:104BE0004061C1612868C169A26841EA0221C161CE
:104BF000002085F83C0070BD022070BDE368286885
:104C0000D4E9001202F070FE2868816921F00C01DD
:104C1000816128688169A26811438161E8E7E368DE
:104C20002868D4E9001202F0B1FE2868816921F4F5
:104C30004061816128688169A26841EA022181613D
:104C4000D6E7E3682868D4E9001202F0BAFE2868C3
:104C5000C16921F00C01C1612868C169A2681143D2
:104C6000C161C5E710B50446002C03D094F83D009F
:104C700010B107E0012010BD002084F83C00204660
:104C800000F018F8022084F83D002068211D02F091
:104C900069FC01203D34E0726070A070E07020710A
:104CA0006071A071E07120726072A07220700020AB
:104CB00010BD000070B586B00446142101A8FBF7B2
:104CC00008FE33490025314E22681039304B02244A
:104CD0003048B24234D11A6842F002021A601A68AF
:104CE00002F0020200920A6842F001020A600A68B9
:104CF00002F0010200920A6842F002020A600968AA
:104D000001F0020100914021019102940395049564
:104D1000059401A9FDF7A4FB0120019002940395DD
:104D20000495059401A91C48FDF79AFB0022052172
:104D30001D20FDF7E3FF1D20FDF7D2FF06B070BD7B
:104D4000164EB242FAD11A6842F008021A601A6886
:104D500002F0080200920A6842F001020A60096843
:104D600001F0010100910521019102940395049540
:104D7000059401A9FDF774FB002205213220FDF7FF
:104D8000BDFF3220FDF7ACFFD8E700000004004073
:104D9000403802400000024000040240000C004085
:104DA00010B50446002913D0042914D0082915D0C1
:104DB0000C2916D0102917D094F84300B9B1042952
:104DC00018D0082919D094F8472001281AD117E0E3
:104DD00094F83E00F2E794F83F00EFE794F84000C3
:104DE000ECE794F84100E9E794F84200E6E794F82C
:104DF0004420EAE794F84520E7E794F84620E4E702
:104E0000012A01D0012010BD0220C1B1042919D00E
:104E100008291AD00C291BD010291CD084F8430073
:104E2000E1B104291DD008291ED084F84700F1B152
:104E3000042922D0082926D00C292FD129E084F872
:104E40003E00EDE784F83F00EAE784F84000E7E73A
:104E500084F84100E4E784F84200E1E784F8440084
:104E6000E5E784F84500E2E784F84600DFE72068DC
:104E7000C26842F00202C26010E02068C26842F0DC
:104E80000402C2600AE02068C26842F00802C26000
:104E900004E02068C26842F01002C260206801226B
:104EA00002F0C6FB15492068884214D0B0F1804F4B
:104EB00011D0134988420ED0124988420BD01249B2
:104EC000884208D01149884205D01149884202D051
:104ED000104988420CD181680F4A114006290BD035
:104EE000B1F5803F08D0016841F00101016003E0A5
:104EF000016841F001010160002010BD0000014087
:104F00000004004000080040000C00400004014084
:104F100000400140001800400700010070B5044641
:104F2000206801694FF00005C943890716D4C1689C
:104F3000C943890712D4E91E016101202077206846
:104F40008069800703D02046FFF718F905E0204666
:104F500000F002F9204600F0C0F9257720680169C9
:104F6000C943490718D4C168C943490714D46FF02D
:104F700004010161022020772068806910F4407FDD
:104F800003D02046FFF7FAF805E0204600F0E4F8E9
:104F9000204600F0A2F9257720680169C943090776
:104FA00017D4C168C943090713D46FF00801016120
:104FB000042020772068C069800703D02046FFF7CF
:104FC000DDF805E0204600F0C7F8204600F085F93E
:104FD000257720680169C943C90618D4C168C94347
:104FE000C90614D46FF010010161082020772068F1
:104FF000C06910F4407F03D02046FFF7BFF805E0FA
:10500000204600F0A9F8204600F067F925772068CF
:105010000169C943C90708D1C168C943C90704D197
:10502000891E0161204600F0DFF920680169C9434B
:10503000090609D4C168C943090605D46FF0800187
:1050400001612046FEF793FE20680169C943C90546
:1050500009D4C168C943090605D46FF480710161A0
:105060002046FEF783FE20680169C943490609D43A
:10507000C168C943490605D46FF04001016120466B
:1050800000F0D8F920680169C94389060BD4C168CA
:10509000C943890607D46FF0200101612046BDE8AD
:1050A0007040FEF765BE70BD70B586B00446142131
:1050B00001A8FBF70EFC234A02262168002422489F
:1050C0000125914214D1016841F01001016000688E
:1050D00000F0100000904FF4D44001900296039429
:1050E0000494059501A91948FDF7BAF906B070BDF9
:1050F000B1F1804FFAD1016841F00101016001680E
:1051000001F001010091016841F0020101600068B5
:1051100000F0020000902020019002960394049475
:10512000059501A90A48FDF79BF940F60840019052
:10513000029603940494059501A90648FDF790F999
:10514000D4E7000000000140303802400010024067
:105150000000024000040240704770B504460D464E
:1051600094F83C0001280BD0012084F83C000C2A64
:105170004AD007DC5AB1042A1DD0082A1AD12FE0E0
:10518000022070BD102A54D0142A7AD165E020681C
:10519000294602F06DFA2068816941F008018161B9
:1051A0002068816921F004018161206881692A6990
:1051B0001143816165E02068294602F08FFA20687A
:1051C000816941F4006181612068816921F4806115
:1051D0008161206881692A6941EA0221816150E088
:1051E0002068294602F0B6FA2068C16941F008013A
:1051F000C1612068C16921F00401C1612068C169F1
:105200002A691143C1613CE02068294602F0DCFABA
:105210002068C16941F40061C1612068C16921F45D
:105220008061C1612068C1692A6941EA0221C161C6
:1052300027E02068294602F0F3FA2068416D41F02A
:10524000080141652068416D21F004014165206835
:10525000416D2A691143416513E02068294602F037
:1052600007FB2068416D41F4006141652068416D94
:1052700021F4806141652068416D2A6941EA02217B
:105280004165002084F83C0070BD10B50446002C38
:1052900003D094F83D0010B107E0012010BD0020BC
:1052A00084F83C00204600F017F8022084F83D0006
:1052B0002068211D02F056F901203D34E072607033
:1052C000A070E07020716071A071E0712072607256
:1052D000A0722070002010BD7047704710B50446C2
:1052E00000290DD004290ED008290FD00C2910D088
:1052F000102911D094F84300012810D0012010BDCE
:1053000094F83E00F8E794F83F00F5E794F8400081
:10531000F2E794F84100EFE794F84200ECE702204E
:10532000E1B304293ED008293FD00C2940D01029F0
:1053300041D084F843000122206802F079F9224923
:105340002068224A884201D0904203D1436C43F442
:10535000004343642068884213D0B0F1804F10D0DE
:105360001B4988420DD01B4988420AD01A498842FD
:1053700007D0904205D01949884202D01849884286
:105380001CD18168174A114006291BD0B1F5803F16
:1053900018D0016841F00101016013E0FFE784F8D3
:1053A0003E00C8E784F83F00C5E784F84000C2E744
:1053B00084F84100BFE784F84200BCE7016841F08F
:1053C00001010160002010BD000001400004014007
:1053D0000004004000080040000C00400040014074
:1053E000001800400700010010B50446204601F0F7
:1053F0002DFE04492068884203D1BDE81040FDF726
:1054000005BC10BD0014004002460020002908D051
:10541000042909D008290AD00C2901D11068006C90
:1054200070471068406B70471068806B7047106859
:10543000C06B704770477047704700002DE9F0411E
:1054400004462268D0691168936840F60F0500EAA7
:105450000506002E0AD1850608D58D0606D5616E93
:1054600000297DD02046BDE8F04108470025002EE8
:1054700077D07E4F03F001060F40374371D0C70746
:1054800009D0CF0507D501271762D4F8802042F054
:105490000102C4F8802082070AD5DA0708D02768FD
:1054A00002223A62D4F8802042F00402C4F880203C
:1054B00042070AD5DA0708D0236804221A62D4F812
:1054C000802042F00202C4F8802002070CD501F0CF
:1054D0002002324308D0236808221A62D4F88020C0
:1054E00042F00802C4F8802002050BD54A0109D514
:1054F00023684FF400621A62D4F8802042F0200240
:10550000C4F88020D4F88020002A2ED0800605D54B
:10551000880603D5616E09B120468847D4F880001B
:1055200021688968490602D410F0280F23D020464C
:1055300002F0B8FB20688168490618D5816821F01F
:1055400040018160206F68B149490165206FFCF717
:10555000D2FD002809D0206F016DBDE8F041084759
:1055600003E00EE02046FFF767FFBDE8F08120462C
:10557000FFF762FFF9E72046FFF75EFFC4F88050AF
:10558000F3E7236E012B5DD1C3065BD5CB0659D55E
:1055900010201062206881684FF02003490631D541
:1055A000226F1168496889B20029DED0B4F85860CA
:1055B0008E42DAD9A4F85A10D169B1F5807F17D09C
:1055C000016821F4807101602068816821F0010187
:1055D00081602068816821F040018160E367256671
:1055E0002068016821F010010160206FFCF73CFD8C
:1055F000B4F85800B4F85A10401A81B22046FFF7A8
:105600001AFFB2E734F8581F6288891A89B2628893
:10561000583C002AA9D00029A7D0026822F4907231
:1056200002602068826822F001028260E3672566DA
:1056300065662068026822F0100202602046FFF7CB
:10564000FAFE92E7020608D50A0606D5A16E0029E1
:105650008BD02046BDE8F0410847400685D5480676
:1056600083D52046BDE8F04102F034BB20010004A0
:10567000CD7B000810B50446002C02D0A06F10B1FD
:1056800007E0012010BD002084F87400204600F0DF
:1056900027F82420A0672068016821F0010101603B
:1056A000204602F02DFB012818D0606A10B1204678
:1056B00002F008FA2068416821F4904141602068B6
:1056C000816821F02A0181602068016841F00101B0
:1056D00001602046BDE8104002F058BA012010BD1C
:1056E0002DE9F04F87B00746142102A8FBF7F1F827
:1056F000A74A0025A54B02263968103AA44803247E
:10570000DFF890C299424FF008091DD1016841F4B9
:1057100000210160006800F400200190106840F052
:1057200004001060106800F004000190A0020290D4
:10573000039604950594CDF8189002A96046FCF7ED
:105740008FFE07B0BDE8F08F934BDFF8508299428F
:105750002ED1016841F480110160006800F48010CE
:105760000190106840F004001060106800F0040020
:105770000190106840F008001060106800F0080008
:10578000019098140290039604950594CDF8189012
:1057900002A96046FCF764FE04200290039604957B
:1057A0000594CDF8189002A94046FCF759FEC8E7C9
:1057B000DFF8ECA17B4B51451CD1016841F08041E1
:1057C0000160006800F080400190106840F0100017
:1057D0001060106800F0100001904FF4C07002904B
:1057E000039604950594CDF8189002A91846FCF785
:1057F00037FEA6E7DFF8B0A151451AD1016841F0A4
:1058000000410160006800F000400190106840F025
:1058100010001060106800F01000019002940396D0
:1058200004950594CDF8189002A91846FCF718FEC7
:1058300087E7574B4FF0070ADFF870B11B1D59453A
:1058400024D1186840F010001860186800F01000AB
:105850000190106840F001001060106800F0010035
:1058600001904FF4C0600290039604950594CDF822
:1058700018A002A94E48FCF7F3FD002206212520BE
:10588000FDF73CFA2520FDF72BFA5AE7DFF824B1A3
:1058900059453BD1016841F400310160006800F4D2
:1058A00000300190106840F008001060106800F0AF
:1058B0000800019060200290039604950594CDF8AD
:1058C00018A002A94046FCF7CBFD3C4C3A482060AA
:1058D0004FF000606060A560E56040142061656184
:1058E000A561E561C001206265622046FCF700FD0C
:1058F00008B1FCF767FB3C67A7630022052126205F
:10590000FDF7FCF92620FDF7EBF91AE72C4FB94219
:105910001CD1016841F480210160006800F48020FE
:105920000190106840F008001060106800F0080056
:1059300001904FF440700290039604950594CDF8C1
:1059400018A002A94046FCF78BFDFAE61D488142EB
:105950009BD1186840F020001860186800F0200003
:105960000190106840F004001060106800F004001E
:105970000190C0200290039604950594CDF81890EC
:1059800002A96046FCF76CFDDBE60000004C00401D
:10599000403802400008024000500040000C024025
:1059A0000078004000100240007C004000100140E0
:1059B0000000024000440040886002402C0C00209F
:1059C000004800400014014030B4C36F202B02D0C7
:1059D000022030BC7047A1B19AB190F87430012B0D
:1059E00011D0012380F874300023036603685C68DB
:1059F000240203D51C6844F080641C6030BC02F0B3
:105A0000DBBA0120E5E70220E3E700000249884213
:105A100001D106F0C5B87047A00A00207047704752
:105A2000FEE700000148FCF707BF0000C8050020A2
:105A30000148FCF735BF0000C8050020806B00223C
:105A4000816B002900D00A65C16B01B10A6500F0C5
:105A500047BE30B500224FF02805CB0706D04222C2
:105A600090F8414035EA040300D0F2228B0708D5B4
:105A700042F0440290F8414035EA040301D042F07C
:105A8000B0020B0401D542F0B802102901D142F056
:105A90009002202901D142F02002402901D142F098
:105AA0004002006801689143016030BD10B50022DA
:105AB000154C436BA34202D0144CA3420FD10B04EC
:105AC00000D5B822102901D142F09002202901D13D
:105AD00042F06002402911D142F040020EE00B0476
