:020000040800F2
:1000000080570020A503000805790008CD6200088C
:10001000B97800080D1C00081594000800000000C5
:10002000000000000000000000000000E1020008E5
:100030008D1D0008000000003D03000849830008F2
:10004000BF030008BF030008BF030008BF03000888
:10005000BF030008BF030008BF030008BF03000878
:10006000BF030008BF030008BF030008BF03000868
:10007000BF030008BF030008BF030008BF03000858
:10008000BF030008BF030008BF030008BF03000848
:10009000BF030008BF030008BF030008BF03000838
:1000A000BF03000801850008BF030008BF03000864
:1000B000BF03000811850008BF030008BF03000844
:1000C000BF030008BF030008BF030008BF03000808
:1000D000BF030008299300083D93000851930008CE
:1000E000A91D0008BF030008BF030008BF030008E4
:1000F000BF030008BF030008BF030008BF030008D8
:10010000BF030008BF03000821850008BF030008E3
:10011000598D00086D8D000831850008458500085F
:10012000BF030008BF030008BF030008BF030008A7
:10013000BF030008BF030008BF030008BF03000897
:10014000BF030008BF030008BF030008BF03000887
:10015000BF030008BF030008BF0300086593000841
:10016000BF030008BF030008BF030008BF03000867
:10017000BF030008BF030008BF030008BF03000857
:10018000BF030008BF030008BF030008BF03000847
:10019000BF030008BF030008BF030008BF03000837
:1001A000BF030008BF030008BF030008BF03000827
:1001B000BF030008BF030008BF030008BF03000817
:1001C000BF030008BF03000800F002F800F078F851
:1001D0000AA090E8000C82448344AAF10107DA45A2
:1001E00001D100F06DF8AFF2090EBAE80F0013F07C
:1001F000010F18BFFB1A43F00103184728F0000055
:1002000048F000000A444FF0000C10F8013B13F0D6
:10021000070408BF10F8014B1D1108BF10F8015B5F
:10022000641E05D010F8016B641E01F8016BF9D152
:1002300013F0080F1EBF10F8014BAD1C0C1B09D1A9
:100240006D1E58BF01F801CBFAD505E014F8016B1B
:1002500001F8016B6D1EF9D59142D6D370470000AD
:100260000023002400250026103A28BF78C1FBD8BF
:10027000520728BF30C148BF0B60704766290EF097
:100280003884642900F08281752900F07F81782903
:1002900000F0B881632900F0E385732900F0E88558
:1002A000002070471FB50EF01AFC00F0F7FD0400A7
:1002B000002000210DF018FEE0601FBD10B510BD3C
:1002C00000F008FF1146FFF7EDFF0AF039FD00F0DE
:1002D00026FF03B4FFF7F2FF03BC09F00AFA00009F
:1002E0002D4B19680868B0E8F04F80F30988BFF318
:1002F0006F8F4FF0000080F31188704700000000FE
:1003000008480068006880F308884FF0000080F318
:10031000148862B661B6BFF34F8FBFF36F8F00DFF3
:1003200000BF00BF08ED00E0DFF80C00016841F4F9
:1003300070010160704700BF88ED00E0EFF30980B5
:10034000BFF36F8F144B1A681EF0100F08BF20ED1B
:10035000108A20E9F04F106009B44FF0500072B6D7
:1003600080F31188BFF34F8FBFF36F8F62B60CF02D
:10037000BBFF4FF0000080F3118809BC19680868C2
:10038000B0E8F04F1EF0100F08BFB0EC108A80F3F9
:100390000988BFF36F8F7047D0040020EFF305800A
:1003A000704700000948804709480047FEE7FEE71C
:1003B000FEE7FEE7FEE7FEE7FEE7FEE7FEE7FEE715
:1003C00004480549054A064B70470000658400084B
:1003D000C901000880510020805700208053002070
:1003E00080530020704753EA020C00F069802DE929
:1003F000F04B4FF00006002B1FBFB3FA83F503FA52
:1004000005F424FA05F65E4012BF1643B2FA82F5EF
:1004100002FA05F4C5F120051EBF22FA05FC44EAE4
:100420000C04203556EA044C4FEA144418BF641CEF
:100430004FF000084FF00009904271EB030C39D3E4
:10044000002919BFB1FA81F701FA07F6B0FA80F76F
:1004500000FA07F6C7F120071EBF20FA07FC46EA9C
:100460000C062037B6FBF4FCA7EB0507103F07F09E
:100470001F0BCBF120060CFA0BFB2CFA06F644BF3F
:10048000B3460026202FA4BF5E464FF0000B5BEA68
:10049000060C08BF4FF0010B19EB0B09ABFB027CFC
:1004A00048EB0608C01B06FB02CC0BFB03CC71EB30
:1004B0000C01C1E70B46024641464846BDE8F08BB9
:1004C00013B54FF000004FF00001AFF30080BDE81E
:1004D0001C4070470FB4044910B503AA029800F0FD
:1004E000CBFC10BC5DF814FBE001002070B50446A5
:1004F00085690068C10601D5302600E02026C007C6
:1005000007D070BDD4E9012130469047206A401CD5
:1005100020626D1EF6D570BD70B504468569007801
:10052000C00707D170BDD4E9012120209047206A7F
:10053000401C20626D1EF6D570BD70B50C46054698
:10054000012A05D02878800600D5EA69002302E058
:10055000012305E05B1C934202D2E05C0028F9D144
:10056000A869E618C01AA861286A184428622846B3
:10057000FFF7BCFF04E0D5E9012114F8010B904717
:10058000B442F8D32846FFF7C7FF70BD2DE9F0410C
:100590000646002410687529314616A510D0AFF321
:1005A0000080002802DA404213A507E031688A077C
:1005B00001D512A502E0490704D511A5012401E0E7
:1005C000AFF3008000210A2206F1240709E0B0FB06
:1005D000F2FCB0FBF2F302FB1C00303078541846FA
:1005E000491C0028F3D123462A463046BDE8F04195
:1005F00000F0C4B9000000002D0000002B00000036
:100600002000000070B504460D4621461068AFF387
:1006100000802188090502D50F4A7A4402E00E4A7B
:100620007A440E32002104F1240305E000F00F06A5
:100630000009965D5E54491C0028F7D120780023FC
:10064000000704D5702D02D009B1022311322046D3
:10065000BDE8704000F092B916E600002DE9F05FA9
:10066000894604464FF0000ADFF874B1FB44C0F835
:1006700020A02046E1688847002874D0252806D0AD
:10068000D4E901219047206A401C2062F1E700264E
:100690005F462046E16888472028054607DB312D64
:1006A00005D2781910F8200C08B10643F1E7B0071D
:1006B00001D526F00406C4F81CA00027C4F818A031
:1006C0002A2D09D0284609F00DF838B304EB870825
:1006D000303DC8F8185019E059F8041B204604EBC7
:1006E00087029161E1688847012F054618D1E069CA
:1006F000002820DA26F020061DE0D8F8180000EBCC
:10070000800005EB40003038C8F818002046E1684A
:100710008847054608F0E6FF0028EED1012F0AD0F1
:100720002E2D08D12046E16888477F1C0546022F00
:1007300046F02006C4DBA069002803DA404246F0F8
:100740000106A061F00701D026F010066C2D0BD039
:10075000682D09D04C2D39D06A2D35D0742D35D067
:100760007A2D33D016E038E0E1682F4620468847DE
:10077000B842054609D16C2F26D04FF48060E1685D
:10078000064320468847054604E06C2F1AD04FF4F4
:10079000807006430DB3A5F14100192802D8203519
:1007A00046F400664A462946204626604E46FFF734
:1007B00065FD80B101280BD0F61D26F0070000F181
:1007C000080956E74020E4E78020D8E70020D6E774
:1007D00006F104094DE7284652E7206ABDE8F09F7C
:1007E000ECE50000032A40F2308010F0030C00F02A
:1007F000158011F8013BBCF1020F624498BF11F85B
:1008000001CB00F8013B38BF11F8013BA2F1040213
:1008100098BF00F801CB38BF00F8013B11F003038B
:1008200000F02580083AC0F0088051F8043B083AEF
:1008300051F804CBA0E80810F5E7121D5CBF51F891
:10084000043B40F8043BAFF30080D20724BF11F80B
:10085000013B11F801CB48BF11F8012B24BF00F870
:10086000013B00F801CB48BF00F8012B704710B5E1
:10087000203AC0F00B80B1E81850203AA0E8185098
:10088000B1E81850A0E81850BFF4F5AF5FEA027C59
:1008900024BFB1E81850A0E8185044BF18C918C0C8
:1008A000BDE810405FEA827C24BF51F8043B40F869
:1008B000043B08BF7047D20728BF31F8023B48BF4E
:1008C00011F8012B28BF20F8023B48BF00F8012B8C
:1008D000704702F0FF0343EA032242EA024200F0BB
:1008E00002B84FF000020429C0F0128010F0030C8F
:1008F00000F01B80CCF1040CBCF1020F18BF00F813
:10090000012BA8BF20F8022BA1EB0C0100F00DB8C1
:100910005FEAC17C24BF00F8012B00F8012B48BF1F
:1009200000F8012B70474FF0000200B513469446C3
:100930009646203922BFA0E80C50A0E80C50B1F137
:100940002001BFF4F7AF090728BFA0E80C5048BF4B
:100950000CC05DF804EB890028BF40F8042B08BFE9
:10096000704748BF20F8022B11F0804F18BF00F8E5
:10097000012B704770477047704770472DE9F0476B
:100980000D4699469246044600F1240801688806FF
:1009900004D5E06921F01001216000E00120A842A7
:1009A00001DD471B00E00027A1697A1902EB09006D
:1009B000081AA0612078C00602D42046FFF796FDF1
:1009C000002608E0D4E901211AF806009047206AC1
:1009D000401C761C20624E45F4DB2078C0060AD508
:1009E0002046FFF783FD06E0D4E90121302090473F
:1009F000206A401C2062381EA7F10107F4DC07E0E2
:100A0000D4E9012118F805009047206A401C2062B3
:100A1000281EA5F10105F3DC2046FFF77DFD2078B7
:100A2000000602D50220BDE8F0870120FBE77047F1
:100A30002DE9FF4F0C461E464FF0FF378BB0D2E931
:100A40000001DDF860800A908A46C1F30A5505B9B5
:100A50003D46002108464FF00000BAF1000F00F4B7
:100A6000400005DA00EB80004FF4400101EA50003D
:100A70004FEA9059B9F1010F00DDB9460A9850EAE2
:100A80004A000ED044F61050A5F2FF3545432F140E
:100A9000B8F1000F1ED07542291E1EDDC9F10002FB
:100AA0001CE0B8F1010F4FF0000001D0302103E04D
:100AB000F24305E02154401CB042FBDB30460022EB
:100AC000002121540B99C1F80880C1E900200FB022
:100AD000BDE8F08FBD1B6D1CDEE74A4600DA6942B7
:100AE00006A800F07DFA06AB93E8070003AB83E8A5
:100AF000070050460A9900F04FFB8DE80700A0F56B
:100B000000501F3800900398002D0ADD42F21F01AB
:100B10004A460844002303A90390684600F0B8FD44
:100B200009E0A0F500504A461F38002303A90390AE
:100B3000684600F0C2FD8DE807000004000C03D0F9
:100B40004FF0FF30410800E01046B8F1000F03D02D
:100B50000022009215461EE0751E05D400F0A2F991
:100B6000303262556D1EF9D5B3460122084302D0DA
:100B700000227F1C04E02078302801D100227F1E53
:100B8000002A099784D01DE0112D07DA00F08AF9B8
:100B9000303262556D1C50EA0102F5D1084302D093
:100BA0000098C8B10EE00021681E05E0235C625C7D
:100BB00063542254401E491C8142F7DBAB46A81BFC
:100BC000401E0990002004F80B000B98099AC0F809
:100BD0000880C0E9002B7AE711264FF0000857E79C
:100BE0002DE9F04F88460446D21D22F0070191B04E
:100BF000D1E90001CDE90A0108F035FD02460B9864
:100C0000C00F01D02D2007E02068810701D52B20DF
:100C100002E0202101EAC000032A099001D0072A3E
:100C200005DB03464146204600F09AF90BE12078A7
:100C3000800601D5E06900E00620B8F1650F814625
:100C400006D0B8F1660F18D0B8F1670F70D131E057
:100C50000020B9F1110F009001DB112301E009F12F
:100C600001030AAA01A90CA8FFF7E2FEDDE90C7056
:100C7000002609F10105834647E001204B4600901C
:100C80004FF000470AAA01A90CA8FFF7D1FEDDE941
:100C90000DB00C995D46002610B909F101000D1840
:100CA000B9EB050003D4C0F1FF3609F10105A5EB4E
:100CB00009002BE0B9F1010F01DA4FF00109002022
:100CC000B9F1110F0090484601DD112300E0034601
:100CD0000AAA01A90CA8FFF7ABFEDDE90C704D468E
:100CE00000268346207800070AD4AB4500DA5D462B
:100CF00001A8012D04DD411911F8011C302907D08C
:100D00004F4502DA17F1040F04DA012082460FE0A2
:100D10006D1EEEE7002F02DCED1B3E4403E0781C65
:100D2000A84200DD7D1CB81B00F1010A4FF000470E
:100D30002078000703D4AA4501DB4FF0FF3A0021D9
:100D4000B7F1004F0DF143088DF8431024D0022075
:100D50002B23002F01DA7F422D230A21021EA0F14E
:100D6000010000DC5FB197FBF1FC97FBF1F201FBA6
:100D70001C7C17460CF1300C08F801CDEEE7A8F109
:100D8000010003702188090501D5452100E0652196
:100D9000A0F1010800F8011C09980FA9A1EB0807B0
:100DA000FF1D00B10120411901EBEA70A16938442F
:100DB000081A401EA0612078C00602D42046FFF722
:100DC00095FB099828B1D4E901219047206A401C7D
:100DD00020622078C00622D52046FFF787FB1EE060
:100DE000002E04DBB34502DD01A8805D00E0302069
:100DF000D4E901219047206A401C2062761CAAF1A8
:100E000001005FEA000A0AD100F048F8C0680168F2
:100E1000405CD4E901219047206A401C2062281ED2
:100E2000A5F10105DCDC07E0D4E9012118F8010B8C
:100E30009047206A401C2062381EA7F10107F3DCAE
:100E40002046FFF769FB032011B041E610B5436966
:100E500013B1AFF3008001E0FFF76FFB012010BD7D
:100E6000127800F124010A7000224A700122EDE795
:100E700011684FF0FF32E9E7074B70B50D467B4430
:100E800000F05BF80446284600F01CF910B14FF062
:100E9000FF3070BD204670BD1799000000487047B4
:100EA0004051002030B5B0F10A024FEA900E71F1C6
:100EB00000034EEA817EB0EB0E0061EB91014FEA38
:100EC000101E4EEA017E10EB0E0041EB11114FEAAD
:100ED000102E4EEA016E10EB0E0041EB11214FEA8D
:100EE000104E4EEA014E10EB0E0041EB114140183E
:100EF00041F100014FEAD00040EA41704FEAD101D0
:100F000010EB80054FEA810444EA907444EB01043D
:100F10006D1944EB0404521BA3414FF0000348BF7A
:100F20000A3200D530BD401C41F1000130BD000047
:100F300001694A1C02610878704700B58FB0CDE99D
:100F400001310021059105497944CDE9031011468D
:100F50006846FFF783FB0FB000BD0000E5FFFFFF11
:100F60002DE9F0411F46044603260168072A01F4D3
:100F7000006004DB08B116A505E016A503E008B182
:100F800015A500E015A521F010002060A069C01E85
:100F9000A0610FB1401EA0612046FFF7A7FA4FB134
:100FA000D4E9012138469047206A401C2062C01CC9
:100FB000206206E0206AFAE7D4E9012115F8010B66
:100FC0009047761EF8D22046FFF7A6FABDE8F081DA
:100FD0004E414E006E616E00494E4600696E6600DD
:100FE0002DE9F047814616468AB0354878440DC849
:100FF0008DE80D0032487844801C03AC0DC884E8AD
:101000000D0041F69B300844372190FBF1F290FB34
:10101000F1F5A5F1800501FB12041B3C02D56442E9
:10102000012000E00020DFF898A080460027FA4465
:10103000AAF1BE0A0EE0E0070AD03246684607EB86
:10104000470101230AEB810100F037FB8DE807001F
:1010500064107F1C002CEED1194F7F44AE3F19E085
:10106000E80715D007EB04100DF1180A90E80E0000
:101070008AE80E00C068F04201D198190890324603
:10108000012306A903A800F018FB03AB83E80700BF
:101090006D10641C002DE3D14FF001033246694608
:1010A000B8F1000F03A802D000F0F2FA01E000F05E
:1010B00004FBC9E90001C9F808200AB0BDE8F087BF
:1010C000FCDC0000007B00F08000704700487047A7
:1010D000205100207546FFF7F9FFAE46050069462E
:1010E000534620F00700854618B020B5FFF768F991
:1010F000BDE820404FF000064FF000074FF0000819
:101100004FF0000B21F00701AC46ACE8C009ACE899
:10111000C009ACE8C009ACE8C0098D46704710B5FD
:101120000446AFF300802046BDE81040FFF7D1B879
:101130004FF0013C50F8042B51F8043B9A4215D172
:10114000A2EB0C03934313EACC130BD150F8042BFE
:1011500051F8043B9A4209D1A2EB0C03934313EAE2
:10116000CC13E7D04FF00000704700BFD01A01BA8F
:10117000B1FA81F101F0180122FA01F0CB40C1F17E
:101180002001DBB2C0B2C01A2CFA01F3D11A91438C
:1011900011EAC311E6D170475FEA400C08BF91F035
:1011A000000F4FEA8C234FEAC12243EA51514FEA24
:1011B0001C5018BF00F5F0404FEA300018BF41F056
:1011C00000415FEA6C5C00F02980BCF1FF3F08BF82
:1011D00040F080407047130C06BF12044FF0100C13
:1011E0004FF0000C130E04BF12020CF1080C130F89
:1011F00004BF12010CF1040C930F04BF92000CF118
:10120000020CD30F04BF52000CF1010C11464FF039
:101210000002A0F11F00A0EB0C00704711F0004F7E
:1012200008BF704731F000413FF4D5AF0B0C06BF4B
:1012300009044FF0100C4FF0000C0B0E04BF090214
:101240000CF1080C0B0F04BF09010CF1040C8B0FFF
:1012500004BF89000CF1020CCB0F04BF49000CF154
:10126000010CCCF12003A0EB0C0022FA03F302FAEC
:101270000CF241EA030100F10100704720F07F4CBD
:1012800080EA030023F07F47ACEB070303F57C53B0
:1012900000F0004003F1FF032DE980494FEA154BB0
:1012A00009B44FEA144325EA0B4E24EA03480FF22F
:1012B000042606EB132749083E785FEA320203FB57
:1012C0000667C7F5000707FB06F64FEA54374FEAF3
:1012D000D64606F1020607FB066CCCF1005C4FEA2D
:1012E0001C472CEA074C07FB06F40CFB06F504EB45
:1012F00015464FEA961634BF00204FF000404FEAE3
:10130000D13706FB07FC4FEA1C4C0CFB0BF7D21B3A
:1013100003FB0CF761EB07010CFB0EF7B0EB07408A
:1013200072EB17420CFB08F734BFA2EB0742B2EB9B
:10133000074261EB17414FEA0C444FEA910706FB65
:1013400007FC4FEA1C4C0CFB0BF7B0EBC74072EBF1
:10135000573203FB0CF734BFA2EBC742B2EBC742D4
:1013600061EB57310CFB0EF7B0EBC70072EB577215
:101370000CFB08F734BFA2EBC702B2EBC70261EB6C
:101380005771039F4FEA816141EA921104EBCC044B
:101390004FEAD1374FEA826206FB07FC42EA90121D
:1013A0004FEA80604FEA1C4C0CFB0BF7D21B03FB8F
:1013B0000CF761EB07010CFB0EF7B0EB074072EB8B
:1013C00017420CFB08F734BFA2EB0742B2EB07420F
:1013D00061EB17414FEA8C554FEA910704EB9C24CF
:1013E00006FB07FC4FEA1C4C0CFB0BF7B0EBC740AD
:1013F00072EB573203FB0CF734BFA2EBC742B2EBE0
:10140000C74261EB57310CFB0EF7B0EBC70072EB34
:1014100057720CFB08F734BFA2EBC702B2EBC7024E
:1014200061EB577115EB4C254FEA816141EA92114E
:101430004FEA82624FEAD13742EA901206FB07FC7C
:1014400044F100044FEA80604FEA1C4C0CFB0BF7A0
:10145000D21B03FB0CF761EB07010CFB0EF7B0EBA3
:10146000074072EB17420CFB08F734BFA2EB0742B0
:10147000B2EB074261EB174115EB1C154FEA8131C6
:1014800041EA92414FEA823242EA90424FEA80308A
:101490004FEA0C7644F1000448EA03434EEA0B4855
:1014A0004FF0000EB2EB080C71EB030724BF62464D
:1014B00039464EEB0E0E4FF0000B001852414941D9
:1014C0004BEB0B0BB2EB080C71EB03077BF1000B42
:1014D00024BF624639464EEB0E0E4FF0000B00184B
:1014E000524149414BEB0B0BB2EB080C71EB03077C
:1014F0007BF1000B24BF624639464EEB0E0E51EADB
:10150000020718BF46F0010616EB0E7655F10002F1
:1015100054F1000103D5BDE88901BDE80088BDE8AC
:101520008901BDE80048B619524141EB0101A3F120
:101530000103704780807F7E7D7C7B7A7978777627
:1015400076757473727171706F6E6E6D6C6C6B6AA0
:101550006A6968686766666564646363626161603E
:10156000605F5F5E5E5D5D5C5C5B5B5A5A595958BB
:101570005857575656555555545453535252525125
:10158000515050504F4F4F4E4E4D4D4D4C4C4C4B7B
:101590004B4B4A4A4A4949494848484747474746C2
:1015A00046464545454444444443434343424242FE
:1015B00042414141002B9C4630D477002BD01CB5D2
:1015C0004FEA370703B44FF010004FF01001BAF1A3
:1015D000000F06D0BCF1000FDCBF40F0080040F067
:1015E00008014FF000000FBCBDE810400BF1010BEB
:1015F000BBF1010F08BF5FEA170722BF12F101021A
:1016000011F101014FF0004143F1000300F00040EF
:1016100043EA00007047F9D35708D0E746EA064688
:1016200013F1400F4FEA16461FDD13F1200FDFBF05
:1016300016430A46002120335B42BED0C3F1200787
:1016400046EA064602FA07F74FEA164646EA070652
:10165000C3F1200722FA03F201FA07F721FA03F196
:101660004FF0000342EA0702A7E746EA020646EA0D
:1016700006464FEA164646EA0106BCBF46EA06465B
:10168000360C4FF000034FF000024FF0000194E7DA
:101690002DE9804C9A46934670B491E8380007C80B
:1016A00031EA400C48BF34EA430C03D5FFF7E6FDAE
:1016B000FFF780FFF0BCBDE8008C2DE9804C9A4616
:1016C000934670B491E8380007C810F0804F08BF07
:1016D00013F0804F03D100F005F8FFF76BFFF0BC6B
:1016E000BDE8008C20F07F4780EA030023F07F4CA8
:1016F00007EB0C03A3F57C5300F00040A3F1FE03BD
:1017000092F0000F00F0B38095F0000F00F07780AA
:101710002DE901494FEA11404FEA144621EA0048F9
:1017200000FB06FC24EA064708FB06F607FB08F860
:1017300000FB07F718EB06484CEB164C4FEA124B30
:1017400018EB07484FEA15464CEB174022EA0B4EC0
:101750000BFB06FC25EA06470EFB06F607FB0EFE12
:101760000BFB07F71EEB064E4CEB164C4FF000063A
:101770001EEB074E4CEB174B18EB0B0840F100002B
:1017800018EB0E0B58EB000840F100008F1A4FF0D9
:1017900000013CBFC943661B14BFB5EB040C00211C
:1017A0003CBFC943F61B4FEA17444EEA8E0E27EAA8
:1017B00004454FEA1C4704FB07622CEA074C05FB73
:1017C00007F70CFB05F604FB0CFC16EB074642EB97
:1017D000174216EB0C4642EB1C421BEB060658EB7D
:1017E0000202414146EA9E0601D5BDE80189B619CB
:1017F000524141EB0101A3F10103BDE801894FEA28
:1018000014454FEA114724EA054621EA074C05FB37
:1018100007F406FB07F70CFB06F105FB0CFC11EBCC
:10182000074144EB17444FEA124711EB0C4144EBDC
:101830001C4422EA074C05FB07F206FB07F70CFBEA
:1018400006F605FB0CFC16EB074642EB174216EBBF
:101850000C4642EB1C456A1854F1000148BF704722
:10186000B619524141EB0101A3F10103704795F014
:10187000000F37D04FEA11424FEA144721EA0246DF
:1018800024EA074C02FB07F106FB07F70CFB06F402
:1018900002FB0CFC14EB074441EB17414FEA1547E0
:1018A00014EB0C4441EB1C4125EA074C02FB07F505
:1018B00006FB07F70CFB06F602FB0CFC16EB0746D3
:1018C00045EB174516EB0C4645EB1C42121951F13E
:1018D000000148BF7047B619524141EB0101A3F125
:1018E000010370474FEA14454FEA114724EA0546C1
:1018F00021EA074C05FB07F106FB07F70CFB06F294
:101900004FF0000605FB0CFC12EB074241EB1741C0
:1019100012EB0C4251EB1C4148BF7047921841EB4F
:101920000101A3F10103704710B507480068006882
:10193000006840F020000449096809680860002038
:1019400006F040FB10BD00002800002070B50446E2
:101950000D46FF2C01DC002C03DA022000F01EFCF7
:1019600070BD00F015FA47210D4802790079401C3E
:101970000B4B1871581D8154204600F04DF946213B
:10198000074802790079401C054B1871581D815495
:10199000284600F041F906F0DFFA00BFE0E700005A
:1019A000B800002010B5044644B101210820FFF71B
:1019B000CDFF40F6B83007F09AFD07E0012107207F
:1019C000FFF7C4FF40F6B83007F091FD10BD10B529
:1019D000044644B101210920FFF7B8FF40F6B830B2
:1019E00007F085FD07E001210A20FFF7AFFF40F671
:1019F000B83007F07CFD10BD2DE9F0412DED048BD2
:101A000004460E4615461F460DB1012100E0002197
:101A1000084606F045FBF1B20DB1012200E00022BC
:101A2000104605F0A0FF05F0C1FA00F0B7F94FF439
:101A3000967009F015FB3146022005F0A1FA3846F0
:101A400006F0BAFA052C01D0062C6ED101210E2029
:101A5000FFF77CFF012006F0A9FA204604F07CFD88
:101A600041F2883007F043FD05F073FF06F012FCE9
:101A7000052C57D108E000226048016810460AF0A2
:101A8000D7F8052009F0ECFA012000F033FC00281B
:101A9000F1D000BF09E000225848016858480068AA
:101AA0000AF0C6F8052009F0DBFA00F031FC40B975
:101AB000012000F01FFC012803D100F09DFC00284C
:101AC000E9D10022114610460AF0B2F8012000F0D8
:101AD00011FC90B901210420FFF738FF002006F027
:101AE00065FA00F089FB05F067FA44F6206007F01C
:101AF000FEFCBDEC048BBDE8F08100F07DFC28B954
:101B000007F0A2FD642009F0ABFAC3E744F62060B9
:101B100007F0EDFC05F01DFF00F040F9642009F02E
:101B20009FFAB7E7062C67D10AE065E00022334848
:101B30000068414210460AF07BF8052009F090FA4F
:101B4000022000F0D7FB0028F0D000BF1AE02B489D
:101B5000006840420CF0C1FC41EC190B9FED290BD1
:101B600053EC102B0CF020FD41EC180B0CF058FC42
:101B7000804600224146224800680AF059F80520B4
:101B800009F06EFA00F0C4FB40B9022000F0B2FB8D
:101B9000012803D100F030FC0028D8D100221146E2
:101BA00010460AF045F8022000F0A4FB78B90121A4
:101BB0000420FFF7CBFE002006F0F8F900F01CFB34
:101BC00005F0FAF944F6206007F091FC91E700F087
:101BD00013FC28B907F038FD642009F041FAB5E795
:101BE00044F6206007F083FC05F0B3FE00F0D6F861
:101BF000642009F035FAA9E700BF7AE7E80200207F
:101C0000EC020020666666666666E63F00BFFEE799
:101C100000218170C17070473EB500220092019290
:101C20000292002148B90023174A14791279521CF4
:101C3000154D2A716A1D13553EBD0EE00A2290FB18
:101C4000F2F302FB1302303214B20A464B1C19B2F3
:101C50002DF812400A2290FBF2F00028EED14A1E25
:101C600011B20CE00A464B1E19B21DF81230064A9A
:101C700014791279521C044D2A716A1D13550029DA
:101C8000F0DA00BFD8E70000B800002010B5044625
:101C9000012108460AF014FA012102200AF010FA84
:101CA000012C1DD1364800F0A3FB02285FDC002286
:101CB00011466FF04F0009F0BBFF02E00A2009F067
:101CC000CFF92F4800F094FB0228F7DD00221146DF
:101CD000104609F0ADFF4FF47A7009F0C1F946E003
:101CE000022C1CD1264800F083FB02283FDC002296
:101CF0001146502009F09CFF02E00A2009F0B0F9DB
:101D00001F4800F075FB0228F7DD0022114610463F
:101D100009F08EFF4FF47A7009F0A2F927E0032C46
:101D200025D1184800F064FB022820DC164800F09A
:101D30005FFB02281BDC00225021104609F078FFCF
:101D400002E00A2009F08CF90E4800F051FB02284D
:101D500004DC0D4800F04CFB0228F2DD00221146A5
:101D6000104609F065FF4FF47A7009F079F9002107
:101D700001200AF0A5F9002101200AF0A1F910BD07
:101D8000281100206C110020B011002070470000C5
:101D90000020014908707047B4000020002001496C
:101DA000088070475000002010B507F047FE4FF440
:101DB000005000F0A5FC10BD0120014908707047DB
:101DC000B400002001200149088070475000002025
:101DD00070B52DED068B064608F004FADA48006867
:101DE000DA490860DA48006801287DD10020D94925
:101DF00081F840000120D84981F84000D74981F896
:101E00004000D7480068002879DAD5480068404289
:101E1000D349086072E0CC480068CC490968401A90
:101E2000322820D99FEDCF0B53EC102BCF4890EDEB
:101E3000000B51EC100B0CF05FF941EC190BC8488A
:101E400000680CF04AFB41EC1A0B53EC192B0CF018
:101E5000EBFC41EC180B9FEDC60B53EC102B0CF078
:101E600067FB00D25FE19FEDBF0B53EC102BBF4827
:101E700090ED000B51EC100B0CF03EF941EC190BFE
:101E8000B74800680CF029FB41EC1A0B53EC192BF6
:101E90000CF0CAFC41EC180B0CF03CF8B64A03C23B
:101EA0009FEDB60B53EC102BB34890ED000B51ECAB
:101EB000100B0CF079FBB34A03C2B24890ED000B53
:101EC00051EC100B0CF0ACFA054604F0C1FB0446D3
:101ED0000CF003FBAB4A03C2AA4890ED000B51EC97
:101EE000100B0CF09DFA01E077E008E004460022B8
:101EF000114609F09DFE052009F0B2F88BE76BE072
:101F00009148006891490968401A322820D99FED0C
:101F1000950B53EC102B954890ED000B51EC100BEA
:101F20000CF0EAF841EC190B8D4800680CF0D5FA7A
:101F300041EC1A0B53EC192B0CF076FC41EC180B0E
:101F40009FED8B0B53EC102B0CF0F2FA00D2EAE071
:101F50009FED840B53EC102B844890ED000B51EC5B
:101F6000100B0CF0C9F841EC180B7D4800680CF020
:101F7000B4FA41EC190B53EC182B0CF055FC7E4ACB
:101F800003C29FED7E0B53EC102B7B4890ED000BB2
:101F900051EC100B0CF008FB7A4A03C2794890ED23
:101FA000000B51EC100B0CF03BFA054604F050FB13
:101FB00004460CF092FA734A03C2724890ED000B8B
:101FC00051EC100B0CF02CFA04460022114609F0DB
:101FD0002FFE052009F044F892E75D4800680228CA
:101FE0007ED101205B4981F8400000205A4981F8E8
:101FF00040005A4981F8400059480068002809DA31
:102000004FF0FF306049086055480068404254492D
:10201000086002E001205C49086082E04A480068EC
:102020004A490968401A322820D99FED4E0B53ECDB
:10203000102B4E4890ED000B51EC100B0CF05CF89F
:1020400041EC190B464800680CF047FA41EC1A0BBA
:1020500053EC192B0CF0E8FB41EC180B9FED440BF3
:1020600053EC102B0CF064FA00D25CE09FED3D0BBA
:1020700053EC102B3D4890ED000B51EC100B0CF085
:102080003BF841EC190B364800680CF026FA41EC9D
:102090001A0B53EC192B0CF0C7FB41EC180BB0EEEC
:1020A000480AF0EE680A07F013FB334880ED000B96
:1020B0009FED320B53EC102B90ED000B51EC100BFD
:1020C0000CF072FA2F4A03C22E4890ED000B51EC2F
:1020D000100B0CF0A5F9054604F0BAFA044600E02E
:1020E00020E00CF0FAF9274A03C2274800680CF0F8
:1020F000F4F941EC190B234890ED000B53EC102B35
:1021000051EC190B0CF050FA41EC180B0CF088F95B
:10211000044600222146104609F08AFD052008F0F9
:102120009FFF7BE700BF00221146104609F080FDAB
:1021300001201649086000200AF0C6FF002014495B
:102140000860BDEC068B70BDC00100206802002055
:1021500074020020281100206C110020B011002012
:1021600078020020000000000000494050020020DA
:10217000000000000000E03F880200200000000096
:102180000000204090020020B002002080020020C9
:102190009C02002072B600BFFEE7000010B50446A6
:1021A000012C03D106A0FEF795F908E0022C03D11B
:1021B00007A0FEF78FF902E00AA0FEF78BF910BD29
:1021C000BDC7B6C8D6B5B3ACCFDED6C60D0A0000C3
:1021D000B6AFD7F7D7E9B1E0BAC5B3ACCFDED6C654
:1021E0000D0A0000B6E6BFD8B7A2C9FACEB4D6AA87
:1021F000B4EDCEF30D0A00000120014908607047DC
:10220000E002002001460A2908D10021C1EB01109B
:102210000E4A105C012817D108467047491CC1EBD3
:1022200001100A4A105C012801D10846F5E7002098
:1022300008E0C0EB0012054B9A5C012A00D1ECE7E4
:10224000421CD0B20A28F4DB0120E6E7F41100209A
:102250000146481C0A2801D1002100E0491CC1EBBD
:102260000110094A105C08B908467047002007E0D1
:10227000C0EB0012044B9A5C02B9F6E7421CD0B2E4
:102280000A28F5DB0120F0E7F41100200146074899
:10229000006818B9012901DB082902DD4FF0FF3081
:1022A0007047481E024A32F91000F9E7DC020020AC
:1022B0001C1400200148007870470000D50200205F
:1022C0000146012901DB022901DD00207047C81CFD
:1022D000014A32F91000F9E71C1400200148007887
:1022E0007047000038010020014800787047000066
:1022F000B40000200146002901DB032901DD002094
:102300007047481D014A32F91000F9E71C140020FB
:102310000148B0F90000704750000020014608480D
:10232000006810B14FF0FF307047012901DB0A2926
:1023300001DD0020F8E7481E024A32F91000F3E7F9
:10234000DC0200200C14002008B500BF1348006810
:1023500040F01000114908600846006800F01000C5
:10236000009000BF00BF0E480E4908606B20486017
:1023700000210C48816042F20F71C16080218161AF
:1023800001F03AFC00220521362000F079FB3620CE
:1023900000F066FB034801F00FFD08BD4038024025
:1023A00000100040F00F0020017869B90121017090
:1023B0000D49496A0D4A126842F2107303FB02117B
:1023C000816041600021C160816841600649496ABD
:1023D000064A126842F2107303FB02118160D0E9D1
:1023E0000121891AC160704700100040C00100201F
:1023F00001464878704700000148007870470000A7
:10240000F002002000B50848406890ED000A064838
:10241000D0ED030A30EE200AF0EE401AB0EE610A69
:1024200007F06AF900BD00002800002010B51E2149
:10243000022008F08FFD47F23051022007F030F8FB
:10244000012300220321022008F010F947F2305145
:10245000012007F025F85CA0FEF73CF8012007F00A
:102460005DF85DA0FEF736F8002005F0ABFD012118
:10247000084603F08DFE5BA0FEF72CF80122022136
:10248000104604F037FB5BA0FEF724F80122B421CC
:10249000104606F071FB012300221946022008F0C5
:1024A000E5F847F23051012006F0FAFF01231A4601
:1024B0001946184608F0DAF847F23051012006F0C4
:1024C000EFFF4FF496627821012008F091FD032080
:1024D00007F024F8B42005F075FD0121052003F074
:1024E00057FE01220621104604F004FB01230022BE
:1024F00019460520FFF780FA4FF4C86296210320A1
:1025000008F076FD01226FF05901104606F034FB09
:10251000642008F0A5FD01230022511E022008F0CE
:10252000A5F847F23051012006F0BAFF042006F06A
:10253000F5FF6FF0590005F045FD012004F072F839
:102540000121084604F016F80120FFF72BFA41F2AA
:10255000883008F085FD0020FFF724FA0A210220C8
:1025600008F0F8FC47F23051022006F099FF0022F3
:10257000B421012006F000FB012006F0CFFF5A2015
:1025800005F020FD0121022003F002FE6FF00B0197
:10259000012008F0DFFC012006F0C0FF6FF04D01C4
:1025A000022008F0D7FC00226FF05901012006F04C
:1025B000E3FA012300220221084608F057F814210B
:1025C000022008F0C7FC10BD0D0ACAFDCFDFCDEA1E
:1025D000B3C90D0A00000000CCF9B1DFCDEAB3C9E0
:1025E0000D0A0000B6A8D7F3B2E0CDEAB3C90D0AD0
:1025F00000000000CCF5D0CECDEAB3C90D0A000032
:1026000070B50446A56D00F0A3F9064694F83500B0
:10261000022808D08020606500BF002084F83400C4
:1026200000BF012070BD2068006820F016002168FE
:1026300008602068406920F0800021684861206CB3
:1026400008B9A06C28B12068006820F00800216853
:1026500008602068006820F00100216808600FE031
:1026600000F076F9801B05280AD92020606500BF9C
:10267000002084F8340000BF032084F83500D1E73F
:102680002068006800F001000028E9D194F85C108F
:102690003F208840A86000BF002084F8340000BFBD
:1026A000012084F835000020BCE7014691F8350090
:1026B000022803D08020486501207047052081F85A
:1026C00035000868006820F001000A6810600020EA
:1026D000F3E7000070B5044600F03AF906462546D7
:1026E000681C10B104480078054400BF00F030F9C0
:1026F000801BA842FAD370BD380500207047000047
:1027000010B5044604480068204020B10248046027
:102710002046FFF7F3FF10BD143C0140F8B5024618
:102720000B46002100250024002000BFE4E0012624
:1027300006FA01F51E6806EA0504AC4271D15E682E
:10274000012E08D05E68022E05D05E68112E02D0E0
:102750005E68122E13D190684F000326BE40B0432E
:102760004F00DE68BE4030439060506801268E40C6
:10277000B0431E79C6F300168E4030435060D068D7
:102780004F000326BE40B0434F009E68BE4030431A
:10279000D0605E68022E02D05E68122E13D1CF0880
:1027A00002F1200656F827004E07F70E0F26BE400E
:1027B000B0434F07FF0E1E69BE403043CF0802F101
:1027C000200646F8270010684F000326BE40B0439D
:1027D0001E7906F003064F00BE40304310605E686D
:1027E00006F08056B6F1805FA8D100BF444E36682F
:1027F00046F48046424F3E603E46366806F48046C8
:10280000009600BF00BF3F4E8F0856F827008E0786
:10281000370F0F26BE40B0433B4EB24202D10026D6
:102820002EE068E0394EB24201D1012628E0384E50
:10283000B24201D1022623E0364EB24201D1032634
:102840001EE0354EB24201D1042619E0334EB242A9
:1028500001D1052614E0324EB24201D106260FE026
:10286000304EB24201D107260AE02F4EB24201D1CA
:10287000082605E02D4EB24201D1092600E00A26C5
:102880008F073F0FBE4030431E4E8F0846F827008B
:10289000274E3068A0435E6806F48036B6F5803F68
:1028A00000D12043224E3060361D3068A0435E6860
:1028B00006F40036B6F5003F00D120431C4E361D0D
:1028C0003060361D3068A0435E6806F48016B6F5A9
:1028D000801F00D12043164E08363060361D306808
:1028E000A0435E6806F40016B6F5001F00D1204331
:1028F0000F4E0C363060491C1029FFF418AFF8BD9C
:102900004438024008380140000002400004024000
:1029100000080240000C0240001002400014024077
:1029200000180240001C0240002002400024024027
:10293000003C0140024613690B400BB1012000E04E
:10294000002070470AB1816101E00B048361704788
:102950000148006870470000300500200348006807
:102960000349097808440149086070473005002090
:102970003805002010B5032000F0C0F80F2000F04B
:1029800005F800F047F8002010BD000070B588B0D1
:1029900004460025002600222146372000F070F86A
:1029A000372000F05DF800BF1648006840F02000B6
:1029B000144908600846006800F02000019000BF3C
:1029C00000BF02A903A800F031FD00F057FD45004B
:1029D0000D48B5FBF0F0461E0C480D49086040F26A
:1029E000E7310B48C160466000210161816001F060
:1029F00003F920B9064801F0DFF908B070BD0120E5
:102A0000FBE700004038024040420F000014004045
:102A10002C0D002008B500BF1048006840F0805021
:102A20000E4908600846006800F08050009000BF22
:102A300000BF00BF081D006840F48040091D086009
:102A40000846006800F48040009000BF00BF0022EC
:102A50000F21901E00F014F808BD0000403802401D
:102A600001460846002809DB00F01F0301229A40B6
:102A700043099B0003F1E023C3F8002100BF704726
:102A80002DE9F05F80460D461646002706F004FE4D
:102A9000074639462A46334601F00700C0F1070AC7
:102AA000BAF1040F02D94FF0040A01E0C0F1070A9D
:102AB000D14600F1040ABAF1070F02D24FF0000A22
:102AC00001E0A0F1030AD4464FF0010A0AFA09FA1C
:102AD000AAF1010A0AEA020A0AFA0CFA4FF0010BFB
:102AE0000BFA0CFBABF1010B0BEA030B4AEA0B04EC
:102AF0002146404606F0D8FDBDE8F09F00BF00F03B
:102B00000702064B19684FF6FF031940044B0B43AD
:102B100043EA0221014B196000BF70470CED00E051
:102B20000000FA0538B5002400BF2048006840F0D6
:102B300080501E4908600846006800F080500090F0
:102B400000BF00BF1A48006840F480301849086090
:102B5000FFF7FEFE044607E0FFF7FAFE001BB0F5A4
:102B60007A7F01D9032038BD1148406800F48030D5
:102B7000B0F5803FF0D10E48006840F400300C49B9
:102B80000860FFF7E5FE044607E0FFF7E1FE001BE3
:102B9000B0F57A7F01D90320E5E70548406800F4E5
:102BA0000030B0F5003FF0D10020DCE740380240B3
:102BB000007000402DE9F843044600260025002758
:102BC000A846A946207800F0010088B100BFFE4861
:102BD000006820F40000FC49086008460068616B4A
:102BE0000843F949086000BF606B08B94FF001085D
:102BF000206800F40020B0F5002F13D1F248843093
:102C0000006820F44010E16B0843EF49843108600C
:102C1000E06BB0F5801F01D14FF00108E06B08B9FF
:102C20004FF00109206800F48010B0F5801F13D127
:102C3000E5488430006820F44000216C0843E249F4
:102C400084310860206CB0F5800F01D14FF001088D
:102C5000206C08B94FF00109206800F08070B0F1D5
:102C6000807F01D14FF00108207800F0200020285B
:102C700070D100BFD4483830006840F08050D2494D
:102C8000383108600846006800F08050009000BFAE
:102C900000BFCE48006840F48070CC490860FFF760
:102CA00057FE064607E0FFF753FE801B642802D953
:102CB0000320BDE8F883C548006800F48070002850
:102CC000F1D0C1486830006800F4407585B3208EAB
:102CD00000F44070A8422BD0BB486830006820F454
:102CE0004075B9486830006840F48030B6496831B2
:102CF00008600846006820F48030086008460560D7
:102D0000006800F0010098B1FFF722FE064608E0D7
:102D1000FFF71EFE801B41F28831884201D9032053
:102D2000C7E7A94868300068C0F340000028EFD02A
:102D300000BF208E00F44070B0F5407F0BD1A24858
:102D4000006820F4F810A24A216B114008439E4904
:102D5000086006E010E09C48006820F4F8109A49EA
:102D60000860994868300068218EC1F30B01084360
:102D700095496831086000BF207800F010001028E5
:102D800010D100BF90488430006820F080708E49D8
:102D90008431086008460068A16B08438A49843181
:102DA000086000BF208800F48040B0F5804F09D152
:102DB00085488830006820F44030616E08438249BD
:102DC00088310860208800F40040B0F5004F09D138
:102DD0007D488830006820F44020A16E08437A497D
:102DE00088310860206800F48030B0F5803F09D158
:102DF00075488830006820F44010E16E084372493D
:102E000088310860206800F40030B0F5003F09D137
:102E10006D488830006820F44000216F08436A49FB
:102E200088310860207800F04000402809D16648C9
:102E30008830006820F00300616C084362498831E3
:102E40000860207800F08000802809D15E48883032
:102E5000006820F00C00A16C08435B4988310860D1
:102E6000208800F48070B0F5807F09D15648883002
:102E7000006820F03000E16C084353498831086055
:102E8000208800F40070B0F5007F09D14E488830EA
:102E9000006820F0C000216D08434B49883108606C
:102EA000208800F48060B0F5806F09D146488830F2
:102EB000006820F44070616D084343498831086020
:102EC000208800F40060B0F5006F09D13E488830DA
:102ED000006820F44060A16D08433B4988310860D8
:102EE000208800F48050B0F5805F09D136488830E2
:102EF000006820F44050E16D084333498831086090
:102F0000208800F40050B0F5005F09D12E488830C9
:102F1000006820F44040216E08432B498831086046
:102F2000206800F48000B0F5800F09D12648883071
:102F3000006820F08060A16F084323498831086051
:102F4000206800F40010B0F5001F0FD11E48883033
:102F5000006820F00060E16F08431B498831086079
:102F6000E06FB0F1006F01D14FF00109207800F05F
:102F70000800082801D14FF00109206800F48020E2
:102F8000B0F5802F09D110488830006820F04070DB
:102F9000616F08430C4988310860206800F4000024
:102FA000B0F5000F0AD108488830006820F0805042
:102FB000D4F880100843044988310860B8F1010F43
:102FC0000DD0206806E00000083802400070004084
:102FD000FFFCFF0F00F00070B0F1007F7DD1AD4825
:102FE000006820F08060AB490860FFF7B1FC06463E
:102FF00006E0FFF7ADFC801B642801D9032058E6EA
:10300000A4480068C0F3C0600028F2D1207800F026
:103010000100B8B1606BA8B99E4884300068C0F365
:1030200001459C4884300068C0F3036760688001F4
:1030300040EA054040EA0761207A41EA007095497C
:1030400084310860206800F40020B0F5002F03D11F
:10305000E06BB0F5801F09D0206800F48010B0F557
:10306000801F24D1206CB0F5800F20D18948843096
:103070000068C0F30145874884300068C0F30277D8
:103080006068800140EA0541207B41EA006040EA37
:1030900007708049843108607E488C30006820F0D9
:1030A0001F00616A491E08437A498C310860206814
:1030B00000F08070B0F1807F17D1764884300068CE
:1030C000C0F30365734884300068C0F3027760681A
:1030D0008101208A41EA004000E031E040EA0560D9
:1030E00040EA07706B4984310860206800F0007086
:1030F000B0F1007F0DD160688101208A41EA004172
:10310000207B41EA0061207A41EA00706149843104
:1031100008606048006840F080605E490860FFF722
:1031200017FC064606E0FFF713FC801B642801D954
:103130000320BEE557480068C0F3C0600028F2D005
:10314000B9F1010F7ED15348006820F080505149F9
:103150000860FFF7FDFB064606E0FFF7F9FB801B62
:10316000642801D90320A4E54A480068C0F34070F0
:103170000028F2D1206800F40020B0F5002F01D122
:10318000E06B38B1206800F48010B0F5801F22D1C8
:10319000206C00BB3F4888300068C0F301453D48C3
:1031A00088300068C0F302776069800140EA054119
:1031B000207E41EA006040EA0770364988310860A5
:1031C000081D006820F4F851A06A401E41EA002062
:1031D00030498C310860206800F40010B0F5001F01
:1031E00019D1E06FB0F1006F15D12A48883000681E
:1031F000C0F30365274888300068C0F30277606930
:103200008101208C41EA004040EA056040EA0770F5
:10321000204988310860207800F00800082820D173
:103220001C4888300068C0F303651A48883000687D
:10323000C0F301476069800140EA074040EA056148
:10324000207F00E024E041EA0070124988310860E4
:10325000081D006820F44030E16A08430D498C31B4
:1032600008600C48006840F080500A490860FFF789
:103270006FFB064606E0FFF76BFB801B642801D955
:10328000032016E503480068C0F340700028F2D020
:1032900000200EE50038024070B504460D460026B9
:1032A0000CB9012070BD5C48006800F00F00A84216
:1032B0000ED25948006820F00F0028435649086094
:1032C0000846006800F00F00A84201D00120E9E79D
:1032D000207800F0020002281DD1207800F00400C0
:1032E000042805D14D48006840F4E0504B4908607F
:1032F000207800F00800082805D14848006840F40C
:103300006040464908604548006820F0F000A16828
:10331000084342490860207800F0010090B36068DB
:10332000012807D13D4808380068C0F34040A0B9E3
:103330000120B7E76068022807D1384808380068DC
:10334000C0F3406048B90120ACE734480838006851
:10335000C0F3400008B90120A4E73048006820F01D
:103360000300616808432D490860FFF7F1FA06463B
:1033700009E0FFF7EDFA801B41F28831884202D95B
:1033800003208FE707E02548006800F00C00616823
:10339000B0EB810FEDD12048006800F00F00A8428B
:1033A0000ED91D48006820F00F0028431A49086014
:1033B0000846006800F00F00A84201D0012071E724
:1033C000207800F00400042807D11448006820F495
:1033D000E050E168084311490860207800F00800D7
:1033E000082808D10D48006820F46040216940EAAF
:1033F000C1000A49086000F061F808490968C1F392
:103400000311074A515CC840064908600648006835
:10341000FFF7BCFA002045E7003C024008380240B4
:103420001CEC0008CC040020340500200F220260B0
:103430000D4A126802F0030242600B4A126802F061
:10344000F0028260084A126802F4E052C260064A42
:10345000126802F46042D2080261044A126802F063
:103460000F020A607047000008380240003C02402A
:103470000148006870470000CC04002000B5FFF749
:10348000F7FF04490968C1F38221034A515CC8402F
:1034900000BD0000083802402CEC000800B5FFF722
:1034A000E7FF04490968C1F34231034A515CC8404F
:1034B00000BD0000083802402CEC00082DE9F04760
:1034C000002400250026A1462548006800F00C00D5
:1034D00020B1042805D008283AD105E0DFF884900F
:1034E00039E0DFF8849036E01D48001F006800F0E6
:1034F0003F041B48001F006800F4800078B11A48A0
:103500001749091F0968C1F38811A0FB0170014622
:10351000224600233846FCF766FF05460EE01148B8
:103520000F49091F0968C1F38811A0FB017001460A
:10353000224600233846FCF756FF05460848001F80
:103540000068C0F30140401C4600B5FBF6F902E0FC
:10355000DFF8109000BF00BF4846BDE8F0870000CC
:10356000083802400024F40040787D01F8B5044694
:1035700000270CB90120F8BD207800F001000028D8
:1035800071D0F948006800F00C0004280DD0F6480E
:10359000006800F00C00082813D1F348001F0068F1
:1035A00000F48000B0F5800F0BD1EF4808380068B8
:1035B000C0F34040002869D06068002866D101202F
:1035C000D9E700BF6068B0F5803F08D1E648083809
:1035D000006840F48030E449083908602EE06068F3
:1035E00068B9E1480838006820F48030DE490839BD
:1035F00008600846006820F4802008601EE06068CB
:10360000B0F5A02F0DD1D8480838006840F48020CC
:10361000D549083908600846006840F480300860E1
:103620000CE0D1480838006820F48030CE490839D1
:1036300008600846006820F48020086000BF6068C9
:1036400090B1FFF785F9054606E0FFF781F9401BC9
:10365000642801D903208EE7C34808380068C0F306
:1036600040400028F1D011E0FFF772F9054606E06E
:10367000FFF76EF9401B642801D903207BE7BA48A5
:1036800008380068C0F340400028F1D1207800F0ED
:103690000200022869D1B448006800F00C0058B15B
:1036A000B148006800F00C0008281CD1AE48001F8B
:1036B000006800F48000B0B9AB4808380068C0F377
:1036C000400020B1E068012801D0012053E7A6485E
:1036D0000838006820F0F800216940EAC100A249DA
:1036E0000839086041E0E06828B39F48083800685E
:1036F00040F001009C4908390860FFF729F90546A8
:1037000006E0FFF725F9401B022801D9032032E724
:10371000954808380068C0F340000028F1D092486E
:103720000838006820F0F800216940EAC1008E499D
:103730000839086019E08C480838006820F001005A
:10374000894908390860FFF703F9054606E0FFF7E5
:10375000FFF8401B022801D903200CE782480838F3
:103760000068C0F340000028F1D1207800F0080084
:10377000082836D16069D0B17B486C30006840F0D1
:10378000010079496C310860FFF7E2F8054606E070
:10379000FFF7DEF8401B022801D90320EBE6724850
:1037A0006C300068C0F340000028F1D019E06E488A
:1037B0006C30006820F001006B496C310860FFF745
:1037C000C7F8054606E0FFF7C3F8401B022801D9F9
:1037D0000320D0E664486C300068C0F34000002845
:1037E000F1D1207800F00400042874D15E4838300C
:1037F000006800F0805080B900BF5B483830006836
:1038000040F080505849383108600846006800F0A0
:103810008050009000BF00BF01275448006800F4AA
:103820008070B0B95148006840F480704F4908601A
:10383000FFF78EF8054606E0FFF78AF8401B64287C
:1038400001D9032097E64948006800F480700028F9
:10385000F2D000BFA068012808D143486830006852
:1038600040F001004049683108602DE0A06868B967
:103870003D486830006820F001003B49683108602D
:103880000846006820F0040008601DE0A0680528D4
:103890000DD135486830006840F004003249683185
:1038A00008600846006840F0010008600CE02E48FF
:1038B0006830006820F001002B4968310860084634
:1038C000006820F00400086000BFA068A8B1FFF7FE
:1038D0003FF8054609E02EE0FFF73AF8401B41F2B9
:1038E0008831884201D9032045E61F4868300068C6
:1038F000C0F340000028EFD013E0FFF729F8054699
:1039000008E0FFF725F8401B41F28831884201D9D1
:10391000032030E6144868300068C0F340000028F7
:10392000EFD1012F07D110483830006820F08050C7
:103930000D4938310860A069002852D00A48006853
:1039400000F00C00082865D0A06902284AD106487A
:103950000838006820F08070034908390860FEF7D5
:10396000F7FF05460BE000000838024000700040F9
:10397000FEF7EEFF401B022801D90320FBE53B4880
:103980000068C0F340600028F2D1E06940F00050C8
:10399000216A0843616A40EA81110122A06AC2EBF0
:1039A000500041EA00412C20005D41EA00602F49AF
:1039B000091D0860081F006840F08070091F08603A
:1039C000FEF7C6FF054606E0FEF7C2FF401B0228D1
:1039D00001D90320CFE525480068C0F340600028E6
:1039E000F2D040E02148006820F080701F49086054
:1039F000FEF7AEFF054606E0FEF7AAFF401B0228D1
:103A000001D90320B7E519480068C0F340600028D9
:103A1000F2D128E01548001D0668A069012820D0D1
:103A200006F48001E06981421BD106F03F01206A63
:103A3000814216D147F6C0703040616AB0EB811FF9
:103A40000FD106F440310122A06AC2EB5000B1EB65
:103A5000004F06D106F070612C20005DB1EB006FC5
:103A600001D0012087E5002085E5000000380240F4
:103A7000704770477047000010B50346002200BF32
:103A800093F83C00012801D1022010BD012083F8E9
:103A90003C0000BF22F0FF00CC6840EA040222F4A0
:103AA00040708C6840EA040222F480604C6840EA6E
:103AB000040222F400600C6840EA040222F4805000
:103AC0000C6940EA040222F400504C6940EA040206
:103AD00022F480408C6A40EA040222F470200C8BAD
:103AE00040EA04420F4C1868A04203D00E4C1868FC
:103AF000A0420ED122F470008C8C40EA045222F0D5
:103B00008070CC6940EA040222F000700C6A40EA3E
:103B100004021868426400BF002083F83C0000BF24
:103B200000BFB2E7000001400004014030B502468A
:103B30000B4600BF92F83C00012801D1022030BDA5
:103B4000012082F83C0000BF022082F83D0010688E
:103B5000416810688468214D1068A84203D0204D48
:103B60001068A84203D121F470015868014321F084
:103B700070011868014310684160184D1068A84230
:103B80001BD01068B0F1804F17D0164D1068A842B6
:103B900013D0154D1068A8420FD0144D1068A842DC
:103BA0000BD00F4D1068A84207D0114D1068A842E5
:103BB00003D0104D1068A84205D124F08004986805
:103BC000044310688460012082F83D0000BF00209B
:103BD00082F83C0000BF00BFB1E7000000000140D8
:103BE000000401400004004000080040000C0040B8
:103BF000004001400018004010B504460CB90120F7
:103C000010BD94F83D0028B9002084F83C002046FF
:103C100000F02AF8022084F83D00211D206804F0FD
:103C200099FC012084F8480000BF84F83E0001217F
:103C30003F200155402001554120015542200155AA
:103C40004320015500BF00BF012084F844004520F7
:103C50000155462001554720015500BF012084F839
:103C60003D000020CCE7000038B504462549206817
:103C7000884216D100BF2448006840F00100224964
:103C800008600846006800F00100009000BF00BF17
:103C9000002205211920FEF7F3FE1920FEF7E0FEB1
:103CA0002FE02068B0F1804F0FD100BF1648001FF1
:103CB000006840F001001449091F086008460068C8
:103CC00000F00100009000BF1BE01049206888420E
:103CD00017D100BF0C48001F006840F010000A49CF
:103CE000091F08600846006800F01000009000BF3F
:103CF00000BF002206213620FEF7C2FE3620FEF766
:103D0000AFFE38BD000001404438024000100040C2
:103D1000014691F83D00012801D0012070470220A2
:103D200081F83D001C4B086898421BD00868B0F130
:103D3000804F17D0194B0868984213D0184B086869
:103D400098420FD0174B086898420BD0164B086862
:103D5000984207D0154B0868984203D0144B086866
:103D6000984210D108688068124B00EA0302062AC4
:103D70000FD0B2F5803F0CD00868006840F0010019
:103D80000B68186005E00868006840F001000B68E7
:103D900018600020C2E7000000000140000400405D
:103DA00000080040000C00400004014000400140B9
:103DB0000018004007000100014691F83D0001286D
:103DC00001D001207047022081F83D000868C068DA
:103DD00040F001000B68D8601C4B086898421BD06B
:103DE0000868B0F1804F17D0194B0868984213D07B
:103DF000184B086898420FD0174B086898420BD0B0
:103E0000164B0868984207D0154B0868984203D0B3
:103E1000144B0868984210D108688068124B00EA79
:103E20000302062A0FD0B2F5803F0CD00868006864
:103E300040F001000B68186005E00868006840F079
:103E400001000B6818600020BCE700000000014082
:103E50000004004000080040000C00400004014045
:103E60000040014000180040070001002DE9F0412A
:103E700004460D4600BF94F83C00012802D1022000
:103E8000BDE8F081012084F83C0000BF022084F8E6
:103E90003D00206886683748064026F47F46206843
:103EA00086602868502833D00CDC202850D004DCF1
:103EB00000284BD0102851D149E0302849D0402863
:103EC0004CD139E060282DD0702807D0B0F5805F44
:103ED00003D0B0F5005F41D10DE040E0D5E9021319
:103EE0006A68206804F0B3FB2068866846F07706AD
:103EF0002068866033E0D5E902136A68206804F020
:103F0000A6FB2068806840F480402168886026E035
:103F1000EA686968206804F0E5FC5021206804F034
:103F2000A1FB1CE0EA686968206804F037FD6021A5
:103F3000206804F097FB12E0EA686968206804F0E2
:103F4000D1FC4021206804F08DFB08E000BF00BFD9
:103F500000BF2968206804F085FB00E000BF00BFB7
:103F6000012084F83D0000BF002084F83C0000BF21
:103F700000BF85E788FFFEFF70B52DED0A8B044674
:103F80009FEDF80BB0EE408AF0EE608AF74880684B
:103F9000A04277D1217FF548007B8142F9D1F448D6
:103FA000408800286FD10120F1494880EF4A11690B
:103FB000906801F0DDFCEF4948600020EE49486060
:103FC000EA4A91881068FEF7B5FC18B90120EB4960
:103FD000486003E04FF0FF30E849486000BFE34825
:103FE000006950B9E14880680068006A20F00A0062
:103FF000DE4989680968086227E0DC48006904280E
:104000000AD1DA4880680068006A20F0A000D74929
:1040100089680968086218E0D448006908280AD14C
:10402000D24880680068006A20F42060CF4989681F
:104030000968086209E0CD4880680068006A20F4D9
:104040002040CA49896809680862C848006950B9AF
:10405000C64880680068006A40F00200C349896869
:104060000968086229E0C148006904280CD1BF48EA
:1040700080680068006A40F02000BC4989680968CF
:1040800008621AE049E119E0B848006908280AD135
:10409000B64880680068006A40F40070B3498968D7
:1040A0000968086209E0B14880680068006A40F465
:1040B0000050AE498968096808622DE10020AC49CA
:1040C0004880AA4A1169906801F052FCAC494860E6
:1040D000AA4948680AF001FA41EC1A0BA849496854
:1040E000A44A5268891AA44A526842F2107303FB28
:1040F00002100AF0F2F941EC1C0B53EC1C2B9FED63
:10410000A10B51EC100B09F0F7FF41EC1B0B53EC2A
:104110001A2B0AF049FA41EC190B9C4890ED021B4E
:10412000B0EE410AF0EE610A53EC102B51EC190B82
:1041300009F02EFF954AC2E9020195484088401CCB
:1041400000B29349488000BF8848006950B9874849
:1041500080680068006A20F00A008449896809685C
:10416000086227E08148006904280AD17F488068F6
:104170000068006A20F0A0007C498968096808622C
:1041800018E07A48006908280AD1784880680068F1
:10419000006A20F42060754989680968086209E0AE
:1041A000724880680068006A20F420406F4989687E
:1041B000096808626D48006940B96C488068006809
:1041C000006A6A4989680968086221E067480069ED
:1041D000042808D1654880680068006A63498968D6
:1041E0000968086214E061480069082808D15F483E
:1041F00080680068006A5D4989680968086207E0AC
:104200005A4880680068006A5849896809680862E5
:1042100000BF5F49B1F902000AF05FF941EC190BE8
:104220009FED5C0B53EC102B0AF0BEF874D15B4889
:104230004068A8B9012059494860544890ED021BD4
:10424000B0EE410AF0EE610A9FED521B53EC112BC8
:1042500051EC100B09F050FF514AC2E902014CE049
:104260004A4890ED021BB0EE410AF0EE610A9FED64
:10427000491B53EC112B51EC100B09F03DFF41ECA5
:10428000180B474890ED021BB0EE410AF0EE610AB0
:1042900053EC102B51EC180B09F07AFE41EC1A0B81
:1042A000B0EE4A0AF0EE6A0A05F012FAB0EE409A51
:1042B000F0EE609A9FED3B0B53EC102B51EC190B79
:1042C0000AF036F919D3364890ED021BB0EE410AD8
:1042D000F0EE610A53EC102B51EC180B09F058FE6C
:1042E00041EC180B9FED310B53EC102B51EC180BDC
:1042F00009F002FF2A4AC2E902019FED1A0BB0EE53
:10430000408AF0EE608A0020214948809FED150B1D
:104310001E4880ED020BD0E6EFE126488068A042FF
:104320007BD1217F2348007B8142F9D110488088CE
:10433000002873D101200E4988801E4A11699068B7
:1043400001F016FB0B49886000200B498860194A70
:1043500091881068FEF7EEFA18B9012007498860C5
:104360002EE029E00000000000000000700F002097
:104370005813002064130020A01300208C13002089
:104380007813002000000000006AF840B8130020F5
:10439000E01300200000000000002440EC13002087
:1043A0003013002000000000000034400000000036
:1043B00000000040900F00204FF0FF30FA49886065
:1043C00000BFFA48006950B9F84880680068006A80
:1043D00020F00A00F54989680968086229E0F34875
:1043E000006904280AD1F14880680068006A20F05A
:1043F000A000EE498968096808621AE0EB48006984
:1044000008280CD1E94880680068006A20F4206020
:10441000E6498968096808620BE06FE140E0E3481B
:1044200080680068006A20F42040E04989680968D3
:104430000862DE48006950B9DC4880680068006A9C
:1044400040F00200D94989680968086227E0D74826
:10445000006904280AD1D54880680068006A40F0E5
:104460002000D24989680968086218E0CF480069CD
:1044700008280AD1CD4880680068006A40F40070BE
:10448000CA4989680968086209E0C8488068006804
:10449000006A40F40050C5498968096808620CE662
:1044A0000020C3498880C14A1169906801F060FA10
:1044B000C0498860BC4988680AF00FF841EC1A0BC3
:1044C000BC498968BC4A9268891ABC4A926842F21F
:1044D000107303FB02100AF000F841EC1C0B53ECC4
:1044E0001C2B1FED580B51EC100B09F005FE41EC95
:1044F0001B0B53EC1A2B0AF057F841EC190BB04880
:1045000090ED041BB0EE410AF0EE610A53EC102B63
:1045100051EC190B09F03CFDA94AC2E90401A94874
:104520008088401C00B2A749888000BF9F4800696E
:1045300050B99E4880680068006A20F00A009B49D4
:1045400089680968086227E09848006904280AD148
:10455000964880680068006A20F0A0009349896846
:104560000968086218E09148006908280AD18F4854
:1045700080680068006A20F420608C4989680968B6
:10458000086209E0894880680068006A20F42040D9
:1045900086498968096808628448006940B9834887
:1045A00080680068006A814989680968086221E0BA
:1045B0007E480069042808D17C4880680068006A49
:1045C0007A4989680968086214E07848006908280F
:1045D00008D1764880680068006A7449896809686B
:1045E000086207E0714880680068006A6F4989685E
:1045F0000968086200BF7349B1F9040009F06DFF52
:1046000041EC190B1FED9D0B53EC102B09F0CCFE68
:1046100073D16D488068A8B901206B4988606848EB
:1046200090ED041BB0EE410AF0EE610A1FEDA71BEE
:1046300053EC112B51EC100B09F05EFD634AC2E9FB
:1046400004014CE05E4890ED041BB0EE410AF0EE30
:10465000610A1FEDB01B53EC112B51EC100B09F04C
:104660004BFD41EC180B594890ED041BB0EE410A8C
:10467000F0EE610A53EC102B51EC180B09F088FC9A
:1046800041EC1A0BB0EE4A0AF0EE6A0A05F020F887
:10469000B0EE409AF0EE609A1FEDBE0B53EC102B7B
:1046A00051EC190B09F044FF19D3484890ED041B55
:1046B000B0EE410AF0EE610A53EC102B51EC180BEE
:1046C00009F066FC41EC180B1FEDC80B53EC102BE6
:1046D00051EC180B09F010FD3C4AC2E904011FED32
:1046E000DF0BB0EE408AF0EE608A0020354988800A
:1046F0001FEDE40B324880ED040BC9E334488068B9
:10470000A04250D1217F3248007B8142F9D1284814
:10471000C088002876D101202549C8802C4A11691B
:10472000906801F025F92449C86000202349C86039
:10473000274A91881068FEF7FDF818B901201A4938
:10474000C86003E04FF0FF301749C86000BF204841
:10475000006950B91E4880680068006A20F00A00AD
:104760001B498968096808623EE019480069042805
:104770000AD1174880680068006A20F0A000144938
:104780008968096808622FE011480069082821D16A
:104790000F4880680068006A20F420600C4989682E
:1047A0000968086220E085E18C130020900F00204A
:1047B000581300207813002064130020A013002059
:1047C000B8130020E0130020EC1300203013002069
:1047D000B00F0020FD4880680068006A20F4204087
:1047E000FA49896809680862F848006958B9F748C1
:1047F00080680068006A40F00200F449896809682E
:10480000086228E028E0F148006904280AD1EF484E
:1048100080680068006A40F02000EC4989680968F7
:10482000086218E0E948006908280AD1E74880686A
:104830000068006A40F40070E44989680968086209
:1048400009E0E24880680068006A40F40050DF49EF
:104850008968096808621BE30020DD49C880DB4ADB
:104860001169906801F084F8DA49C860DA49C868CB
:1048700009F033FE41EC1A0BD649C968D74AD26811
:10488000891AD74AD26842F2107303FB021009F06A
:1048900024FE41EC1C0B53EC1C2B9FEDD20B51EC76
:1048A000100B09F029FC41EC1B0B53EC1A2B09F0FF
:1048B0007BFE41EC190BCD4890ED061BB0EE410A92
:1048C000F0EE610A53EC102B51EC190B09F060FB70
:1048D000C64AC2E90601C648C088401C00B2C449A5
:1048E000C88000BFB948006950B9B84880680068FE
:1048F000006A20F00A00B54989680968086227E063
:10490000B248006904280AD1B04880680068006A8B
:1049100020F0A000AD4989680968086218E0AB483A
:10492000006908280AD1A94880680068006A20F454
:104930002060A64989680968086209E0A348806880
:104940000068006A20F42040A0498968096808626C
:104950009E48006940B99D4880680068006A9B498C
:1049600089680968086221E098480069042808D12C
:10497000964880680068006A9449896809680862F6
:1049800014E092480069082808D1904880680068BF
:10499000006A8E4989680968086207E08B48806868
:1049A0000068006A894989680968086200BF9049FF
:1049B000B1F9060009F091FD41EC190B9FED8D0B4B
:1049C00053EC102B09F0F0FC73D18C48C068A8B9E7
:1049D00001208A49C860854890ED061BB0EE410A67
:1049E000F0EE610A9FED831B53EC112B51EC100B81
:1049F00009F082FB824AC2E906014CE07B4890ED57
:104A0000061BB0EE410AF0EE610A9FED7A1B53ECF3
:104A1000112B51EC100B09F06FFB41EC180B78488F
:104A200090ED061BB0EE410AF0EE610A53EC102B3C
:104A300051EC180B09F0ACFA41EC1A0BB0EE4A0A33
:104A4000F0EE6A0A04F044FEB0EE409AF0EE609A8E
:104A50009FED6C0B53EC102B51EC190B09F068FD1A
:104A600019D3674890ED061BB0EE410AF0EE610ADB
:104A700053EC102B51EC180B09F08AFA41EC180B8F
:104A80009FED620B53EC102B51EC180B09F034FB2B
:104A90005B4AC2E906019FED5F0BB0EE408AF0EE83
:104AA000608A00205249C8809FED5A0B4F4880ED24
:104AB000060BEDE159488068A042FAD1217F5748A2
:104AC000007B8142F5D142480089C0BB01204049AA
:104AD0000881524A1169906800F04AFF3F49086115
:104AE00000203F4908614D4A91881068FDF722FF78
:104AF00018B901203849086103E04FF0FF3036490A
:104B0000086100BF4548006950B9444880680068A2
:104B1000006A20F00A00414989680968086228E0B3
:104B20003E48006904280BD13C4880680068006A50
:104B300020F0A000394989680968086219E07AE024
:104B40003648006908280AD1344880680068006A3D
:104B500020F42060314989680968086209E02F481B
:104B600080680068006A20F420402C498968096840
:104B700008622A48006950B9284880680068006ABD
:104B800040F00200254989680968086252E023481C
:104B9000006904280AD1214880680068006A40F052
:104BA00020001E4989680968086243E01B480069C3
:104BB000082835D1194880680068006A40F4007000
:104BC000164989680968086234E00000B00F0020C7
:104BD00058130020781300208C1300206413002049
:104BE000A013002000000000006AF840B813002065
:104BF000E01300200000000000002440EC1300201F
:104C000030130020000000000000344000000000CD
:104C1000000000400000000000000000D00F002055
:104C2000C14880680068006A40F40050BE49896845
:104C3000096808622CE10020BC490881BA4A116960
:104C4000906800F095FEBA490861BA49086909F010
:104C500044FC41EC1A0BB6490969B74A1269891A32
:104C6000B64A126942F2107303FB021009F035FCD8
:104C700041EC1C0B53EC1C2B1FED260B51EC100BC5
:104C800009F03AFA41EC1B0B53EC1A2B09F08CFC9F
:104C900041EC190BAA4890ED081BB0EE410AF0EE6A
:104CA000610A53EC102B51EC190B09F071F9A44A6D
:104CB000C2E90801A3480089401C00B2A14908814B
:104CC00000BF9948006950B9974880680068006A39
:104CD00020F00A00944989680968086227E0924830
:104CE000006904280AD1904880680068006A20F0B2
:104CF000A0008D4989680968086218E08A4800693F
:104D000008280AD1884880680068006A20F420607A
:104D1000854989680968086209E0834880680068F5
:104D2000006A20F4204080498968096808627E484A
:104D3000006940B97C4880680068006A7A498968DF
:104D40000968086221E078480069042808D176489B
:104D500080680068006A744989680968086214E01C
:104D600071480069082808D16F4880680068006AA7
:104D70006D4989680968086207E06B4880680068C7
:104D8000006A694989680968086200BF6D49B1F91C
:104D9000080009F0A2FB41EC190B1FED6A0B53EC64
:104DA000102B09F001FB73D167480069A8B90120F5
:104DB00065490861624890ED081BB0EE410AF0EECB
:104DC000610A1FED741B53EC112B51EC100B09F011
:104DD00093F95E4AC2E908014CE0594890ED081B7E
:104DE000B0EE410AF0EE610A1FED7E1B53EC112B71
:104DF00051EC100B09F080F941EC180B534890ED81
:104E0000081BB0EE410AF0EE610A53EC102B51EC96
:104E1000180B09F0BDF841EC1A0BB0EE4A0AF0EE9F
:104E20006A0A04F055FCB0EE409AF0EE609A1FED6D
:104E30008B0B53EC102B51EC190B09F079FB19D3A8
:104E4000424890ED081BB0EE410AF0EE610A53ECC7
:104E5000102B51EC180B09F09BF841EC180B1FEDCF
:104E6000950B53EC102B51EC180B09F045F9374A10
:104E7000C2E908011FED990BB0EE408AF0EE608A9E
:104E80000020304908811FED9D0B2D4880ED080B57
:104E90002F480068401C2E49086008460068B0F59D
:104EA000C87F3ED11FEDA50B2A4880ED000B0020E6
:104EB000086001251BE0254800EBC50090ED001BB4
:104EC000B0EE410AF0EE610A04F002FCB0EE409A46
:104ED000F0EE609A1F4890ED000B53EC102B51EC54
:104EE000190B09F055F81B4A03C2681CC5B2042D02
:104EF000E1DD9FED190B53EC102B164890ED000BE4
:104F000051EC100B09F0F8F841EC190B144890ED36
:104F1000000B53EC102B51EC190B09F039F8104A27
:104F200003C2BDEC0A8B70BDD00F002058130020C7
:104F3000781300208C13002064130020A01300209D
:104F4000B8130020E0130020EC13002030130020E1
:104F50006002002058020020000000000000104005
:104F6000500200202DE9F04104460D46164600BFD0
:104F700094F83C00012802D10220BDE8F081012014
:104F800084F83C0000BF96B9EB68D5E900122068B0
:104F900003F0BCFC2068806920F00C002168886167
:104FA00020688069A9680843216888613DE0042E73
:104FB00013D1EB68D5E90012206803F003FD2068E7
:104FC000806920F440602168886120688069A96850
:104FD00040EA01202168886127E0082E12D1EB68A1
:104FE000D5E90012206803F00AFD2068C06920F0AE
:104FF0000C002168C8612068C069A968084321685D
:10500000C86112E0EB68D5E90012206803F013FDD7
:105010002068C06920F440602168C8612068C069C8
:10502000A96840EA01202168C86100BF002084F817
:105030003C0000BF00BFA0E710B504460CB901203A
:1050400010BD94F83D0028B9002084F83C002046AB
:1050500000F02AF8022084F83D00211D206803F0AA
:1050600079FA012084F8480000BF84F83E0001214D
:105070003F20015540200155412001554220015556
:105080004320015500BF00BF012084F844004520A3
:105090000155462001554720015500BF012084F8E5
:1050A0003D000020CCE7000010B586B00446142176
:1050B00001A8FBF738FC4549206888424DD100BF64
:1050C0004348006840F00200414908600846006813
:1050D00000F00200009000BF00BF00BF3C48103845
:1050E000006840F001003A4910390860084600683D
:1050F00000F00100009000BF00BF00BF084600683C
:1051000040F0020008600846006800F002000090CD
:1051100000BF00BF402001900220029000200390B9
:1051200004900220059001A92A48FDF7F7FA012012
:10513000019002200290002003900490022005902C
:1051400001A92548FDF7EAFA002205211D20FDF7F7
:1051500097FC1D20FDF784FC36E02049206888423A
:1051600032D100BF1A48006840F0080018490860B2
:105170000846006800F00800009000BF00BF00BFB4
:1051800013481038006840F00100114910390860D8
:105190000846006800F00100009000BF00BF052035
:1051A00001900220029000200390049002200590BC
:1051B00001A90848FDF7B2FA002205213220FDF7C7
:1051C0005FFC3220FDF74CFC06B010BD000400402F
:1051D000403802400000024000040240000C004041
:1051E0002DE9F04104460D4615B994F83E0015E04E
:1051F000042D02D13F20005D10E0082D02D1402097
:10520000005D0BE00C2D02D14120005D06E0102D69
:1052100002D14220005D01E04320005D074615B940
:1052200094F844000BE0042D02D14520005D06E017
:10523000082D02D14620005D01E04720005D804638
:10524000012F02D1B8F1010F02D00120BDE8F08199
:105250001DB9022084F83E001AE0042D03D102217A
:105260003F20015514E0082D03D1022140200155B3
:105270000EE00C2D03D102214120015508E0102D34
:1052800003D102214220015502E0022143200155B1
:105290001DB9022084F844000EE0042D03D1022140
:1052A0004520015508E0082D03D102214620015573
:1052B00002E002214720015535B1042D0BD0082D05
:1052C00010D00C2D1CD114E02068C06840F0020002
:1052D0002168C86015E02068C06840F004002168BB
:1052E000C8600EE02068C06840F008002168C8600F
:1052F00007E02068C06840F010002168C86000E046
:1053000000BF00BF01222946206803F08FF91C4925
:10531000206888421BD02068B0F1804F17D019490F
:105320002068884213D01849206888420FD0174956
:10533000206888420BD016492068884207D015495A
:105340002068884203D014492068884210D1206820
:105350008068124900EA0106062E0FD0B6F5803F9C
:105360000CD02068006840F001002168086005E06A
:105370002068006840F0010021680860002065E7AF
:10538000000001400004004000080040000C004004
:1053900000040140004001400018004007000100E7
:1053A00010B5044620680069C0F34000D8B12068F9
:1053B000C068C0F34000B0B16FF00200216808611E
:1053C000012020772068806900F0030018B1204692
:1053D000FEF7D2FD05E0204600F02CF9204600F053
:1053E00016FA0020207720680069C0F38000D8B149
:1053F0002068C068C0F38000B0B16FF0040021687D
:105400000861022020772068806900F4407018B19C
:105410002046FEF7B1FD05E0204600F00BF92046DE
:1054200000F0F5F90020207720680069C0F3C00083
:10543000D8B12068C068C0F3C000B0B16FF00800F8
:1054400021680861042020772068C06900F003000B
:1054500018B12046FEF790FD05E0204600F0EAF87E
:10546000204600F0D4F90020207720680069C0F3BE
:105470000010D8B12068C068C0F30010B0B16FF060
:10548000100021680861082020772068C06900F4B6
:10549000407018B12046FEF76FFD05E0204600F091
:1054A000C9F8204600F0B3F9002020772068006991
:1054B00000F0010058B12068C06800F0010030B170
:1054C0006FF0010021680861204600F043FA20686F
:1054D0000069C0F3C01058B12068C068C0F3C010A4
:1054E00030B16FF08000216808612046FEF7C1FAF4
:1054F00020680069C0F3002058B12068C068C0F37C
:10550000C01030B16FF48070216808612046FEF74A
:10551000AFFA20680069C0F3801058B12068C068F5
:10552000C0F3801030B16FF0400021680861204660
:1055300000F037FA20680069C0F3401058B12068C5
:10554000C068C0F3401030B16FF0200021680861DE
:105550002046FEF78FFA10BD10B586B00446142120
:1055600001A8FBF7E0F92E49206888421CD100BF52
:105570002C48006840F010002A490860084600687E
:1055800000F01000009000BF00BF4FF4D440019025
:10559000022002900020039004900120059001A9B0
:1055A0002148FDF7BBF839E02068B0F1804F35D1D4
:1055B00000BF1C48006840F001001A490860084616
:1055C000006800F00100009000BF00BF00BF084667
:1055D000006840F0020008600846006800F0020021
:1055E000009000BF00BF2020019002200290002008
:1055F000039004900120059001A90C48FDF78EF856
:1056000040F6084001900220029000200390049090
:105610000120059001A90648FDF780F806B010BDED
:1056200000000140303802400010024000000240FB
:1056300000040240704770B504460D46164600BF90
:1056400094F83C00012801D1022070BD012084F8AB
:105650003C0000BF0C2E51D005DC4EB1042E1ED0F4
:10566000082E7AD133E0102E60D0142EF9D175E0D7
:105670002946206803F000F82068806940F008009F
:10568000216888612068806920F0040021688861B1
:1056900020688069296908432168886177E0294684
:1056A000206803F023F82068806940F400602168D6
:1056B00088612068806920F48060216888612068A2
:1056C0008069296940EA0120216888615FE02946F4
:1056D000206803F04BF82068C06940F0080021689A
:1056E000C8612068C06920F004002168C861206892
:1056F000C069296908432168C86148E029462068D3
:1057000003F072F82068C06940F400602168C86145
:105710002068C06920F480602168C8612068C06981
:10572000296940EA01202168C86130E029462068E3
:1057300003F086F82068406D40F008002168486555
:105740002068406D20F00400216848652068406DA5
:10575000296908432168486519E017E0294620684F
:1057600003F096F82068406D40F4006021684865B9
:105770002068406D20F48060216848652068406D95
:10578000296940EA01202168486500E000BF00BFA8
:1057900000BF002084F83C0000BF00BF55E710B5F3
:1057A00004460CB9012010BD94F83D0028B9002032
:1057B00084F83C00204600F029F8022084F83D00DF
:1057C000211D206802F0C6FE012084F8480000BFB9
:1057D00084F83E0001213F20015540200155412021
:1057E0000155422001554320015500BF00BF012053
:1057F00084F84400452001554620015547200155B5
:1058000000BF012084F83D000020CCE770477047BE
:1058100070B504460D4615B994F83E0015E0042D08
:1058200002D13F20005D10E0082D02D14020005D34
:105830000BE00C2D02D14120005D06E0102D02D1BD
:105840004220005D01E04320005D012801D00120DD
:1058500070BD1DB9022084F83E001AE0042D03D16A
:1058600002213F20015514E0082D03D102214020E0
:1058700001550EE00C2D03D102214120015508E015
:10588000102D03D102214220015502E002214320C4
:10589000015501222946206802F0C8FE25492068EA
:1058A000884203D024492068884201D1012000E0C9
:1058B000002028B12068406C40F400402168486412
:1058C0001C49206888421BD02068B0F1804F17D057
:1058D0001A492068884213D01949206888420FD09D
:1058E0001849206888420BD013492068884207D0A5
:1058F00015492068884203D014492068884210D195
:1059000020688068124900EA0106062E0FD0B6F51D
:10591000803F0CD02068006840F0010021680860DA
:1059200005E02068006840F0010021680860002060
:105930008EE7000000000140000401400004004028
:1059400000080040000C00400040014000180040EA
:105950000700010010B50446204601F02DFF034961
:105960002068884201D1FCF7F9FF10BD0014004007
:105970000246002031B1042907D0082908D00C299B
:105980000CD108E01368586B09E01368986B06E0C7
:105990001368D86B03E01368186C00E000BF00BF09
:1059A00070477047704770472DE9F04704462068FC
:1059B000C569206806682068876840F60F0005EA18
:1059C0000009B9F1000F0CD105F0200048B106F034
:1059D000200030B1606E10B12046616E8847BDE88E
:1059E000F087B9F1000F7DD007F0010018B9954894
:1059F00030400028F7D005F0010058B106F480705F
:105A000040B1012021680862D4F8800040F0010014
:105A1000C4F8800005F0020058B107F0010040B161
:105A2000022021680862D4F8800040F00400C4F825
:105A3000800005F0040058B107F0010040B10420D7
:105A400021680862D4F8800040F00200C4F88000A9
:105A500005F0080070B106F0200010B907F0010051
:105A600040B1082021680862D4F8800040F00800A6
:105A7000C4F8800005F4006060B106F0806048B1B1
:105A80004FF4006021680862D4F8800040F02000E4
:105A9000C4F88000D4F8800090B305F0200038B13D
:105AA00006F0200020B1606E10B12046616E88477C
:105AB000D4F880A02068806800F04000402802D020
:105AC0000AF0280028B3204603F008FA206880680E
:105AD00000F04000402818D12068806820F0400085
