:020000040800F2
:1000000078560020A5030008C95A0008C54E00080C
:100010008D5A000885190008596C0008000000007E
:10002000000000000000000000000000E1020008E5
:10003000111B0008000000003D030008355F0008A8
:10004000BF030008BF030008BF030008BF03000888
:10005000BF030008BF030008BF030008BF03000878
:10006000BF030008BF030008BF030008BF03000868
:10007000BF030008BF030008BF030008BF03000858
:10008000BF030008BF030008BF030008BF03000848
:10009000BF030008BF030008BF030008BF03000838
:1000A000BF030008A1600008BF030008BF030008E9
:1000B000BF030008AD600008BF030008BF030008CD
:1000C000BF030008BF030008BF030008BF03000808
:1000D000BF030008956B0008A96B0008BD6B000802
:1000E000131B0008BF030008BF030008BF0300087C
:1000F000BF030008BF030008BF030008BF030008D8
:10010000BF030008BF030008B9600008BF03000870
:10011000F565000809660008C5600008D960000898
:10012000BF030008611A0008BF030008BF030008EE
:10013000BF030008BF030008BF030008BF03000897
:10014000BF030008BF030008BF030008BF03000887
:10015000BF030008BF030008BF030008D16B0008FD
:10016000BF030008BF030008BF030008BF03000867
:10017000BF030008BF030008BF030008BF03000857
:10018000BF030008BF030008BF030008BF03000847
:10019000BF030008BF030008BF030008BF03000837
:1001A000BF030008BF030008BF030008BF03000827
:1001B000BF030008BF030008BF030008BF03000817
:1001C000BF030008BF03000800F002F800F078F851
:1001D0000AA090E8000C82448344AAF10107DA45A2
:1001E00001D100F06DF8AFF2090EBAE80F0013F07C
:1001F000010F18BFFB1A43F0010318473CB300007E
:100200005CB300000A444FF0000C10F8013B13F0FF
:10021000070408BF10F8014B1D1108BF10F8015B5F
:10022000641E05D010F8016B641E01F8016BF9D152
:1002300013F0080F1EBF10F8014BAD1C0C1B09D1A9
:100240006D1E58BF01F801CBFAD505E014F8016B1B
:1002500001F8016B6D1EF9D59142D6D370470000AD
:100260000023002400250026103A28BF78C1FBD8BF
:10027000520728BF30C148BF0B60704766290AF09B
:100280002686642900F08281752900F07F81782913
:1002900000F0B881632900F0E385732900F0E88558
:1002A000002070471FB50AF008FE00F0F7FD0400BB
:1002B000002000210AF042F8E0601FBD10B510BD1B
:1002C00000F008FF1146FFF7EDFF07F07BFC00F0A0
:1002D00026FF03B4FFF7F2FF03BC06F05FFD00004A
:1002E0002D4B19680868B0E8F04F80F30988BFF318
:1002F0006F8F4FF0000080F31188704700000000FE
:1003000008480068006880F308884FF0000080F318
:10031000148862B661B6BFF34F8FBFF36F8F00DFF3
:1003200000BF00BF08ED00E0DFF80C00016841F4F9
:1003300070010160704700BF88ED00E0EFF30980B5
:10034000BFF36F8F144B1A681EF0100F08BF20ED1B
:10035000108A20E9F04F106009B44FF0500072B6D7
:1003600080F31188BFF34F8FBFF36F8F62B609F030
:1003700061FB4FF0000080F3118809BC1968086820
:10038000B0E8F04F1EF0100F08BFB0EC108A80F3F9
:100390000988BFF36F8F704758040020EFF3058082
:1003A000704700000948804709480047FEE7FEE71C
:1003B000FEE7FEE7FEE7FEE7FEE7FEE7FEE7FEE715
:1003C00004480549054A064B704700002D600008A7
:1003D000C90100087850002078560020785200208B
:1003E00078520020704753EA020C00F069802DE932
:1003F000F04B4FF00006002B1FBFB3FA83F503FA52
:1004000005F424FA05F65E4012BF1643B2FA82F5EF
:1004100002FA05F4C5F120051EBF22FA05FC44EAE4
:100420000C04203556EA044C4FEA144418BF641CEF
:100430004FF000084FF00009904271EB030C39D3E4
:10044000002919BFB1FA81F701FA07F6B0FA80F76F
:1004500000FA07F6C7F120071EBF20FA07FC46EA9C
:100460000C062037B6FBF4FCA7EB0507103F07F09E
:100470001F0BCBF120060CFA0BFB2CFA06F644BF3F
:10048000B3460026202FA4BF5E464FF0000B5BEA68
:10049000060C08BF4FF0010B19EB0B09ABFB027CFC
:1004A00048EB0608C01B06FB02CC0BFB03CC71EB30
:1004B0000C01C1E70B46024641464846BDE8F08BB9
:1004C00013B54FF000004FF00001AFF30080BDE81E
:1004D0001C4070470FB4044910B503AA029800F0FD
:1004E000CBFC10BC5DF814FB9C01002070B50446E9
:1004F00085690068C10601D5302600E02026C007C6
:1005000007D070BDD4E9012130469047206A401CD5
:1005100020626D1EF6D570BD70B504468569007801
:10052000C00707D170BDD4E9012120209047206A7F
:10053000401C20626D1EF6D570BD70B50C46054698
:10054000012A05D02878800600D5EA69002302E058
:10055000012305E05B1C934202D2E05C0028F9D144
:10056000A869E618C01AA861286A184428622846B3
:10057000FFF7BCFF04E0D5E9012114F8010B904717
:10058000B442F8D32846FFF7C7FF70BD2DE9F0410C
:100590000646002410687529314616A510D0AFF321
:1005A0000080002802DA404213A507E031688A077C
:1005B00001D512A502E0490704D511A5012401E0E7
:1005C000AFF3008000210A2206F1240709E0B0FB06
:1005D000F2FCB0FBF2F302FB1C00303078541846FA
:1005E000491C0028F3D123462A463046BDE8F04195
:1005F00000F0C4B9000000002D0000002B00000036
:100600002000000070B504460D4621461068AFF387
:1006100000802188090502D50F4A7A4402E00E4A7B
:100620007A440E32002104F1240305E000F00F06A5
:100630000009965D5E54491C0028F7D120780023FC
:10064000000704D5702D02D009B1022311322046D3
:10065000BDE8704000F092B9DEA900002DE9F05F1E
:10066000894604464FF0000ADFF874B1FB44C0F835
:1006700020A02046E1688847002874D0252806D0AD
:10068000D4E901219047206A401C2062F1E700264E
:100690005F462046E16888472028054607DB312D64
:1006A00005D2781910F8200C08B10643F1E7B0071D
:1006B00001D526F00406C4F81CA00027C4F818A031
:1006C0002A2D09D0284606F062FB38B304EB8708D0
:1006D000303DC8F8185019E059F8041B204604EBC7
:1006E00087029161E1688847012F054618D1E069CA
:1006F000002820DA26F020061DE0D8F8180000EBCC
:10070000800005EB40003038C8F818002046E1684A
:100710008847054606F03BFB0028EED1012F0AD0A2
:100720002E2D08D12046E16888477F1C0546022F00
:1007300046F02006C4DBA069002803DA404246F0F8
:100740000106A061F00701D026F010066C2D0BD039
:10075000682D09D04C2D39D06A2D35D0742D35D067
:100760007A2D33D016E038E0E1682F4620468847DE
:10077000B842054609D16C2F26D04FF48060E1685D
:10078000064320468847054604E06C2F1AD04FF4F4
:10079000807006430DB3A5F14100192802D8203519
:1007A00046F400664A462946204626604E46FFF734
:1007B00065FD80B101280BD0F61D26F0070000F181
:1007C000080956E74020E4E78020D8E70020D6E774
:1007D00006F104094DE7284652E7206ABDE8F09F7C
:1007E000B4A90000032A40F2308010F0030C00F09E
:1007F000158011F8013BBCF1020F624498BF11F85B
:1008000001CB00F8013B38BF11F8013BA2F1040213
:1008100098BF00F801CB38BF00F8013B11F003038B
:1008200000F02580083AC0F0088051F8043B083AEF
:1008300051F804CBA0E80810F5E7121D5CBF51F891
:10084000043B40F8043BAFF30080D20724BF11F80B
:10085000013B11F801CB48BF11F8012B24BF00F870
:10086000013B00F801CB48BF00F8012B704710B5E1
:10087000203AC0F00B80B1E81850203AA0E8185098
:10088000B1E81850A0E81850BFF4F5AF5FEA027C59
:1008900024BFB1E81850A0E8185044BF18C918C0C8
:1008A000BDE810405FEA827C24BF51F8043B40F869
:1008B000043B08BF7047D20728BF31F8023B48BF4E
:1008C00011F8012B28BF20F8023B48BF00F8012B8C
:1008D000704702F0FF0343EA032242EA024200F0BB
:1008E00002B84FF000020429C0F0128010F0030C8F
:1008F00000F01B80CCF1040CBCF1020F18BF00F813
:10090000012BA8BF20F8022BA1EB0C0100F00DB8C1
:100910005FEAC17C24BF00F8012B00F8012B48BF1F
:1009200000F8012B70474FF0000200B513469446C3
:100930009646203922BFA0E80C50A0E80C50B1F137
:100940002001BFF4F7AF090728BFA0E80C5048BF4B
:100950000CC05DF804EB890028BF40F8042B08BFE9
:10096000704748BF20F8022B11F0804F18BF00F8E5
:10097000012B704770477047704770472DE9F0476B
:100980000D4699469246044600F1240801688806FF
:1009900004D5E06921F01001216000E00120A842A7
:1009A00001DD471B00E00027A1697A1902EB09006D
:1009B000081AA0612078C00602D42046FFF796FDF1
:1009C000002608E0D4E901211AF806009047206AC1
:1009D000401C761C20624E45F4DB2078C0060AD508
:1009E0002046FFF783FD06E0D4E90121302090473F
:1009F000206A401C2062381EA7F10107F4DC07E0E2
:100A0000D4E9012118F805009047206A401C2062B3
:100A1000281EA5F10105F3DC2046FFF77DFD2078B7
:100A2000000602D50220BDE8F0870120FBE77047F1
:100A30002DE9FF4F0C461E464FF0FF378BB0D2E931
:100A40000001DDF860800A908A46C1F30A5505B9B5
:100A50003D46002108464FF00000BAF1000F00F4B7
:100A6000400005DA00EB80004FF4400101EA50003D
:100A70004FEA9059B9F1010F00DDB9460A9850EAE2
:100A80004A000ED044F61050A5F2FF3545432F140E
:100A9000B8F1000F1ED07542291E1EDDC9F10002FB
:100AA0001CE0B8F1010F4FF0000001D0302103E04D
:100AB000F24305E02154401CB042FBDB30460022EB
:100AC000002121540B99C1F80880C1E900200FB022
:100AD000BDE8F08FBD1B6D1CDEE74A4600DA6942B7
:100AE00006A800F07DFA06AB93E8070003AB83E8A5
:100AF000070050460A9900F04FFB8DE80700A0F56B
:100B000000501F3800900398002D0ADD42F21F01AB
:100B10004A460844002303A90390684600F0B8FD44
:100B200009E0A0F500504A461F38002303A90390AE
:100B3000684600F0C2FD8DE807000004000C03D0F9
:100B40004FF0FF30410800E01046B8F1000F03D02D
:100B50000022009215461EE0751E05D400F0A2F991
:100B6000303262556D1EF9D5B3460122084302D0DA
:100B700000227F1C04E02078302801D100227F1E53
:100B8000002A099784D01DE0112D07DA00F08AF9B8
:100B9000303262556D1C50EA0102F5D1084302D093
:100BA0000098C8B10EE00021681E05E0235C625C7D
:100BB00063542254401E491C8142F7DBAB46A81BFC
:100BC000401E0990002004F80B000B98099AC0F809
:100BD0000880C0E9002B7AE711264FF0000857E79C
:100BE0002DE9F04F88460446D21D22F0070191B04E
:100BF000D1E90001CDE90A0106F096F802460B980A
:100C0000C00F01D02D2007E02068810701D52B20DF
:100C100002E0202101EAC000032A099001D0072A3E
:100C200005DB03464146204600F09AF90BE12078A7
:100C3000800601D5E06900E00620B8F1650F814625
:100C400006D0B8F1660F18D0B8F1670F70D131E057
:100C50000020B9F1110F009001DB112301E009F12F
:100C600001030AAA01A90CA8FFF7E2FEDDE90C7056
:100C7000002609F10105834647E001204B4600901C
:100C80004FF000470AAA01A90CA8FFF7D1FEDDE941
:100C90000DB00C995D46002610B909F101000D1840
:100CA000B9EB050003D4C0F1FF3609F10105A5EB4E
:100CB00009002BE0B9F1010F01DA4FF00109002022
:100CC000B9F1110F0090484601DD112300E0034601
:100CD0000AAA01A90CA8FFF7ABFEDDE90C704D468E
:100CE00000268346207800070AD4AB4500DA5D462B
:100CF00001A8012D04DD411911F8011C302907D08C
:100D00004F4502DA17F1040F04DA012082460FE0A2
:100D10006D1EEEE7002F02DCED1B3E4403E0781C65
:100D2000A84200DD7D1CB81B00F1010A4FF000470E
:100D30002078000703D4AA4501DB4FF0FF3A0021D9
:100D4000B7F1004F0DF143088DF8431024D0022075
:100D50002B23002F01DA7F422D230A21021EA0F14E
:100D6000010000DC5FB197FBF1FC97FBF1F201FBA6
:100D70001C7C17460CF1300C08F801CDEEE7A8F109
:100D8000010003702188090501D5452100E0652196
:100D9000A0F1010800F8011C09980FA9A1EB0807B0
:100DA000FF1D00B10120411901EBEA70A16938442F
:100DB000081A401EA0612078C00602D42046FFF722
:100DC00095FB099828B1D4E901219047206A401C7D
:100DD00020622078C00622D52046FFF787FB1EE060
:100DE000002E04DBB34502DD01A8805D00E0302069
:100DF000D4E901219047206A401C2062761CAAF1A8
:100E000001005FEA000A0AD100F048F8C0680168F2
:100E1000405CD4E901219047206A401C2062281ED2
:100E2000A5F10105DCDC07E0D4E9012118F8010B8C
:100E30009047206A401C2062381EA7F10107F3DCAE
:100E40002046FFF769FB032011B041E610B5436966
:100E500013B1AFF3008001E0FFF76FFB012010BD7D
:100E6000127800F124010A7000224A700122EDE795
:100E700011684FF0FF32E9E7074B70B50D467B4430
:100E800000F05BF80446284600F01CF910B14FF062
:100E9000FF3070BD204670BD936A00000048704767
:100EA0003450002030B5B0F10A024FEA900E71F1D3
:100EB00000034EEA817EB0EB0E0061EB91014FEA38
:100EC000101E4EEA017E10EB0E0041EB11114FEAAD
:100ED000102E4EEA016E10EB0E0041EB11214FEA8D
:100EE000104E4EEA014E10EB0E0041EB114140183E
:100EF00041F100014FEAD00040EA41704FEAD101D0
:100F000010EB80054FEA810444EA907444EB01043D
:100F10006D1944EB0404521BA3414FF0000348BF7A
:100F20000A3200D530BD401C41F1000130BD000047
:100F300001694A1C02610878704700B58FB0CDE99D
:100F400001310021059105497944CDE9031011468D
:100F50006846FFF783FB0FB000BD0000E5FFFFFF11
:100F60002DE9F0411F46044603260168072A01F4D3
:100F7000006004DB08B116A505E016A503E008B182
:100F800015A500E015A521F010002060A069C01E85
:100F9000A0610FB1401EA0612046FFF7A7FA4FB134
:100FA000D4E9012138469047206A401C2062C01CC9
:100FB000206206E0206AFAE7D4E9012115F8010B66
:100FC0009047761EF8D22046FFF7A6FABDE8F081DA
:100FD0004E414E006E616E00494E4600696E6600DD
:100FE0002DE9F047814616468AB0354878440DC849
:100FF0008DE80D0032487844801C03AC0DC884E8AD
:101000000D0041F69B300844372190FBF1F290FB34
:10101000F1F5A5F1800501FB12041B3C02D56442E9
:10102000012000E00020DFF898A080460027FA4465
:10103000AAF1BE0A0EE0E0070AD03246684607EB86
:10104000470101230AEB810100F037FB8DE807001F
:1010500064107F1C002CEED1194F7F44AE3F19E085
:10106000E80715D007EB04100DF1180A90E80E0000
:101070008AE80E00C068F04201D198190890324603
:10108000012306A903A800F018FB03AB83E80700BF
:101090006D10641C002DE3D14FF001033246694608
:1010A000B8F1000F03A802D000F0F2FA01E000F05E
:1010B00004FBC9E90001C9F808200AB0BDE8F087BF
:1010C000C4A00000007B00F080007047004870471B
:1010D000145000207546FFF7F9FFAE46050069463B
:1010E000534620F00700854618B020B5FFF768F991
:1010F000BDE820404FF000064FF000074FF0000819
:101100004FF0000B21F00701AC46ACE8C009ACE899
:10111000C009ACE8C009ACE8C0098D46704710B5FD
:101120000446AFF300802046BDE81040FFF7D1B879
:101130004FF0013C50F8042B51F8043B9A4215D172
:10114000A2EB0C03934313EACC130BD150F8042BFE
:1011500051F8043B9A4209D1A2EB0C03934313EAE2
:10116000CC13E7D04FF00000704700BFD01A01BA8F
:10117000B1FA81F101F0180122FA01F0CB40C1F17E
:101180002001DBB2C0B2C01A2CFA01F3D11A91438C
:1011900011EAC311E6D170475FEA400C08BF91F035
:1011A000000F4FEA8C234FEAC12243EA51514FEA24
:1011B0001C5018BF00F5F0404FEA300018BF41F056
:1011C00000415FEA6C5C00F02980BCF1FF3F08BF82
:1011D00040F080407047130C06BF12044FF0100C13
:1011E0004FF0000C130E04BF12020CF1080C130F89
:1011F00004BF12010CF1040C930F04BF92000CF118
:10120000020CD30F04BF52000CF1010C11464FF039
:101210000002A0F11F00A0EB0C00704711F0004F7E
:1012200008BF704731F000413FF4D5AF0B0C06BF4B
:1012300009044FF0100C4FF0000C0B0E04BF090214
:101240000CF1080C0B0F04BF09010CF1040C8B0FFF
:1012500004BF89000CF1020CCB0F04BF49000CF154
:10126000010CCCF12003A0EB0C0022FA03F302FAEC
:101270000CF241EA030100F10100704720F07F4CBD
:1012800080EA030023F07F47ACEB070303F57C53B0
:1012900000F0004003F1FF032DE980494FEA154BB0
:1012A00009B44FEA144325EA0B4E24EA03480FF22F
:1012B000042606EB132749083E785FEA320203FB57
:1012C0000667C7F5000707FB06F64FEA54374FEAF3
:1012D000D64606F1020607FB066CCCF1005C4FEA2D
:1012E0001C472CEA074C07FB06F40CFB06F504EB45
:1012F00015464FEA961634BF00204FF000404FEAE3
:10130000D13706FB07FC4FEA1C4C0CFB0BF7D21B3A
:1013100003FB0CF761EB07010CFB0EF7B0EB07408A
:1013200072EB17420CFB08F734BFA2EB0742B2EB9B
:10133000074261EB17414FEA0C444FEA910706FB65
:1013400007FC4FEA1C4C0CFB0BF7B0EBC74072EBF1
:10135000573203FB0CF734BFA2EBC742B2EBC742D4
:1013600061EB57310CFB0EF7B0EBC70072EB577215
:101370000CFB08F734BFA2EBC702B2EBC70261EB6C
:101380005771039F4FEA816141EA921104EBCC044B
:101390004FEAD1374FEA826206FB07FC42EA90121D
:1013A0004FEA80604FEA1C4C0CFB0BF7D21B03FB8F
:1013B0000CF761EB07010CFB0EF7B0EB074072EB8B
:1013C00017420CFB08F734BFA2EB0742B2EB07420F
:1013D00061EB17414FEA8C554FEA910704EB9C24CF
:1013E00006FB07FC4FEA1C4C0CFB0BF7B0EBC740AD
:1013F00072EB573203FB0CF734BFA2EBC742B2EBE0
:10140000C74261EB57310CFB0EF7B0EBC70072EB34
:1014100057720CFB08F734BFA2EBC702B2EBC7024E
:1014200061EB577115EB4C254FEA816141EA92114E
:101430004FEA82624FEAD13742EA901206FB07FC7C
:1014400044F100044FEA80604FEA1C4C0CFB0BF7A0
:10145000D21B03FB0CF761EB07010CFB0EF7B0EBA3
:10146000074072EB17420CFB08F734BFA2EB0742B0
:10147000B2EB074261EB174115EB1C154FEA8131C6
:1014800041EA92414FEA823242EA90424FEA80308A
:101490004FEA0C7644F1000448EA03434EEA0B4855
:1014A0004FF0000EB2EB080C71EB030724BF62464D
:1014B00039464EEB0E0E4FF0000B001852414941D9
:1014C0004BEB0B0BB2EB080C71EB03077BF1000B42
:1014D00024BF624639464EEB0E0E4FF0000B00184B
:1014E000524149414BEB0B0BB2EB080C71EB03077C
:1014F0007BF1000B24BF624639464EEB0E0E51EADB
:10150000020718BF46F0010616EB0E7655F10002F1
:1015100054F1000103D5BDE88901BDE80088BDE8AC
:101520008901BDE80048B619524141EB0101A3F120
:101530000103704780807F7E7D7C7B7A7978777627
:1015400076757473727171706F6E6E6D6C6C6B6AA0
:101550006A6968686766666564646363626161603E
:10156000605F5F5E5E5D5D5C5C5B5B5A5A595958BB
:101570005857575656555555545453535252525125
:10158000515050504F4F4F4E4E4D4D4D4C4C4C4B7B
:101590004B4B4A4A4A4949494848484747474746C2
:1015A00046464545454444444443434343424242FE
:1015B00042414141002B9C4630D477002BD01CB5D2
:1015C0004FEA370703B44FF010004FF01001BAF1A3
:1015D000000F06D0BCF1000FDCBF40F0080040F067
:1015E00008014FF000000FBCBDE810400BF1010BEB
:1015F000BBF1010F08BF5FEA170722BF12F101021A
:1016000011F101014FF0004143F1000300F00040EF
:1016100043EA00007047F9D35708D0E746EA064688
:1016200013F1400F4FEA16461FDD13F1200FDFBF05
:1016300016430A46002120335B42BED0C3F1200787
:1016400046EA064602FA07F74FEA164646EA070652
:10165000C3F1200722FA03F201FA07F721FA03F196
:101660004FF0000342EA0702A7E746EA020646EA0D
:1016700006464FEA164646EA0106BCBF46EA06465B
:10168000360C4FF000034FF000024FF0000194E7DA
:101690002DE9804C9A46934670B491E8380007C80B
:1016A00031EA400C48BF34EA430C03D5FFF7E6FDAE
:1016B000FFF780FFF0BCBDE8008C2DE9804C9A4616
:1016C000934670B491E8380007C810F0804F08BF07
:1016D00013F0804F03D100F005F8FFF76BFFF0BC6B
:1016E000BDE8008C20F07F4780EA030023F07F4CA8
:1016F00007EB0C03A3F57C5300F00040A3F1FE03BD
:1017000092F0000F00F0B38095F0000F00F07780AA
:101710002DE901494FEA11404FEA144621EA0048F9
:1017200000FB06FC24EA064708FB06F607FB08F860
:1017300000FB07F718EB06484CEB164C4FEA124B30
:1017400018EB07484FEA15464CEB174022EA0B4EC0
:101750000BFB06FC25EA06470EFB06F607FB0EFE12
:101760000BFB07F71EEB064E4CEB164C4FF000063A
:101770001EEB074E4CEB174B18EB0B0840F100002B
:1017800018EB0E0B58EB000840F100008F1A4FF0D9
:1017900000013CBFC943661B14BFB5EB040C00211C
:1017A0003CBFC943F61B4FEA17444EEA8E0E27EAA8
:1017B00004454FEA1C4704FB07622CEA074C05FB73
:1017C00007F70CFB05F604FB0CFC16EB074642EB97
:1017D000174216EB0C4642EB1C421BEB060658EB7D
:1017E0000202414146EA9E0601D5BDE80189B619CB
:1017F000524141EB0101A3F10103BDE801894FEA28
:1018000014454FEA114724EA054621EA074C05FB37
:1018100007F406FB07F70CFB06F105FB0CFC11EBCC
:10182000074144EB17444FEA124711EB0C4144EBDC
:101830001C4422EA074C05FB07F206FB07F70CFBEA
:1018400006F605FB0CFC16EB074642EB174216EBBF
:101850000C4642EB1C456A1854F1000148BF704722
:10186000B619524141EB0101A3F10103704795F014
:10187000000F37D04FEA11424FEA144721EA0246DF
:1018800024EA074C02FB07F106FB07F70CFB06F402
:1018900002FB0CFC14EB074441EB17414FEA1547E0
:1018A00014EB0C4441EB1C4125EA074C02FB07F505
:1018B00006FB07F70CFB06F602FB0CFC16EB0746D3
:1018C00045EB174516EB0C4645EB1C42121951F13E
:1018D000000148BF7047B619524141EB0101A3F125
:1018E000010370474FEA14454FEA114724EA0546C1
:1018F00021EA074C05FB07F106FB07F70CFB06F294
:101900004FF0000605FB0CFC12EB074241EB1741C0
:1019100012EB0C4251EB1C4148BF7047921841EB4F
:101920000101A3F1010370470448006800680168E1
:1019300041F020010160002004F000BA24000020E2
:1019400070B5FF280E4604D9BDE87040022000F0B3
:10195000ADBA0B4C4721651D227951552179491C9F
:10196000217100F015F82179462048552079401C56
:101970002071304600F00CF8BDE8704004F0BCB9AE
:1019800098000020FEE700218170C17070470000C0
:10199000FEB5174900231A4601F10504009301938F
:1019A000029390B10A256B4690FBF5F6074690FB33
:1019B000F5F005FB1676571C303623F812603AB264
:1019C0000028F1D1521E10B20FE0087903550879B2
:1019D000401C0871FEBD00BF0D7913F81020401E99
:1019E00000B22A550A79521C0A710028F4DAFEBDA9
:1019F00098000020012810B502D0022810D01DE068
:101A000000226FF02700114606F0AAFE02E00A202D
:101A100006F01DFA114800F0F3FA0128F7DD0DE099
:101A200000222820114606F09BFE02E00A2006F064
:101A30000EFA0A4800F0E4FA0128F7DD0022114608
:101A4000104606F08DFE0121084607F027F8BDE894
:101A500010404FF47A7006F0FAB900000C11002023
:101A6000014800F0B1BB0000B40C0020016818234D
:101A7000CAB2103AB2FBF3F2054B6FF30901032A25
:101A80009B5CC36500D9091D81650846704700004D
:101A9000F4AF000810B583694FF0C074826A014644
:101AA000002053B1B3F5005F15D072B1012A0CD0FC
:101AB000022A0AD0032A09D104E01AB1012A06D069
:101AC000022A03D1C96AC90100D5012010BDC96A23
:101AD000A142FAD010BD002AF7D0012AF2D0022A82
:101AE000F3D0032AF3D010BD30B50468256825F47F
:101AF00080252560046863608368402B036803D0F9
:101B000099600068C26030BD9A600068C16030BDF5
:101B1000704710B505F072FABDE810404FF4005060
:101B200000F0E6BC2DE9F0412DED0A8B05F084FDB7
:101B3000CF480027CF4C0126CF49D04AD04BD0F810
:101B400000C09FEDD0AB9FEDD18BD24D9FEDD29BCE
:101B5000C4F824C0D4F830C0BCF1010F03D0BCF1EC
:101B6000020F7DD076E181F8407082F8406083F802
:101B700040609FEDCBBB616B002972DA4942804621
:101B8000C4F83410D8F80000616A401A322815D918
:101B900095ED000B53EC182B51EC100B08F0D6FC14
:101BA00041EC1C0B606B08F086FE53EC1C2B09F01B
:101BB00029F853EC1A2B08F0A9FED3D395ED000BAE
:101BC00053EC182B51EC100B08F0C0FC41EC1C0B33
:101BD000606B08F070FE53EC1C2B09F013F853EC0B
:101BE0001B2B08F0CDFF11D2B0EE480AF0EE680AC8
:101BF00053EC102B95ED000B51EC100B08F0A6FCEC
:101C000041EC1C0B606B08F056FE10E0606B08F0B6
:101C100052FEB0EE480AF0EE680A53EC102B95ED38
:101C2000000B41EC1C0B51EC100B08F08FFC53EC3B
:101C30001C2B08F0E7FF08F097FB41EC100B53EC6E
:101C4000192B84ED0E0B08F09DFE41EC100B84ED7A
:101C5000100B08F0D3FD03F04FF908F02CFE01E063
:101C600089E00DE041EC100B84ED100B08F0C6FD8F
:101C70000022114606F074FD052006F0E8F881E721
:101C80004FEA0008D8F80000616A401A322815D9D6
:101C900095ED000B53EC182B51EC100B08F056FC93
:101CA00041EC1C0B606B08F006FE53EC1C2B08F09B
:101CB000A9FF53EC1A2B08F029FE7CD395ED000BFD
:101CC00053EC182B51EC100B08F040FC41EC1C0BB2
:101CD000606B08F0F0FD53EC1C2B08F093FF53EC05
:101CE0001B2B08F04DFF11D2B0EE480AF0EE680A47
:101CF00053EC102B95ED000B51EC100B08F026FC6B
:101D000041EC1C0B606B08F0D6FD10E0606B08F036
:101D1000D2FDB0EE480AF0EE680A53EC102B95EDB8
:101D2000000B41EC1C0B51EC100B08F00FFC53ECBA
:101D30001C2B08F067FF41EC100B53EC192B84EDC2
:101D40000E0B08F01FFE41EC100B84ED100B08F099
:101D500055FD03F0D1F808F0AEFD41EC100B84ED19
:101D6000100B08F04BFD0022114606F0F9FC05208F
:101D700006F06DF886E781F8406082F8407083F8DD
:101D80004070616B002905DA4FF0FF322262494250
:101D9000616300E026628046D8F80000616A401A5C
:101DA000322817D995ED000B53EC182B51EC100B82
:101DB00008F0CCFB00E04DE041EC1B0B606B08F041
:101DC0007AFD53EC1B2B08F01DFF53EC1A2B08F087
:101DD0009DFD3FD395ED000B53EC182B51EC100BF0
:101DE00008F0B4FB41EC1B0B606B002800DC4042A8
:101DF00008F061FD53EC1B2B08F004FF41EC100BC5
:101E000004F0BBFF84ED0E0B53EC192B51EC100BBF
:101E100008F0B8FD41EC100B84ED100B08F0EEFC5F
:101E200003F06AF808F047FD41EC1B0B84ED10BB92
:101E3000206A08F040FD53EC1B2B08F0A3FD08F0CE
:101E4000DDFC00220146104606F08AFC052005F064
:101E5000FEFFA1E700221146104606F081FCA660B5
:101E6000206907F027FD2761BDEC0A8BBDE8F081F2
:101E700088010020200200200C11002050110020B9
:101E8000941100200000000000000040000000004D
:101E90000000244010020020000000000000144058
:101EA000000000000000000072B6FEE7012805D027
:101EB000022805D003A000BFFEF70CBB06A0FBE77D
:101EC00009A0F9E7B6E6BFD8B7A2C9FACEB4D6AA38
:101ED000B4EDCEF30D0A0000BDC7B6C8D6B5B3AC9D
:101EE000CFDED6C60D0A0000B6AFD7F7D7E9B1E00E
:101EF000BAC5B3ACCFDED6C60D0A000007494968A3
:101F000011B9411E042902D34FF0FF307047034935
:101F1000143101EB400030F9020C704770020020D0
:101F20000148007C704700002400002004484188DC
:101F300019B1002141800120704700207047000046
:101F40003C0000200549496811B14FF0FF3070474F
:101F5000034901EB400030F9020C70477002002089
:101F600014130020114838B5016841F010010160D8
:101F700000686B230E4A002400F0100000900D480A
:101F8000802142F20F75816180E83C0001F088FAFF
:101F900000220521362000F02BFC362000F01AFC30
:101FA000BDE83840034801F02DBB00004038024036
:101FB00000100040D00F002070B502780E490F4B82
:101FC00062B9012202704D6A002440F271265A68FB
:101FD000724305EB02128260C460426040F27124D9
:101FE000826842604D6A5968614305EB01118A1AA3
:101FF000C0E9021270BD0000001000408401002002
:10200000407870470448D0ED030A416891ED000A1A
:1020100030EE200A04F0C4BE24000020962140F6D1
:10202000C412022010B505F0E3FE0120FFF7E2FC28
:10203000012303211A46022005F00AFC02E00A20CF
:1020400005F005FF05F0ACFC0028F8D04FF4FA7459
:10205000204605F0FCFE1421012005F091FE02E06F
:102060000A2005F0F4FE05F0A1FC0028F8D0204677
:1020700005F0EDFE962140F27E42012005F0B8FE0B
:10208000012004F0EBFD002003F058FE012108467A
:1020900002F0E2FE012004F0E1FD002003F04EFE1C
:1020A0000121022002F0D8FE02206FF0C70105F0E6
:1020B00067FE02E00A2005F0CAFE05F077FC002862
:1020C000F8D0B421012006F007FD02E00A2005F057
:1020D000BEFE05F0D5FC0028F8D04FF4967005F050
:1020E000B6FE012300220321022005F0B1FB02E02D
:1020F0000A2005F0ACFE05F053FC0028F8D020467D
:1021000005F0A5FEB421BDE81040012006F0E4BCB6
:102110002DE9F041876D044600F0ECFA064694F88C
:1021200035000025022806D080206065012084F853
:102130003450BDE8F0812068016821F0160101608B
:102140002068416921F080014161206C08B9A06CD0
:1021500020B12068016821F0080101602068016851
:1021600021F0010101600CE000F0C4FA801B052899
:1021700007D920216165032084F8345084F83500A4
:10218000D7E720680068C007EED194F85C203F20B4
:1021900001219040B86084F8345084F83510002054
:1021A000C7E790F83510022903D08021416501204E
:1021B0007047052180F835100068016821F00101A1
:1021C00001600020704700002DE9F84304464FF0FD
:1021D0000009644B0820CDF800904FF41652A56D0D
:1021E00094F85C101B682E68B3FBF2F700FA01F15B
:1021F00031420FD021680A6852070BD50A6822F0D5
:1022000004020A6094F85C108840A860606D40F099
:102210000100606594F85C104FF0010808FA01F0C5
:10222000304208D021684969090604D5A860606D6C
:1022300040F00200606594F85C1004208840304251
:1022400008D021680968890704D5A860606D40F04E
:102250000400606594F85C1010208840304218D06B
:1022600021680968090714D5A86020680168490336
:1022700004D50068000308D5A16C07E00168C90512
:1022800003D4016821F008010160216C09B12046E6
:10229000884794F85C1020208840304231D0216873
:1022A0000968C9062DD5A86094F83500052820686E
:1022B000016806D0490347D5006800031DD4616C4E
:1022C0001CE021F0160101602068416921F08001C5
:1022D0004161206C08B9A06C20B12068016821F030
:1022E0000801016094F85C303F229A40AA6084F8AB
:1022F000349084F83580216D1FE0E16B09B12046F0
:102300008847606D00282BD0606DC00714D0052071
:1023100084F835002068016821F00101016000980F
:10232000401C0090B84203D820680068C007F6D16E
:1023300084F8349084F83580E16C002910D001B025
:102340002046BDE8F04308470168C905D5D40368B5
:1023500023F01003036084F8349084F83580CCE7D0
:10236000BDE8F883540400202DE9F047044600F04E
:10237000C1F9054664B14FF0000984F83490022198
:1023800084F835102068016821F0010101600EE039
:102390000120BDE8F08700BF00F0ACF9401B052824
:1023A00005D920216165032084F83500F1E7206814
:1023B0000068C007F0D1D4E90020D4E90251D4E983
:1023C000043C284304F1180519430843116895E8B3
:1023D000E00140EA0C001C4B2843194040EA06008B
:1023E00040EA0700B8F1040F40EA010003D1D4E944
:1023F0000B1319430843106020680126656A406981
:10240000042D20F0070045EA00050CD1D4E90A01AB
:10241000054341B12046FFF73DFB20B140206065F8
:1024200084F83560B4E7206845612046FFF71EFB5D
:1024300094F85C303F229A408260C4F8549084F84B
:1024400035600020A5E700003F8010F02DE9F04145
:10245000044690F8340000250128A66D0ED094F8AB
:1024600035C00127002084F83470BCF1010F07D07B
:10247000022584F834002846BDE8F0810220FBE7FD
:10248000022784F8357060652046FFF72DFB94F82D
:102490005C103F208840B0602068016841F0160160
:1024A00001602068416941F080014161206C20B1E8
:1024B0002068016841F0080101602068016841F06E
:1024C00001010160D7E7000070B5044600F012F981
:1024D0000546601C02D004480078044400F00AF964
:1024E000401BA042FAD370BDB80400207047000022
:1024F000044910B50A68024202D00860FFF7F6FFEF
:1025000010BD0000143C01402DE9F84F00224FF0AF
:1025100001094FF0030A4FF00F0E00BF0B6809FAD4
:1025200002F42340A34270D14D68012D05D0022D45
:1025300003D0112D01D0122D11D185685700CE681E
:102540000AFA07FC25EA0C05BE402E438660456862
:102550000E79A543C6F3001696402E434660C56823
:1025600056008F680AFA06F4A543B7402F43C760A8
:102570004D68022D01D0122D12D1D5080F694FEAF6
:10258000427C00EB8505AB462D6A4FEADC6C0EFA07
:102590000CF807FA0CF725EA08052F43CBF8207052
:1025A0000D79076805F00305A743B5403D43056075
:1025B0004C68E40074D53D4C256845F480452560A1
:1025C000246822F00307960704F480440094384CF2
:1025D000360F2744D7F80848DFF8D8C00EFA06F5BA
:1025E000604524EA050401D100252EE0324DA842C1
:1025F00001D1012529E0314DA84201D1022524E075
:102600002F4DA84202D103251FE049E02D4DA842DD
:1026100001D1042519E02C4DA84201D1052514E073
:102620002A4DA84201D106250FE0294DA84201D12B
:1026300007250AE0274DA84201D1082505E0264DCF
:10264000A84201D1092500E00A25B540234E2543C3
:10265000C7F808584D683468ED0324EA030400D530
:102660001C431E4D34602D1D4E682C68B60324EAB1
:10267000030400D51C43194E2C6008364D6834689D
:10268000ED0224EA030400D51C43144D34600C35DC
:102690004E682C68B60224EA030400D51C432C6063
:1026A000521C102AFFF43AAFBDE8F88F44380240BC
:1026B00000300140000002400004024000080240D7
:1026C000000C0240001002400014024000180240BA
:1026D000001C02400020024000240240003C014057
:1026E0000069084000D0012070470AB1816170473D
:1026F0000904FBE70148806870470000B804002027
:10270000024881680278114481607047B804002053
:10271000032010B500F08CF80F2000F005F800F051
:102720003DF8002010BD000010B500220146372002
:1027300088B000F05DF8372000F04CF813480168CD
:1027400041F020010160006805A900F0200006901A
:10275000684600F0CBFB00F0E9FB0D494000002289
:102760000C4CB0FBF1F10C4840F2E7330460C0E9D7
:102770000332491EC0E9011200F092FE10B101209F
:1027800008B010BD044800F03DFFF9E740380240B2
:1027900040420F0000140040140D00200C4882B08D
:1027A000016841F080510160006800F080500090A5
:1027B0000748001D016841F4804101600068002263
:1027C0000F2100F480400090901E02B000F010B87D
:1027D00040380240002809DB410900F01F0289004F
:1027E000012001F1E0219040C1F800017047000094
:1027F0000E4BF0B41B680D46C3F30223C3F107066A
:10280000042E00D90426191D072901D2002300E057
:10281000DB1E012404FA06F19C40491E2940641E77
:10282000994014402143F0BC04F096BA0CED00E04E
:10283000064900F0070210B54FF6FF040868044B84
:10284000204040EA02201843086010BD0CED00E073
:102850000000FA051848F8B5016841F080510160A0
:102860000068164C00F080500090206840F48030E2
:102870002060FFF73FFF4FF47A76054605E000BF82
:10288000FFF738FF401BB0420FD86068C003F7D590
:10289000206840F400302060FFF72CFF054606E07A
:1028A000FFF728FF401BB04201D90320F8BD606844
:1028B0008003F5D50020F8BD40380240007000408C
:1028C0002DE9F84F04460078DFF824944FF0000615
:1028D0003746C0070ED0D9F8001021F40001C9F81E
:1028E0000010D9F80010626B1143C9F80010606B3A
:1028F00000B90126FE4D2068843500030ED5E16B3A
:10290000286820F4401008432860E06BB0F5801F71
:1029100001D010B102E0012600E0012720684FF449
:10292000800BC0020CD5216C286820F440000843BD
:102930002860206C584501D1012601E000B901272B
:102940002068C10100D50126800666D5E8483830E8
:10295000016841F0805101600068DFF898A300F041
:1029600080500090DAF8001041F48071CAF800102D
:10297000FFF7C0FE804605E0FFF7BCFEA0EB0800B5
:1029800064287DD8DAF80000C005F5D5DFF860834B
:1029900008F16808D8F8000010F440702AD0218EA1
:1029A00001F44071814225D0D8F80010D8F80020F9
:1029B00021F4407142F48032C8F80020D8F8002099
:1029C00022F48032C8F80020C8F80010D8F80000BF
:1029D000C0070FD0FFF78EFE824607E0FFF78AFEA2
:1029E000A0EB0A0141F288308142CAD8D8F8000031
:1029F0008007F3D5206BC0F3012103297ED0D9F8DD
:102A0000001021F4F811C9F80010228ED8F8001037
:102A1000C2F30B021143C8F800102078C00607D596
:102A2000286820F0807028602868A16B084328601F
:102A30002188AF488830490405D5626E016821F4C9
:102A40004031114301602188090405D5A26E016857
:102A500021F44021114301602168C90305D5E26ECC
:102A6000016821F44011114301602168890305D5F3
:102A7000226F016821F4400111430160217800E0D8
:102A800016E1490605D5626C016821F00301114386
:102A900001602178090605D5A26C016821F00C01BE
:102AA000114301602188C90505D5E26C016821F058
:102AB0003001114301602188890505D5226D016827
:102AC00021F0C001114301602188490505D5626DDF
:102AD000016821F44071114301602188090505D581
:102AE000A26D016821F44061114301602188C9048D
:102AF00007D5E26D016821F4405100E04AE011433E
:102B000001602188890405D5226E016821F44041C5
:102B1000114301602168490205D5A26F016821F0C7
:102B200080611143016021684FF0006A890209D574
:102B3000E26F016821F0006111430160E16F5145CE
:102B400000D1012721680A0700D50127490305D5CF
:102B5000626F016821F04071114301602168090230
:102B600006D5D4F88020016821F08051114301601E
:102B7000DFF88491012E02D0206880017ED5D9F83B
:102B800000004E4620F08060C9F80000FFF7B2FD5B
:102B900080460FE0594AD9F80030104023F4F8126B
:102BA0000243C9F8002030E7FFF7A4FDA0EB0800BE
:102BB00064287DD830680001F6D421784C487C30F8
:102BC000C90712D0616B81B9237A62680168D0F8B5
:102BD00000C09201C1F3014142EA0142CCF303611A
:102BE00042EA016141EA0371016021680A0303D5E9
:102BF000E26BB2F5801F04D0C9021AD5216C594589
:102C000017D16368016894F80CC002689B01C1F396
:102C1000014143EA0141C2F3027241EA0C6141EA17
:102C2000027101602968626A21F01F01521E11437E
:102C300029602168C90110D5238A62680168D0F82B
:102C400000C09201C1F3036142EA034242EA016219
:102C5000CCF3027142EA01710160216889010CD54F
:102C60006168228A237B94F808C0890141EA024105
:102C700041EA036141EA0C71016000E011E0316852
:102C8000B04641F080613160FFF734FD064604E054
:102C9000FFF730FD801B64280AD8D8F80000000137
:102CA000F6D56FB3D9F800004E4620F0805000E012
:102CB0007BE0C9F80000FFF71DFD074605E000BFF7
:102CC000FFF718FDC01B64286FD83068C043800030
:102CD000F6D50748216880300A0301D5E26B1AB1A6
:102CE000C90225D5216C19BB63690168277E08E0FC
:102CF000083802400070004000380240FFFCFF0F1F
:102D00005AE00268C1F301419B0143EA0143C2F367
:102D1000027143EA076242EA0171016029686FF0BB
:102D2000FF03A26A21F4F85103EB02221143296048
:102D30002168890212D5E16F51450FD1238C626958
:102D4000016807689201C1F3036142EA034242EA63
:102D50000162C7F3027142EA01710160217809073B
:102D600016D561690268D0F800C08B01277FC2F3D5
:102D70000362CCF3014143EA014141EA026141EAC5
:102D8000077101602868E16A20F440300843286038
:102D9000306840F080503060FFF7ACFC044607E03C
:102DA000FFF7A8FC001B642802D90320BDE8F88FB8
:102DB0003068C0438000F3D40020F7E72DE9F047E6
:102DC00005000F4663D0444E306800F00F00B84253
:102DD00009D2306820F00F0038433060306800F0CE
:102DE0000F00B84253D128683C4C810712D54007E8
:102DF00003D5206840F4E05020602878000703D510
:102E0000206840F460402060A968206820F0F0004D
:102E1000084320602878C0072AD0304968680839FC
:102E2000012810D00968022810D0890700292EDA5D
:102E3000216821F0030101432160FFF75BFC80461C
:102E400041F288390DE009688903EFE78901EDE770
:102E5000FFF750FCA0EB0801494502D90320BDE86B
:102E6000F0876868216801F00C01B1EB800FEFD1A9
:102E7000306800F00F00B8420BD9306820F00F0026
:102E800038433060306800F00F00B84201D00120B4
:102E9000E5E72878400705D5E968206820F4E05088
:102EA000084320602878000706D52869216821F4A6
:102EB000604141EAC000206000F058F82168084AEB
:102EC000C1F30311515CC840064908600648006818
:102ED000FFF72AFC0020C2E7003C0240083802400D
:102EE000DCAF000854040020BC0400200D4A0F236E
:102EF00030B503604FF4E0540B4B156805F0030543
:102F00004560156805F0F0058560156805F4E05525
:102F1000C560126804EAD2020261186800F00F006E
:102F2000086030BD08380240003C024004490548B2
:102F300009680068044AC1F38221515CC8407047A7
:102F40000838024054040020ECAF0008044905484A
:102F500009680068044AC1F34231515CC8407047B7
:102F60000838024054040020ECAF0008154910B5A1
:102F70001548096811F00C0213D01449042A0FD027
:102F8000082A0ED10F4C241F2268236802F03F024A
:102F90005B0207D52068C0F38810A0FB010106E0A2
:102FA000084610BD2168C1F38811A1FB0001002370
:102FB000FDF719FA2168C1F30141491C4900B0FB32
:102FC000F1F010BD083802400024F40040787D0183
:102FD0002DE9F84F04004FF000076ED02078DFF89D
:102FE00068A3AAF10408C007A8F104054CD0DAF8D8
:102FF00000105046C1F38101012908D00068C0F3D8
:10300000810002280AD1D8F80000400206D52868BD
:10301000800339D560680028DFD035E06068B0F5FE
:10302000803F0BD010B1B0F5A02F11D0286820F44C
:1030300080302860286820F4802002E0286840F46E
:1030400080302860606890B1FFF754FB06460AE0C4
:10305000286840F480202860F0E700BFFFF74AFBB3
:10306000801B642872D828688003F7D50CE0FFF72E
:1030700041FB064605E000BFFFF73CFB801B6428D0
:10308000F0D828688003F7D42078800742D5DAF892
:103090000010504611F00C0F08D00068C0F38100FA
:1030A00002280BD1D8F80000400207D42868800716
:1030B00018D5E068012800D114E041E1E06800285B
:1030C000286817D040F001002860FFF713FB064680
:1030D00005E000BFFFF70EFB801B0228C2D828685E
:1030E0008007F7D52069296821F0F80141EAC0007E
:1030F00028600FE020F001002860FFF7FBFA064689
:1031000005E000BFFFF7F6FA801B02281ED82868EA
:103110008007F7D42078000729D58B4861696C3087
:1031200000298146016812D041F001010160FFF7DA
:10313000E1FA064605E000BFFFF7DCFA801B022833
:1031400004D8D9F800008007F6D510E089E021F016
:1031500001010160FFF7CEFA064604E0FFF7CAFA64
:10316000801B02287DD8D9F800008007F6D420788B
:1031700040076BD5DFF8D09109F13809D9F8000084
:10318000C0000BD4D9F8001041F08051C9F80010EC
:10319000D9F80000012700F0805000906B480168CA
:1031A000C90512D40168834641F480710160FFF7BC
:1031B000A1FA064605E000BFFFF79CFA801B6428D1
:1031C0004FD8DBF80000C005F6D55F4EA068683622
:1031D00001280AD008B1052811D0306820F001007C
:1031E0003060306820F0040002E0306840F00100F8
:1031F0003060A068A0B1FFF77DFA83460CE030682C
:1032000040F004003060F0E7FFF774FAA0EB0B0128
:1032100041F28830814266D830688007F4D50EE0EC
:10322000FFF768FA834607E0FFF764FAA0EB0B01AB
:1032300041F28830814256D830688007F4D42FB1EB
:10324000D9F8001021F08051C9F80010A069C8B366
:10325000DAF80010C1F3810102294BD00228286856
:1032600000E040E020F08070286003D0FFF742FAD1
:1032700004463BE0FFF73EFA064604E0FFF73AFA61
:10328000801B02282FD828688001F7D4D4E909626E
:10329000D4E907012E4B570894F82C20084303EB80
:1032A000074343EA8611084340EA026040F00050B9
:1032B000C8F80000286840F080702860FFF71AFA0C
:1032C000044606E03EE000BFFFF714FA001B0228A8
:1032D00009D828688001F7D534E000BFFFF70AFA63
:1032E000001B022802D90320BDE8F88F286880015E
:1032F000F4D427E00128D8F8000021D0E16900F4D7
:1033000080028A421CD1216A00F03F028A4217D112
:10331000626A47F6C0710140B1EB821F10D1A16A09
:103320004FF0FF3200F4403302EB5101B3EB014F99
:1033300006D194F82C1000F07060B0EB016F01D052
:103340000120D1E70020CFE708380240007000409C
:103350000000FFFF70477047704700002DE9F04301
:1033600090F83C20012A42D0012280F83C2051F8FC
:103370000C4BDFF880804FF0000991E8680051E9BC
:10338000022723F44073B1F80CC03B43CF6923F408
:1033900080631343026823F40063234323F48053C0
:1033A00043EA050323F4005343EA060323F480436E
:1033B00043EA07030C3923F47023424543EA0C43E4
:1033C00002D00D4CA2420CD18D8C23F47006D1E9B1
:1033D000073446EA055121F08071194321F000734A
:1033E0002343536480F83C900020BDE8F083022022
:1033F000FBE700000000014000040140F0B590F838
:103400003C20012A3BD01F4E012480F83C40022280
:1034100080F83D2002681C4D5368B242D2F808C0C3
:1034200001D0AA4203D14F6823F470033B430F68D5
:1034300023F070031F4357600268B24213D0B2F109
:10344000804F10D0114B9A420DD0114B9A420AD0A6
:10345000104B9A4207D0AA4205D00F4B9A4202D095
:103460000E4B9A4204D189682CF080031943916075
:10347000002180F83D4080F83C100846F0BD022055
:10348000F0BD0000000001400004014000040040C5
:1034900000080040000C00400040014000180040BF
:1034A00010B5040003D094F83D0010B107E00120EE
:1034B00010BD002084F83C00204600F023F80220D4
:1034C00084F83D002068211D02F00CFE012084F8E4
:1034D000480084F83E0084F83F0084F8400084F8F7
:1034E000410084F8420084F8430084F8440084F8E2
:1034F000450084F8460084F8470084F83D00002029
:1035000010BD000008B501681A4881420FD11A4861
:10351000016841F00101016000680022062100F00D
:10352000010000901920FFF763F9192014E01348F7
:10353000B1F1804F14D0124A914219D1016841F083
:103540001001016000680022062100F010000090C8
:103550003620FFF74DF93620BDE80840FFF73AB9AD
:10356000016841F001010160006800F00100009075
:1035700008BD0000000001404438024040380240CD
:103580000010004090F83D10012901D00120704743
:10359000144B0222016880F83D20994214D0B1F109
:1035A000804F11D0104881420ED0104881420BD07C
:1035B0000F48814208D00F48814205D00E48814211
:1035C00002D00E48814207D188680D4A1040062873
:1035D00006D0B0F5803F03D0086840F001000860D5
:1035E0000020704700000140000400400008004037
:1035F000000C004000040140004001400018004061
:103600000700010090F83D10012901D0012070470A
:10361000174A022180F83D100168CB6843F001038E
:10362000CB600068904214D0B0F1804F11D01149A6
:1036300088420ED0104988420BD01049884208D0E9
:103640000F49884205D00F49884202D00E4988426E
:1036500007D181680D4A1140062906D0B1F5803F97
:1036600003D0016841F001010160002070470000B3
:10367000000001400004004000080040000C004031
:103680000004014000400140001800400700010014
:1036900070B5044690F83C00012817D0324B012544
:1036A00084F83C50022084F83D002268906818405D
:1036B00020F47F4090600868502830D00DDC20282E
:1036C0004DD005DC98B310283BD148E0022070BDF6
:1036D000302844D0402834D139E0602828D07028E0
:1036E00006D0B0F5805F2CD0B0F5005F29D10AE09C
:1036F0004A682068D1E9021302F067FD20688168FA
:1037000041F0770109E04A682068D1E9021302F02C
:103710005CFD2068816841F48041816011E0CA68E5
:103720004968206802F098FE2068502107E016E002
:10373000CA684968206802F0E1FE2068602102F052
:103740004DFD002084F83D5084F83C0070BDCA68EF
:103750004968206802F080FE20684021EFE7226877
:1037600001461046EBE7000088FFFEFF2DE9F04F11
:10377000F64F0146DFF8D08307F13C0907F1280531
:103780002DED0A8B81B09FEDF29B9FEDF38B9FEDAA
:10379000F4BB9FEDF5CBD8F80800A5F13402012663
:1037A0000024884202F1880A02F1940B73D10B7F46
:1037B00098F80CC06345F9D1414653880969EBB3C9
:1037C000548000F0DFFFA5F11401009048606868A4
:1037D00007F071F841EC1A0BD9F8041040F271228D
:1037E0007B6800985143C01A00EB011007F063F8A2
:1037F00041EC100B51EC190B53EC102B06F0A6FE0C
:1038000053EC1A2B07F0BEF82C3595ED021B53EC48
:10381000112B06F0E7FDC5E90201BAF80200574690
:10382000401C02B2AAF80220D8F8101091B3042963
:1038300058D00829D8F80810086800E00AE0036AA0
:1038400057D023F4204303620868016A01620A2A00
:1038500052D012E3568000F095FF7860C9F804401A
:10386000B8F80410D8F80000FEF73AFFA0B14FF006
:10387000FF306860D8F8100080B104281AD0D8F85A
:10388000081008280868026A20D022F42042026248
:103890000868EBE01FE073E06E60EBE7D8F8080023
:1038A00001680A6A22F00A020A620068016A41F0AD
:1038B0000201E6E0D8F8080001680A6A22F0A002D6
:1038C0000A620068016A41F02001DAE022F4206215
:1038D00002620868D2E0D8F808100868036A23F08A
:1038E0000A03B0E7D8F808100868036A23F0A003B9
:1038F000A9E723F42063A6E7DBF8041081B395ED74
:10390000020B53EC182B51EC100B06F01FFE8F4EE0
:1039100041EC180B343E96ED020B53EC102B06F0E5
:1039200061FD41EC100B03F028FA53EC1B2B51EC1A
:10393000100B07F025F90DD896ED020B51EC180B82
:1039400053EC102B06F04EFD53EC1C2B07F01AF82D
:10395000C6E902019FED860B7C8085ED020B8CE2AF
:10396000FFE7CBF8046095ED020B53EC182B51ECFC
:10397000100B06F0EBFD754A343AC2E90201E9E7A3
:10398000DFF8F481D8F80800884273D10B7F98F8EB
:103990000CC063456ED1414693880969F3B39480A6
:1039A00000F0F0FE6949009014318860A86806F0C4
:1039B00082FF41EC1A0BD9F8081040F27122BB6863
:1039C00000985143C01A00EB011006F074FF41EC5F
:1039D000100B51EC190B53EC102B06F0B7FD53EC08
:1039E0001A2B06F0CFFF594D543595ED041B53ECBF
:1039F000112B06F0F7FCC5E90401BAF8040057469C
:103A0000401C02B2AAF80420D8F8101099B3042977
:103A100040D0082947D0D8F8081000E004E0086832
:103A2000036A23F420433BE0968000F0ABFEB860CD
:103A3000C9F80840B8F80410D8F80000FEF750FEA6
:103A4000D0B14FF0FF30A860D8F8100000283FF444
:103A500025AF04283FF42EAF0828D8F808000168E5
:103A60000A6A70D022F420420A620068016A41F4B6
:103A7000005106E082E006E0AE60E5E7016A41F44D
:103A800000710162F9E1D8F808100868036A23F0B0
:103A90000A0305E0D8F808100868036A23F0A003B9
:103AA0000362086807E0D8F8080001680B6A23F48D
:103AB00020630B620068016A01620A2AE2D1DBF826
:103AC000081081B395ED040B53EC182B51EC100B3F
:103AD00006F03CFD1D4E41EC180B343E96ED040BF8
:103AE00053EC102B06F07EFC41EC100B03F045F973
:103AF00053EC1B2B51EC100B07F042F80DD896ED50
:103B0000040B51EC180B53EC102B06F06BFC53EC30
:103B10001C2B06F037FFC6E904019FED150BBC8096
:103B200085ED040BA9E1FFE7CBF8086095ED040BE8
:103B300053EC182B51EC100B06F008FD034A343AF5
:103B4000C2E90401E9E749E1500F00206C120020AE
:103B500000000000006AF84000000000000024405F
:103B60000000000000003440000000000000E03FC2
:103B70000000000000000000700F0020DFF89083BC
:103B8000D8F80800884275D10B7F98F80CC06345BF
:103B900070D14146D3880969F3B3D48000F0F2FDB7
:103BA000DC490090C860E86806F085FE41EC1A0B1D
:103BB000D9F80C1040F27122FB6800985143C01AEA
:103BC00000EB011006F077FE41EC100B51EC190BE5
:103BD00053EC102B06F0BAFC53EC1A2B06F0D2FE75
:103BE000CC4D403595ED061B53EC112B06F0FAFB3E
:103BF000C5E90601BAF806005746401C02B2AAF809
:103C00000620D8F8101029B304292AD0D8F80800C3
:103C1000082901680B6A00E009E02CD023F4204356
:103C20000B620068016A01620A2A27D025E1D6806A
:103C300000F0A8FDF860C9F80C40B8F80410D8F8F6
:103C40000000FEF74DFD18B14FF0FF30E860FBE6D5
:103C5000EE60F9E6D8F808100868036A23F00A0352
:103C600005E0D8F808100868036A23F0A00303628F
:103C70000868D7E746E023F42063D1E7DBF80C10AF
:103C800081B395ED060B53EC182B51EC100B06F09D
:103C90005DFCA04E41EC180B483E96ED060B53EC34
:103CA000102B06F09FFB41EC100B03F066F853EC71
:103CB0001B2B51EC100B06F063FF0DD896ED060B95
:103CC00051EC180B53EC102B06F08CFB53EC1C2B17
:103CD00006F058FEC6E906011FED5B0BFC8085ED82
:103CE000060BCAE0FFE7CBF80C6095ED060B53EC32
:103CF000182B51EC100B06F029FC864A483AC2E911
:103D00000601E9E7DFF81082D8F80800884251D1AF
:103D1000097F98F80C3099424CD1414613890969C2
:103D2000F3B3148100F02EFD7A49009008612869F0
:103D300006F0C1FD41EC1A0BD9F8101040F27122C7
:103D40003B6900985143C01A00EB011006F0B3FD27
:103D500041EC100B51EC190B53EC102B06F0F6FB59
:103D600053EC1A2B06F00EFE6A4D403595ED081BFC
:103D700053EC112B06F036FBC5E90801BAF8080030
:103D80005746401C02B2AAF80820D8F8101051B3C8
:103D900004292FD0082936D0D8F80810086800E088
:103DA00009E0036A23F4204303620868016A0162A0
:103DB0000A2A2FD061E0168100F0E4FC3861C9F8CE
:103DC0001040B8F80410D8F80000FEF789FC18B1CC
:103DD0004FF0FF30286137E62E6135E622F420628D
:103DE0000A6200684AE6D8F8080001680B6A23F006
:103DF0000A0305E0D8F8080001680B6A23F0A00365
:103E00000B620068D2E7D8F8080001680B6A23F457
:103E10002063F5E7DBF81010F1B395ED080B53ECD8
:103E2000182B51EC100B06F091FB3A4E41EC180B9D
:103E3000483E96ED080B53EC102B06F0D3FA41ECFC
:103E4000100B02F09AFF53EC1B2B51EC100B06F0F9
:103E500097FE0DD896ED080B51EC180B53EC102B78
:103E600006F0C0FA53EC1C2B06F08CFDC6E90801E5
:103E70001FEDC10B3C8185ED080B284D2868401CC7
:103E80002860B0F5C87F2FD11FEDC70B214E85EDFF
:103E9000040B483E2C6000E02BE0012406EBC4003C
:103EA00090ED000B02F069FF95ED041B51EC100B37
:103EB00053EC112B06F096FA641CE4B2042CC5E90D
:103EC0000401EBD99FED160B53EC102B95ED040B71
:103ED00051EC100B06F056FD95ED021B53EC112B27
:103EE00006F080FAC5E9020101B0BDEC0A8BBDE81D
:103EF000F08FCBF8106095ED080B53EC182B51ECBC
:103F0000100B06F023FB034A483AC2E90801AFE769
:103F1000900F002080120020B00F00200802002027
:103F2000000000000000D03F2DE9F041054690F868
:103F30003C000C46012836D0012085F83C008AB3AD
:103F4000042A42D02868082A51D0D4E90023E16825
:103F5000066A4FF6FF774FF4204C26F4805606622F
:103F600007EA0131C669076A0CEA023226F4407C8E
:103F700027F420464CEA0323324323F470431943C9
:103F8000C16102622868C16921F44061C161286889
:103F9000A168C26942EA0121C161002085F83C00A4
:103FA000BDE8F08101E00220FAE7E3682868D4E97F
:103FB000001202F063FA2868816921F00C01816126
:103FC00028688169A26811430FE0E3682868D4E992
:103FD000001202F0A5FA2868816921F4406181612C
:103FE00028688169A26841EA02218161D5E7D4E9A4
:103FF0000027217B036A4FF4206606EA02220907A4
:1040000023F480730362C369066A23F003033B430E
:1040100026F4206623F0F003324343EA1161C161C4
:1040200002622868C16921F00C01C1612868A26898
:10403000C1691143B0E710B5040003D094F83D0006
:1040400010B107E0012010BD002084F83C0020469C
:1040500000F022F8022084F83D002068211D02F0C3
:1040600041F8012084F8480084F83E0084F83F00BD
:1040700084F8400084F8410084F8420084F843004A
:1040800084F8440084F8450084F8460084F847002A
:1040900084F83D00002010BD70B586B004461421A0
:1040A0006846FCF740FC2F490025236802242E4E69
:1040B00010392C4A2D48B3422FD1136843F0020324
:1040C0001360126802F0020205920A6842F00102CF
:1040D0000A600A6802F0010205920A6842F00202D0
:1040E0000A60096801F00201059140218DE8320063
:1040F000CDE903546946FEF707FA012069468DE8C9
:1041000031001B48CDE90354FEF7FEF900220621D9
:104110001D20FEF76DFB1D2020E0164EB3421FD17F
:10412000136843F008031360126802F00802059256
:104130000A6842F001020A60096801F00101059174
:1041400005218DE83200CDE903546946FEF7DCF91C
:10415000002206213220FEF74BFB3220FEF73AFB0D
:1041600006B070BD4038024000040040000002402C
:1041700000040240000C004010B5044679B1042947
:1041800012D0082915D00C2918D0102919D094F86C
:10419000430000BF94F84720012817D114E094F899
:1041A0003E0094F84420F7E794F83F0094F8452047
:1041B000F2E794F8400094F84620EDE794F84100C7
:1041C000E8E794F84200E5E7012A01D0012010BD9C
:1041D0004FF0020071B1042915D008291CD00C2918
:1041E0004ED010294FD084F843000C2984F84700A2
:1041F0001BD14BE084F83E0084F844002068C2687C
:1042000042F0020210E084F83F0084F84500206884
:10421000C26842F0040207E084F8400084F84600D7
:104220002068C26842F00802C2602068012201F0E2
:10423000BFFF19492068884214D0B0F1804F11D0D7
:10424000164988420ED0164988420BD0154988423B
:1042500008D01549884205D01449884202D0144933
:10426000884207D18168134A1140062906D0B1F56A
:10427000803F03D0016841F001010160002010BDC2
:1042800084F84100B1E784F84200AEE72068C268D4
:1042900042F01002C8E700000000014000040040A6
:1042A00000080040000C00400004014000400140B4
:1042B000001800400700010070B5044600680025A2
:1042C0000169C943890715D4C168C943890711D455
:1042D000EA1E02610121217720688069800720465B
:1042E00002D0FFF743FA04E000F0FCF8204600F0AB
:1042F000BBF9257720680169C943490717D4C1680C
:10430000C943490713D402216FF0040202612177E7
:104310002068806910F4407F204602D0FFF726FA1B
:1043200004E000F0DFF8204600F09EF925772068D1
:104330000169C943090716D4C168C943090712D4E2
:1043400004216FF00802026121772068C0698007AC
:10435000204602D0FFF70AFA04E000F0C3F8204636
:1043600000F082F9257720680169C943C90617D48E
:10437000C168C943C90613D408216FF01002026155
:1043800021772068C06910F4407F204602D0FFF7F3
:10439000EDF904E000F0A6F8204600F065F9257775
:1043A00020680169C943C90708D1C168C943C90761
:1043B00004D1891E0161204600F0D4F9206801690A
:1043C000C943090609D4C168C943090605D46FF079
:1043D000800101612046FEF7BEFF20680169C943E4
:1043E000C90509D4C168C943090605D46FF48071B1
:1043F00001612046FEF7AEFF20680169C943490606
:1044000009D4C168C943490605D46FF04001016170
:10441000204600F0CDF920680169C94389060BD414
:10442000C168C943890607D46FF0200101612046A5
:10443000BDE87040FEF790BF70BD000070B586B05B
:10444000054614216846FCF76EFA28680024214AC4
:1044500002251F49012690420FD1086840F0100044
:1044600008600868694600F0100005904FF4D440D9
:1044700000901948CDE9015423E0B0F1804F24D1D8
:10448000086840F001000860086800F0010005902D
:10449000086840F0020008600868694600F0020001
:1044A000059020200090CDE901540C48CDE9034649
:1044B000FEF72AF840F60840009009486946CDE921
:1044C0000154CDE90346FEF71FF806B070BD0000A9
:1044D000303802400000014000100240000002405D
:1044E00000040240704770B5044690F83C000D4649
:1044F00001280BD0012084F83C000C2A45D007DCB1
:104500005AB1042A1BD0082A78D12CE0022070BDB1
:10451000102A4ED0142A71D15DE0206801F066FEA9
:104520002068816941F0080181612068816921F07A
:104530000401816120682A698169114311E02068C2
:1045400001F08EFE2068816941F40061816120687C
:10455000816921F48061816120682969826942EA68
:10456000012181614AE0206801F0B6FE2068C1693E
:1045700041F00801C1612068C16921F00401C161F5
:1045800020682A69C169114311E0206801F0E0FE4A
:104590002068C16941F40061C1612068C16921F4EA
:1045A0008061C16120682969C26942EA0121C16153
:1045B00024E0206801F0F8FE2068416D41F0080118
:1045C00041652068416D21F00401416520682A6938
:1045D000416D114311E0206801F012FF2068416D28
:1045E00041F4006141652068416D21F480614165BD
:1045F00020682969426D42EA01214165002084F862
:104600003C0070BD10B5040003D094F83D0010B11B
:1046100007E0012010BD002084F83C00204600F097
:1046200022F8022084F83D002068211D01F05AFD87
:10463000012084F8480084F83E0084F83F0084F8A4
:10464000400084F8410084F8420084F8430084F874
:10465000440084F8450084F8460084F8470084F854
:104660003D00002010BD70477047000010B50446A3
:104670004FF0020269B1042912D0082917D00C2981
:104680001CD0102921D094F84300012824D0012007
:1046900010BD94F83E000128F9D184F83E201DE0B9
:1046A00094F83F000128F2D184F83F2016E094F8F6
:1046B00040000128EBD184F840200FE094F841003D
:1046C0000128E4D184F8412008E094F84200012850
:1046D000DDD184F8422001E084F8432001222068E3
:1046E00001F066FD17492068174A884201D09042C0
:1046F00003D1436C43F4004343642068884213D0E1
:10470000B0F1804F10D0114988420DD01049884235
:104710000AD01049884207D0904205D00E498842FD
:1047200002D00E49884207D181680D4A11400629FE
:1047300006D0B1F5803F03D0016841F0010101606E
:10474000002010BD000001400004014000040040B2
:1047500000080040000C00400040014000180040EC
:104760000700010010B5044601F040F90449206833
:10477000884203D1BDE81040FDF7C2BF10BD000064
:104780000014004002464FF0000041B1042909D056
:1047900008290AD00C2901D11068006C70471068F4
:1047A000406B70471068806B70471068C06B704733
:1047B00070477047704700002DE9F04102680446D9
:1047C000002540F60F06D06911689368304205D184
:1047D000830678D58B0676D5616EE7E07C4F03F0D3
:1047E00001060F4037437ED0C70709D0CF0507D554
:1047F00001271762D4F8802042F00102C4F880201B
:1048000082070AD5DA0708D0276802223A62D4F86C
:10481000802042F00402C4F8802042070AD5DA075B
:1048200008D0236804221A62D4F8802042F00202E1
:10483000C4F8802002070CD501F02002324308D0D2
:10484000236808221A62D4F8802042F00802C4F8D3
:10485000802002050BD54A0109D523684FF4006278
:104860001A62D4F8802042F02002C4F88020D4F8E4
:104870008020002A2FD0800605D5880603D5616EDA
:1048800009B1204688472168D4F880008968490624
:1048900002D410F0280F20D0204601F0ADFF206890
:1048A0008168490614D5816821F040018160206F3C
:1048B00070B148490165206FFDF773FC00280AD0EC
:1048C000206F016D01E00EE02046BDE8F041084791
:1048D0002046FFF76FFFBDE8F0812046FFF76AFF33
:1048E000C4F88050F7E7266E2023012E59D1C60662
:1048F00057D5CE0655D5102010622068816849062C
:104900002ED5226F116849680904090CE3D0B4F868
:1049100058608E42DFD9A4F85A10D169B1F5807F72
:1049200017D0016821F4807101602068816821F04E
:10493000010181602068816821F040018160E367A6
:1049400025662068016821F010010160206FFDF7E5
:10495000DFFBB4F85800B4F85A10401A81B21CE0DA
:10496000B4F85810B4F85A20B4F85A60891A89B2C9
:10497000002EB0D00029AED0026822F490720260FE
:104980002068826822F001028260E367256665661E
:104990002068026822F0100202602046FFF709FF3B
:1049A00099E7060605D50E0603D5A16E00298BD121
:1049B00091E740068FD548068DD51168204621F035
:1049C00040011160A367A56600F044FA83E7000088
:1049D000200100042567000810B5040002D0A06F74
:1049E00010B107E0012010BD002084F874002046BB
:1049F00000F026F82420A0672068016821F001015A
:104A00000160204601F018FF0128ECD0606A10B167
:104A1000204601F003FE2068416821F49041416086
:104A20002068816821F02A0181602068016841F0D6
:104A3000010101602046BDE8104001F053BE0000B6
:104A40002DE9F04F87B0074614216846FBF76BFF4E
:104A5000AE480024AE4B02263A681038AB49032515
:104A6000DFF8B0929A424FF0080820D10A6842F469
:104A700000220A60096801F400210591016841F0F3
:104A800004010160006802AA694600F00400059074
:104A9000A802CDE9000682E830014846FDF734FD62
:104AA000002205213420FDF7A3FE342036E09A4B86
:104AB000DFF868B29A4236D10A6842F480120A607E
:104AC000096801F480110591016841F00401016059
:104AD000016801F004010591016841F008010160DD
:104AE000006802AA694600F0080005909814CDE914
:104AF000000682E830014846FDF706FD04206946BD
:104B000002AACDE90006584682E83001FDF7FCFC18
:104B1000002206213520FDF76BFE3520FDF75AFEF9
:104B200007B0BDE8F08FDFF8F8C17E4B624519D1C0
:104B30000A6842F080420A60096801F080410591EC
:104B4000016841F010010160006802AA694600F0A6
:104B5000100005904FF4C070CDE9000682E83001E6
:104B600018461AE0DFF8C0C1624519D10A6842F060
:104B700000420A60096801F000410591016841F0B6
:104B80001001016000686946CDE9005600F0100090
:104B9000CDE90245CDE904801846FDF7B5FCBFE735
:104BA000624BDFF868A19A424FF007030AF1040A4A
:104BB00024D1DAF8002042F01002CAF80020DAF816
:104BC000001001F010010591016841F00101016040
:104BD00000686946029400F0010005904FF4C0603F
:104BE000CDE900065248CDE90353FDF78DFC0022C4
:104BF00005212520FDF7FCFD25208FE7DFF834C1D6
:104C0000624520D10A6842F400320A60096801F462
:104C100000310591016841F00801016000686946B2
:104C2000029400F0080005906020CDE90006CDE96F
:104C300003535846FDF768FC002206212620FDF7A5
:104C4000D7FD26206AE7DFF8F0C0624521D10A6867
:104C500042F480220A60096801F48021059101680C
:104C600041F00801016000686946029400F0080004
:104C700005904FF44070CDE90006CDE90353584646
:104C8000FDF742FC002205212720FDF7B1FD27207A
:104C900044E72A498A4282D1DAF8002042F0200211
:104CA000CAF80020DAF8001001F02001059101682F
:104CB00041F004010160006802AA694600F00400A6
:104CC0000590C020CDE9000682E830014846FDF796
:104CD0001BFC1C481A4D8105021585E81300C5E927
:104CE00003426C612846AC61EC612C626C62FDF79A
:104CF0003BFB08B1FDF7D8F83D6700220621AF6302
:104D00004720FDF775FD472008E7000040380240C6
:104D1000004C00400008024000500040000C0240DF
:104D20000078004000100240007C0040001001406C
:104D300000000240004400400048004000140140D0
:104D4000B40C00202864024030B4C36F202B18D16B
:104D5000A1B19AB190F87430012B12D0012480F8DF
:104D600074400023036603685C68240203D51C6852
:104D700044F080641C6030BC01F078BE012030BC7F
:104D800070470220FBE700000249884201D103F08E
:104D9000FFBC7047300C0020704700002DE9F8433D
:104DA0000446806F1F4616460D46202850D1CDB1CF
:104DB000C6B194F8740001284AD0012084F8740028
:104DC00021224FF00008C4F88080A267FDF792FC12
:104DD0008146A068A4F85060A4F85260B0F5805FE6
:104DE00003D004E00120BDE8F883206928B12E46F5
:104DF0005FF0000584F8748010E00026FAE7802157
:104E0000204601F075FEB8B9C6B116F8010B21684D
:104E10008862B4F85200401EA4F85200B4F8520060
:104E20004B464FF0000200970028E8D14FF04001B8
:104E3000204601F05DFE38B10320D4E735F8020BBF
:104E40002168C0F30800E3E72020A0670020CAE73C
:104E50000220C8E77047000010B50446084600F07D
:104E60006BFF1748012C02D0022C10D01DE0D0E9B6
:104E700002010022404203F073FC02E00A2002F02B
:104E8000E6FF2046FDF73AF80128F7D00DE00022B2
:104E9000D0E9020103F064FC02E00A2002F0D7FF2F
:104EA0002046FDF72BF80128F7D0002211461046C6
:104EB00003F056FCBDE81040C82002F0C8BF000057
:104EC00070020020FEE70000094800B508490068AC
:104ED00010390068406AC0B2C87002F0D7FD0028DF
:104EE00004D05DF804EB034801F082BF00BD000070
:104EF00024000020A00D0020002807DD4FF4FA71E7
:104F0000884201DC782800DA084670470349884265
:104F1000FADB6FF077018842F6DC70470CFEFFFF8A
:104F20002DE9F047DFF8D4810127754D4FF00009D6
:104F3000744E754C88F8407085F8407086F8407063
:104F4000A06A012815D00228FAD188F8407085F8A7
:104F500040906A4886F84090FCF715FDE06A00280A
:104F600070DAB421012003F0B7FDE06A4042E0624C
:104F700079E0E06A002836DD88F8409085F84070D6
:104F80005F4886F84070FCF7FEFCE878A18D081AAF
:104F900000B22080A0B1962110FB01F0FFF7ACFF1A
:104FA000A0610022B4F900104843114603F0D8FB79
:104FB000052002F04CFFB4F900000028E5DABFE755
:104FC00000227820114603F0CBFB02E0052002F01E
:104FD0003EFF687810B970780028F7D098F8010083
:104FE0000028F3D06BE0ABDA88F8409085F8407089
:104FF00086F84070434886F80390FCF7C4FCE06AEA
:10500000002800DC4042F178401A00B2208090B1C4
:10501000962110FB01F0FFF76FFF0022A0614042D4
:10502000114603F09DFB052002F011FFB4F90000CA
:105030000028E4DA84E700226FF07700114603F0DD
:105040008FFB03E013E0052002F001FF687810B940
:1050500070780028F7D098F801000028F3D02EE0EF
:10506000012002F0F4FE02F00BFD0028F8D098F8C1
:105070000300A18D081A00B2208090B1962110FB88
:1050800001F0FFF739FF00220146A061104603F04E
:1050900067FB052002F0DBFEB4F900000028E6DA29
:1050A0004EE700227821104603F05AFB02E005206B
:1050B00002F0CDFE687810B970780028F7D0002291
:1050C0001146104603F04CFB67604FF4FA6088F815
:1050D0004070B24605F8407F86F8407002F0B7FE97
:1050E00088F840904E4685F800908AF84090E06835
:1050F00004F0E0FBE660BDE8F08700000C11002042
:1051000050110020941100202002002010B50E4CF8
:105110002068042816D100221146104603F020FB17
:10512000A4F10801012048804FF4967002F08FFE30
:10513000616806A0FBF7CEF9BDE810404FF4FA60B5
:1051400002F085BE10BD000044000020CAD5B5BDE8
:10515000C1CBC7F2B5C4D0C5CFA22C506161726D6E
:105160007465723D25640D0A0000000010B5044608
:10517000084600F0E1FD1C48012C02D0022C14D09E
:1051800025E0D0E902010022404203F0E9FA02E002
:105190000A2002F05CFE2046FCF7B0FE012816D182
:1051A000FCF7C4FE0028F3D011E00022D0E9020190
:1051B00003F0D6FA02E00A2002F049FE2046FCF78E
:1051C0009DFE012803D1FCF7B1FE0028F3D0002298
:1051D0001146104603F0C4FA642002F038FEBDE820
:1051E0001040012001F03ABD70020020194930B48E
:1051F00091F82000022812D20A6800231268526A2D
:10520000D4B2FF2C00D130B1012808D11148992C1B
:10521000C27F06D007E0012081F82000CB7730BCA8
:105220007047052A0FD00B480B301454CA7F521C0C
:10523000D2B2CA77142AF2D181F82030CB77142168
:1052400030BCFBF74EBB022081F8200030BC00F0E0
:105250002DB800004C0000200021022000F00CB806
:105260000146032000F008B80146022000F004B80F
:1052700001460220AFF3008010B502F099FA06490A
:10528000FF23072201C9FFF789FD034800211038D9
:1052900041610183817610BD4C0000200021084649
:1052A000FFF7EABF00210420FFF7E6BF2DE9F04138
:1052B000114CE17A207B637BA27B0E18E57B9F1863
:1052C0003E44AE4214D10128A4F1100012D04FF098
:1052D000FF354560084D03EB0222083D2960406818
:1052E00042436A60FFF712FF0020E07784F8200055
:1052F000BDE8F0810125ECE74C000020094808B525
:10530000016841F48001016000680022052100F479
:10531000800000903920FDF76BFABDE80840392085
:10532000FDF758BA3038024010B5A4B01C491C2211
:105330006846FBF79CFA0021684602F094FD194C80
:105340001C2217491C31206007A8FBF790FA0021A6
:1053500007A802F088FD12491C2260600EA83831AF
:10536000FBF785FA00210EA802F07DFD0C491C22F6
:10537000A06015A85431FBF77AFA002115A802F0B5
:1053800072FD07491C22E0601CA87031FBF76FFA20
:1053900000211CA802F067FD206124B010BD0000B0
:1053A000D4AE0008000000202DE9F04186B01421A1
:1053B0006846FBF7B8FA4448016841F08001016093
:1053C000016801F080010591016841F0010101606F
:1053D000016801F001010591016841F002010160DD
:1053E000016801F002010591016841F010010160BE
:1053F000016801F010010591016841F008010160A8
:10540000016801F008010591016841F004010160A3
:1054100000684FF480562D4F002200F00400314602
:1054200005903846FDF761F90024DFF8A4808A2052
:1054300069460294CDE900044046FDF765F8022074
:105440006946CDE9000438460294FDF75DF8012570
:105450000096CDE90154694638460394FDF754F8A7
:105460001C4968038DE8130069463846FDF74CF87F
:105470004FF4404069468DE831003846FDF744F866
:105480004CF20B4069468DE831001348FDF73CF8BB
:105490004FF4407069468DE831001048FDF734F84C
:1054A0004FF4014069468DE831004046FDF72CF885
:1054B000002206212820FDF79BF92820FDF78AF914
:1054C00006B0BDE8F0810000303802400004024020
:1054D0000000024000001110000C024000080240D1
:1054E00010B59AB000241C21009407A801940294DE
:1054F0000394049405940694FBF715FA2C210EA846
:10550000FBF711FA36481522344942F20F7380E84E
:105510001600C0E9033444618461FDF7C1FF08B19E
:10552000FCF7C2FC4FF4805000902D486946FEF70E
:10553000AFF808B1FCF7B8FC2948FFF763F808B1E9
:10554000FCF7B2FC264804A9049405940694FDF7E0
:1055500055FF08B1FCF7A8FC6020CDE907042048FE
:10556000002207A909940A940B940C940D94FEF759
:10557000BAFF08B1FCF798FC1948042207A9FEF706
:10558000B2FF08B1FCF790FC1548082207A9FEF706
:10559000AAFF08B1FCF788FC11480C2207A9FEF706
:1055A000A2FF08B1FCF780FC4FF400500E940F945A
:1055B00001031094CDE9124011941494CDE91541E2
:1055C00007480EA917941894FDF7C8FE08B1FCF718
:1055D0006BFC0348FEF732FF1AB010BD000001401B
:1055E0001807002010B58EB000241C21009407A8D5
:1055F000019402940394049405940694FBF793F9A0
:10560000294842F20F710A224FF08043C0E902415B
:1056100004618461C0E90032FDF742FF08B1FCF784
:1056200043FC4FF4805000901F486946FEF730F865
:1056300008B1FCF739FC1C48FEF7E4FF08B1FCF7A1
:1056400033FC194804A904940694FDF7D7FE08B169
:10565000FCF72AFC6020CDE907041348002207A9C3
:1056600009940B94FEF73FFF08B1FCF71DFC0E48B0
:10567000042207A9FEF737FF08B1FCF715FC0A481A
:10568000082207A9FEF72FFF08B1FCF70DFC06481A
:105690000C2207A9FEF727FF08B1FCF705FC02481A
:1056A000FEF7CCFE0EB010BD6407002010B588B028
:1056B0001C4800241A496B2242F20F730094019493
:1056C0000294039404940594069480E81600C0E9BB
:1056D00003348461FEF7AFFC08B1FCF7E5FB114829
:1056E000694600940294FDF789FE08B1FCF7DCFBE3
:1056F0000120002203A9CDE903400A48059406943D
:10570000FEF712FC08B1FCF7CFFB0648082203A9FC
:10571000FEF70AFC002801D0FCF7C6FB08B010BD5C
:1057200000040040B007002010B588B01C480024D9
:105730001A496B2242F20F7300940194029403946D
:1057400004940594069480E81600C0E9033484614B
:10575000FEF771FC08B1FCF7A7FB114869460094FD
:105760000294FDF74BFE08B1FCF79EFB01200022DE
:1057700003A9CDE903400A4805940694FEF7D4FB3B
:1057800008B1FCF791FB0648082203A9FEF7CCFB01
:10579000002801D0FCF788FB08B010BD000C0040C9
:1057A000FC0700203EB51048002442F20F710D4B5B
:1057B0006B22009401940294C0E902418461C0E923
:1057C0000032FDF76DFE08B1FCF76EFB0648694636
:1057D00000940294FDF712FE002801D0FCF764FB50
:1057E0003EBD000000100040480800200D48002188
:1057F00010B50B4C0C224FF4E1330460C0E90131C9
:10580000C160C0E904128161C16101624162FFF7B8
:10581000E3F8002803D0BDE81040FCF745BB10BDFD
:10582000004C0040940800200F480C2310B50D4C8C
:105830004FF4E132002104601024426081602202B2
:10584000C160C0E9041381618263C161C0E90814C9
:10585000FFF7C2F8002803D0BDE81040FCF724BBD6
:1058600010BD000000500040180900200D48002124
:1058700010B50B4C0C224FF4E1330460C0E9013148
:10588000C160C0E904128161C16101624162FFF738
:10589000A3F8002803D0BDE81040FCF705BB10BDFD
:1058A000007800409C0900200D48002110B50B4CE9
:1058B0000C224FF4E1330460C0E90131C160C0E95A
:1058C00004128161C16101624162FFF785F800281D
:1058D00003D0BDE81040FCF7E7BA10BD007C0040E3
:1058E000200A00200F480C2310B50D4C4FF4E13274
:1058F000002104601024426081602202C160C0E97E
:10590000041381618263C161C0E90814FFF764F880
:10591000002803D0BDE81040FCF7C6BA10BD000057
:1059200000100140A40A00200F480C2310B50D4CB4
:105930004FF4E132002104601024426081602202B1
:10594000C160C0E9041381618263C161C0E90814C8
:10595000FFF742F8002803D0BDE81040FCF7A4BAD6
:1059600010BD000000440040280B00200D4800211D
:1059700010B50B4C0C224FF4E1330460C0E9013147
:10598000C160C0E904128161C16101624162FFF737
:1059900023F8002803D0BDE81040FCF785BA10BDFD
:1059A00000480040AC0B00200F480C2310B50D4CF4
:1059B0004FF4E13200210460102442608160220231
:1059C000C160C0E9041381618263C161C0E9081448
:1059D000FFF702F8002803D0BDE81040FCF764BAD6
:1059E00010BD000000140140300C0020F0B5234A27
:1059F000214F066800209FED220BBE42A2F1280332
:105A0000A2F18804A2F1B005A2F1400118D14E68BC
:105A1000761C4E60032E06DB908083ED040B6080C5
:105A2000486085ED020B8E68761C8E60032E06DBC7
:105A3000D08083ED060BA080886085ED040BF0BD5F
:105A4000114FBE42FBD1CE68761CCE60032E06DB22
:105A5000D08083ED060BE080C86085ED060B0E69F3
:105A6000761C0E61032EEADB108183ED080B20818A
:105A7000086185ED080BF0BD00040040E81200202D
:105A80000000000000000000000C0040FEE70000E5
:105A90000B490C4891ED000A80ED000A91ED010AD6
:105AA00080ED040A91ED020A80ED010A91ED030AEE
:105AB00080ED020A91ED040A80ED030A70470000B0
:105AC000700100203C0F0020FEE700001B48002270
:105AD00030B4A0F10B0183790C78A34222D1C379B1
