:020000040800F2
:10000000F05500208D030008215A0008DD4D00083E
:10001000D5590008250B0008956B0008000000006A
:10002000000000000000000000000000C9020008FD
:10003000530C00080000000025030008355B000891
:10004000A7030008A7030008A7030008A7030008E8
:10005000A7030008A7030008A7030008A7030008D8
:10006000A7030008A7030008A7030008A7030008C8
:10007000A7030008A7030008A7030008A7030008B8
:10008000290B0008A7030008A7030008A70300081E
:10009000A7030008A7030008A7030008A703000898
:1000A000A7030008ED5C0008A7030008A7030008E9
:1000B000A7030008FD5C0008A7030008A7030008C9
:1000C000A7030008A7030008A7030008A703000868
:1000D000A7030008C56A0008D96A0008E96A000891
:1000E000550C0008A7030008A7030008A703000891
:1000F000A7030008A7030008A7030008A703000838
:10010000A7030008A70300080D5D0008A703000867
:1001100065630008796300081D5D0008315D000813
:10012000A7030008390B0008A7030008A70300086D
:10013000A7030008A7030008A7030008A7030008F7
:10014000A7030008A7030008A7030008A7030008E7
:10015000A7030008A7030008A7030008FD6A00081A
:10016000A7030008A7030008A7030008A7030008C7
:10017000A7030008A7030008A7030008A7030008B7
:10018000A7030008A7030008A7030008A7030008A7
:10019000A7030008A7030008A7030008A703000897
:1001A000A7030008A7030008A7030008A703000887
:1001B000A7030008A7030008A7030008A703000877
:1001C000A7030008A703000800F002F800F06DF88C
:1001D0000AA090E8000C82448344AAF10107DA45A2
:1001E00001D100F062F8AFF2090EBAE80F0013F087
:1001F000010F18BFFB1A43F00103184720C4000089
:1002000040C400000A444FF0000C10F8013B13F00A
:10021000070408BF10F8014B1D1108BF10F8015B5F
:10022000641E05D010F8016B641E01F8016BF9D152
:1002300013F0080F1EBF10F8014BAD1C0C1B09D1A9
:100240006D1E58BF01F801CBFAD505E014F8016B1B
:1002500001F8016B6D1EF9D59142D6D370470000AD
:100260000023002400250026103A28BF78C1FBD8BF
:10027000520728BF30C148BF0B607047642900F0A7
:100280007981752900F07681782900F0AF816329A2
:1002900000F0CE83732900F0D383002070471FB590
:1002A0000BF0C3FF1FBD10B510BD00F0FFFB1146E2
:1002B000FFF7F5FF07F0E6FC00F01DFC03B4FFF7C5
:1002C000F2FF03BC06F095FC2D4B19680868B0E8F6
:1002D000F04F80F30988BFF36F8F4FF0000080F379
:1002E000118870470000000008480068006880F32B
:1002F00008884FF0000080F3148862B661B6BFF33F
:100300004F8FBFF36F8F00DF00BF00BF08ED00E02D
:10031000DFF80C00016841F470010160704700BF14
:1003200088ED00E0EFF30980BFF36F8F144B1A687C
:100330001EF0100F08BF20ED108A20E9F04F10606A
:1003400009B44FF0500072B680F31188BFF34F8F9D
:10035000BFF36F8F62B60AF019FB4FF0000080F315
:10036000118809BC19680868B0E8F04F1EF0100F3A
:1003700008BFB0EC108A80F30988BFF36F8F704715
:1003800048030020EFF305807047000009488047CC
:1003900009480047FEE7FEE7FEE7FEE7FEE7FEE767
:1003A000FEE7FEE7FEE7FEE704480549054A064B7F
:1003B00070470000515C0008C9010008F04F0020A0
:1003C000F0550020F0510020F0510020704753EA12
:1003D000020C00F069802DE9F04B4FF00006002B75
:1003E0001FBFB3FA83F503FA05F424FA05F65E405D
:1003F00012BF1643B2FA82F502FA05F4C5F12005E0
:100400001EBF22FA05FC44EA0C04203556EA044CCF
:100410004FEA144418BF641C4FF000084FF0000965
:10042000904271EB030C39D3002919BFB1FA81F75F
:1004300001FA07F6B0FA80F700FA07F6C7F12007CD
:100440001EBF20FA07FC46EA0C062037B6FBF4FC78
:10045000A7EB0507103F07F01F0BCBF120060CFAA6
:100460000BFB2CFA06F644BFB3460026202FA4BF90
:100470005E464FF0000B5BEA060C08BF4FF0010B25
:1004800019EB0B09ABFB027C48EB0608C01B06FB13
:1004900002CC0BFB03CC71EB0C01C1E70B4602460F
:1004A00041464846BDE8F08B13B54FF000004FF0D1
:1004B0000001AFF30080BDE81C4070470FB4044951
:1004C00010B503AA029800F0BFFA10BC5DF814FB47
:1004D0003001002070B5044685690068C10601D569
:1004E000302600E02026C00707D070BDD4E90121E6
:1004F00030469047206A401C20626D1EF6D570BDC4
:1005000070B5044685690078C00707D170BDD4E98D
:10051000012120209047206A401C20626D1EF6D5E4
:1005200070BD70B50C460546012A05D028788006B6
:1005300000D5EA69002302E0012305E05B1C934239
:1005400002D2E05C0028F9D1A869E618C01AA861B7
:10055000286A184428622846FFF7BCFF04E0D5E962
:10056000012114F8010B9047B442F8D32846FFF755
:10057000C7FF70BD2DE9F0410646002410687529BB
:10058000314616A510D0AFF30080002802DA4042B1
:1005900013A507E031688A0701D512A502E04907D3
:1005A00004D511A5012401E0AFF3008000210A2247
:1005B00006F1240709E0B0FBF2FCB0FBF2F302FB0A
:1005C0001C00303078541846491C0028F3D12346CB
:1005D0002A463046BDE8F04100F0C7B900000000EF
:1005E0002D0000002B0000002000000070B5044624
:1005F0000D4621461068AFF300802188090502D519
:100600000F4A7A4402E00E4A7A440E32002104F185
:10061000240305E000F00F060009965D5E54491CB6
:100620000028F7D120780023000704D5702D02D0D0
:1006300009B1022311322046BDE8704000F095B99F
:1006400056BD00002DE9F05F894604464FF0000AD0
:10065000DFF874B1FB44C0F820A02046E168884769
:10066000002874D0252806D0D4E901219047206ABB
:10067000401C2062F1E700265F462046E16888477B
:100680002028054607DB312D05D2781910F8200CFB
:1006900008B10643F1E7B00701D526F00406C4F817
:1006A0001CA00027C4F818A02A2D09D0284606F05F
:1006B00099FA38B304EB8708303DC8F8185019E0B0
:1006C00059F8041B204604EB87029161E1688847D2
:1006D000012F054618D1E069002820DA26F020060F
:1006E0001DE0D8F8180000EB800005EB4000303822
:1006F000C8F818002046E1688847054606F072FAF7
:100700000028EED1012F0AD02E2D08D12046E16815
:1007100088477F1C0546022F46F02006C4DBA069EF
:10072000002803DA404246F00106A061F00701D03C
:1007300026F010066C2D0BD0682D09D04C2D39D029
:100740006A2D35D0742D35D07A2D33D016E038E0AF
:10075000E1682F4620468847B842054609D16C2FEC
:1007600026D04FF48060E16806432046884705465E
:1007700004E06C2F1AD04FF4807006430DB3A5F13E
:100780004100192802D8203546F400664A46294619
:10079000204626604E46FFF771FD80B101280BD040
:1007A000F61D26F0070000F1080956E74020E4E7AF
:1007B0008020D8E70020D6E706F104094DE7284657
:1007C00052E7206ABDE8F09F2CBD0000032A40F2EA
:1007D000308010F0030C00F0158011F8013BBCF1E3
:1007E000020F624498BF11F801CB00F8013B38BFFB
:1007F00011F8013BA2F1040298BF00F801CB38BF09
:1008000000F8013B11F0030300F02580083AC0F026
:10081000088051F8043B083A51F804CBA0E80810CE
:10082000F5E7121D5CBF51F8043B40F8043BAFF301
:100830000080D20724BF11F8013B11F801CB48BF5B
:1008400011F8012B24BF00F8013B00F801CB48BF91
:1008500000F8012B704710B5203AC0F00B80B1E8CA
:100860001850203AA0E81850B1E81850A0E81850E5
:10087000BFF4F5AF5FEA027C24BFB1E81850A0E8EE
:10088000185044BF18C918C0BDE810405FEA827C08
:1008900024BF51F8043B40F8043B08BF7047D2071F
:1008A00028BF31F8023B48BF11F8012B28BF20F8C0
:1008B000023B48BF00F8012B704701F0FF031146CF
:1008C00001B543EA032242EA024200F003F801BD07
:1008D0004FF000020429C0F0128010F0030C00F069
:1008E0001B80CCF1040CBCF1020F18BF00F8012BE7
:1008F000A8BF20F8022BA1EB0C0100F00DB85FEAB5
:10090000C17C24BF00F8012B00F8012B48BF00F880
:10091000012B70474FF0000200B5134694469646EF
:10092000203922BFA0E80C50A0E80C50B1F1200102
:10093000BFF4F7AF090728BFA0E80C5048BF0CC0B0
:100940005DF804EB890028BF40F8042B08BF70470E
:1009500048BF20F8022B11F0804F18BF00F8012B80
:10096000704770477047704770472DE9F0470D4654
:1009700099469246044600F124080168880604D589
:10098000E06921F01001216000E00120A84201DDB2
:10099000471B00E00027A1697A1902EB0900081A39
:1009A000A0612078C00602D42046FFF793FD002600
:1009B00008E0D4E901211AF806009047206A401C9B
:1009C000761C20624E45F4DB2078C0060AD520460E
:1009D000FFF780FD06E0D4E9012130209047206A2E
:1009E000401C2062381EA7F10107F4DC07E0D4E9BF
:1009F000012118F805009047206A401C2062281E3B
:100A0000A5F10105F3DC2046FFF77AFD207800060A
:100A100002D50220BDE8F0870120FBE710B543694D
:100A200013B1AFF3008001E0FFF77BFD012010BDA3
:100A3000127800F124010A7000224A700122EDE7C9
:100A400011684FF0FF32E9E7074B70B50D467B4464
:100A500000F011F80446284600F020F810B14FF0DD
:100A6000FF3070BD204670BDFB6C000001694A1C60
:100A700002610878704700B58FB0CDE901310021DF
:100A8000059105497944CDE9031011466846FFF701
:100A9000D9FD0FB000BD0000E5FFFFFF007B00F0B7
:100AA00080007047004870478C4F00207546FFF764
:100AB000F9FFAE4605006946534620F0070085461B
:100AC00018B020B5FFF770FCBDE820404FF00006DD
:100AD0004FF000074FF000084FF0000B21F0070126
:100AE000AC46ACE8C009ACE8C009ACE8C009ACE869
:100AF000C0098D46704710B50446AFF3008020460C
:100B0000BDE81040FFF7DABB10B504490B220868B6
:100B1000034904F021F900F0A9F810BD30000020CD
:100B2000110D002000BFFEE710B5024800F0F4F9F7
:100B300010BD0000A40B002010B5024800F0ECF935
:100B400010BD0000040C002001460878103818235E
:100B5000B0FBF3F20848805CC865032A05D9086831
:100B60006FF30900001D886503E008686FF3090052
:100B70008865886D7047000054C300080146002056
:100B80008A6A8B69CBB932B1012A0DD0022A03D00F
:100B9000032A10D10EE000BFCB6A03F08073B3F1DB
:100BA000807F00D1012007E0CB6AB3F1C07F00D184
:100BB000012001E000E000BF34E08B69B3F5005F85
:100BC0001AD132B1012A07D0022A03D0032A11D147
:100BD0000AE000BF01200EE0CB6A03F08073B3F19E
:100BE000807F00D1012006E0CB6AB3F1C07F00D145
:100BF000012000E000BF15E032B1012A05D0022A31
:100C000004D0032A0CD103E000BF00BF012008E09C
:100C1000CB6A03F08073B3F1807F00D1012000E044
:100C200000BF00BF704730B50468246824F48024F6
:100C300005682C60046863608468402C04D10468F3
:100C4000A2600468E16003E00468A1600468E260F7
:100C500030BD704710B506F071F94FF4005000F048
:100C600057FB10BD72B600BFFEE7000010B52DEDBA
:100C7000068B00242B48406890ED000AF0EE408A75
:100C8000B0EE408A29E038EE680A10EE101A0846E5
:100C90000BF05AFA41EC1A0BB0EE4A0AF0EE6A0A6F
:100CA00005F096FFB0EE409AF0EE609A9FED1E0BB5
:100CB00053EC102B51EC190B0AF0E0FF01D2641C2D
:100CC00000E00024F0EE488A1648406890ED000AE3
:100CD000B0EE408A0A2000F005FB642CD3DB9FEDC8
:100CE000140AB4EEC08AF1EE10FA05DD9FED110A88
:100CF00038EE400AB0EE408A9FED0F0AB4EEC08A8B
:100D0000F1EE10FA05D29FED0B0A38EE000AB0EEB4
:100D1000408AB1EE480A034880ED030ABDEC068B19
:100D200010BD0000300000209A9999999999B93F17
:100D3000000034430000B443000034C308B500BFD2
:100D40001348006840F01000114908600846006828
:100D500000F01000009000BF00BF0E480E49086070
:100D60006B20486000210C48816042F20F71C16025
:100D70008021816101F048FD00220521362000F02C
:100D800087FC362000F074FC034801F01DFE08BD0E
:100D90004038024000100040280F0020017869B957
:100DA000012101700D49496A0D4A126842F210731F
:100DB00003FB0211816041600021C16081684160D4
:100DC0000649496A064A126842F2107303FB02118F
:100DD0008160D0E90121891AC1607047001000408C
:100DE0001001002013484068D0ED000A114890ED32
:100DF000031A70EE810AB0EE600A05E0DFED0E0A1C
:100E000070EE600AB0EE600ADFED0C0AB4EEE00AA4
:100E1000F1EE10FAF2DC05E0DFED070A70EE200AD1
:100E2000B0EE600ADFED060AB4EEE00AF1EE10FA69
:100E3000F2D97047300000200000B4430000344372
:100E4000000034C370B50446A56D00F089FB06466A
:100E500094F83500022808D08020606500BF00208B
:100E600084F8340000BF012070BD2068006820F0C5
:100E70001600216808602068406920F08000216821
:100E80004861206C08B9A06C28B12068006820F087
:100E90000800216808602068006820F001002168CF
:100EA00008600FE000F05CFB801B05280AD92020B9
:100EB000606500BF002084F8340000BF032084F880
:100EC0003500D1E72068006800F001000028E9D172
:100ED00094F85C103F208840A86000BF002084F890
:100EE000340000BF012084F835000020BCE7014633
:100EF00091F83500022803D0802048650120704712
:100F0000052081F835000868006820F001000A68B3
:100F100010600020F3E70000F8B5044600200090C0
:100F20008C4800684FF41651B0FBF1F7A56D2E68A0
:100F300094F85C1008208840304098B12068006820
:100F400000F0040070B12068006820F004002168FF
:100F5000086094F85C1008208840A860606D40F03C
:100F60000100606594F85C1001208840304068B151
:100F70002068406900F0800040B194F85C100120C6
:100F80008840A860606D40F00200606594F85C10D5
:100F900004208840304068B12068006800F00200FA
:100FA00040B194F85C1004208840A860606D40F067
:100FB0000400606594F85C1010208840304078B3DD
:100FC0002068006800F0080050B394F85C1010200E
:100FD0008840A8602068006800F4802080B1206804
:100FE000006800F4002028B9206CC8B12046216CAC
:100FF000884715E0A06C98B12046A16C88470FE0A7
:101000002068006800F4807028B92068006820F02B
:10101000080021680860206C10B12046216C8847C8
:1010200094F85C10202088403040002865D020686B
:10103000006800F0100000285FD094F85C102020B9
:101040008840A86094F83500052828D120680068F9
:1010500020F01600216808602068406920F08000B8
:1010600021684861206C08B9A06C28B1206800682C
:1010700020F008002168086094F85C103F20884048
:10108000A86000BF002084F8340000BF012084F86D
:101090003500206D10B12046216D8847F8BD2068CD
:1010A000006800F4802080B12068006800F400200F
:1010B00028B9606C10B12046616C88471DE0E06B78
:1010C000D8B12046E16B884717E02068006800F43B
:1010D000807068B92068006820F0100021680860FE
:1010E00000BF002084F8340000BF012084F83500E0
:1010F000E06B10B12046E16B8847606D38B3606DDE
:1011000000F00100F0B1052084F835002068006887
:1011100020F001002168086000BF0098401C00908A
:10112000B84200D905E02068006800F001000028FE
:10113000F3D100BF00BF002084F8340000BF0120BD
:1011400084F83500E06C10B12046E16C884700BFA0
:10115000A4E70000440300202DE9F04104460025E7
:1011600000F0FEF9074614B90120BDE8F081606A7D
:1011700000B100BF00BF002084F8340000BF02208F
:1011800084F835002068006820F0010021680860BC
:101190000AE000F0E5F9C01B052805D920206065AC
:1011A000032084F83500E0E72068006800F00100C3
:1011B0000028EED12068056821480540D4E90101E6
:1011C0000843E16808432169084361690843A1694C
:1011D0000843E1690843216A08430543606A04281B
:1011E00003D1D4E90B01084305432068056020685A
:1011F000456925F00705606A0543606A04280DD13A
:10120000A06A0543E06A48B12046FFF7B7FC28B161
:1012100040206065012084F83500A6E7206845611C
:101220002046FFF791FC064694F85C103F2088406A
:10123000B06000206065012084F83500002094E74C
:101240003F8010F02DE9F04704460D4616461F4634
:101250004FF00008D4F8589000BF94F834000128EB
:1012600002D10220BDE8F087012084F8340000BFDD
:1012700094F8350001282BD1022084F83500002095
:1012800060653B46324629462046FFF7CCFC94F881
:101290005C103F208840C9F808002068006840F0D2
:1012A0001600216808602068406940F080002168CD
:1012B0004861206C28B12068006840F0080021686F
:1012C00008602068006840F001002168086006E0BE
:1012D00000BF002084F8340000BF4FF002084046F1
:1012E000C0E7000070B5044600F03AF9064625460E
:1012F000681C10B104480078054400BF00F030F9C4
:10130000801BA842FAD370BDB003002070470000D4
:1013100010B5044604480068204020B1024804602B
:101320002046FFF7F3FF10BD143C0140F8B502461C
:101330000B46002100250024002000BFE4E0012628
:1013400006FA01F51E6806EA0504AC4271D15E6832
:10135000012E08D05E68022E05D05E68112E02D0E4
:101360005E68122E13D190684F000326BE40B04332
:101370004F00DE68BE4030439060506801268E40CA
:10138000B0431E79C6F300168E4030435060D068DB
:101390004F000326BE40B0434F009E68BE4030431E
:1013A000D0605E68022E02D05E68122E13D1CF0884
:1013B00002F1200656F827004E07F70E0F26BE4012
:1013C000B0434F07FF0E1E69BE403043CF0802F105
:1013D000200646F8270010684F000326BE40B043A1
:1013E0001E7906F003064F00BE40304310605E6871
:1013F00006F08056B6F1805FA8D100BF444E366833
:1014000046F48046424F3E603E46366806F48046CB
:10141000009600BF00BF3F4E8F0856F827008E078A
:10142000370F0F26BE40B0433B4EB24202D10026DA
:101430002EE068E0394EB24201D1012628E0384E54
:10144000B24201D1022623E0364EB24201D1032638
:101450001EE0354EB24201D1042619E0334EB242AD
:1014600001D1052614E0324EB24201D106260FE02A
:10147000304EB24201D107260AE02F4EB24201D1CE
:10148000082605E02D4EB24201D1092600E00A26C9
:101490008F073F0FBE4030431E4E8F0846F827008F
:1014A000274E3068A0435E6806F48036B6F5803F6C
:1014B00000D12043224E3060361D3068A0435E6864
:1014C00006F40036B6F5003F00D120431C4E361D11
:1014D0003060361D3068A0435E6806F48016B6F5AD
:1014E000801F00D12043164E08363060361D30680C
:1014F000A0435E6806F40016B6F5001F00D1204335
:101500000F4E0C363060491C1029FFF418AFF8BD9F
:101510004438024008380140000002400004024004
:1015200000080240000C024000100240001402407B
:1015300000180240001C024000200240002402402B
:10154000003C0140024613690B400BB1012000E052
:10155000002070470AB1816101E00B04836170478C
:101560000148006870470000A80300200348006895
:10157000034909780844014908607047A80300201E
:10158000B003002010B5032000F0C0F80F2000F0D9
:1015900005F800F047F8002010BD000070B588B0D5
:1015A00004460025002600222146372000F070F86E
:1015B000372000F05DF800BF1648006840F02000BA
:1015C000144908600846006800F02000019000BF40
:1015D00000BF02A903A800F031FD00F057FD45004F
:1015E0000D48B5FBF0F0461E0C480D49086040F26E
:1015F000E7310B48C160466000210161816001F064
:1016000003F920B9064801F0DFF908B070BD0120E8
:10161000FBE700004038024040420F000014004049
:10162000640C002008B500BF1048006840F08050EE
:101630000E4908600846006800F08050009000BF26
:1016400000BF00BF081D006840F48040091D08600D
:101650000846006800F48040009000BF00BF0022F0
:101660000F21901E00F014F808BD00004038024021
:1016700001460846002809DB00F01F0301229A40BA
:1016800043099B0003F1E023C3F8002100BF70472A
:101690002DE9F05F80460D461646002705F07CFADE
:1016A000074639462A46334601F00700C0F1070ACB
:1016B000BAF1040F02D94FF0040A01E0C0F1070AA1
:1016C000D14600F1040ABAF1070F02D24FF0000A26
:1016D00001E0A0F1030AD4464FF0010A0AFA09FA20
:1016E000AAF1010A0AEA020A0AFA0CFA4FF0010BFF
:1016F0000BFA0CFBABF1010B0BEA030B4AEA0B04F0
:101700002146404605F050FABDE8F09F00BF00F0CA
:101710000702064B19684FF6FF031940044B0B43B1
:1017200043EA0221014B196000BF70470CED00E055
:101730000000FA0538B5002400BF2048006840F0DA
:1017400080501E4908600846006800F080500090F4
:1017500000BF00BF1A48006840F480301849086094
:10176000FFF7FEFE044607E0FFF7FAFE001BB0F5A8
:101770007A7F01D9032038BD1148406800F48030D9
:10178000B0F5803FF0D10E48006840F400300C49BD
:101790000860FFF7E5FE044607E0FFF7E1FE001BE7
:1017A000B0F57A7F01D90320E5E70548406800F4E9
:1017B0000030B0F5003FF0D10020DCE740380240B7
:1017C000007000402DE9F84304460026002500275C
:1017D000A846A946207800F0010088B100BFFE4865
:1017E000006820F40000FC49086008460068616B4E
:1017F0000843F949086000BF606B08B94FF0010861
:10180000206800F40020B0F5002F13D1F248843096
:10181000006820F44010E16B0843EF498431086010
:10182000E06BB0F5801F01D14FF00108E06B08B903
:101830004FF00109206800F48010B0F5801F13D12B
:10184000E5488430006820F44000216C0843E249F8
:1018500084310860206CB0F5800F01D14FF0010891
:10186000206C08B94FF00109206800F08070B0F1D9
:10187000807F01D14FF00108207800F0200020285F
:1018800070D100BFD4483830006840F08050D24951
:10189000383108600846006800F08050009000BFB2
:1018A00000BFCE48006840F48070CC490860FFF764
:1018B00057FE064607E0FFF753FE801B642802D957
:1018C0000320BDE8F883C548006800F48070002854
:1018D000F1D0C1486830006800F4407585B3208EAF
:1018E00000F44070A8422BD0BB486830006820F458
:1018F0004075B9486830006840F48030B6496831B6
:1019000008600846006820F48030086008460560DA
:10191000006800F0010098B1FFF722FE064608E0DB
:10192000FFF71EFE801B41F28831884201D9032057
:10193000C7E7A94868300068C0F340000028EFD02E
:1019400000BF208E00F44070B0F5407F0BD1A2485C
:10195000006820F4F810A24A216B114008439E4908
:10196000086006E010E09C48006820F4F8109A49EE
:101970000860994868300068218EC1F30B01084364
:1019800095496831086000BF207800F010001028E9
:1019900010D100BF90488430006820F080708E49DC
:1019A0008431086008460068A16B08438A49843185
:1019B000086000BF208800F48040B0F5804F09D156
:1019C00085488830006820F44030616E08438249C1
:1019D00088310860208800F40040B0F5004F09D13C
:1019E0007D488830006820F44020A16E08437A4981
:1019F00088310860206800F48030B0F5803F09D15C
:101A000075488830006820F44010E16E0843724940
:101A100088310860206800F40030B0F5003F09D13B
:101A20006D488830006820F44000216F08436A49FF
:101A300088310860207800F04000402809D16648CD
:101A40008830006820F00300616C084362498831E7
:101A50000860207800F08000802809D15E48883036
:101A6000006820F00C00A16C08435B4988310860D5
:101A7000208800F48070B0F5807F09D15648883006
:101A8000006820F03000E16C084353498831086059
:101A9000208800F40070B0F5007F09D14E488830EE
:101AA000006820F0C000216D08434B498831086070
:101AB000208800F48060B0F5806F09D146488830F6
:101AC000006820F44070616D084343498831086024
:101AD000208800F40060B0F5006F09D13E488830DE
:101AE000006820F44060A16D08433B4988310860DC
:101AF000208800F48050B0F5805F09D136488830E6
:101B0000006820F44050E16D084333498831086093
:101B1000208800F40050B0F5005F09D12E488830CD
:101B2000006820F44040216E08432B49883108604A
:101B3000206800F48000B0F5800F09D12648883075
:101B4000006820F08060A16F084323498831086055
:101B5000206800F40010B0F5001F0FD11E48883037
:101B6000006820F00060E16F08431B49883108607D
:101B7000E06FB0F1006F01D14FF00109207800F063
:101B80000800082801D14FF00109206800F48020E6
:101B9000B0F5802F09D110488830006820F04070DF
:101BA000616F08430C4988310860206800F4000028
:101BB000B0F5000F0AD108488830006820F0805046
:101BC000D4F880100843044988310860B8F1010F47
:101BD0000DD0206806E00000083802400070004088
:101BE000FFFCFF0F00F00070B0F1007F7DD1AD4829
:101BF000006820F08060AB490860FFF7B1FC064642
:101C000006E0FFF7ADFC801B642801D9032058E6ED
:101C1000A4480068C0F3C0600028F2D1207800F02A
:101C20000100B8B1606BA8B99E4884300068C0F369
:101C300001459C4884300068C0F3036760688001F8
:101C400040EA054040EA0761207A41EA0070954980
:101C500084310860206800F40020B0F5002F03D123
:101C6000E06BB0F5801F09D0206800F48010B0F55B
:101C7000801F24D1206CB0F5800F20D1894884309A
:101C80000068C0F30145874884300068C0F30277DC
:101C90006068800140EA0541207B41EA006040EA3B
:101CA00007708049843108607E488C30006820F0DD
:101CB0001F00616A491E08437A498C310860206818
:101CC00000F08070B0F1807F17D1764884300068D2
:101CD000C0F30365734884300068C0F3027760681E
:101CE0008101208A41EA004000E031E040EA0560DD
:101CF00040EA07706B4984310860206800F000708A
:101D0000B0F1007F0DD160688101208A41EA004175
:101D1000207B41EA0061207A41EA00706149843108
:101D200008606048006840F080605E490860FFF726
:101D300017FC064606E0FFF713FC801B642801D958
:101D40000320BEE557480068C0F3C0600028F2D009
:101D5000B9F1010F7ED15348006820F080505149FD
:101D60000860FFF7FDFB064606E0FFF7F9FB801B66
:101D7000642801D90320A4E54A480068C0F34070F4
:101D80000028F2D1206800F40020B0F5002F01D126
:101D9000E06B38B1206800F48010B0F5801F22D1CC
:101DA000206C00BB3F4888300068C0F301453D48C7
:101DB00088300068C0F302776069800140EA05411D
:101DC000207E41EA006040EA0770364988310860A9
:101DD000081D006820F4F851A06A401E41EA002066
:101DE00030498C310860206800F40010B0F5001F05
:101DF00019D1E06FB0F1006F15D12A488830006822
:101E0000C0F30365274888300068C0F30277606933
:101E10008101208C41EA004040EA056040EA0770F9
:101E2000204988310860207800F00800082820D177
:101E30001C4888300068C0F303651A488830006881
:101E4000C0F301476069800140EA074040EA05614C
:101E5000207F00E024E041EA0070124988310860E8
:101E6000081D006820F44030E16A08430D498C31B8
:101E700008600C48006840F080500A490860FFF78D
:101E80006FFB064606E0FFF76BFB801B642801D959
:101E9000032016E503480068C0F340700028F2D024
:101EA00000200EE50038024070B504460D460026BD
:101EB0000CB9012070BD5C48006800F00F00A8421A
:101EC0000ED25948006820F00F0028435649086098
:101ED0000846006800F00F00A84201D00120E9E7A1
:101EE000207800F0020002281DD1207800F00400C4
:101EF000042805D14D48006840F4E0504B49086083
:101F0000207800F00800082805D14848006840F40F
:101F10006040464908604548006820F0F000A1682C
:101F2000084342490860207800F0010090B36068DF
:101F3000012807D13D4808380068C0F34040A0B9E7
:101F40000120B7E76068022807D1384808380068E0
:101F5000C0F3406048B90120ACE734480838006855
:101F6000C0F3400008B90120A4E73048006820F021
:101F70000300616808432D490860FFF7F1FA06463F
:101F800009E0FFF7EDFA801B41F28831884202D95F
:101F900003208FE707E02548006800F00C00616827
:101FA000B0EB810FEDD12048006800F00F00A8428F
:101FB0000ED91D48006820F00F0028431A49086018
:101FC0000846006800F00F00A84201D0012071E728
:101FD000207800F00400042807D11448006820F499
:101FE000E050E168084311490860207800F00800DB
:101FF000082808D10D48006820F46040216940EAB3
:10200000C1000A49086000F061F808490968C1F395
:102010000311074A515CC840064908600648006839
:10202000FFF7BCFA002045E7003C024008380240B8
:102030003CC3000844030020AC0300200F220260D0
:102040000D4A126802F0030242600B4A126802F065
:10205000F0028260084A126802F4E052C260064A46
:10206000126802F46042D2080261044A126802F067
:102070000F020A607047000008380240003C02402E
:1020800001480068704700004403002000B5FFF7D6
:10209000F7FF04490968C1F38221034A515CC84033
:1020A00000BD0000083802404CC3000800B5FFF72F
:1020B000E7FF04490968C1F34231034A515CC84053
:1020C00000BD0000083802404CC300082DE9F0476D
:1020D000002400250026A1462548006800F00C00D9
:1020E00020B1042805D008283AD105E0DFF8849013
:1020F00039E0DFF8849036E01D48001F006800F0EA
:102100003F041B48001F006800F4800078B11A48A3
:102110001749091F0968C1F38811A0FB0170014626
:10212000224600233846FEF752F905460EE01148D4
:102130000F49091F0968C1F38811A0FB017001460E
:10214000224600233846FEF742F905460848001F9C
:102150000068C0F30140401C4600B5FBF6F902E000
:10216000DFF8109000BF00BF4846BDE8F0870000D0
:10217000083802400024F40040787D01F8B5044698
:1021800000270CB90120F8BD207800F001000028DC
:1021900071D0F948006800F00C0004280DD0F64812
:1021A000006800F00C00082813D1F348001F0068F5
:1021B00000F48000B0F5800F0BD1EF4808380068BC
:1021C000C0F34040002869D06068002866D1012033
:1021D000D9E700BF6068B0F5803F08D1E64808380D
:1021E000006840F48030E449083908602EE06068F7
:1021F00068B9E1480838006820F48030DE490839C1
:1022000008600846006820F4802008601EE06068CE
:10221000B0F5A02F0DD1D8480838006840F48020D0
:10222000D549083908600846006840F480300860E5
:102230000CE0D1480838006820F48030CE490839D5
:1022400008600846006820F48020086000BF6068CD
:1022500090B1FFF785F9054606E0FFF781F9401BCD
:10226000642801D903208EE7C34808380068C0F30A
:1022700040400028F1D011E0FFF772F9054606E072
:10228000FFF76EF9401B642801D903207BE7BA48A9
:1022900008380068C0F340400028F1D1207800F0F1
:1022A0000200022869D1B448006800F00C0058B15F
:1022B000B148006800F00C0008281CD1AE48001F8F
:1022C000006800F48000B0B9AB4808380068C0F37B
:1022D000400020B1E068012801D0012053E7A64862
:1022E0000838006820F0F800216940EAC100A249DE
:1022F0000839086041E0E06828B39F480838006862
:1023000040F001009C4908390860FFF729F90546AB
:1023100006E0FFF725F9401B022801D9032032E728
:10232000954808380068C0F340000028F1D0924872
:102330000838006820F0F800216940EAC1008E49A1
:102340000839086019E08C480838006820F001005E
:10235000894908390860FFF703F9054606E0FFF7E9
:10236000FFF8401B022801D903200CE782480838F7
:102370000068C0F340000028F1D1207800F0080088
:10238000082836D16069D0B17B486C30006840F0D5
:10239000010079496C310860FFF7E2F8054606E074
:1023A000FFF7DEF8401B022801D90320EBE6724854
:1023B0006C300068C0F340000028F1D019E06E488E
:1023C0006C30006820F001006B496C310860FFF749
:1023D000C7F8054606E0FFF7C3F8401B022801D9FD
:1023E0000320D0E664486C300068C0F34000002849
:1023F000F1D1207800F00400042874D15E48383010
:10240000006800F0805080B900BF5B483830006839
:1024100040F080505849383108600846006800F0A4
:102420008050009000BF00BF01275448006800F4AE
:102430008070B0B95148006840F480704F4908601E
:10244000FFF78EF8054606E0FFF78AF8401B642880
:1024500001D9032097E64948006800F480700028FD
:10246000F2D000BFA068012808D143486830006856
:1024700040F001004049683108602DE0A06868B96B
:102480003D486830006820F001003B496831086031
:102490000846006820F0040008601DE0A0680528D8
:1024A0000DD135486830006840F004003249683189
:1024B00008600846006840F0010008600CE02E4803
:1024C0006830006820F001002B4968310860084638
:1024D000006820F00400086000BFA068A8B1FFF702
:1024E0003FF8054609E02EE0FFF73AF8401B41F2BD
:1024F0008831884201D9032045E61F4868300068CA
:10250000C0F340000028EFD013E0FFF729F805469C
:1025100008E0FFF725F8401B41F28831884201D9D5
:10252000032030E6144868300068C0F340000028FB
:10253000EFD1012F07D110483830006820F08050CB
:102540000D4938310860A069002852D00A48006857
:1025500000F00C00082865D0A06902284AD106487E
:102560000838006820F08070034908390860FEF7D9
:10257000F7FF05460BE000000838024000700040FD
:10258000FEF7EEFF401B022801D90320FBE53B4884
:102590000068C0F340600028F2D1E06940F00050CC
:1025A000216A0843616A40EA81110122A06AC2EBF4
:1025B000500041EA00412C20005D41EA00602F49B3
:1025C000091D0860081F006840F08070091F08603E
:1025D000FEF7C6FF054606E0FEF7C2FF401B0228D5
:1025E00001D90320CFE525480068C0F340600028EA
:1025F000F2D040E02148006820F080701F49086058
:10260000FEF7AEFF054606E0FEF7AAFF401B0228D4
:1026100001D90320B7E519480068C0F340600028DD
:10262000F2D128E01548001D0668A069012820D0D5
:1026300006F48001E06981421BD106F03F01206A67
:10264000814216D147F6C0703040616AB0EB811FFD
:102650000FD106F440310122A06AC2EB5000B1EB69
:10266000004F06D106F070612C20005DB1EB006FC9
:1026700001D0012087E5002085E5000000380240F8
:10268000704770477047000010B50346002200BF36
:1026900093F83C00012801D1022010BD012083F8ED
:1026A0003C0000BF22F0FF00CC6840EA040222F4A4
:1026B00040708C6840EA040222F480604C6840EA72
:1026C000040222F400600C6840EA040222F4805004
:1026D0000C6940EA040222F400504C6940EA04020A
:1026E00022F480408C6A40EA040222F470200C8BB1
:1026F00040EA04420F4C1868A04203D00E4C186800
:10270000A0420ED122F470008C8C40EA045222F0D8
:102710008070CC6940EA040222F000700C6A40EA42
:1027200004021868426400BF002083F83C0000BF28
:1027300000BFB2E7000001400004014030B502468E
:102740000B4600BF92F83C00012801D1022030BDA9
:10275000012082F83C0000BF022082F83D00106892
:10276000416810688468214D1068A84203D0204D4C
:102770001068A84203D121F470015868014321F088
:1027800070011868014310684160184D1068A84234
:102790001BD01068B0F1804F17D0164D1068A842BA
:1027A00013D0154D1068A8420FD0144D1068A842E0
:1027B0000BD00F4D1068A84207D0114D1068A842E9
:1027C00003D0104D1068A84205D124F08004986809
:1027D000044310688460012082F83D0000BF00209F
:1027E00082F83C0000BF00BFB1E7000000000140DC
:1027F000000401400004004000080040000C0040BC
:10280000004001400018004010B504460CB90120FA
:1028100010BD94F83D0028B9002084F83C00204603
:1028200000F02AF8022084F83D00211D206803F002
:1028300087FA012084F8480000BF84F83E00012197
:102840003F200155402001554120015542200155AE
:102850004320015500BF00BF012084F844004520FB
:102860000155462001554720015500BF012084F83D
:102870003D000020CCE7000038B50446254920681B
:10288000884216D100BF2448006840F00100224968
:1028900008600846006800F00100009000BF00BF1B
:1028A000002206211920FEF7F3FE1920FEF7E0FEB4
:1028B0002FE02068B0F1804F0FD100BF1648001FF5
:1028C000006840F001001449091F086008460068CC
:1028D00000F00100009000BF1BE010492068884212
:1028E00017D100BF0C48001F006840F010000A49D3
:1028F000091F08600846006800F01000009000BF43
:1029000000BF002206213620FEF7C2FE3620FEF769
:10291000AFFE38BD000001404438024000100040C6
:10292000014691F83D00012801D0012070470220A6
:1029300081F83D001C4B086898421BD00868B0F134
:10294000804F17D0194B0868984213D0184B08686D
:1029500098420FD0174B086898420BD0164B086866
:10296000984207D0154B0868984203D0144B08686A
:10297000984210D108688068124B00EA0302062AC8
:102980000FD0B2F5803F0CD00868006840F001001D
:102990000B68186005E00868006840F001000B68EB
:1029A00018600020C2E70000000001400004004061
:1029B00000080040000C00400004014000400140BD
:1029C0000018004007000100014691F83D00012871
:1029D00001D001207047022081F83D000868C068DE
:1029E00040F001000B68D8601C4B086898421BD06F
:1029F0000868B0F1804F17D0194B0868984213D07F
:102A0000184B086898420FD0174B086898420BD0B3
:102A1000164B0868984207D0154B0868984203D0B7
:102A2000144B0868984210D108688068124B00EA7D
:102A30000302062A0FD0B2F5803F0CD00868006868
:102A400040F001000B68186005E00868006840F07D
:102A500001000B6818600020BCE700000000014086
:102A60000004004000080040000C00400004014049
:102A70000040014000180040070001002DE9F0412E
:102A800004460D4600BF94F83C00012802D1022004
:102A9000BDE8F081012084F83C0000BF022084F8EA
:102AA0003D00206886683748064026F47F46206847
:102AB00086602868502833D00CDC202850D004DCF5
:102AC00000284BD0102851D149E0302849D0402867
:102AD0004CD139E060282DD0702807D0B0F5805F48
:102AE00003D0B0F5005F41D10DE040E0D5E902131D
:102AF0006A68206803F0A1F92068866846F07706C6
:102B00002068866033E0D5E902136A68206803F024
:102B100094F92068806840F480402168886026E04D
:102B2000EA686968206803F0D3FA5021206803F04E
:102B30008FF91CE0EA686968206803F025FB6021D2
:102B4000206803F085F912E0EA686968206803F0FC
:102B5000BFFA4021206803F07BF908E000BF00BF06
:102B600000BF2968206803F073F900E000BF00BFD0
:102B7000012084F83D0000BF002084F83C0000BF25
:102B800000BF85E788FFFEFF70B52DED0A8B044678
:102B90009FEDF80BB0EE408AF0EE608AF74880684F
:102BA000A04277D1217FF548007B8142F9D1F448DA
:102BB000408800286FD10120F1494880EF4A11690F
:102BC000906801F0D9FCEF4948600020EE49486068
:102BD000EA4A91881068FEF7B5FC18B90120EB4964
:102BE000486003E04FF0FF30E849486000BFE34829
:102BF000006950B9E14880680068006A20F00A0066
:102C0000DE4989680968086227E0DC480069042811
:102C10000AD1DA4880680068006A20F0A000D7492D
:102C200089680968086218E0D448006908280AD150
:102C3000D24880680068006A20F42060CF49896823
:102C40000968086209E0CD4880680068006A20F4DD
:102C50002040CA49896809680862C848006950B9B3
:102C6000C64880680068006A40F00200C34989686D
:102C70000968086229E0C148006904280CD1BF48EE
:102C800080680068006A40F02000BC4989680968D3
:102C900008621AE049E119E0B848006908280AD139
:102CA000B64880680068006A40F40070B3498968DB
:102CB0000968086209E0B14880680068006A40F469
:102CC0000050AE498968096808622DE10020AC49CE
:102CD0004880AA4A1169906801F04EFCAC494860EE
:102CE000AA49486808F09FFF41EC1A0BA8494968B7
:102CF000A44A5268891AA44A526842F2107303FB2C
:102D0000021008F090FF41EC1C0B53EC1C2B9FEDC4
:102D1000A10B51EC100B08F095FD41EC1B0B53EC93
:102D20001A2B08F0E7FF41EC190B9C4890ED021BB1
:102D3000B0EE410AF0EE610A53EC102B51EC190B86
:102D400008F0CCFC954AC2E9020195484088401C35
:102D500000B29349488000BF8848006950B987484D
:102D600080680068006A20F00A0084498968096860
:102D7000086227E08148006904280AD17F488068FA
:102D80000068006A20F0A0007C4989680968086230
:102D900018E07A48006908280AD1784880680068F5
:102DA000006A20F42060754989680968086209E0B2
:102DB000724880680068006A20F420406F49896882
:102DC000096808626D48006940B96C48806800680D
:102DD000006A6A4989680968086221E067480069F1
:102DE000042808D1654880680068006A63498968DA
:102DF0000968086214E061480069082808D15F4842
:102E000080680068006A5D4989680968086207E0AF
:102E10005A4880680068006A5849896809680862E9
:102E200000BF5F49B1F9020008F0FDFE41EC190B4B
:102E30009FED5C0B53EC102B08F05CFE74D15B48EB
:102E40004068A8B9012059494860544890ED021BD8
:102E5000B0EE410AF0EE610A9FED521B53EC112BCC
:102E600051EC100B08F0EEFC514AC2E902014CE0B3
:102E70004A4890ED021BB0EE410AF0EE610A9FED68
:102E8000491B53EC112B51EC100B08F0DBFC41EC0F
:102E9000180B474890ED021BB0EE410AF0EE610AB4
:102EA00053EC102B51EC180B08F018FC41EC1A0BEA
:102EB000B0EE4A0AF0EE6A0A03F08AFEB0EE409ADB
:102EC000F0EE609A9FED3B0B53EC102B51EC190B7D
:102ED00008F0D4FE19D3364890ED021BB0EE410A3B
:102EE000F0EE610A53EC102B51EC180B08F0F6FBD6
:102EF00041EC180B9FED310B53EC102B51EC180BE0
:102F000008F0A0FC2A4AC2E902019FED1A0BB0EEBC
:102F1000408AF0EE608A0020214948809FED150B21
:102F20001E4880ED020BD0E6EFE126488068A04203
:102F30007BD1217F2348007B8142F9D110488088D2
:102F4000002873D101200E4988801E4A11699068BB
:102F500001F012FB0B49886000200B498860194A78
:102F600091881068FEF7EEFA18B9012007498860C9
:102F70002EE029E00000000000000000A80E002064
:102F8000E8110020F4110020301200201C12002053
:102F90000812002000000000006AF84048120020DB
:102FA0007012002000000000000024407C1200206D
:102FB000C0110020000000000000344000000000AC
:102FC00000000040C80E00204FF0FF30FA49886032
:102FD00000BFFA48006950B9F84880680068006A84
:102FE00020F00A00F54989680968086229E0F34879
:102FF000006904280AD1F14880680068006A20F05E
:10300000A000EE498968096808621AE0EB48006987
:1030100008280CD1E94880680068006A20F4206024
:10302000E6498968096808620BE06FE140E0E3481F
:1030300080680068006A20F42040E04989680968D7
:103040000862DE48006950B9DC4880680068006AA0
:1030500040F00200D94989680968086227E0D7482A
:10306000006904280AD1D54880680068006A40F0E9
:103070002000D24989680968086218E0CF480069D1
:1030800008280AD1CD4880680068006A40F40070C2
:10309000CA4989680968086209E0C8488068006808
:1030A000006A40F40050C5498968096808620CE666
:1030B0000020C3498880C14A1169906801F05CFA18
:1030C000C0498860BC49886808F0ADFD41EC1A0B26
:1030D000BC498968BC4A9268891ABC4A926842F223
:1030E000107303FB021008F09EFD41EC1C0B53EC27
:1030F0001C2B1FED580B51EC100B08F0A3FB41ECFF
:103100001B0B53EC1A2B08F0F5FD41EC190BB048E2
:1031100090ED041BB0EE410AF0EE610A53EC102B67
:1031200051EC190B08F0DAFAA94AC2E90401A948DE
:103130008088401C00B2A749888000BF9F48006972
:1031400050B99E4880680068006A20F00A009B49D8
:1031500089680968086227E09848006904280AD14C
:10316000964880680068006A20F0A000934989684A
:103170000968086218E09148006908280AD18F4858
:1031800080680068006A20F420608C4989680968BA
:10319000086209E0894880680068006A20F42040DD
:1031A00086498968096808628448006940B983488B
:1031B00080680068006A814989680968086221E0BE
:1031C0007E480069042808D17C4880680068006A4D
:1031D0007A4989680968086214E078480069082813
:1031E00008D1764880680068006A7449896809686F
:1031F000086207E0714880680068006A6F49896862
:103200000968086200BF7349B1F9040008F00BFDBA
:1032100041EC190B1FED9D0B53EC102B08F06AFCD1
:1032200073D16D488068A8B901206B4988606848EF
:1032300090ED041BB0EE410AF0EE610A1FEDA71BF2
:1032400053EC112B51EC100B08F0FCFA634AC2E965
:1032500004014CE05E4890ED041BB0EE410AF0EE34
:10326000610A1FEDB01B53EC112B51EC100B08F051
:10327000E9FA41EC180B594890ED041BB0EE410AF5
:10328000F0EE610A53EC102B51EC180B08F026FA03
:1032900041EC1A0BB0EE4A0AF0EE6A0A03F098FC11
:1032A000B0EE409AF0EE609A1FEDBE0B53EC102B7F
:1032B00051EC190B08F0E2FC19D3484890ED041BBF
:1032C000B0EE410AF0EE610A53EC102B51EC180BF2
:1032D00008F004FA41EC180B1FEDC80B53EC102B4F
:1032E00051EC180B08F0AEFA3C4AC2E904011FED9C
:1032F000DF0BB0EE408AF0EE608A0020354988800E
:103300001FEDE40B324880ED040BC9E334488068BC
:10331000A04250D1217F3248007B8142F9D1284818
:10332000C088002876D101202549C8802C4A11691F
:10333000906801F021F92449C86000202349C86041
:10334000274A91881068FEF7FDF818B901201A493C
:10335000C86003E04FF0FF301749C86000BF204845
:10336000006950B91E4880680068006A20F00A00B1
:103370001B498968096808623EE019480069042809
:103380000AD1174880680068006A20F0A00014493C
:103390008968096808622FE011480069082821D16E
:1033A0000F4880680068006A20F420600C49896832
:1033B0000968086220E085E11C120020C80E002088
:1033C000E811002008120020F41100203012002023
:1033D00048120020701200207C120020C011002032
:1033E000E80E0020FD4880680068006A20F4204054
:1033F000FA49896809680862F848006958B9F748C5
:1034000080680068006A40F00200F4498968096831
:10341000086228E028E0F148006904280AD1EF4852
:1034200080680068006A40F02000EC4989680968FB
:10343000086218E0E948006908280AD1E74880686E
:103440000068006A40F40070E4498968096808620D
:1034500009E0E24880680068006A40F40050DF49F3
:103460008968096808621BE30020DD49C880DB4ADF
:103470001169906801F080F8DA49C860DA49C868D3
:1034800008F0D1FB41EC1A0BD649C968D74AD2687B
:10349000891AD74AD26842F2107303FB021008F06F
:1034A000C2FB41EC1C0B53EC1C2B9FEDD20B51ECDF
:1034B000100B08F0C7F941EC1B0B53EC1A2B08F06A
:1034C00019FC41EC190BCD4890ED061BB0EE410AFA
:1034D000F0EE610A53EC102B51EC190B08F0FEF8DA
:1034E000C64AC2E90601C648C088401C00B2C449A9
:1034F000C88000BFB948006950B9B8488068006802
:10350000006A20F00A00B54989680968086227E066
:10351000B248006904280AD1B04880680068006A8F
:1035200020F0A000AD4989680968086218E0AB483E
:10353000006908280AD1A94880680068006A20F458
:103540002060A64989680968086209E0A348806884
:103550000068006A20F42040A04989680968086270
:103560009E48006940B99D4880680068006A9B4990
:1035700089680968086221E098480069042808D130
:10358000964880680068006A9449896809680862FA
:1035900014E092480069082808D1904880680068C3
:1035A000006A8E4989680968086207E08B4880686C
:1035B0000068006A894989680968086200BF904903
:1035C000B1F9060008F02FFB41EC190B9FED8D0BB4
:1035D00053EC102B08F08EFA73D18C48C068A8B950
:1035E00001208A49C860854890ED061BB0EE410A6B
:1035F000F0EE610A9FED831B53EC112B51EC100B85
:1036000008F020F9824AC2E906014CE07B4890EDBF
:10361000061BB0EE410AF0EE610A9FED7A1B53ECF7
:10362000112B51EC100B08F00DF941EC180B7848F8
:1036300090ED061BB0EE410AF0EE610A53EC102B40
:1036400051EC180B08F04AF841EC1A0BB0EE4A0A9C
:10365000F0EE6A0A03F0BCFAB0EE409AF0EE609A1F
:103660009FED6C0B53EC102B51EC190B08F006FB83
:1036700019D3674890ED061BB0EE410AF0EE610ADF
:1036800053EC102B51EC180B08F028F841EC180BF8
:103690009FED620B53EC102B51EC180B08F0D2F895
:1036A0005B4AC2E906019FED5F0BB0EE408AF0EE87
:1036B000608A00205249C8809FED5A0B4F4880ED28
:1036C000060BEDE159488068A042FAD1217F5748A6
:1036D000007B8142F5D142480089C0BB01204049AE
:1036E0000881524A1169906800F046FF3F4908611D
:1036F00000203F4908614D4A91881068FDF722FF7C
:1037000018B901203849086103E04FF0FF3036490D
:10371000086100BF4548006950B9444880680068A6
:10372000006A20F00A00414989680968086228E0B7
:103730003E48006904280BD13C4880680068006A54
:1037400020F0A000394989680968086219E07AE028
:103750003648006908280AD1344880680068006A41
:1037600020F42060314989680968086209E02F481F
:1037700080680068006A20F420402C498968096844
:1037800008622A48006950B9284880680068006AC1
:1037900040F00200254989680968086252E0234820
:1037A000006904280AD1214880680068006A40F056
:1037B00020001E4989680968086243E01B480069C7
:1037C000082835D1194880680068006A40F4007004
:1037D000164989680968086234E00000E80E002094
:1037E000E8110020081200201C120020F411002013
:1037F0003012002000000000006AF840481200204B
:103800007012002000000000000024407C12002004
:10381000C011002000000000000034400000000043
:10382000000000400000000000000000080F002021
:10383000BF4880680068006A40F40050BC4989684D
:10384000096808622CE10020BA490881B84A116968
:10385000906800F091FEB8490861B849086908F01D
:10386000E2F941EC1A0BB4490969B54A1269891A9F
:10387000B44A126942F2107303FB021008F0D3F944
:1038800041EC1C0B53EC1C2B1FED260B51EC100BC9
:1038900007F0D8FF41EC1B0B53EC1A2B08F02AFA67
:1038A00041EC190BA84890ED081BB0EE410AF0EE70
:1038B000610A53EC102B51EC190B07F00FFFA24AD1
:1038C000C2E90801A1480089401C00B29F49088153
:1038D00000BF9748006950B9954880680068006A41
:1038E00020F00A00924989680968086227E0904838
:1038F000006904280AD18E4880680068006A20F0B8
:10390000A0008B4989680968086218E08848006946
:1039100008280AD1864880680068006A20F4206080
:10392000834989680968086209E0814880680068FD
:10393000006A20F420407E498968096808627C4852
:10394000006940B97A4880680068006A78498968E7
:103950000968086221E076480069042808D17448A3
:1039600080680068006A724989680968086214E022
:103970006F480069082808D16D4880680068006AAF
:103980006B4989680968086207E0694880680068CF
:10399000006A674989680968086200BF6B49B1F924
:1039A000080008F040F941EC190B1FED6A0B53ECCD
:1039B000102B08F09FF873D165480069A8B9012061
:1039C00063490861604890ED081BB0EE410AF0EED3
:1039D000610A1FED741B53EC112B51EC100B07F017
:1039E00031FF5C4AC2E908014CE0574890ED081BE2
:1039F000B0EE410AF0EE610A1FED7E1B53EC112B75
:103A000051EC100B07F01EFF41EC180B514890EDE4
:103A1000081BB0EE410AF0EE610A53EC102B51EC9A
:103A2000180B07F05BFE41EC1A0BB0EE4A0AF0EE01
:103A30006A0A03F0CDF8B0EE409AF0EE609A1FEDFE
:103A40008B0B53EC102B51EC190B08F017F919D311
:103A5000404890ED081BB0EE410AF0EE610A53ECCD
:103A6000102B51EC180B07F039FE41EC180B1FED31
:103A7000950B53EC102B51EC180B07F0E3FE354A75
:103A8000C2E908011FED990BB0EE408AF0EE608AA2
:103A900000202E4908811FED9D0B2B4880ED080B5F
:103AA0002D480068401C2C49086008460068B0F5A5
:103AB000C87F39D10020086001251BE0254800EBB4
:103AC000C50090ED001BB0EE410AF0EE610A03F074
:103AD0007FF8B0EE409AF0EE609A204890ED000B2F
:103AE00053EC102B51EC190B07F0F8FD1B4A03C2E5
:103AF000681CC5B2042DE1DD9FED190B53EC102BB2
:103B0000164890ED000B51EC100B07F09BFE41ECBA
:103B1000190B154890ED000B53EC102B51EC190BC1
:103B200007F0DCFD104A03C2BDEC0A8B70BD00003B
:103B3000080F0020E8110020081200201C120020AD
:103B4000F4110020301200204812002070120020D2
:103B50007C120020C0110020B8010020B00100201C
:103B60000000000000001040A80100202DE9F041F5
:103B700004460D46164600BF94F83C00012802D1C9
:103B80000220BDE8F081012084F83C0000BF96B916
:103B9000EB68D5E90012206802F0AEFA206880696F
:103BA00020F00C002168886120688069A9680843BA
:103BB000216888613DE0042E13D1EB68D5E900123D
:103BC000206802F0F5FA2068806920F440602168DE
:103BD000886120688069A96840EA012021688861BD
:103BE00027E0082E12D1EB68D5E90012206802F018
:103BF000FCFA2068C06920F00C002168C8612068C8
:103C0000C069A96808432168C86112E0EB68D5E97A
:103C10000012206802F005FB2068C06920F44060B3
:103C20002168C8612068C069A96840EA012021684C
:103C3000C86100BF002084F83C0000BF00BFA0E7BF
:103C400010B504460CB9012010BD94F83D0028B908
:103C5000002084F83C00204600F02AF8022084F876
:103C60003D00211D206802F06BF8012084F8480017
:103C700000BF84F83E0001213F200155402001553E
:103C800041200155422001554320015500BF00BF8E
:103C9000012084F844004520015546200155472065
:103CA000015500BF012084F83D000020CCE7000052
:103CB00010B586B00446142101A8FCF72BFE454937
:103CC000206888424DD100BF4348006840F00200A0
:103CD000414908600846006800F00200009000BFFB
:103CE00000BF00BF3C481038006840F001003A496E
:103CF000103908600846006800F00100009000BF1D
:103D000000BF00BF0846006840F002000860084697
:103D1000006800F00200009000BF00BF402001904A
:103D2000022002900020039004900220059001A937
:103D30002A48FDF7FBFA01200190022002900020A2
:103D4000039004900220059001A92548FDF7EEFAA2
:103D5000002206211D20FDF79BFC1D20FDF788FC9D
:103D600036E020492068884232D100BF1A480068F6
:103D700040F00800184908600846006800F0080094
:103D8000009000BF00BF00BF13481038006840F02B
:103D900001001149103908600846006800F0010070
:103DA000009000BF00BF052001900220029000207B
:103DB000039004900220059001A90848FDF7B6FA87
:103DC000002206213220FDF763FC3220FDF750FC73
:103DD00006B010BD00040040403802400000024020
:103DE00000040240000C00402DE9F04104460D465D
:103DF00015B994F83E0015E0042D02D13F20005D76
:103E000010E0082D02D14020005D0BE00C2D02D106
:103E10004120005D06E0102D02D14220005D01E04E
:103E20004320005D074615B994F844000BE0042DCB
:103E300002D14520005D06E0082D02D14620005D3C
:103E400001E04720005D8046012F02D1B8F1010F4B
:103E500002D00120BDE8F0811DB9022084F83E00A7
:103E60001AE0042D03D102213F20015514E0082D52
:103E700003D10221402001550EE00C2D03D1022177
:103E80004120015508E0102D03D1022142200155A7
:103E900002E00221432001551DB9022084F84400AC
:103EA0000EE0042D03D102214520015508E0082D24
:103EB00003D102214620015502E00221472001558D
:103EC00035B1042D0BD0082D10D00C2D1CD114E0D1
:103ED0002068C06840F002002168C86015E02068D2
:103EE000C06840F004002168C8600EE02068C06827
:103EF00040F008002168C86007E02068C06840F012
:103F000010002168C86000E000BF00BF0122294600
:103F1000206801F081FF1C49206888421BD020687E
:103F2000B0F1804F17D019492068884213D0184942
:103F3000206888420FD01749206888420BD0164964
:103F40002068884207D015492068884203D0144968
:103F50002068884210D120688068124900EA010672
:103F6000062E0FD0B6F5803F0CD02068006840F0D8
:103F700001002168086005E02068006840F0010049
:103F800021680860002065E700000140000400404F
:103F900000080040000C00400004014000400140C7
:103FA000001800400700010010B5044620680069B1
:103FB000C0F34000D8B12068C068C0F34000B0B181
:103FC0006FF0020021680861012020772068806975
:103FD00000F0030018B12046FEF7D6FD05E02046AC
:103FE00000F02CF9204600F016FA00202077206817
:103FF0000069C0F38000D8B12068C068C0F38000B9
:10400000B0B16FF0040021680861022020772068B9
:10401000806900F4407018B12046FEF7B5FD05E058
:10402000204600F00BF9204600F0F5F9002020773B
:1040300020680069C0F3C000D8B12068C068C0F330
:10404000C000B0B16FF0080021680861042020773B
:104050002068C06900F0030018B12046FEF794FD07
:1040600005E0204600F0EAF8204600F0D4F90020F0
:10407000207720680069C0F30010D8B12068C068BC
:10408000C0F30010B0B16FF0100021680861082083
:1040900020772068C06900F4407018B12046FEF710
:1040A00073FD05E0204600F0C9F8204600F0B3F9A2
:1040B000002020772068006900F0010058B12068D6
:1040C000C06800F0010030B16FF0010021680861A4
:1040D000204600F043FA20680069C0F3C01058B1D0
:1040E0002068C068C0F3C01030B16FF08000216854
:1040F00008612046FEF7C5FA20680069C0F3002079
:1041000058B12068C068C0F3C01030B16FF480703F
:10411000216808612046FEF7B3FA20680069C0F301
:10412000801058B12068C068C0F3801030B16FF0C3
:10413000400021680861204600F037FA20680069D5
:10414000C0F3401058B12068C068C0F3401030B1CF
:104150006FF02000216808612046FEF793FA10BD39
:1041600010B586B00446142101A8FCF7D3FB2E49F4
:10417000206888421CD100BF2C48006840F0100025
:104180002A4908600846006800F01000009000BF4F
:1041900000BF4FF4D4400190022002900020039011
:1041A00004900120059001A92148FDF7BFF839E0EE
:1041B0002068B0F1804F35D100BF1C48006840F046
:1041C00001001A4908600846006800F001000090EC
:1041D00000BF00BF00BF0846006840F00200086052
:1041E0000846006800F00200009000BF00BF2020D9
:1041F000019002200290002003900490012005907D
:1042000001A90C48FDF792F840F608400190022001
:1042100002900020039004900120059001A9064817
:10422000FDF784F806B010BD0000014030380240B0
:10423000001002400000024000040240704770B5C8
:1042400004460D46164600BF94F83C00012801D1F3
:10425000022070BD012084F83C0000BF0C2E51D01C
:1042600005DC4EB1042E1ED0082E7AD133E0102E7C
:1042700060D0142EF9D175E02946206801F0F2FDD6
:104280002068806940F008002168886120688069A2
:1042900020F004002168886120688069296908434A
:1042A0002168886177E02946206801F015FE2068C2
:1042B000806940F40060216888612068806920F48A
:1042C00080602168886120688069296940EA01204E
:1042D000216888615FE02946206801F03DFE206882
:1042E000C06940F008002168C8612068C06920F0FA
:1042F00004002168C8612068C069296908432168F1
:10430000C86148E02946206801F064FE2068C06961
:1043100040F400602168C8612068C06920F48060B2
:104320002168C8612068C069296940EA01202168C4
:10433000C86130E02946206801F078FE2068406DB1
:1043400040F00800216848652068406D20F00400B6
:10435000216848652068406D2969084321684865DF
:1043600019E017E02946206801F088FE2068406DBA
:1043700040F40060216848652068406D20F480604A
:10438000216848652068406D296940EA012021685C
:10439000486500E000BF00BF00BF002084F83C007B
:1043A00000BF00BF55E710B504460CB9012010BD91
:1043B00094F83D0028B9002084F83C00204600F025
:1043C00029F8022084F83D00211D206801F0B8FC86
:1043D000012084F8480000BF84F83E0001213F20FE
:1043E00001554020015541200155422001554320EF
:1043F000015500BF00BF012084F84400452001554D
:10440000462001554720015500BF012084F83D009A
:104410000020CCE77047704770B504460D4615B9CB
:1044200094F83E0015E0042D02D13F20005D10E01D
:10443000082D02D14020005D0BE00C2D02D141205F
:10444000005D06E0102D02D14220005D01E0432016
:10445000005D012801D0012070BD1DB9022084F843
:104460003E001AE0042D03D102213F20015514E043
:10447000082D03D10221402001550EE00C2D03D15F
:1044800002214120015508E0102D03D102214220D4
:10449000015502E0022143200155012229462068EE
:1044A00001F0BAFC25492068884203D024492068DD
:1044B000884201D1012000E0002028B12068406C32
:1044C00040F40040216848641C49206888421BD0A1
:1044D0002068B0F1804F17D01A492068884213D065
:1044E0001949206888420FD01849206888420BD0AB
:1044F00013492068884207D015492068884203D0B4
:1045000014492068884210D120688068124900EA66
:104510000106062E0FD0B6F5803F0CD0206800684B
:1045200040F001002168086005E02068006840F064
:1045300001002168086000208EE7000000000140B3
:10454000000401400004004000080040000C00404E
:1045500000400140001800400700010010B504466B
:10456000204601F0E9F903492068884201D1FCF7AF
:10457000FDFF10BD001400400246002031B10429A7
:1045800007D0082908D00C290CD108E01368586B13
:1045900009E01368986B06E01368D86B03E01368B2
:1045A000186C00E000BF00BF70477047704770474D
:1045B0002DE9F04704462068C56920680668206830
:1045C000876840F60F0005EA0009B9F1000F0CD129
:1045D00005F0200048B106F0200030B1606E10B147
:1045E0002046616E8847BDE8F087B9F1000F7DD0A5
:1045F00007F0010018B9954830400028F7D005F0C1
:10460000010058B106F4807040B1012021680862B1
:10461000D4F8800040F00100C4F8800005F00200EA
:1046200058B107F0010040B1022021680862D4F8B7
:10463000800040F00400C4F8800005F0040058B188
:1046400007F0010040B1042021680862D4F880001E
:1046500040F00200C4F8800005F0080070B106F0D8
:10466000200010B907F0010040B10820216808625D
:10467000D4F8800040F00800C4F8800005F4006021
:1046800060B106F0806048B14FF4006021680862B4
:10469000D4F8800040F02000C4F88000D4F88000F6
:1046A00090B305F0200038B106F0200020B1606E14
:1046B00010B12046616E8847D4F880A020688068D9
:1046C00000F04000402802D00AF0280028B320461D
:1046D00001F07CFF2068806800F04000402818D17D
:1046E0002068806820F04000216800E01CE08860BD
:1046F000206F50B15648216F0865206FFCF7F7FB1B
:1047000010B1206F016D88470DE02046FFF74FFF85
:1047100009E02046FFF74BFF05E02046FFF747FF83
:104720000020C4F880005EE7206E012875D105F0F6
:104730001000002871D006F0100000286DD0102065
:10474000216808622068806800F0400040283BD162
:10475000206F006840681FFA80F8B8F1000F32D06F
:10476000B4F8580040452EDDA4F85A80206FC06987
:10477000B0F5807F1ED02068006820F4807021682A
:1047800008602068806820F0010021688860206847
:10479000806820F04000216888602020E0670020C9
:1047A00020662068006820F0100021680860206FF3
:1047B000FCF748FBB4F85800B4F85A20801A81B2CC
:1047C0002046FFF7F3FE0EE734F8580F6188401AD1
:1047D0001FFA80F86088583CE8B1B8F1000F1AD091
:1047E0002068006820F49070216808602068806864
:1047F00020F00100216888602020E067002020660A
:1048000060662068006820F010002168086041465A
:104810002046FFF7CBFEE6E6FFE705F0800040B15B
:1048200006F0800028B1A06E10B12046A16E884726
:10483000D9E605F0400030B106F0400018B120463E
:1048400001F0DFFECFE600BFCDE60000200100044E
:10485000D164000810B504460CB9012010BDA06950
:1048600000B100E000BFA06F28B9002084F87400F8
:10487000204600F029F82420A0672068006820F076
:10488000010021680860204601F0D4FE012800D113
:10489000E4E7606A10B1204601F078FD20684068C6
:1048A00020F49040216848602068806820F02A0049
:1048B000216888602068006840F001002168086075
:1048C000204601F0DFFDC9E710B586B0044614218B
:1048D00001A8FCF71FF8FE492068884235D100BFC7
:1048E000FC48006840F40020FA4908600846006867
:1048F00000F40020009000BF00BF00BFF548103852
:10490000006840F00400F349103908600846006868
:1049100000F00400009000BF00BF4FF44060019021
:1049200002200290002003900320049008200590AC
:1049300001A9E948FCF7FAFC002205213420FCF724
:10494000A7FE3420FCF794FE02E2E4492068884286
:104950004FD100BFDF48006840F48010DD49086097
:104960000846006800F48010009000BF00BF00BF40
:10497000D8481038006840F00400D6491039086063
:104980000846006800F00400009000BF00BF00BFB0
:104990000846006840F0080008600846006800F01B
:1049A0000800009000BF00BF881401900220029010
:1049B00000200390032004900820059001A9C64818
:1049C000FCF7B4FC04200190022002900020039028
:1049D000032004900820059001A9C148FCF7A6FC1B
:1049E000002206213520FCF753FE3520FCF740FE5F
:1049F000AEE1BC49206888422DD100BFB5480068AF
:104A000040F08040B34908600846006800F08040EC
:104A1000009000BF00BF00BFAE481038006840F0F3
:104A20001000AC49103908600846006800F010001A
:104A3000009000BF00BF4FF4C070019002200290B0
:104A400000200390032004900820059001A9A648A7
:104A5000FCF76CFC7CE1A549206888422CD100BFA2
:104A60009C48006840F000409A4908600846006889
:104A700000F00040009000BF00BF00BF9548103814
:104A8000006840F01000934910390860084600683B
:104A900000F01000009000BF00BF03200190022032
:104AA000029000200390032004900820059001A9A3
:104AB0008D48FCF73BFC4BE18D492068884237D19B
:104AC00000BF8448001D006840F010008149091DA6
:104AD00008600846006800F01000009000BF00BFAA
:104AE00000BF7C481038006840F001007949103957
:104AF00008600846006800F00100009000BF00BF99
:104B00004FF4C06001900220029000200390032027
:104B100004900720059001A97648FCF707FC0022C5
:104B200005212520FCF7B4FD2520FCF7A1FD0FE1B0
:104B300071492068884254D100BF6648006840F43B
:104B40000030644908600846006800F400300090B6
:104B500000BF00BF00BF5F481038006840F0080089
:104B60005C49103908600846006800F008000090B1
:104B700000BF00BF6020019002200290002003903F
:104B8000032004900720059001A95548FCF7CEFBAF
:104B90005A485B4908604FF000604860002158485F
:104BA0008160C1604FF480610161002141618161D8
:104BB000C1614FF40031016200214162FCF7CCFA7F
:104BC00008B1FCF74FF800BF4D482067846300BF71
:104BD000002206212620FCF75BFD2620FCF748FD7D
:104BE000B6E048492068884235D100BF394800689E
:104BF00040F48020374908600846006800F48020AF
:104C0000009000BF00BF00BF32481038006840F07D
:104C100008003049103908600846006800F00800B4
:104C2000009000BF00BF4FF440700190022002903E
:104C300000200390032004900720059001A9284834
:104C4000FCF774FB002205212720FCF721FD27201B
:104C5000FCF70EFD7CE02C492068884278D100BF2B
:104C60001C48001D006840F020001A49091D08601A
:104C70000846006800F02000009000BF00BF00BFA1
:104C800014481038006840F00400124910390860D8
:104C90000846006800F00400009000BF00BFC0207C
:104CA000019002200290002003900320049008202D
:104CB000059001A90848FCF739FB1448144908601D
:104CC00080054860002112488160C16022E0000038
:104CD000004C0040403802400008024000500040B4
:104CE000000C02400078004000100240007C0040B0
:104CF0000010014000000240004400408860024073
:104D0000A40B002000480040001401402864024029
:104D1000040C00204FF48061016100214161816138
:104D2000C1614FF40031016200214162FCF714FAC5
:104D300008B1FBF797FF00BF06482067846300BFF8
:104D4000002206214720FCF7A3FC4720FCF790FC3B
:104D500006B010BD040C002070B504460D46164682
:104D6000E06F202821D105B10EB9012070BD00BF30
:104D700094F87400012801D10220F7E7012084F89B
:104D8000740000BF002020662068406800F4000026
:104D900028B12068006840F08060216808603246D1
:104DA0002946204601F0E4FDE0E70220DEE70000AE
:104DB00010B504460648844202D104F02FF905E0FC
:104DC00004480068A04201D100F00AF810BD0000BC
:104DD000180A0020300000207047704700BFFEE72F
:104DE00010B50024002309E00949C85C02F066FE02
:104DF00010B1084801F036FF581CC3B20B2BF3DB8F
:104E000005490B2208680249FFF7A6FF10BD000004
:104E1000110D0020F00C00203000002010B500BF64
:104E2000012003F08BFAFBE710B504460AE198482D
:104E3000006801284DD197480068002849DD00200E
:104E4000954981F840000120944981F84000944937
:104E500081F840000020C87000BF9148C0788D499B
:104E60000988081A00B28F4908800846008848B9A6
:104E700000221146642004F073F84FF4FA7003F036
:104E80005DFAE0E08748B0F90000C0EB0010C00018
:104E9000B0F5C87F02DD4FF4C87005E08148B0F975
:104EA0000000C0EB0010C0007F49086009687D4A1F
:104EB000B2F9002001FB02F00022114604F050F884
:104EC000052003F03BFA7748B0F900000028C4DA67
:104ED000B8E06F480068012854D16E480068002887
:104EE00050DA00206C4981F8400001206B4981F8BC
:104EF00040006B4981F8400000206849C87000BF3D
:104F000064480068002802DD6248006802E06148E9
:104F1000006840426149C978401A00B2614908807E
:104F20000846008850B9002211466FF0630004F073
:104F300017F84FF4FA7003F001FA84E05948B0F919
:104F40000000C0EB0010C000B0F5C87F02DD4FF4D8
:104F5000C87005E05348B0F90000C0EB0010C00075
:104F600051490860002211464F480068404203F052
:104F7000F7FF052003F0E2F94A48B0F900000028E5
:104F8000BEDA5FE04248006802285BD10120424956
:104F900081F840000020414981F84000404981F8F3
:104FA00040003C480068002802DAB42003F040FFCB
:104FB00000203949C87000BF36480068002802DD6B
:104FC0003448006802E03348006840423249C978FA
:104FD000401A00B2334908800846008880B9002290
:104FE0006421104603F0BCFF02E0052003F0A6F99F
:104FF0002A48407818B92A4840780028F5D022E09D
:105000002848B0F90000C0EB0010C000B0F5C87F20
:1050100002DD4FF4C87005E02248B0F90000C0EB93
:105020000010C000204908600022084601681046B0
:1050300003F096FF052003F081F91A48B0F900004B
:105040000028B9DAF3E600221146104603F088FF83
:105050000120114981F84000104981F840001049B1
:1050600081F840004FF4FA6003F068F900200A4923
:1050700081F84000094981F84000094981F8400061
:105080000A48006805F072FB00200849086010BD5E
:10509000C8010020CC010020581000209C100020E6
:1050A000E0100020D8010020D4010020D001002011
:1050B00000B51C4890F82000022831DA1948006831
:1050C0000068406AC2B2FF2A0AD1164890F8200050
:1050D00030B90120134981F820000020C87700BDB5
:1050E000104890F82000012819D1992A06D10220F1
:1050F0000C4981F8200000F017F810E00948C17F42
:10510000C07F401C074BD87703F10B0042540B388B
:10511000C07F142803D10020194681F8200000BF69
:1051200000BFDCE7500000200D48007B012802D1C1
:105130000C49086003E04FF0FF300A490860084856
:10514000417B807B01EB0020064909684843064902
:10515000086000200249C87781F8200070470000ED
:1051600050000020780000204C00002008B500BF4F
:105170001548006840F400101349086008460068AC
:1051800000F40010009000BF00BF00BF0846006898
:1051900040F4800008600846006800F48000009039
:1051A00000BF00BF002206211020FCF771FA10207A
:1051B000FCF75EFA002206213920FCF769FA392053
:1051C000FCF756FA08BD00003038024000B5B5B013
:1051D000304B0FCBCDE93323CDE93101002131A88C
:1051E00003F0BDF82C4908601C222A4910312AA876
:1051F000FBF731FB00212AA803F0C5F82749086016
:105200001C2224492C3123A8FBF725FB002123A8CD
:1052100003F0B9F8224908601C221E4948311CA835
:10522000FBF719FB00211CA803F0ADF81D4908602D
:105230001C221849643115A8FBF70DFB002115A8A5
:1052400003F0A1F8184908601C22124980310EA809
:10525000FBF701FB00210EA803F095F81349086045
:105260001C220C499C3107A8FBF7F5FA002107A87E
:1052700003F089F80E4908601C220649B8316846D7
:10528000FBF7E9FA0021684603F07DF80949086058
:1052900035B000BD40C200081C0000200000002006
:1052A00004000020080000200C0000201000002056
:1052B000140000201800002000B587B0142102A8B7
:1052C000FBF728FB00BF4348006840F080004149DD
:1052D00008600846006800F08000019000BF00BF31
:1052E00000BF0846006840F00100086008460068FA
:1052F00000F00100019000BF00BF00BF0846006839
:1053000040F0020008600846006800F002000190CA
:1053100000BF00BF00BF0846006840F010000860F2
:105320000846006800F01000019000BF00BF00BFF9
:105330000846006840F0080008600846006800F071
:105340000800019000BF00BF00BF0846006840F0A1
:10535000040008600846006800F00400019000BFE7
:1053600000BF002289141C48FCF7F4F88A20029040
:1053700000200390049002A91848FBF7D7FF0220F1
:10538000029000200390049002A91348FBF7CEFF7F
:105390004FF480500290012003900020049005906B
:1053A00002A90D48FBF7C2FF4FF4005002900C48D1
:1053B00003900020049002A90748FBF7B7FF0022E2
:1053C00006212820FCF764F92820FCF751F907B0E2
:1053D00000BD0000303802400004024000000240DE
:1053E0000000111000B599B000201590169017908C
:1053F00018901290139014901C210BA8FBF78AFAB6
:105400002C216846FBF786FA3A483B49086015208C
:10541000486000213848816042F20F71C16000216C
:10542000016141618161FDF7EFF908B1FBF71AFCF9
:105430004FF48050159015A92F48FDF71FFB08B1B8
:10544000FBF710FC2C48FEF7AEFF08B1FBF70AFC97
:10545000002012901390149012A92748FDF76EF9BE
:1054600008B1FBF7FFFB60200B9000200C900D9023
:105470000E900F901090119000220BA91E48FEF77D
:10548000DEFE08B1FBF7EEFB04220BA91A48FEF77B
:10549000D6FE08B1FBF7E6FB08220BA91648FEF77B
:1054A000CEFE08B1FBF7DEFB0C220BA91248FEF77B
:1054B000C6FE08B1FBF7D6FB0020009001900290D9
:1054C000039004904FF40050059000200690079040
:1054D0004FF000700890002009900A906946064835
:1054E000FDF7D2F808B1FBF7BDFB0348FEF738FE25
:1054F00019B000BD000001400806002000B58FB0C3
:1055000000200B900C900D900E90089009900A903E
:105510001C2101A8FBF7FEF94FF080402B490860E1
:105520000A20486000212948816042F20F71C16061
:10553000002101618161FDF767F908B1FBF792FB7A
:105540004FF480500B900BA92048FDF797FA08B153
:10555000FBF788FB1D48FEF726FF08B1FBF782FB2F
:10556000002008900A9008A91848FDF7E7F808B14C
:10557000FBF778FB602001900020029003900590DB
:10558000002201A91148FEF75AFE08B1FBF76AFB99
:10559000042201A90D48FEF752FE08B1FBF762FB99
:1055A000082201A90948FEF74AFE08B1FBF75AFB99
:1055B0000C2201A90548FEF742FE08B1FBF752FB99
:1055C0000248FEF7CDFD0FB000BD000054060020DC
:1055D00000B587B0002004900590069000900190DF
:1055E000029003901A481B4908606B204860002114
:1055F0001848816042F20F71C16000210161816130
:10560000FEF71EFB08B1FBF72DFB0020049006906F
:1056100004A91048FDF792F808B1FBF723FB00201E
:105620000090012001900020029003900022694622
:105630000848FEF79BFA08B1FBF714FB08226946FD
:105640000448FEF793FA08B1FBF70CFB07B000BD66
:1056500000040040A006002000B587B000200490A0
:105660000590069000900190029003901A481B4903
:1056700008606B20486000211848816042F20F7179
:10568000C160002101618161FEF7DAFA08B1FBF720
:10569000E9FA00200490069004A91048FDF74EF89E
:1056A00008B1FBF7DFFA00200090012001900020F4
:1056B00002900390002269460848FEF757FA08B1A5
:1056C000FBF7D0FA082269460448FEF74FFA08B102
:1056D000FBF7C8FA07B000BD000C0040EC06002044
:1056E0000EB500200090019002900E480E4908600F
:1056F0006B20486000210C48816042F20F71C1604C
:1057000000218161FDF780F808B1FBF7ABFA0020BA
:105710000090029069460448FDF710F808B1FBF7C5
:10572000A1FA0EBD001000403807002010B50D484A
:105730000D4908604FF4E130486000210A4881605B
:10574000C16001610C21416100218161C16101627F
:105750000020054948620846FFF77CF808B1FBF7CE
:1057600081FA10BD004C00408407002010B50E489F
:105770000E4908604FF4E130486000210B48816019
:10578000C16001610C21416100218161C16101623F
:10579000102006494862010204488163FFF75AF865
:1057A00008B1FBF75FFA10BD005000400808002068
:1057B00010B50D480D4908604FF4E13048600021F4
:1057C0000A488160C16001610C2141610021816151
:1057D000C16101620020054948620846FFF73AF8B6
:1057E00008B1FBF73FFA10BD007800408C0800209C
:1057F00010B50D480D4908604FF4E13048600021B4
:105800000A488160C16001610C2141610021816110
:10581000C16101620020054948620846FFF71AF895
:1058200008B1FBF71FFA10BD007C004010090020F2
:1058300010B50E480E4908604FF4E1304860002171
:105840000B488160C16001610C21416100218161CF
:10585000C161016210200649486201020448816367
:10586000FEF7F8FF08B1FBF7FDF910BD001001408D
:105870009409002010B50E480E4908604FF4E1303D
:10588000486000210B488160C16001610C214161C9
:1058900000218161C1610162102006494862010254
:1058A00004488163FEF7D6FF08B1FBF7DBF910BDB2
:1058B00000440040180A002010B50D480D4908604A
:1058C0004FF4E130486000210A488160C160016105
:1058D0000C21416100218161C16101620020054903
:1058E00048620846FEF7B6FF08B1FBF7BBF910BDEA
:1058F000004800409C0A002010B50D480D49086082
:105900004FF4E130486000210A488160C1600161C4
:105910000C21416100218161C161016200200549C2
:1059200048620846FEF796FF08B1FBF79BF910BDE9
:1059300000140140200B0020204A016891421CD134
:105940001F494968491C1E4A5160032906DB002192
:1059500051609FED1C0B1D4981ED020B18498968B0
:10596000491C174A9160032927DB002191609FEDB4
:10597000150B164981ED040B1FE0154A0168914291
:105980001BD10F49C968491C0D4AD160032906DBA8
:105990000021D1609FED0B0B0C4981ED060B0849EE
:1059A0000969491C064A1161032906DB00211161BE
:1059B0009FED040B054981ED080B70470004004082
:1059C000301200200000000000000000C011002084
:1059D000000C004000BFFEE70F4890ED000A0F48A2
:1059E00080ED000A0C4890ED010A0C4880ED040A95
:1059F000094890ED020A094880ED010A064890ED39
:105A0000030A064880ED020A034890ED040A0348A1
:105A100080ED030A70470000FC000020940E002077
:105A200000BFFEE710B526488079264909788842EC
:105A30003CD12348C07923494978884236D120484F
:105A4000007A20498978884230D11D48407A1D4922
:105A5000C97888422AD11A48C07A1B4909788842F5
:105A600024D11748007B1849497888421ED1144830
:105A7000407B15498978884218D11148807B1249AA
:105A8000C978884212D10E48807A522803D1012069
:105A90000B4988760AE00A48807A422803D102201E
:105AA0000749887602E000200549887600200449ED
:105AB0000871487114210248801DFAF709FF10BDD2
:105AC000840000207C0000208000002010B51248D7
:105AD00000680068C06900F0200020281BD10E4833
